:1010000080A000204D5D000083480200395D000093
:10101000395D0000395D0000395D0000000000000E
:10102000000000000000000000000000695E0000F9
:10103000395D000000000000CD5D0000395D00005A
:10104000FD6000005D820100FD600000FD600000A9
:10105000FD600000FD600000FD600000FD6000001C
:10106000FD600000FD600000FD600000FD6000000C
:10107000FD600000FD600000FD600000FD600000FC
:10108000FD600000FD600000FD600000FD600000EC
:10109000FD600000FD600000FD600000FD600000DC
:1010A000FD600000FD600000FD600000FD600000CC
:1010B000FD600000FD600000FD600000FD600000BC
:1010C000FD600000FD600000FD600000FD600000AC
:1010D000FD600000FD600000FD600000FD6000009C
:1010E000FD600000FD600000FD600000FD6000008C
:1010F000FD600000FD600000FD600000FD6000007C
:1011000053B94AB9002908BF00281CBF4FF0FF316E
:101110004FF0FF3000F00CB8ADF1080C6DE904CED3
:1011200000F022F8DDF804E0DDE9022304B07047A6
:10113000704700BF10F8012B11F8013B012A28BFAE
:101140009A42F7D0D01A7047034611F8012B03F8E2
:10115000012B002AF9D17047034613F8012B002A0E
:10116000FBD1181A013870472DE9F04786468C46A6
:101170000846089E154674461946002B40F0C2806A
:101180008542B2FA82F245D94AB1C2F1200300FA8F
:1011900002FC2EFA03F3954043EA0C0C94404FEA0C
:1011A000154EA8B2BCFBFEF8230C0EFB18CC08FBB6
:1011B00000F943EA0C43994528D9EB1808F1FF37A9
:1011C00004D2994502D9A8F102072B44A3EB0903E5
:1011D000A4B2B3FBFEFC0EFB1C330CFB00F044EA94
:1011E0000344A04214D92C190CF1FF3304D2A042BD
:1011F00002D9ACF102032C44241A43EA07401EB181
:10120000D440002334607360BDE8F0874746DDE7D3
:101210006346F1E792BB431B01214FEA154EAFB283
:10122000B3FBFEFC200C0EFB1C330CFB07F840EA62
:101230000343984562D9EB180CF1FF3004D298456E
:1012400002D9ACF102002B44A3EB0803A4B2B3FB18
:10125000FEFC0EFB1C330CFB07F744EA0344A742D9
:101260004ED92C190CF1FF3304D2A74202D9ACF1AC
:1012700002032C44E41B43EA0040C0E7C2F1200310
:1012800020FA03F1954090402EFA03F303434FEA0E
:10129000154EAFB2B1FBFEFC0EFB1C10190C0CFB83
:1012A00007F841EA0041884504FA02F422D9691896
:1012B0000CF1FF3004D2884502D9ACF10200294478
:1012C000A1EB08019BB2B1FBFEFC0EFB1C110CFB59
:1012D00007F743EA01439F420ED9EB180CF1FF31A7
:1012E00004D29F4202D9ACF102012B44DB1B41EA3C
:1012F000004192E76046E3E76146F7E76046A3E70F
:101300006346B7E7834206D916B9002108467BE752
:10131000C6E900E0F9E7B3FA83F78FB9834201D356
:10132000724508D8BEEB020460EB030301209C4623
:101330001EB9002168E73846FAE7C6E9004CF8E72D
:10134000C7F1200CBB4022FA0CF41C432EFA0CF11E
:1013500020FA0CF3B84001434FEA14490EFA07F59E
:10136000B3FBF9F81FFA84FE09FB18300B0C08FBDD
:101370000EFA43EA00439A4502FA07F240D9E3180D
:1013800008F1FF3004D29A4502D9A8F102002344A3
:10139000A3EB0A0389B2B3FBF9F809FB183308FB86
:1013A0000EFE41EA03418E452CD9611808F1FF3346
:1013B00004D28E4502D9A8F10203214443EA004039
:1013C000A0FB0298A1EB0E014145CE46434602D355
:1013D00006D14D4504D2B9EB020E68EB0403013887
:1013E000002EA6D0B5EB0E0261EB030101FA0CFC56
:1013F00022FA07F34CEA0303F940C6E9003198E703
:101400004046C5E74346D9E7F7B5002101AA40F6B3
:10141000034005F0F3FE0446002869D10198C36833
:101420001B788BB9BFF35B8FB94B1A68BFF35B8F27
:1014300002F00902BFF35B8F53E8001F43E800246A
:10144000002CF9D1BFF35B8F05F002F901AA00214E
:1014500041F2030005F0D2FE0446002848D1019A6B
:10146000AC4DD168D1F80100D1F8051005F1780331
:1014700003C3104605F0ECF8214601AA41F2010031
:1014800005F0BCFE044698BB0198C3685A7885F8FD
:1014900070205A88A5F872201A7985F87120B3F85F
:1014A0000720A5F87420B3F80530A5F8763005F0CC
:1014B000CFF8214601AA41F2020005F09FFE044642
:1014C000B0B9019FFA6805F18006531C41321868D3
:1014D0005968344603C4083393422646F7D1384648
:1014E00005F0B6F895F87C305B0604D46FF0120472
:1014F000204603B0F0BD01AA002142F2030005F02E
:101500007DFE04460028F3D1019B834EDA68D2F8B1
:101510000100D2F8051003C6184605F099F82146D7
:1015200001AA42F2020005F069FE04460028DFD15C
:10153000019CE368B3F8012091B249B1D97839B17F
:10154000A5F80421DA78114606F1280028F0ACFD50
:10155000204605F07DF895F87C601F2316F02006E4
:10156000A5F8203118D1022140F66D4005F0B0FCFD
:101570000446002800F0C48002210C3023F036FA23
:101580000123037046702146324640F66D4005F057
:1015900035FE04460028ABD195F89C301F0712D5C4
:1015A00001AA002142F21C0005F028FE0446002892
:1015B0009ED10198C368D3F80120D3F80530C5E95E
:1015C000382305F045F895F8D8309E0624D50DF15E
:1015D0000201684623F06CFE0446002888D10421ED
:1015E00042F2240005F074FC0646002800F08880D2
:1015F00004210C3023F0FAF9BDF800300380BDF867
:10160000023043802246314642F2240005F0F6FDC6
:10161000044600287FF46CAF95F8D8305C0610D5EE
:1016200001AA002142F22A0005F0E8FD0446002844
:101630007FF45EAF0198C3685B7885F8223105F0CE
:1016400007F8082142F2010005F042FC0446002898
:1016500056D008210C3023F0C9F995F8D81011F0B4
:10166000400F024640F2022308BF032388074CBF05
:1016700043F02C0043F00C0095F8D9308F0648BF9A
:1016800040F0400013F0090F18BF40F40060CE078F
:1016900048BF40F01000002123F0FCFB214600224F
:1016A00042F2010005F0AAFD044600287FF420AFB5
:1016B00095F87C30B5F80411980624D4C9B901AA6C
:1016C00041F2050005F09AFD044600287FF410AFB2
:1016D000B5F80431019C4BB9E368B3F80120A5F8D3
:1016E00004219A880D48114628F0DEFC204604F0BB
:1016F000AFFF082140F6014005F0EAFB044678B947
:101700006FF06804F4E60029F3D16FF00404EFE60B
:1017100084010020B000002088010020B8010020D2
:1017200008210C3023F062F995F8D830D907024629
:1017300053BF4FF000512CA1D1E90001284823F0FC
:10174000A9FB2146002240F6014005F057FD044662
:1017500000287FF4CDAE014601AA4FF6014005F006
:101760004DFD044620BB019804F072FF214601AAFA
:101770004FF6024005F042FD0446C8B90198C3681F
:10178000B3F80130A5F8C13004F062FF95F8C1301C
:101790005B070DD501AA21464FF6034005F02EFD4B
:1017A00030B90198C3685B7885F8C03004F050FF09
:1017B00023F055FF044600287FF49AAE07F008FE98
:1017C000044600287FF494AEEB79002B3FF490AEF2
:1017D0000821044823F0C0FA05F060FC88E600BF49
:1017E0001088000284010020908800020080002000
:1017F0002DE9F843D0E90738856903EB08042F3455
:10180000A5420F46164619D8DFF87080A3FB0801E1
:1018100017A3D3E90023FFF773FC0346601BA0FB6B
:10182000080123F07F4412A3D3E90023FFF768FCEB
:1018300020F07F403C603060BDE8F883DFF83C90EA
:101840000BA3D3E90023A5FB0901FFF759FC20F006
:101850007F4409480A2106A3D3E90023E8FB0901D4
:10186000FFF74EFC20F07F403C603060BDE8F8831D
:101870008D49FD1A0700000000166BF100CA9A3B63
:101880009FED097B0E4B0F4A0F4983ED007B9FEDC7
:10189000087B82ED007B9FED087B0C4B002281EDE5
:1018A000007B1A600EF02AB8FFFFFFFFFF1F000049
:1018B00000000000000000001F0000000000000009
:1018C00040020020E02000203802002034460020A2
:1018D000002800F05F812DE9F04FB54C94F86A20A4
:1018E00012F001058DB040F0A68194F82500FF2389
:1018F00000F0030084F8263016F038F994F86A00F6
:10190000420727D494F8292094F8353004EB82025A
:1019100004EB8303D66AD3F8388086B1A4483146F5
:101920000FF0C6FD33785B0605D506210AF0AEFF41
:10193000002800F082819E4841460FF0B9FD3378BF
:1019400013F00E0F40F0B780236A93B10C200DB056
:10195000BDE8F08F2A4604F16B01C0F3C00016F019
:101960007DFAFF2884F82600CCD0284616F018F916
:10197000C8E70DF0BDFA8146002800F06C810DF03B
:10198000C3FA8246002800F0638110F099F80546FA
:10199000002800F06281D0F894004FF6FF732B8688
:1019A00005F11C0B002800F04E8105F1840105F1C2
:1019B00088020AF077FFB5F882307E4A23F4EF639D
:1019C00023F0070343F48C7343F00103A5F882303E
:1019D0001346D2F80120C5F8AB21C5F8B12113F8A0
:1019E000012B9B88A5F8AF31A5F8B53195F8AA3140
:1019F00002F0010262F3000362F3410385F8AA31A9
:101A000095F8433003F03F0363F07F0385F84330DC
:101A100095F89A3023F0070385F89A3095F8483006
:101A200023F00F03002785F848304FF4C023C5F892
:101A300098312846C5E91577C5F89470A5F89870CF
:101A400085F84570EF86C5F83A70EF65A5F89E7188
:101A5000A5F8947112F01EFA85F86071C5F86491CA
:101A600010F01AFB95F8A43160F3020385F8A43155
:101A700010F018FB95F8A43160F3C50385F8A43184
:101A800095F8903167F3410385F89031012128469C
:101A900010F062FF05F1E00011F0D4FFC4E9189ADC
:101AA000C4F820B0C5E905772F70ED6117F00AFA88
:101AB000002840F0C48094F824300121C3F342038D
:101AC0000DF12B008DF82B300BF08AF80246002820
:101AD00062D098F8011030460FF0A4FA312336494D
:101AE000A360364BB4F86870A0FB01010025C01854
:101AF00041F107012CA3D3E90023C4E90555257062
:101B00006560E560FFF7FCFA20610CF01DFB00F159
:101B100009083FB9357805F00F05A5F10105B5FABB
:101B200085F56D0994F82400236965F3000010F031
:101B3000010584F824004BD0214A0992002010604E
:101B40000225204A204F04930BAE019305920321F6
:101B5000CDE90200069443460090089607972A466E
:101B60000B950CF0F3F931460DF05CFAA0B917496A
:101B700005914AF2D8330093CDE90300CDE9010085
:101B80000797089606944346012203210B950CF013
:101B9000C1F943E00FF096B9236A002B3FF4D6AEAB
:101BA0000FF04CF9D2E600BF8D49FD1A0700000086
:101BB0006C4600207BE3020000CA9A3B8C49FD1A68
:101BC00060460020A1100100A9E20000850B010081
:101BD000274A2848049303F247130694029591215B
:101BE0001360A7FB000301FB0731234B0793234B33
:101BF00005934FF6FF730992022703930BAE1AA3C6
:101C0000D3E900230B970896FFF77AFA4346CDE90C
:101C100000503A46284603210CF098F931460DF061
:101C200001FA0028B8D194F86A300120034384F8FF
:101C30006A3015F07DFF002089E6122087E60FF05C
:101C4000FDF8032083E605F18C00C5F89400ACE6AE
:101C500048460DF053F9072079E650460DF05AF941
:101C600048460DF04BF9F6E78D49FD1A07000000D4
:101C700060460020002AE784A9E20000A1100100CC
:101C800070B590F824308AB0C3F342030D46044681
:101C900001210DF1230016468DF823300AF0A0FF34
:101CA0007178024628460FF0BDF91F491F4AA0FB74
:101CB0000131981841F1070119A3D3E90023FFF777
:101CC0001FFA23699842054621D21B1A002201926D
:101CD000174A0293174BA21AA3FB02320221920960
:101CE00000230A4409AE099113490591CDE9033354
:101CF0000321D2B20696009318460CF087F93146BC
:101D00000DF090F938B9256100200AB070BDFBD9FB
:101D1000C21A0023DBE70C200AB070BDAFF30080CD
:101D20008D49FD1A0700000000CA9A3B8C49FD1A34
:101D30006C46002089888888A9E200000000000025
:101D40002DE9F04F06468DB08A46012002219946C2
:101D5000154619F055F800220B90022101200AF0D7
:101D6000F1FD3B494FF4DC7230460AF07BFDC71CA5
:101D7000384B0093FFB201964B463A4601210020B2
:101D80000CF09EF910F0FD0F0ED0334A3349344861
:101D900040F68F0322F05CF9002383F31188BFF330
:101DA0006F8F0323184602DF2E4CA5FB044526A3A4
:101DB000D3E9002320462946FFF7A2F908960696A4
:101DC00033690493284B20F07F48A8FB0331E01AC5
:101DD000264B07934FF00702254B059302FB081192
:101DE0004FF6FE7365EB010103934FF47A72002303
:101DF000FFF786F94FF0000BCDE90180CDF800A088
:101E00004B463A46012158460CF084F810F0FD0F7D
:101E10000DD0114A1149124840F6A40322F018F9D6
:101E20008BF31188BFF36F8F0323184602DF0B9BE0
:101E300013B90DB0BDE8F08F0122022110460DB09C
:101E4000BDE8F04F0AF07EBD8D49FD1A0700000085
:101E5000E8200020611A010054C6020018C70200E1
:101E600034C1020000CA9A3B8D49FD1A011A0100D3
:101E700019700100000000002DE9F0418468228EF5
:101E80004FF6FF739A428CB045D00546204612F0BB
:101E90009FFA2B7D012B00F02281022B00F015818F
:101EA000002B00F0F48094F86061002E40F0108167
:101EB0002B8A678F94F94320CDE90A6673B3002A11
:101EC000C0F25A810023A4F89A31AA7C238FFD180E
:101ED00002F003030135012BADB23BD0B4F89E31C3
:101EE000002B00F005819D4280F059815B1B9BB265
:101EF0000022062BA4F89E31628740F2F68094F906
:101F000043309342C0F25081002326E09DF8271011
:101F1000204610F0E5F90CB0BDE8F081002AB8BF0A
:101F200084F88561238FAA7CFD1802F00303013534
:101F3000012BADB20ED0B4F89A31002BCED0AB420B
:101F400040F23C815B1BA4F89A31B4F89E31002B1F
:101F5000C9D102E00023A4F89E3194F8482063F32D
:101F6000820284F8482029460DF12702204611F00C
:101F7000CDFF7430CAD0B4F898312BB1AB4240F2E7
:101F8000EC805B1BA4F89831B4F894312BB1AB42D0
:101F900040F2DA805B1BA4F89431658F16B9AF422A
:101FA00000F0C9800135ADB294F8DD3013F00107BF
:101FB00031D1DDE90A130A46002B40F0CC8000291C
:101FC00000F0BB801F461846228EE4690694CDE9D6
:101FD000035603329A4D0290CDE90017D2B2012187
:101FE000002005950CF012F810F0FD0F93D00DF0C5
:101FF00043F884428FD0934A934994484FF4AE6398
:1020000022F026F8002383F31188BFF36F8F032398
:10201000184602DF7FE794F943206FF30003002A9C
:1020200084F8DD307FDB94F88200C0F3C00100F05B
:10203000070016F05FFDB4F87A20B4F87830134446
:10204000628D03F23F1313440344814A8148072100
:10205000E3FB0021104678A3D3E90023FFF750F8F3
:10206000DDE90A1320F07F4220692261904235BFEA
:10207000171A801A002000270A46002BA4D157EA1D
:10208000010CA1D1002858D019461F469CE794F8AE
:102090009A3003F01803182B7FF405AFA18EB4F823
:1020A00096218B1D9A42C4BF931F5B1AB4F89211FC
:1020B000CCBF9BB21346994200F09C80A4F89231A9
:1020C000A4F89431A4F89821EDE63D2684F86061E7
:1020D000314620460CB0BDE8F04110F001B90023B4
:1020E000A4F89831A4F89431DDE60126334634E7AC
:1020F000628E052A97BF013240F2E2434FF4FA7331
:1021000092B203FB02F2B4F89C3142F2107101FB6F
:102110000323013BB3FBF2F39BB2A4F89E31002BE7
:102120007FF4E1AE19E794F88300012100F0070085
:1021300016F0E2FC7FE7354636E7002D43D0002756
:10214000114638463B463FE70023A4F89431204629
:1021500011F07EFF21E7384636E70CF01DFF0146FF
:10216000A0B30023A4F89831238EC3801B230371EE
:1021700000680CF0E1FE07E794F885316BB3013B92
:1021800084F8853104F1E008404611F09DFCB8B3B5
:10219000404611F099FCB8B30023638792E608210A
:1021A000204610F09DF8B6E6A7B9D4F888315A0851
:1021B00013F0010336D1C4F88821A5E63E2120465C
:1021C00010F08EF8A7E6002EB9D1A4E60123A4F8FA
:1021D0009831D9E613460126BFE60AAA0BA928467C
:1021E000FFF706FBDDE90A231343CBD0237884F8FD
:1021F0008531C7E7B4F8981100297FF454AE5FE742
:10220000FF2010F029F8C3E70246D4E921010AF0C3
:1022100061FB0028C0D194F848301B0744BFA38E4F
:1022200063874FE642F000421E46C4F888213B46D1
:1022300093E600BFAFF300808D49FD1A0700000050
:10224000BD19010054C6020094C7020034C1020047
:102250008C49FD1A00CA9A3B2DE9F04F87B0CDE9B1
:102260000423BDF8442003780292BDF84820BDF84D
:1022700040A0BDF84C90878F019104460392002B3B
:1022800000F0D480013FBFB2A368D4F81CB1A7EB23
:10229000090292B2002B00920ADAE168626823F028
:1022A000004391422CBF8B449344A360ABEB030BE0
:1022B00094F88200C0F3C00100F0070016F01AFC89
:1022C000658E052D40F2AA80009B15FB03F5ADB28B
:1022D00040F2E248BAF1050F40F29480B4F87A2057
:1022E000B4F87830134403F2D51303447A4A7B4898
:1022F0000721E3FB00214FF09613A36296231046BB
:10230000A38573A3D3E90023FEF7FAFE564620F017
:102310007F4040F2E24308FB05F103FB06F6B1FB08
:10232000F6F81FFA88F5206106FB05F08142A84601
:102330005AD2401A694966A3D3E90023A0FB0101E0
:10234000FEF7DEFE20F07F408344E38EB4F82421C4
:102350001344994494F84330A9EB0709C844DB09B6
:10236000A4F8368069D15E4A5E495F4840F667133B
:1023700021F06EFE002585F31188BFF36F8F0323D4
:10238000184602DF3746029BA386039BA4F89C31C4
:1023900031462046A4F832A011F0F4FD534BA18E33
:1023A0003344881DB3FBF6F39AB29042A4F8962109
:1023B00004D2C1F57F41FA310A4492B2019BA4F8DC
:1023C000922113B10023A4F89E315B463A46294678
:1023D0002046FFF7B5FC94F8903143F0010384F8F0
:1023E000903107B0BDE8F08F091A3C4838A3D3E913
:1023F0000023A1FB0001FEF783FE20F07F40ABEB42
:10240000000BA2E74FF096130AF10106A362962390
:10241000A385B6B20A204FF4FA737CE7009B01351E
:1024200015FB03F5ADB24FF4FA7853E7C38E1F44A2
:10243000B0F824311F44BFB226E7E26C0099636D07
:1024400002FB1133636516F08DFD074694F8840195
:10245000C0F3420016F088FD074406FB07F7244B43
:1024600007F5742707F23F27A3FB0737BF0C636DFF
:10247000E76405FB07F072080344963A934228BFCD
:102480001346C4E91423049B144D40F2E24808FBB0
:1024900003F3E3650023A0FB0501C4F88C310CA312
:1024A000D3E90023FEF72CFE124B059AABEB000B91
:1024B000A3FB0230800A08FB00F0A0FB050104A387
:1024C000D3E90023FEF71CFEF71B20F07F455AE7F7
:1024D0008D49FD1A070000008C49FD1A00CA9A3B7D
:1024E00054C602000CC2020034C102007FC3C901FD
:1024F00083DE1B435917B7D12DE9F04F04460B6813
:10250000077F1668D3F800A0638CD0F81E0095B042
:1025100015464A7CADF84C30FF2AC7F38013884635
:102520000D9212908DF83F3076D199461A4612AB33
:1025300093E803000DF1400B1090ADF84410F8093A
:102540000AF1710127680A915B460C900B970FF016
:10255000AFFD0A99002847D196F8AA310C9A0A9043
:1025600069F3410362F3000386F8AA311098BBF8BF
:102570000430C6F8B101A6F8B531DAF87130C6F802
:10258000AB318B88A6F8AF31E38D94F83010A97287
:102590002B81D4F82A306B60D4F83A30C5F8223059
:1025A00005F1220094F83E30037105210AF018FB72
:1025B00095F8273000F03F0060F3050385F82730D9
:1025C00094F83F30C3F3040185F82810A18EE98206
:1025D000012803F01F0389B206D91B3303F01F0340
:1025E0000B2B01D80A9A59BB0022CAF8142095F87F
:1025F0002C300B9862F3000385F82C30E568012637
:10260000214626710CF08CFC28682E7129460CF0AE
:1026100093FC15B0BDE8F08F0DF1400B10460DF1A5
:102620003F015A4615F006F89DF83F90277F09F1C3
:1026300002095FFA89F98DF83F9009F001027EE7FF
:10264000D8F800305A60E38E2B83EB8A40F2E249DF
:1026500009FB03F71146638E0A93304611F0A6FC7E
:1026600094F83F3096F884215B0963F3430286F8BF
:10267000842116F077FC0C9096F88401C0F3420098
:1026800016F072FC0C9BC04A034407FB03F303F5EE
:10269000742303F23F23A2FB03239B0C2B637B08D1
:1026A000963B6B6394F8313009FB03F36B64238F23
:1026B000A6F89C313946304611F064FCB34BB44A5D
:1026C000C6F8A0213B44B3FBF7F39AB2A6F89621D3
:1026D000298B881D824204DDC1F57F41FA310A440D
:1026E00092B2A6F892216B68C6F88831234613F897
:1026F0001C2FC2F34019DA0700F103814FF48073F5
:10270000A3839AF8260015F0BDFC04F12B030028E2
:1027100000F0F380626AC4F82B20228D9A800D9B12
:10272000FF2B00F02681BDF84C301298A4F8293018
:10273000C4F82500BBF80430A4F8233010989DF8A5
:102740003F30C4F81F00A377EB8A63862B8BA386E8
:10275000B6F89C31E38696F88431C3F3420384F8DB
:10276000383030460FF0B8F9A882E08021460B9847
:10277000D8F804400CF0D4FBAB8AE3801C23D4F8D7
:1027800000B02371B9F1000F40F0D28084F81C90A2
:10279000214658460CF0D0FB95F86700B5F85C90E0
:1027A000B5F85E40012100F0070016F0A5F94C4491
:1027B00004F2D514DFF8E4910444834675484FF0E1
:1027C00096130721C5E90333E4FB090131230024F3
:1027D000B36074606AA3D3E90023F460FEF790FC51
:1027E00020F07F4030612D6B0A9A7D1BD8F80C7069
:1027F00040F2E24303FB02770221224601200AF065
:10280000A1F850460EF010FE07F2B3470246A7EBC0
:102810000B07A7FB0901174659A3D3E90023FEF7CD
:102820006FFCCDF804A0D8F808305B49009120F087
:102830007F49BA1C3A3BD2B24B44012120460BF0EF
:102840003FFC012800F081809AF82430DB0767D430
:1028500030460FF041F9514BA5FB035A044648A3FB
:10286000D3E9002328465146FEF74AFCD8F8083041
:102870004B4A0792A3F13A084A4B069620F07F474D
:10288000A7FB0331E81A484B05934FF4F5730893FF
:1028900033694FF0000BCDE903B34FF0070303FB9F
:1028A00007116AEB01014FF47A720023FEF728FC4E
:1028B0000334E4B2CDE90170CDF8009043462246DE
:1028C000012158460BF026FB10F0FD0F0DD0374AC2
:1028D0003749384840F2EB1321F0BAFB8BF31188EB
:1028E000BFF36F8F0323184602DF01220221104637
:1028F0000AF028F815B0BDE8F08FC4F82B009880D6
:102900000DE72A4A2C492B48FD2321F0A1FB002387
:1029100083F31188BFF36F8F0323184602DFEDE6C0
:10292000002301220093184611460BF087FB8FE726
:1029300095F8273043F0400385F82730281D14F020
:1029400083FC4FF00109288520E70CF095FB8245B8
:102950003FF47AAF154A1949164840F2922321F004
:1029600077FB84F31188BFF36F8F0323184602DFD0
:102970006AE70022C4F82520A4F82920DAE600BF7F
:102980008D49FD1A0700000083DE1B437FC3C90188
:10299000404B4C008C49FD1AD96F010000CA9A3B8C
:1029A000A56F01008D49FD1A1970010074CC020059
:1029B00018C7020034C1020028C40200D0CC0200B3
:1029C00010B5334C3349002304F1FF3C14F8332095
:1029D000072A02EB820E05D811F83E206FF345124C
:1029E00001F83E201CF833206FF300020CF833206E
:1029F0000133082BEAD1284A284C002313700A78A7
:102A000063F300020A7091F8282063F3000281F852
:102A1000282091F8502063F3000281F8502091F8AB
:102A2000782063F3000281F8782091F8A02063F306
:102A3000000281F8A02091F8C82063F3000281F819
:102A4000C82091F8F02063F3000281F8F02091F89B
:102A5000182163F3000281F81821114A9FED0A7BC7
:102A60001370104B83ED007B0F4B236028B1BDE842
:102A700010400E490E4827F0E7BBBDE810400C4857
:102A800027F0EEBBAFF30080FFFFFFFFFFFFFFFF6C
:102A900001520020C0500020946B0020D04F002035
:102AA000936B0020B0290020A0BB0D00957D010094
:102AB0008029002000000000F0B5C468636883B07E
:102AC0000546002B64D117F01BFD002017F03EFDDA
:102AD0000021084617F02CFD00222521082017F0C0
:102AE00069FD474B019301A817F050FD454940F29D
:102AF0005B6017F001FE237AC3F3420262F3061310
:102B00002046237216F04CFC15F098FB58BB637AF4
:102B10009B071FD127682E68384615F087FF0644AB
:102B20006A6806F10901012017F02EFF17F0ECFF8B
:102B300020460EF085FC811C3246C9B2384615F09D
:102B400083FF054678BB204615F018FF88B90020A2
:102B500003B0F0BD012014F0DFFF4178821C007843
:102B600017F0B2FED6E7607A10F0030018BF01201C
:102B7000F1E7254A2549264840F2294321F068FA21
:102B800085F31188BFF36F8F0323184602DFDEE75A
:102B900093F82C309A0796D01E48214617F06EFC09
:102BA00017F054FDD3E7184A1B49194840F2114366
:102BB00021F04EFA194B0721A5FB030301FB053158
:102BC0000DA3D3E90023FEF79BFA154902461548E9
:102BD00021F03EFA002585F31188BFF36F8F0323A0
:102BE000184602DF1048214617F048FC17F02EFD6A
:102BF0006FF08B00ACE700BF00CA9A3B00000000FA
:102C0000D6BE898E55555500CCD0020008C30200AF
:102C100034C10200D98B01000CC202008D49FD1A9B
:102C20007CD1020050D10200758F0100000000002D
:102C30002DE9F041C468A28A4FF6FF739A4282B030
:102C400000F0DF80054616F0EFFE2B89628B208CAA
:102C5000A3831A4492B2104494F82730E28380B2DE
:102C6000411C21845E064FF00001618304F12201C2
:102C700000F1A18003F03F000B4694F8281000906B
:102C800004F1290014F098FA0646D4E90C31A28B1D
:102C900002FB0333A26B1344E26B8B4294BFD21846
:102CA00052188A4228BF0A46E263616C226C94F88B
:102CB00067301144616494F87E2094F82C10C3F3BB
:102CC000020363F3061112F004024FF0000384F8CC
:102CD0002C10A363236478D017F012FC002017F0A7
:102CE00035FC201D17F052FC2389A17A40F25B606D
:102CF00043EA014117F000FD304615F0B7FE2146CA
:102D0000594817F0BBFBA08917F032FE94F86620F3
:102D100094F86700C2F3C003002102F0070200F03C
:102D2000070017F04FFD204616F028FF27682E6891
:102D3000384615F07BFE06446A6806F1090100205A
:102D400017F022FE804617F0B3FE002017F0CAFEEF
:102D5000E36B94F8670003F12F02636C00F0070047
:102D6000012103EB420517F063FC4544054494F848
:102D7000670000F00700022825D004280CBF4FF49C
:102D8000BC73282301211D4417F054FC284417F07C
:102D900081FEA18A03313246C9B2384615F054FE8D
:102DA0000546002834D1204615F0E8FDD0B90020B2
:102DB00002B0BDE8F0810A4603F03F03218D14F014
:102DC00047FA064661E71823DCE7D4E91A0109F05F
:102DD00081FD002880D194F87E3043F0040384F80C
:102DE0007E3079E7214A224922484FF4B07321F01E
:102DF0002FF985F31188BFF36F8F0323184602DF85
:102E0000D5E71D48214617F039FB17F01FFCCEE728
:102E1000164A1A4917484FF4AB7321F019F9184BA9
:102E20000721A5FB030301FB05310DA3D3E9002313
:102E3000FEF766F913490246134821F009F9002507
:102E400085F31188BFF36F8F0323184602DF0F4805
:102E5000214617F013FB17F0F9FB6FF08B00A7E783
:102E600000CA9A3B00000000F59D010008D2020054
:102E700008C3020034C10200D98B01000CC2020059
:102E80008D49FD1A5CD2020050D10200B58B0100C1
:102E900001481EF0D9BA00BFA002002007B527F0F4
:102EA0005EFB4FF47A72A0FB020302FB0131C00B00
:102EB000074A40EA4140106000234FF400420548B1
:102EC000CDE900231FF088F9002003B05DF804FB72
:102ED000202E002080090020014B187800F0FCB95A
:102EE000566A0020044B1A78824202D01870FFF70D
:102EF000F3BF0020704700BF566A002008B527F0D6
:102F00002EFB4FF47A72A0FB020302FB0131114A3F
:102F1000C30B126843EA41439B1A0F4A934214DDE4
:102F200001F024F920B1BDE808400120FFF7DABF25
:102F30000220FFF7D7FF00F081F9002803DABDE88F
:102F4000084000F0B3B921F090F847F230529342B4
:102F5000E9DC08BD202E0020A0BB0D0008B527F03D
:102F6000FEFA4FF47A72A0FB020302FB0131C00BA0
:102F7000044A40EA41401060BDE808400020FFF7E5
:102F8000B1BF00BF202E0020014B1878704700BF52
:102F9000566A0020F8B5044610B900252846F8BD49
:102FA0000378002BF9D00F4E0F4FBE420FD30D4EBA
:102FB000BE42F2D2306826F084FE30B13568214638
:102FC0002868FEF7B7F80028E8D00436F0E7306844
:102FD00026F077FE18B135682B68A342DED00436A0
:102FE000E3E700BFA4F70200BCF7020070B5194C7C
:102FF000194D8CB00022002303A920461DF0B4FE19
:1030000008B10CB070BD2B68059E5868DDE903124D
:1030100020F0C7FB0028EDDBFF238DF81830B6FA4F
:1030200086F35B0907908DF8203027F098FA4FF46B
:103030007A72A0FB020302FB0131C00B40EA41405F
:10304000C90B8DE8030006ABCDE90A010FCB00F0F8
:103050005DF9CFE7880A0020842E00201FB50A4CB6
:103060002468A46884420DD183F00103CDE90112E4
:10307000039306480022002301A91DF017FE04480F
:103080001EF0E2F904B010BD842E0020880A002052
:10309000742E00201FB50023CDE90233044B8DF8B8
:1030A0000C0001A8019320F0A3FB05B05DF804FB20
:1030B0005CB80200014B036014207047242E0020EE
:1030C00038B5044600282FD0194D2B68834229D0EB
:1030D00053B1986840B183685B6803B198472B6827
:1030E0000021986801F0F6F91249134B8C4214BF85
:1030F000ED2100211422002020F06DFB002812DBBE
:10310000A0682C6070B1012101F0E4F92B68986887
:1031100083680A491B6898472B68986883689B688E
:1031200003B19847002038BD6FF01200FBE700BFE5
:10313000842E002048B80200242E00205D300000BC
:1031400038B5054648B90648FFF7BAFF041E02DB4A
:103150002846FFF79FFF204638BD6FF01504FAE7B9
:1031600048B80200F7B50C4615460D4901AA1E469F
:1031700021F045FB68B1019B6BB9012C0DD1094FC2
:10318000224639463046A847002802DD3878FFF746
:10319000D7FF03B0F0BD0020FBE76FF01500F8E7A4
:1031A0000EE00200300900200148FFF789BF00BF90
:1031B00048B8020008B50B480B4926F0F8FF0B4849
:1031C00021F0E3F918B10948012121F0B2F9084AC8
:1031D000002342F8043B0133142BFAD1BDE8084028
:1031E000FFF7E2BF742E0020ED2F000010B10200A7
:1031F000242E0020F8B50F4D0F4E761B07460C46C7
:1032000005EBC105C6F3C706A64201DC00200CE0B1
:103210002A683B689A4209D13C716B6838461B6842
:10322000984718B1431E012BF0D9F8BD0134083579
:10323000EAE700BFF0E9020020EA020037B501A882
:103240001DF078FB174D019C00232B601823584379
:1032500018380444019B9C4202D2002003B030BDC8
:10326000204626F02EFDD0B1204621F058F9B0B905
:10327000204621F080F9014688B9204601F02AF95C
:1032800020F0200378330AD010F1860F07D00028F1
:10329000E4DB2B68044A42F8234001332B60183CDE
:1032A000D8E700BF882E00208009002070B5084DA7
:1032B000084E2C68013C002C02DA00232B6070BD04
:1032C00056F82400012101F005F9013CF3E700BFA5
:1032D000882E0020800900201FB50023CDE902338D
:1032E000044B8DF80C0001A8019320F081FA05B081
:1032F0005DF804FB60B802000268034B9A420CBF01
:1033000008300020704700BF60B8020084B030B5BC
:1033100089B00CAC84E80F00002301930CAD084B7E
:1033200000930FCD02AC0FC495E8030084E80300BE
:10333000684620F05DFA09B0BDE8304004B070473F
:1033400064B802000268034B9A420CBF08300020A8
:10335000704700BF64B802001FB50023CDE90233F7
:10336000044B8DF80C0001A8019320F041FA05B040
:103370005DF804FB6CB8020082B038B504A981E89E
:103380000C00054611481DF0E1FA0446A0B16B6837
:10339000012B0CD0022B05D0A3B9BDE8384002B0F8
:1033A00020F03CBA20F041FA00282046F5DCBDE8C8
:1033B000384002B020F02BBA6FF00400BDE838406E
:1033C00002B070476FF08500F8E700BFCAE0020066
:1033D00082B010B502A981E80C0004460B481DF02C
:1033E000B5FA78B16368022B04D00020BDE8104024
:1033F00002B0704720F019FA0028CCBF002001204D
:103400006060F2E76FF00400F0E700BFCAE002007E
:103410000D4A52F82030013342F820300B4A012384
:10342000117883400B430A490978DBB2137023EA11
:1034300001030849084A097850780B43181A537059
:1034400018BF0120704700BF8C2E0020596A002051
:10345000576A0020586A00203E09002010B5114A22
:1034600052F82030002B19DD013B42F820300E4A83
:103470002BB913780121814023EA010313700B4813
:103480000B4B047810780B4A5978127820EA040024
:1034900010435870401A18BF012010BD6FF015007E
:1034A000FBE700BF8C2E0020596A0020576A0020DD
:1034B0003E090020586A0020044A01231278834004
:1034C000D8B213401B1A584258417047596A00201D
:1034D00010B5084B084A1870084B51781C78084BF7
:1034E0001B7823EA040318435070401A18BF0120C8
:1034F00010BD00BF586A00203E090020576A002016
:10350000596A0020074B00221A70074B074A1978A6
:10351000074B50781B7823EA0103181A537018BF21
:1035200001207047586A0020576A00203E09002099
:10353000596A0020A0F1E003072B03D82030C0B265
:10354000FFF766BF064B062213F8011F19B1013AB7
:10355000FAD10020704718700028F8D0F9E700BFB2
:1035600040090020A0F1E003072B10B405D820305B
:103570005DF8044BC0B2FFF771BF0023064A19463D
:1035800012F8014F0133A04208BF1170062BF7D18A
:1035900000205DF8044B704740090020A0F1E003D3
:1035A000072B03D82030C0B2FFF786BF064A00239E
:1035B00012F8011F884204D00133062BF8D10020F5
:1035C00070470120704700BF40090020024B0022D5
:1035D0001A605A60704700BF3F090020B0F5805F55
:1035E00010B510D20949002301EB4302B2F80140A3
:1035F00024B10133062BF7D1002010BDA2F8010041
:103600000028F6D0F8E76FF08500F6E731090020D2
:1036100030B50023074C194604EB43020133B2F8DE
:103620000150854204BF51709170062BF4D10020E7
:1036300030BD00BF31090020024B00221A605A60E1
:103640009A60704732090020074A002302EB4301C9
:10365000B1F80110814204D00133062BF6D10020CD
:1036600070470120704700BF3109002000487047B3
:103670003E090020004870473109002008B5074B7B
:103680001B78012B06D1FFF7F1FFBDE808400130A0
:1036900000F08ABC6FF0850008BD00BFAC2E002092
:1036A00008B5074B1B78012B06D1FFF7E3FFBDE8F8
:1036B0000840013000F09EBC6FF0850008BD00BFDF
:1036C000AC2E002037B508490848094D6C4626F055
:1036D000BBFD204620F075F994E8030085E803005F
:1036E000002003B030BD00BFF5360000880D00207B
:1036F000AC2E002002490348012202F063B800BF4B
:103700005A6A002004E1020082B00DF1080C0CE9B5
:10371000030019469DF8003010461BB1012B05D05F
:10372000054A00E0054A02B01EF0DEBD019B044AD6
:1037300002B01EF0D9BD00BF23E1020018E1020073
:103740001CE1020030B589B001AD0F4C284620F0D5
:1037500038F994E80C0095E8030020F03DF980B9B1
:1037600020F061F995E803000A2305AA84E8030024
:10377000FFF7CAFF94E8030003AB83E8030000F0FF
:1037800023F809B030BD00BFAC2E002070B50C4648
:1037900015460B4900221E4621F031F808B90020D9
:1037A00070BD012C08D1074922463046A8470028A1
:1037B000F6DDFFF7C7FFF2E76FF01500F0E700BF97
:1037C0000EE102005A6A00207FB56B4683E80300D1
:1037D00093E80300002206AB03E90300039202A86A
:1037E000034A029220F004F807B05DF804FB00BF22
:1037F000F4B80200F0B5012885B053D870BB11B9F8
:10380000002005B0F0BD294E294B34681D6844F0F6
:1038100001033360002A43D19C4203D1244B1B682F
:10382000AB42EDD08DF800008DF801108DF802202C
:1038300026F095FE4FF47A72A0FB020302FB0131E1
:10384000C00B40EA4140C90BCDE9020104AB13E9CA
:103850000F0005B0BDE8F04000F07CB8144B1D68C7
:103860006AB939B9AB07CBD4104E346824F00203DF
:103870003360D1E70D4E346844F00203F8E70B4E95
:10388000346839B924F00203336025F00206084F8A
:103890003E60C1E744F00203336002262E43F6E7A0
:1038A0000126FBE76FF01500ABE700BF042F0020F7
:1038B000082F0020132937B504460D4602D90020F1
:1038C00003B030BD0128FAD801A8FFF7F3FB0028A8
:1038D000F5DB8542F3DA019B53F82530132BEED844
:1038E000C4EB041000010C2202FB0300014B18443E
:1038F000E6E700BF00B902002DE9F74FDDE90CABA8
:10390000DFF84C9006460C4615461AB10F4B1B6863
:1039100049F8213001275FFA87F859F8241040460A
:1039200020F0DCF838B927B96FF0850003B0BDE8A6
:10393000F08F0027EFE7CDE900AB2B46224641464A
:10394000304620F0DDF80028F0DDECE7042F002001
:10395000B42E002010B58AB06C4684E80F00002316
:103960000593064B049394E80F000AAC04E90F009A
:1039700004A81FF03DFF0AB010BD00BFE0BA02006E
:1039800084B030B589B00CAC84E80F0000230193FB
:103990000CAD084B00930FCD02AC0FC495E80300AB
:1039A00084E8030068461FF023FF09B0BDE83040FB
:1039B00004B07047E8BA02000268034B9A420CBF99
:1039C00008300020704700BFE8BA02007FB56B46A0
:1039D00083E8030093E80300002206AB03E9030039
:1039E000039202A8034A02921FF002FF07B05DF89B
:1039F00004FB00BFECBA0200074B1A78074B82B0F9
:103A0000162102FB013301938DF8002002AB13E96C
:103A1000030002B0FFF7DABF5B6A00205C6A002097
:103A200002490348012201F0CDBE00BF5B6A0020BD
:103A3000B7E1020008B5002003F0D0FC002802DA4C
:103A400010F1780F07D1044820F0D6FE034804494E
:103A500026F0FAFB002008BDFC020020B80D002073
:103A6000213A000070B503788AB004460E4607ADCF
:103A7000032B20D8DFE803F002191B1D114928464B
:103A8000FDF762FB059563780493A3780393E378CD
:103A900002932379019363790093A3790A4A1E2143
:103AA00030461EF021FC0AB070BD0849E7E708491E
:103AB000E5E70849E3E7084A0A2128461EF014FC16
:103AC000E0E700BFCAE10200F3E10200D1E1020039
:103AD000D8E10200E2E10200ECE1020010B590B092
:103AE000044622F0DFF86946FFF7BCFF08A920462C
:103AF00005F038FB9DF82130012B14D10B481DF047
:103B0000A3FC204622F0CEF8094B19780F22162389
:103B100013FB012307490722194426F09AFF10B925
:103B200005481DF091FC10B010BD00BF1803002027
:103B30005B6A00205C6A0020280300202DE9F04128
:103B40008AB00D4616461F496A4604461F4620F0B5
:103B500056FE08B30098F8B10A2201A91EF018FC1D
:103B6000019B1B785BBB162D29D1C4B2042C26D82F
:103B7000DFF85C806C432A4608EB04013846B04706
:103B8000002806DD04F10F0002A94044FFF76AFF98
:103B900000200AB0BDE8F0810B496A46204620F0BB
:103BA0002EFE0028F4D0009B002BF1D1012D06D170
:103BB00006492A463846B04700EAE070E9E76FF068
:103BC0001500E6E716E20200BBE102005B6A002096
:103BD0005C6A0020042808B50DD80F22162313FBB9
:103BE0000023064806490722184426F032FFB0FA9F
:103BF00080F0400908BD0020FCE700BF5C6A00209F
:103C000082E30200014B1878FFF7E4BF5B6A0020F3
:103C10002DE9F0410C468EB005464FF0160806A976
:103C2000204615FB08F7FFF71DFF0D4E216807F131
:103C30000F029319B150A2889A80A2799A7109490A
:103C40002A4601A81EF07CFB4246F11901A801F0AA
:103C5000B9FD05481DF0F8FB0EB0BDE8F08100BFCE
:103C60005C6A00201FE202002803002010B504282F
:103C700088B002D9002008B010BD0F23162414FB11
:103C800000340E4B0E491C440722204626F0E1FE6C
:103C90000028EFD02146002005F012FA0446002843
:103CA000E8D0694605F05EFA204604F0DDFE9DF896
:103CB0001C00831E58425841DDE700BF5C6A0020AB
:103CC00082E30200014B1878FFF7D0BF5B6A002047
:103CD000F0B58DB0FFF796FF98B9FFF7F3FF80F0CE
:103CE00001035B00DBB2214D2A7803EB0213112B99
:103CF00009DC022B2DD0102B23D0002420460DB040
:103D0000F0BD0223EFE7202B1BD0122BF5D104F0DE
:103D10001BFA00232B7004460028EFD1144F0FCF5D
:103D200002AE0FC63B68134933600322009423465A
:103D300002A804F0D7F904460028DFD102232B7033
:103D4000DBE704F001FA00232B7004460028D4D0EE
:103D5000D4E7074E0FCE07AC0FC4336823600023AF
:103D600004490093032207A8E3E700BFCA6A0020C2
:103D7000D0B402003803002030B591B0054621F0E0
:103D800091FF69460446FFF76DFE08A9284605F035
:103D9000E9F99DF82130012B05D1FFF733FF2146CA
:103DA00018B903F0D1F811B030BD034B1878FFF704
:103DB0002FFFFFF78DFFF6E75B6A002030B591B06B
:103DC0000D4608A9044605F0CDF99DF82130012BD8
:103DD0000BD1204621F066FF6946FFF743FE0F4BEB
:103DE00000221A701DB1FFF773FF11B030BDFFF74D
:103DF0006FFF204621F056FF094B19780F2216233A
:103E000013FB012307490722194426F022FE00284C
:103E1000EBD105481DF018FBE7E700BFCA6A002098
:103E20005B6A00205C6A00202803002008B5064871
:103E300005F006F9054805F099FA054805F0B0FACD
:103E4000FFF746FF002008BDDC020020C002002072
:103E5000B0020020014B1878704700BF5B6A002059
:103E600010B50A4B0A491A7816240F2314FB0234A2
:103E7000084B1C440722204626F0EBFD28B12146C2
:103E80000020BDE8104005F01BB910BD5B6A0020A2
:103E900082E302005C6A00201FB54D240294044CAA
:103EA0000194BDF81840009423F0A0F804B010BDB0
:103EB0004BE2020007B5064B00930649064805236E
:103EC0004FF440721DF0C6FA002003B05DF804FB09
:103ED000F0BA0200006C0020E80D0020F0B5164E8C
:103EE000164F89B000220023694630461CF03CFF83
:103EF000054608B109B0F0BDFFF7B2FF044600283F
:103F0000F8D01822294602A826F01DFC08230DEB44
:103F1000030120460397CDF810D0ADF8143007F018
:103F200063F9013003D10221204621F07CFE2046B6
:103F300004F09AFDD6E700BFE80A00205CBB02004F
:103F40002DE9F041164FDFF85C808AB001AE002207
:103F50000023314638461CF007FF054610B10AB071
:103F6000BDE8F081FFF77CFF04460028F7D0182257
:103F7000294604A826F0E7FB0C2304A92046CDE936
:103F80000586ADF81C3007F02FF9013003D102216E
:103F9000204621F048FE204604F066FDD7E700BF2A
:103FA000B80A0020ACBB020037B5054640F6CD424A
:103FB000014600230C481CF079FE044678B110F14C
:103FC0000B0F09D100220023694607481CF0CCFEE4
:103FD0002846FFF7E9FF0446204603B030BD0349F9
:103FE000034826F000F9F7E7E80A00206003002004
:103FF000E80D002030B5054685B040F6CD420146BB
:1040000000230D481CF052FE044678B110F10B0F4E
:1040100009D10022002301A907481CF0A5FE28466B
:10402000FFF7E8FF0446204605B030BD03490448C9
:1040300026F0D9F8F7E700BFB80A002050030020A7
:10404000E80D00201FB50023CDE90233044B8DF8A5
:104050000C0001A801931FF0CBFB05B05DF804FB39
:1040600028BC020008B500F0C9F8BDE808400149C5
:1040700026F0B9B81804002013B5114B1C68A368CA
:104080003021DB6820469847C0B9A3686A461B699F
:1040900030212046984788B90A4C009823788342FB
:1040A00004D0C0B22070FFF7CDFF38B901F05CFB3F
:1040B0002378984202D0184601F05CFB02B010BD94
:1040C0000C2F0020CC6A002007B5094B186825F09A
:1040D000F8FD48B14FF4F0120023CDE90023054864
:1040E000002200231EF078F803B05DF804FB00BF47
:1040F0000C2F0020B809002008B5FFF7FDF810B913
:104100006FF0850008BDFEF73FFF38B10138C0B23F
:104110000128F5D8034826F069FA01E0FFF7D4FF3B
:104120000020EFE7B809002008B508481CF00EFC95
:10413000074A106010B96FF0120008BD25F0C1FDEC
:104140000028F8D0FFF7C0FF0020F6E7D7E2020012
:104150000C2F002008B5044800F08EFD002818BF81
:104160006FF0150008BD00BF95410000084B1B789B
:104170000B2B4FF001000AD8984010F4CD6F05D1F9
:1041800010F4016F0CBF012000207047022070471F
:10419000560900200A2808B5024613D00A4B0B49DD
:1041A0001870FFF7E3FF02280AD10B78032A08BF33
:1041B00043F001030B70BDE8084005481DF044B909
:1041C0000023F7E708BD00BF56090020CD6A002094
:1041D0002804002007B5064B0093064906480A2329
:1041E0004FF440721DF036F9002003B05DF804FB77
:1041F00030BC0200806F0020D00E002000487047C5
:10420000D00E0020014B1B68184700BF3804002067
:10421000014B1860704700BF3804002030B585B0EE
:1042200004460D4610220021684626F08CFA02232F
:104230008DF802302A46044B0193214668461EF051
:10424000A9F905B030BD00BF0542000080B50546A4
:104250000E46174698461DF0E1FC034626F00EFE7A
:10426000DFF81890044649F8003042463046394697
:10427000A84754F8090001F093FD00BF08000000B2
:1042800008B50446EFF31183202383F31288BFF3AC
:104290006F8F19F035FD204601F070FD02481FF0C8
:1042A000CAFE20F000FBFCE7F7E202002DE9F04730
:1042B000058B04462807904611D4022905F007050E
:1042C00040F0CC8020461FF06EFF78B10138218B82
:1042D000042811D8DFE800F0C2106D85950001298F
:1042E0000CBF45F0100545F02005258388F31188A3
:1042F000BFF36F8FBDE8F08701F0070AAA4500F011
:10430000A5800027B9463E46A368002B00F0BC807C
:1043100041F00801218388F31188BFF36F8FA168F2
:10432000002900F0BA800D68002900F0B680D1F8AD
:104330000480334652462046C047002D76D02B6875
:1043400029461D46F0E701F007035A1F012A1BD832
:10435000002221F00701062B276889B2C4E9002258
:1043600009D13B4603E0628B013262831B68002B5C
:10437000F9D141F00201218320461FF014FF0028EB
:104380007AD041F0200176E0042B0AD121F0070118
:1043900089B2218320461FF006FF10B141F02001B1
:1043A0002183218B01F0070AAA454FD00027B94687
:1043B000AAE7236921F0070141F00601062DD3F891
:1043C000009021832DD1B9F1000F3FD041F00801B9
:1043D000218388F31188BFF36F8F3A492046C8477D
:1043E00029E021F00701236941F0040189B2042D7D
:1043F000D3F804902183E6D000273E464FF0040A0C
:1044000082E721F00701236941F0050189B2052DFA
:10441000D3F808902183D6D000273E464FF0050AF6
:1044200072E700273E464FF0060A6DE72B4687E706
:10443000B9F1000FD1D1EFF31188202383F3128853
:10444000BFF36F8F238B23F008032383258BEA06AA
:104450002ED525F01003238305F007056669218B0F
:10446000002EBFF670AF00232768C4E9003321F0A7
:10447000070141F001012183218B01F0070AAA45C0
:104480004FF000097FF440AF002F9CD041F00801AD
:10449000218388F31188BFF36F8F002FC8D03D6848
:1044A00039463346524620461FF0A9FE2F46F4E710
:1044B000AB067FF51BAF25F02003238305F007052E
:1044C00000E700BF2B420200014B03600020704751
:1044D00038BC020070B544690D46002C3FD0244A18
:1044E0002379565CB3423DD0224A525C9A423CD179
:1044F000A3689847002814DA022D10D0032D0FD19D
:1045000010F1860F0BD0BFF35B8F54E8003F43F0F0
:10451000020344E80032002AF7D1BFF35B8F267113
:1045200070BD022D267101D00020F9E7BFF35B8F2B
:1045300054E8003F23F0040344E80032002AF7D196
:10454000BFF35B8FBFF35B8F54E8003F23F00203A0
:1045500044E80032002AF7D1BFF35B8FE4E76FF045
:104560005700DDE76FF07700DAE76FF08500D7E7F7
:1045700024E3020020E30200F0B40C4B0C4E5F6A0F
:104580000C4BB34203D36FF08500F0BC70475D68FD
:10459000BD4209D31C693CB195F802C00579AC4510
:1045A00002D12346F0BC18472433EAE7102F00203D
:1045B000840D0020600D00202DE9F047134CDFF83A
:1045C0005080DFF8509005460E461746444503D309
:1045D0006FF08500BDE8F0876268D9F824309A4210
:1045E00012D3A36983B190782979884205D13A46DC
:1045F00031462846BDE8F04718475279012A03D1D1
:104600003A463146284698472434DFE7600D0020BB
:10461000840D0020102F00202DE9F0410B4CDFF815
:10462000308005460E461746444502D36FF085009C
:1046300009E063690BB92434F6E73A463146284667
:1046400098470028F7D1BDE8F08100BF600D002039
:10465000840D002010B5044623F035FC10F1780FCE
:1046600000D050B9054A20461FF0BDFFD2F8C43033
:1046700023EA0003C2F8C430002010BD102F002030
:10468000024B00221A605A60704700BFCB2F0020F7
:1046900070B50B4B0B4CA34201D3002070BD196ABF
:1046A0001E7F00220439D5B2AE4201D82433F2E78E
:1046B000013211F832508542F5D10120EEE700BFFA
:1046C000600D0020840D002008B509480378C3F36D
:1046D00041130A3350F823303BB100F1080200F1D6
:1046E00010019847C043C00F08BD1846FCE700BF43
:1046F000102F002004282DE9F14FDFF8A090044688
:104700000F4616D001282DD1DFF88C8098F8B930EB
:1047100043B300F0D9FD1F4D4D4520D2D5F820B050
:104720004FF0000A2B7F5FFA8AF6B34204D8243593
:10473000F2E7FFF7A5FFE7E70BEBC6060AF1010A70
:10474000307923F0C0FB024630791FF04CFFD8F8D7
:10475000C430002A23EA0003C8F8C430E2DA002398
:1047600088F8B9300B4D4D4508D30B4B1B6A6BB124
:104770003946204601B0BDE8F04F1847EB681BB141
:104780003A462146284698472435ECE701B0BDE873
:10479000F08F00BF600D0020102F0020840D00203E
:1047A00073B5C4B263060D468DF8074007D02046A6
:1047B000FFF76EFF78B10D4B93F8BA0058B10B4E6E
:1047C000204655B117F092F8F3691BB10DF10701BE
:1047D00008209847012002B070BD17F0AFF8F369C8
:1047E000002BF7D00DF107010920F2E7102F002070
:1047F00073B586788DF80060037942791C4C43EAE2
:104800000223ADF80230C378304603F003038DF87D
:1048100004301FF0E8FED4F8C430184205460BD02F
:10482000304600F033FD3046FFF714FF25F068FDF9
:1048300010B996201DF0B0F9684617F033F810F162
:10484000780F03D010B1002002B070BD9DF80000B9
:1048500017F0B0F810F1780F01D00028F3D1D4F898
:10486000C43001202B4384F8B900C4F8C430EBE70E
:10487000102F00202DE9F047924DAB6904460E46FB
:104880001746C3B9207800F01F00012876D002280F
:1048900000F0DC8000BB94F900103A6863780029CE
:1048A0002EDA062B0CD0082B25D0ABB95370012380
:1048B0001370022303E198470028E3D100200DE0A4
:1048C0006388190A0A1F012A8C4605D9072903D8CB
:1048D000DAB26B6A1C781CB96FF01500BDE8F0877E
:1048E0005D78654503D1824200F0E48001302344C5
:1048F000F0E71B78E3E095F8BA3013700123DEE0AF
:10490000052B11D0092BE7D163886E6A002B32D1B9
:10491000FFF7B6FE638885F8BA30EB69002BCDD07F
:10492000694903209847C9E7A07816F0A9FF002835
:10493000C4D0D1E77378042B10D0052B11D0022BF3
:1049400004D177796388BB4208BF012033781E44C5
:104950003378002BEED10028BED0D9E796F803803B
:10496000F4E76388BB42F1D1B8F1000FEED13046D5
:10497000FFF73EFFEAE7FF27B846E9E795F8BA30C8
:10498000D7F800C0002BA7D06F6AA28894F804E083
:104990003B46187800289FD05978022904D193F813
:1049A0000480F04500F292800344F2E78CF8003076
:1049B0008CF80130316081E71F4493E00B2B8BD1E1
:1049C00000264FF0FF08C146B24606E07B78042B74
:1049D0000FD0052B21D03B781F443B78002BF5D11D
:1049E000EB6913B1514607209847002E7FF466AF5C
:1049F00072E797F80280A38897F803909845EAD168
:104A000063889945E7D1B8F1070F1CD805EB080377
:104A1000BA4683F8BB900126DDE7A3884345DAD187
:104A2000A3784B450AD0BE78304600F02FFC3046C4
:104A3000FFF710FEB0FA80F67609CCE73846FFF7AC
:104A4000D7FE0646C7E7BA460026C4E794F9002019
:104A50006378002A18DA002B7FF43EAF24793F6890
:104A600063060AD02046FFF713FE00283FF434AF58
:104A700095F8BA30002B3FF42FAF3946204616F098
:104A80007DFF00237B7014E7012B08D0032B7FF4FC
:104A900023AF6388002B7FF41FAF012103E06188FF
:104AA00000297FF419AFA088FFF77AFE00287FF471
:104AB00005AF11E702293B607FF41BAF5B883360D1
:104AC000FCE600BF102F0020CA2F002094F9000040
:104AD00063780028BFF672AF002B3FF467AF0A2B54
:104AE0007FF4FAAE3B78002B3FF4F6AE79780429D8
:104AF0007FF462AFB9788A427FF45EAF072A96BF2F
:104B00005219002392F8BB308CF80030F6E600BF53
:104B100013B5164C237DF3B9E268A168019201AB8D
:104B200080201FF06EFD019AA3681344A360E36820
:104B30009B1AE3606BB962B12369E2889A4208DD8F
:104B400094F8C82093FBF2F102FB11330BB9012357
:104B5000237502B010BD00231A4619468020237524
:104B600002B0BDE8104016F04FBF00BF102F00206C
:104B700030B585B0002302460D460193002858D178
:104B8000002935D108220B460DEB020123F0B4F9C0
:104B9000002804DA802016F0A9FE05B030BD2A4CAA
:104BA000029A2260039A626004F13802A2609DF9C1
:104BB0000820BDF80E302575002AC4E903550ADB2C
:104BC000802B04D9802016F091FE0020E3E713B17A
:104BD000C4E90333E1E7FFF777FD0028DAD0E28884
:104BE00023699A42D4BFE260E360FFF791FFD4E704
:104BF000154CD4E90215002D01AB04DC23F07CF93F
:104C00000028CADAC6E72A4623F076F90028D9DB5D
:104C1000019AA3681344A360E3689B1AE360002B26
:104C2000BBD104F13803A360FFF74EFD0028DCD1AF
:104C3000B0E78028B1D1044BDA68002AD5D11B7DBA
:104C4000002BD2D1A9E700BF102F0020054B064A48
:104C50009A62064ADA62064A1A63064A58629A61FA
:104C600000207047102F0020754800007945000093
:104C700019460000B94500002DE9F3410446474DAF
:104C800047484FF0FF334FF0FF321CF0CFF895F854
:104C9000B830002B7BD16B6A83B142482C62E8614B
:104CA0006E6A16F0CBFF16F0B9FD041E10DA3C4810
:104CB0001CF034F9204602B0BDE8F08100F0BEF8E7
:104CC000FFF7C4FF6B6A002BE7D14FF0FF34EEE72C
:104CD00000F01CFB041EEADB7378012B5AD1F37938
:104CE000002B57D00026684685F8C830ADF8023052
:104CF0008DF804608DF8006016F0D4FD041ED6DB3C
:104D0000802768468DF8007016F0CCFD041ECEDBBF
:104D10002549304616F07EFF041EC8DB224938467E
:104D200016F078FF041EC2DB204CDFF88480444577
:104D30001AD3002016F03EFE041EB8DBD5F8C430AE
:104D4000802043F00103C5F8C43016F033FE041E82
:104D5000ADDBD5F8C43043F48033C5F8C43001234B
:104D600085F8B8300024A2E7276A0026227FF3B234
:104D70009A4201D82434DAE707EBC30257F833101C
:104D8000107916F047FF01360028EFD09DE76FF04D
:104D900077048CE76FF0150489E700BF102F00201F
:104DA000740A0020F5460000714B0000600D0020E1
:104DB000840D002030B51F4B8BB005AA03F1100500
:104DC00018685968144603C40833AB422246F7D129
:104DD0001B7823701022002101A825F0B4FC1222B8
:104DE0000021154825F0AFFC102101A823F08EF911
:104DF00000281BDD0828B8BF0820093801AB0E4980
:104E00001A18002012F8013F0AAC04EB131403F047
:104E10000F0328336B44013014F8144C13F8143C7E
:104E20000C7008284B7001F10201EBD102480BB065
:104E300030BD00BF28E30200CF6A00202DE9F04F0B
:104E4000724B93F800B087B0BBF1000F03D07048ED
:104E500007B0BDE8F08F6E4C00264FF0011AB04647
:104E60003546B14623783BB96A4B02349C42F3D1B4
:104E7000664A01231370EAE76378052B1BD8DFE845
:104E800003F08E03C38E1D39402304A88DF810B0A3
:104E9000ADF812308DF814B023F000F840B10823BB
:104EA00004A8ADF8123022F0F9FF08B1ADF812B045
:104EB000BDF81230E37123781C44D3E7E378002B6C
:104EC000F9D1A3786BB108F101085FFA88F8F2E72D
:104ED0006B689C4207D024354F4B9D42F8D300208D
:104EE000B6E74E4DF8E7AB68002BECD041462046C4
:104EF0009847E8E7002DF2D000222B7F9A42EED2AD
:104F0000296AA07801EBC2010B79984201D00132E5
:104F1000F3E70127E07800F003008DF81400207912
:104F200094F805C040EA0C20ADF8120094F9020094
:104F30000028FBB228DA07F110004FF0010C0CFA40
:104F400000F010EA0A0F26D143F080008DF810001F
:104F500004A8CDE90213019222F0A0FFDDE90121AE
:104F6000039BC0B99DF81020A27012F0800F18BFEB
:104F700010330A7118BFDBB24FF0010214BF9A4020
:104F8000BA404AEA020A96E70120B84010EA0A0F3E
:104F900001D11846DAE70137102FBBD1B7E7032E4E
:104FA0001AD1FFF707FF074650B1FCF7D5F80246C4
:104FB00030B11028A8BF10223946A01C25F09BFB59
:104FC00023786FF00201E218091B04EB5303D1426E
:104FD00013D50136F6B26EE7002EF1D1B9F1000F0C
:104FE0003FF47DAFA4EB090389F80230C3F3072334
:104FF00089F8033089F80480EBE702F801BC13F864
:10500000010902F8020DE2E7A14654E7CE6A00204A
:10501000AC0C00205F0D0020840D0020600D0020EE
:1050200010B5094B00211A461C78844205D15C68F2
:105030001CB1482303FB012010BD0131042903F1F9
:105040004803F1D10020F7E7DC2F00202DE9F341E0
:1050500050F8303C10F8346C103304460AD1036920
:1050600050F8282C980736D5D2B9590715D5002302
:1050700044F8303C54F8303C10330BD054E90975F7
:1050800054F81C8C25F03CF900284FD02E482146BE
:1050900025F0A9F802B0BDE8F08143F004032361D4
:1050A00054F82C1C01AB30461FF0ABFA10B16FF076
:1050B0001503DDE7019A54F82C3C134444F82C3CCA
:1050C00054F8283C9B1A44F8283C54F8243C1344D8
:1050D00044F8243CCEE754F82C1C01AB304616F0C3
:1050E0000FFD0028E3D1019D54F82C3C2B4444F8DB
:1050F0002C3C54F8283C5B1B44F8283C54F8243CD6
:105100002B4444F8243C002DB1D0304616F09CFDD1
:10511000B5FBF0F303FB1055002DA8D154F8283C43
:10512000002BA4D0304616F033FDA3E744F8200C42
:10513000A4F118001BF074FF002DABD04246394695
:105140003046A847A6E700BFB80F00204B1E012B32
:1051500073B506460D460FD8FFF762FF044668B9DF
:10516000012D09D101AB01220DF10301304616F0EA
:10517000C7FC019B002BF5D102B070BD25F0C0F833
:1051800004F1340108B1012D05D1084602B0BDE893
:105190007040FFF75BBF034802B0BDE8704025F0E8
:1051A00022B800BFB80F00202DE9F74F80460091CC
:1051B000174699461FF06DFA044600285CD1EFF3BC
:1051C000118B202383F31288BFF36F8F2C490022A9
:1051D0000846002301911BF05DFF019968B9DFF8D3
:1051E000A8A0482262430AEB02056E6816F1100F70
:1051F00012D108461BF014FF06E00134042C01F123
:105200004801E4D16FF00B068BF31188BFF36F8F69
:10521000304603B0BDE8F08F0AF802800C9A009B7C
:105220006A610D9A2861AA6140466FF00F02C5E9D4
:105230000237C5F844906A6016F006FD58B1404642
:1052400016F002FDB7FBF0F202FB10771FB16A6C9B
:1052500042F004026A6419F0020F08D0482202FBEF
:1052600004A10848343124F0BEFF0026CCE74046B4
:1052700016F08EFC0646C7E76FF00F06C8E700BFC2
:10528000F82F0020B80F0020DC2F002010B5EFF31E
:105290001184202383F31288BFF36F8FFFF7C0FEC2
:1052A00050B14368103307D16FF08B03436000F1B6
:1052B0003401044824F097FF84F31188BFF36F8F03
:1052C00010BD00BFB80F0020F8B50E4C04252027F4
:1052D000EFF3118687F31288BFF36F8F6368103383
:1052E00007D16FF08B030848636004F1340124F0A8
:1052F0007AFF86F31188BFF36F8F013D04F14804F4
:10530000E6D1F8BDDC2F0020B80F002070B50A4CA4
:105310000A4E00253146204624F049FF0122A4F11F
:1053200018001146013524F0BFFE042D04F1480495
:10533000F0D1002070BD00BF103000204D500000A3
:105340000169012381F84B300B6833B191F8493082
:105350001BB10248083124F046BF7047B80F002047
:105360000169012381F84A300B6833B191F8483064
:105370001BB10248083124F036BF7047B80F002037
:1053800070B50569EFF31186202383F31288BFF30C
:105390006F8FD5F890001FF076F8044686F31188D9
:1053A000BFF36F8F30B104480022002305F11801CC
:1053B0001CF08EF8204670BDB80F002070B5012398
:1053C00082F8483013680D4614463BB192F84A30D3
:1053D00023B10E4802F1080124F005FFD4F8903003
:1053E0001A699B689A4205D17DB904F1180140F60B
:1053F000CD4204E004F11801002DF8D00022BDE8F0
:105400007040024800231CF063B870BDB80F002044
:1054100070B504460E460179154815461FF015F97A
:1054200010B394F900206378002A16DB202B04D0F7
:10543000222B0ED06FF085000AE02B681A6840F826
:10544000102C9A8820F80C2C9B7900F80A3C00203C
:1054500070BD638800F8093CF9E7212BEAD11038C8
:10546000072328603360F2E76FF01200F0E700BF17
:10547000FC30002008B5014603481FF0F4F810B1D5
:10548000012300F8073C08BDFC3000200D4A03460C
:105490000021A0F848101068C3F894009088927911
:1054A000A3F8980083F89A2083F89C1083F89B1047
:1054B000A3F89E1083F8A010402203F14C0025F0C1
:1054C00042B900BF04B5020010B504690023C4F856
:1054D000A8300C4BC4F8A400596804F1A80269B9BB
:1054E000C3E9002204F10800074924F060FE04F13A
:1054F0001800064924F0A8FE002010BD0A605A607A
:10550000F0E700BFFC300020BD46020081550000DE
:1055100073B504698DF80710002384F848302025FE
:10552000EFF3118685F31288BFF36F8F0122D4F851
:1055300090000DF107011EF0A6FF86F31188BFF35E
:105540006F8F01280AD024F0DBFE10B994F8A13047
:105550006BB9094B1A780AB901221A70212200236B
:1055600004F1180105481BF0B3FF02B070BD002123
:10557000212024F07BFFD3E7E16A0020B80F002050
:10558000F0B5D0F88C305B681B6A1F7D85B005468E
:1055900038461FF07EF8064648BB95F8863033B390
:1055A000A86F0146836851F8102F9B1AB3F5806FDE
:1055B00028BF4FF4806303AA1EF01BFF0446B0B15E
:1055C0008306A5F1180308BF00F1FF3485F83060A9
:1055D0000193084B03990093224602233846FFF7B4
:1055E000E3FDA86F224600F110011EF036FF05B062
:1055F000F0BD00BFBD53000037B514460A1E054676
:1056000020DDD4F88C0004F14C011EF03CFF012396
:1056100084F8493023683BB194F84B3023B11148EA
:1056200004F1080124F0DFFDD4F88C104B684A69BE
:105630009A1ACB699B1A3F2B04D8012384F8A03017
:1056400003B030BD94F89E30002BF9D0064B009388
:1056500001940123402204F14C012846FFF7A4FDE8
:10566000EEE700BFB80F0020F9550000F7B50D4672
:1056700001461D481EF0DDFF044610B30646691EB4
:1056800056F8A4395F6805291BD8DFE801F01C1A19
:10569000031C222610F8061C99B9012300F8063CC9
:1056A0003B6A3246187BFFF7A7FF14F85C2C42B91F
:1056B0003B6A187D0D4B0093019602231146FFF7BC
:1056C00073FD03B0F0BD304603B0BDE8F040FFF716
:1056D000DDBE012304F8053CF3E710F8053C002B80
:1056E000EFD00023F6E700BFFC300020BD530000E0
:1056F00037B5094D0949002400944FF0FF334FF4AA
:10570000806228461BF0A6FE0549284624F0FEFDCF
:10571000204603B030BD00BFB80F0020007300204A
:105720004CE302001FB507240294044C0194BDF819
:105730001840009421F05AFC04B010BD5709002015
:1057400010B5084C86B024788DF8174001240294D7
:105750000DF117040194BDF82040009421F046FC9F
:1057600006B010BD5E090020014B1878704700BFDD
:105770005E09002000B589B064288DF8070019D8AB
:105780000E4B18221870002102A824F0DCFF0C4BED
:1057900003930DF10703049302A901230020ADF840
:1057A000143005F021FD10F1800F08BF002009B072
:1057B0005DF804FB6FF01500F9E700BF5E090020FB
:1057C000D8BC02002DE9F0410F4B1C6805460E467F
:1057D0001746ACB14FF0FF324FF0FF330B481BF0D0
:1057E00025FB63683246D3F8088029463B462046AD
:1057F000C047044605481BF091FB2046BDE8F081F8
:105800006FF00104F9E700BF04310020600A0020B6
:1058100030B585B000230546CDE9023301904FF045
:10582000FF330C484FF0FF321BF000FB0A4B1C68A3
:105830004CB9284600F084F8044606481BF06EFB7D
:10584000204605B030BD636820461B6801A9984713
:105850002468EDE7600A0020083100201FB5CDE97B
:10586000010103924FF0FF330A484FF0FF321BF063
:10587000DDFA094B1C682CB906481BF04FFB20468B
:1058800004B010BD636820461B6801A998472468CE
:10589000F1E700BF600A002008310020024B00221F
:1058A000C3E90022704700BF08310020024B0022EC
:1058B000C3E90022FFF7F2BF10310020F8B51C4CFD
:1058C0001C4E05460F46B44212D31B4E1B484FF0E8
:1058D000FF324FF0FF331BF0A9FA34687CB128681F
:1058E00054F8181C183CFBF725FCD0B1A469F5E767
:1058F00021682868FBF71EFCB0B11834E3E70022EA
:105900006F60AA61726805F118033AB9C6E90033FD
:1059100000240A481BF002FB2046F8BD13607360A8
:10592000F6E76FF01004F4E76FF01004F4E700BF3F
:105930000CB40200CCB4020010310020600A002038
:105940002DE9F047DFF8B090DFF8B0A080464FF0C7
:1059500000470026274C3D464C450DD3DAF8004061
:10596000002C42D0183CB8F1000F25D122695ABB57
:10597000A469F5E72F46EDE7B8F1000F03D12269DE
:105980004AB91834E8E72068002241461EF037FF84
:105990000028F4D1F5E76368BB4205DDAF4209D0CA
:1059A0009D42A8BF1D46ECE7EBD19047002E08BFF3
:1059B0000646E6E71D46E4E72068002241461EF061
:1059C0001EFF0028D2D1D3E76368BB4205DDBD428C
:1059D00009D09D42A8BF1D46CAE7C9D19047002EF5
:1059E00008BF0646C4E71D46C2E7AF42C2D13046F3
:1059F000BDE8F0870CB40200CCB4020010310020E6
:105A000038B50C4D0C484FF0FF334FF0FF321BF010
:105A10000DFA2B783BB9FFF749FF1EF026FF04462D
:105A200010B901232B70002403481BF077FA20469D
:105A300038BD00BFE26A0020600A002030BFFFF7D7
:105A4000FDBF00BF2DE9F0410B4EDFF8348006EBBF
:105A50000807CC1B054632460849204624F04BFE79
:105A6000A01942460021083C24F06DFE6C6707F146
:105A70000800BDE8F08100BF00000000CCB40200C7
:105A800008000000054B9A699B689A421FBF044AB0
:105A9000536843F080535360704700BF4C69002047
:105AA00000ED00E070B5264B15469A6A12F0100F13
:105AB0009A6A14BF1124102412F0080F9A6A18BFB2
:105AC0001224920706460AD5586B9A6A140634D5F2
:105AD00019B19A6A22F080029A62132401E06FF0F1
:105AE0001500174B9A6A12F0010F9A6A18BF142416
:105AF00012F0200F9A6A18BF1524D20602D49B6AAE
:105B00009B070AD50E4B5B68190506D5314600F098
:105B10007DFA10B180F309880224094B9A6A920633
:105B200042BF5A6A22F400525A629A6A42F0FF0255
:105B30009A6200232B70204670BD6FF01500CCE7F1
:105B400000ED00E0134B9A6A12F0007F9A6A14BFCE
:105B50001E201D2012F0807F9A6A18BF1F2012F4A9
:105B6000002F9A6A18BF212012F4802F9A6A18BF5A
:105B7000222012F4003F9A6A18BF232012F4803FBB
:105B80009A6A6FEA02426FEA12429A6218BF2420B0
:105B9000704700BF00ED00E010B5194B0246986A4F
:105BA0009C6A10F4805F14BF1720162014F4006F55
:105BB0009C6A18BF1820A40509D5986B986A000440
:105BC00004D51AB19A6A22F400429A6219200C4B49
:105BD0009A6A12F4806F9A6A18BF1A20D2050CD400
:105BE0009B6A13F4005F18BF1C20054A936A43F4B4
:105BF0007F43936200230B7010BD1B20F5E700BFAD
:105C000000ED00E070B5454B5B689CB00546C3F302
:105C10000803002686F31188BFF36F8F02F07F40E0
:105C2000B0F17F4F11D102F00C0008280DD0100701
:105C30004CBF0D4601260022033B8DF80720032BA5
:105C400005D8DFE803F01E5D615A3546F3E700240E
:105C50009DF807309BB96822294602A824F04BFD25
:105C6000099B002E54D0C3F3080222B96FEA5323D4
:105C70006FEA4323099302A920461EF0F8FD1CB0E9
:105C800070BD264BDA6A9107E1D4DA6A002ADEDBBE
:105C9000DA6A5200DBD55A69A96942F480725A6106
:105CA000BFF34F8FBFF36F8F5A6931F8021C22F494
:105CB00080725A61BFF34F8FBFF36F8F4DF6027240
:105CC00091420AD09A6AD2B24AB10DF1070201217B
:105CD0002846FFF7E7FE0446BAE72C68B8E79A6A59
:105CE00012F47F4F05D00DF107010120FFF754FF9B
:105CF000F1E79B6AB3F5803FA9D3FFF723FFEAE7FB
:105D00000DF107020021E3E70DF107010020EDE7A7
:105D100023F4FF7323F00103ACE700BF00ED00E0C4
:105D2000044B5A6942F010025A615A6922F0080283
:105D30005A61704700ED00E0EFF30880EFF309814E
:105D400001B57246FFF75EFF01BD00BF18F01CF8F9
:105D5000202080F3118808484FF40861401880F330
:105D60000988EFF314800221084380F31488BFF3FD
:105D70006F8F00F0D3F8000000920020BFF34F8F28
:105D80000549064BCA6802F4E0621343CB60BFF3D7
:105D90004F8F00BFFDE700BF00ED00E00400FA05F3
:105DA000084B9B6883420BD1EFF3058343B1064B4D
:105DB0005A6842F080525A605A6A22F400425A628B
:105DC0001BF032BF4C69002000ED00E023498A68D7
:105DD00082F8C1E04FF030001044EFF3098C80E806
:105DE000F01F1EF0100F03D102F1800080EC108A2A
:105DF000202080F31288BFF36F8F194F4FF0006699
:105E00008A698A603E60506F164C206092F9C1E04A
:105E1000906F0023936780F311881EF0100F03D05A
:105E20000023E1EE103A03E002F1800090EC108ACA
:105E3000EFF3148323F0040383F31488BFF36F8F0D
:105E400004B5104600F078F9BDE8044002F13000D6
:105E500090E8F01F8CF30988704700004C6900201F
:105E600004ED00E0183100201EF0040F0CBFEFF32A
:105E70000880EFF30980816911F8021C0229FFD024
:105E800001B572461EF0F9FC01BD00BF40B200280A
:105E900007DB044A4109012300F01F00834042F858
:105EA0002130704700E100E040B200280CDB4309DC
:105EB000064900F01F0020330122824041F82320D0
:105EC000BFF34F8FBFF36F8F704700BF00E100E05B
:105ED000054B420900F01F0053F82220012303FA6A
:105EE00000F01040704700BF00E100E040B2002821
:105EF000A8BF00F1604001F10101B8BF064B4FEAB5
:105F00004111ACBF00F5614000F00F00C9B2B4BF51
:105F1000195480F80013704714ED00E0144A08B5D6
:105F2000144B22F07F029A60BFF34F8FBFF36F8F45
:105F3000D3F8882022F47002C3F88820D3F8882090
:105F400042F4A002C3F888204FF04042C3F8342244
:105F5000BFF34F8FBFF36F8F0023E1EE103A1AF0BB
:105F6000A9FD1BF099FF00F0BDF81AF0E5FD00BF98
:105F70000010000000ED00E042F8203C009B42F8D9
:105F80001C3C019B42F8183C0A49029B42F8143C15
:105F90004FF0807342F8043C21F00101002342F8E5
:105FA000081C203A83674FF47D430265C0F8C03077
:105FB000704700BF4D420000037B13F0020F124BED
:105FC00003D190F8C120D20611D45A6B42F080421E
:105FD0005A63D0F8C03019075CBF43F00803C0F81B
:105FE000C030037B43F002030373802070475A6B79
:105FF00022F080425A63D0F8C0301A0744BF23F021
:106000000803C0F8C030F0E700EF00E0094A03469B
:10601000906870B113F1160F406E05D0A0F18002A8
:106020009A4205D8834203D2814228BF002070479C
:10603000002070474C690020104B9B6883421AD1A6
:10604000EFF30580B8B9EFF31181202282F31288B3
:10605000BFF36F8F1A7B22F002021A73EFF31483DF
:1060600023F0040383F31488BFF36F8F81F3118847
:10607000BFF36F8F70476FF0150070474C690020B9
:1060800008B515460E460022E1EE102AEFF3148201
:1060900022F0040282F31488BFF36F8FBFF36F8F77
:1060A000094A0A4B9060426F1A6000F045F82C468E
:1060B00086F309880020064B9847204600210022DD
:1060C0000023044C204700BF4C69002018310020F9
:1060D000994802004D420000014B10221A6170479E
:1060E00000ED00E0044800232021C2180133302BCA
:1060F00082F80013F9D1704700E100E008B5EFF332
:106100000583064A103B02EBC30152F8330049688D
:106110008847BDE80840FFF7B5BC00BF40B10200AA
:10612000024B034A0348012100F07CB80000042020
:106130000000002028BD020010B50446FFF73CFF18
:10614000626E03460548D21AC0E90023044B8360FF
:10615000BDE81040012100F06FB800BF1C310020E5
:1061600000000B15084AC2F898000B6823F01F03C3
:10617000034343F01003C2F89C308B6843F00103E3
:10618000C2F8A030704700BF00ED00E02DE9F043F9
:10619000DFF8608085B00E461F4604464FF00009C8
:1061A000B14523DA6068D8B13FB1411E08421BD126
:1061B0007F2819D92368194216D1236801931EF04C
:1061C0008EFBA36803430393D8F89050C5F30725CB
:1061D000D0B2013DA84207D801A9FFF7C3FF421C76
:1061E00009F101090C34DBE76FF01502104605B028
:1061F000BDE8F08300ED00E0044B0522C3F89420D5
:10620000BFF34F8FBFF36F8F704700BF00ED00E00B
:10621000BFF35F8F024B0022C3F89420704700BF8A
:1062200000ED00E010B5034C01232278FFF7AEFF2C
:10623000207010BDE36A002008B50B4A00231278D5
:10624000FFF7A4FF10F1160F07D0084A0021D2F87B
:106250009030C3F30723984200DB08BDC2F89800D2
:10626000C2F8A0100130F2E7E36A002000ED00E080
:106270002DE9F043534B544CD3F890302568C3F3C9
:1062800007239D4285B000F29A80FFF7C1FF0020EE
:106290000C2685421AD14D4C4D4F25706846FEF7AD
:1062A00013F9DFF82081DFF82C9106460025AE4275
:1062B00013D1237843490020D1F89020C2F307225C
:1062C000934276DBFFF798FF002042E0616806FB0F
:1062D0000011FFF747FF0130DBE7009800EB0511E5
:1062E0004FEA051CCB683B40B3F5000F48D00AD8F5
:1062F000B3F5001F30D0B3F5800F36D0B3F5801F53
:1063000010D00135D3E7B3F1807F42D0B3F1007FE5
:10631000F7D150F80C3088684A681EF0E0FA40F473
:10632000802009E050F80C3088684A681EF0D7FADF
:1063300040F0885040F43020CDE901230390D8F894
:1063400090302078C3F30723013B98422AD96FF09D
:10635000150005B0BDE8F08350F80C3088684A6835
:106360001EF0BDFA40EA0900E6E750F80C308868F4
:106370004A681EF0B4FA40F0007040F40030DBE7E9
:1063800050F80C3088684A681EF0A9FA40F0827014
:10639000D2E750F80C3088684A681EF0A0FA40F046
:1063A0008870C9E701A9FFF7DDFE23780133237068
:1063B000A7E7C1F89830C1F8A00001337CE74FF09F
:1063C000FF30C6E700ED00E034BD0200E36A0020C4
:1063D0000000F0FF0000081108B5024B1B68984749
:1063E000002008BD28310020034B044A1860937830
:1063F00043F002039370704728310020F40400201A
:1064000008B50649064821F00701C1F1005202F51E
:1064100080221DF0D1FD002008BD00BFFBC600207A
:106420002C31002003484FF0FF324FF0FF331AF0B9
:10643000FDBC00BF0405002001481AF06FBD00BF7D
:106440000405002038B50546FFF7ECFF08482A464A
:1064500008211DF049FD044628B925B124F00EFDA0
:10646000044B0C221A50FFF7E7FF204638BD00BF4F
:106470002C3100200C00000010B50446FFF7D2FFBD
:10648000214603481DF0F8FCBDE81040FFF7D4BFDB
:106490002C31002070B5A0FB01543CB92846FFF711
:1064A000D1FF064640B90026304670BD24F0E6FC18
:1064B000044B0C221A50F6E72A46214624F043F9F1
:1064C000F2E700BF0C00000070B54169867A0B4D01
:1064D000044659B1437ADB0706D42C2303FB065349
:1064E0005B6A1B689B689847002363612C202146E8
:1064F00006FB0050BDE8704023F0C8BD780B0020BB
:10650000024B2C2202FB0030704700BF780B0020AA
:10651000827A064B2C2101FB02339A6A1B7F1B33C4
:10652000801A23F00303B0FBF3F07047780B0020D0
:1065300038B5074B827A2C2404FB02335B6AD3E91B
:1065400001240C601568FFF7E3FF04FB005038BD21
:10655000780B00202DE9F04385B00546684603918D
:1065600090461C4623F0FDFFDDE90067EFF311893B
:10657000202383F31288BFF36F8F6B8B002B41D0E6
:106580002A8B9A4225D90022002328461AF016FDAC
:106590000446F0B189F31188BFF36F8F039B002B82
:1065A00041D032463B46684623F0FFFFA27A264B95
:1065B0002C2101FB023320465B6A1B6803A91D687E
:1065C000DDE90023A847606170BB2046FFF77CFF30
:1065D00024E0698B4B1E6B8389F31188BFF36F8FA7
:1065E0002B7F2A8BAC6A1B3323F00303521A02FB66
:1065F0000344154B154AEB1A9B105343A3722B7F90
:10660000E372CBE789F31188BFF36F8F23464246CD
:1066100028461AF0D3FC04460028BFD100242046A7
:1066200005B0BDE8F0836361012300252381039B4E
:106630006382E27A6560294604F1180024F083F849
:1066400063692582E360EAE7780B0020A38B2EBA0A
:1066500070B50C4C2C2500B970BD037A4668013B1F
:10666000DBB20372002BF7D1C3604360837A05FB72
:1066700003431B6A13B198473046ECE7FFF724FF4A
:10668000FAE700BF780B0020024B0122C3F8402537
:106690000020704700E0014020B1034B800143F02F
:1066A00001031847704700BF50B5020008B5044801
:1066B00023F007FB00280CBF6FF01200002008BD7C
:1066C00020B0020010B503460548826814688AB2FB
:1066D0001946A0470028B4BF6FF00400002010BD89
:1066E00020B002002DE9F341254CBFF35B8F1F461C
:1066F0002368BFF35B8F1646DA0705462BD520B912
:106700006FF0010002B0BDE8F08101A91EF09BF816
:106710001C4980460246284624F0ABF9E8B9BFF38D
:106720005B8F2368BFF35B8FC3F3C0081B0712D4D2
:10673000A4F1D405072229463846B047062895BF5C
:1067400044F8D48C0723C5F80380B0FBF3F094BF62
:1067500085F80780E8710020D4E728460A494246B8
:1067600024F087F905460028CAD1102204F19C01C3
:106770003846B0470028EEDB044484F89C50EAE732
:1067800084010020DFE1020095E302002DE9F041E1
:1067900088B09C79DDF838805D791E79DF7893F8D0
:1067A00002C093F801E01B78B8F1000F0ED0CDE9DC
:1067B0000638CDE904CE1346CDE90267CDE90045A0
:1067C000084A1BF091FD08B0BDE8F081CDE905E372
:1067D000CDE9037C1346CDE90156034A00941BF032
:1067E00083FDF0E79AE30200BEE3020070B50446C1
:1067F0008CB01E461546A2B129B10A4602A8042152
:106800001DF03DFC02A900912B462246242103A83D
:10681000FFF7BCFF109A314603A8FEF7D3FF0CB078
:1068200070BD0346044A242103A81BF05DFD002827
:10683000F0DA6FF01500F2E7DFE3020007B5064B70
:106840000648DA79C2EBC202009200221146FFF735
:10685000CDFF03B05DF804FBB0000020DFE10200D3
:1068600030B504468DB0154692B129B10A4602A84A
:1068700004211DF004FC02A900912B46224624218C
:1068800003A8FFF783FF03A81DF0B2FF0DB030BDD2
:106890000346054A242103A81BF026FD0028F2DA4E
:1068A0006FF01500F2E700BFDFE3020007B50093C9
:1068B00013460A4601460348FFF798FF03B05DF808
:1068C00004FB00BFDCE502000A4601460148FFF771
:1068D000C7BF00BFDCE5020007B5009313460A46B8
:1068E00001460348FFF782FF03B05DF804FB00BFD9
:1068F000D6E502000A4601460148FFF7B1BF00BFD6
:10690000D6E5020007B5009313460A460146034840
:10691000FFF76CFF03B05DF804FB00BFC7E50200A2
:106920000A4601460148FFF79BBF00BFC7E50200CA
:1069300007B500220346009103481146FFF756FFB2
:1069400003B05DF804FB00BFCEE5020007B50022EE
:106950000346009103481146FFF748FF03B05DF876
:1069600004FB00BF95E3020008B502481AF06CFD75
:10697000002008BD1805002070B51D4CBFF35B8FCB
:106980002368BFF35B8F13F0010F254622D094F8E4
:106990009C30A4F1D40613B9164800F085FBF379B6
:1069A000D3B1BFF35B8F2368BFF35B8F5A0701D46A
:1069B00000F074FBBFF35B8F55E8003F23F40062E7
:1069C00045E800210029F7D1BFF35B8F1B0501D5F6
:1069D000FFF7CAFF002009E001F0FCF830B9F379B5
:1069E000002BDED101F006F90028DAD070BD00BF1F
:1069F0008401002055E3020007B5009313460A46C0
:106A000001460348FFF7F2FE03B05DF804FB00BF48
:106A10001BE602000A4601460148FFF721BF00BFFE
:106A20001BE6020030B50A4D0A4B85B0002428460B
:106A30000293039423F002FC02AB0093284606491C
:106A40000A234FF4B0621AF005FD204605B030BDB0
:106A5000A0100020E8E302008077002001460148F2
:106A60001AF036BDA01000200146014823F0BBBB40
:106A7000A01000200378012B30B513D0022B27D0B3
:106A80007BB9194B0A4603F1100453F8045B42F832
:106A9000045BA342F9D11B78137043884B731B0A24
:106AA0008B7330BD104B0A4603F1100453F8045B9E
:106AB00042F8045BA342F9D11B78137043684B730F
:106AC000C3F307221B0CCB731B0A8A730B74E8E712
:106AD00000F1100350F8042B41F8042B9842F9D12F
