:1010000080B100200581000057AB0200F180000094
:10101000F1800000F1800000F1800000000000007D
:10102000000000000000000000000000218200001D
:10103000F18000000000000085810000F1800000C8
:10104000B584000095DB0100B5840000B584000084
:10105000B5840000B5840000B5840000B5840000AC
:10106000B5840000B5840000B5840000B58400009C
:10107000B5840000B5840000B5840000B58400008C
:10108000B5840000B5840000B5840000B58400007C
:10109000B5840000B5840000B5840000B58400006C
:1010A000B5840000B5840000B5840000B58400005C
:1010B000B5840000B5840000B5840000B58400004C
:1010C000B5840000B5840000B5840000B58400003C
:1010D000B5840000B5840000B5840000B58400002C
:1010E000B5840000B5840000B5840000B58400001C
:1010F000B5840000B5840000B5840000B58400000C
:1011000053B94AB9002908BF00281CBF4FF0FF316E
:101110004FF0FF3000F00CB8ADF1080C6DE904CED3
:1011200000F022F8DDF804E0DDE9022304B07047A6
:10113000704700BF10F8012B11F8013B012A28BFAE
:101140009A42F7D0D01A7047034611F8012B03F8E2
:10115000012B002AF9D17047034613F8012B002A0E
:10116000FBD1181A013870472DE9F04786468C46A6
:101170000846089E154674461946002B40F0C2806A
:101180008542B2FA82F245D94AB1C2F1200300FA8F
:1011900002FC2EFA03F3954043EA0C0C94404FEA0C
:1011A000154EA8B2BCFBFEF8230C0EFB18CC08FBB6
:1011B00000F943EA0C43994528D9EB1808F1FF37A9
:1011C00004D2994502D9A8F102072B44A3EB0903E5
:1011D000A4B2B3FBFEFC0EFB1C330CFB00F044EA94
:1011E0000344A04214D92C190CF1FF3304D2A042BD
:1011F00002D9ACF102032C44241A43EA07401EB181
:10120000D440002334607360BDE8F0874746DDE7D3
:101210006346F1E792BB431B01214FEA154EAFB283
:10122000B3FBFEFC200C0EFB1C330CFB07F840EA62
:101230000343984562D9EB180CF1FF3004D298456E
:1012400002D9ACF102002B44A3EB0803A4B2B3FB18
:10125000FEFC0EFB1C330CFB07F744EA0344A742D9
:101260004ED92C190CF1FF3304D2A74202D9ACF1AC
:1012700002032C44E41B43EA0040C0E7C2F1200310
:1012800020FA03F1954090402EFA03F303434FEA0E
:10129000154EAFB2B1FBFEFC0EFB1C10190C0CFB83
:1012A00007F841EA0041884504FA02F422D9691896
:1012B0000CF1FF3004D2884502D9ACF10200294478
:1012C000A1EB08019BB2B1FBFEFC0EFB1C110CFB59
:1012D00007F743EA01439F420ED9EB180CF1FF31A7
:1012E00004D29F4202D9ACF102012B44DB1B41EA3C
:1012F000004192E76046E3E76146F7E76046A3E70F
:101300006346B7E7834206D916B9002108467BE752
:10131000C6E900E0F9E7B3FA83F78FB9834201D356
:10132000724508D8BEEB020460EB030301209C4623
:101330001EB9002168E73846FAE7C6E9004CF8E72D
:10134000C7F1200CBB4022FA0CF41C432EFA0CF11E
:1013500020FA0CF3B84001434FEA14490EFA07F59E
:10136000B3FBF9F81FFA84FE09FB18300B0C08FBDD
:101370000EFA43EA00439A4502FA07F240D9E3180D
:1013800008F1FF3004D29A4502D9A8F102002344A3
:10139000A3EB0A0389B2B3FBF9F809FB183308FB86
:1013A0000EFE41EA03418E452CD9611808F1FF3346
:1013B00004D28E4502D9A8F10203214443EA004039
:1013C000A0FB0298A1EB0E014145CE46434602D355
:1013D00006D14D4504D2B9EB020E68EB0403013887
:1013E000002EA6D0B5EB0E0261EB030101FA0CFC56
:1013F00022FA07F34CEA0303F940C6E9003198E703
:101400004046C5E74346D9E7F7B5002101AA40F6B3
:10141000034008F061F9044600286CD1019CE368A0
:101420001B789BB909F0CCFBBFF35B8FBA4B1A68F2
:10143000BFF35B8F02F00902BFF35B8F53E8001F1D
:1014400043E800200028F9D1BFF35B8F204607F066
:10145000DBFA01AA002141F2030008F03DF904463D
:10146000002848D1019AAD4DD168D1F80100D1F8DA
:10147000051005F1780303C3104607F0C5FA2146AD
:1014800001AA41F2010008F027F9044698BB01982F
:10149000C3685A7885F870205A88A5F872201A799E
:1014A00085F87120B3F80720A5F87420B3F805304B
:1014B000A5F8763007F0A8FA214601AA41F2020009
:1014C00008F00AF90446B0B9019FFA6805F18006F0
:1014D000531C413218685968344603C40833934298
:1014E0002646F7D1384607F08FFA95F87C305B0630
:1014F00004D46FF01204204603B0F0BD01AA00210D
:1015000042F2030008F0E8F804460028F3D1019BFA
:10151000834EDA68D2F80100D2F8051003C61846E7
:1015200007F072FA214601AA42F2020008F0D4F84C
:1015300004460028DFD1019CE368B3F8012091B292
:1015400049B1D97839B1A5F80421DA78114606F104
:1015500028002FF053FF204607F056FA95F87C60DC
:101560001F2316F02006A5F8203118D1022140F6DD
:101570006D4007F00BFF0446002800F0C4800221F4
:101580000C3029F0A3FB012303704670214632463C
:1015900040F66D4008F0A0F804460028ABD195F85D
:1015A0009C301F0712D501AA002142F21C0008F04E
:1015B00093F8044600289ED10198C368D3F801200F
:1015C000D3F80530C5E9382307F01EFA95F8D8306E
:1015D0009E0624D50DF1020168462AF010F8044653
:1015E000002888D1042142F2240007F0CFFE0646ED
:1015F000002800F0888004210C3029F067FBBDF83A
:1016000000300380BDF8023043802246314642F26A
:10161000240008F061F8044600287FF46CAF95F8C8
:10162000D8305C0610D501AA002142F22A0008F049
:1016300053F8044600287FF45EAF0198C3685B78D6
:1016400085F8223107F0E0F9082142F2010007F0A5
:101650009DFE0446002856D008210C3029F036FBA8
:1016600095F8D81011F0400F024640F2022308BF4F
:10167000032388074CBF43F02C0043F00C0095F87F
:10168000D9308F0648BF40F0400013F0090F18BF53
:1016900040F40060CE0748BF40F01000002129F060
:1016A00084FD2146002242F2010008F015F80446AC
:1016B00000287FF420AF95F87C30B5F80411980627
:1016C00024D4C9B901AA41F2050008F005F804467E
:1016D00000287FF410AFB5F80431019C4BB9E368E2
:1016E000B3F80120A5F804219A880E4811462FF07E
:1016F00085FE204607F088F9082140F6014007F0F2
:1017000045FE044680B96FF06804F4E60029F3D181
:101710006FF00404EFE600BF84010020B000002059
:1017200088010020B801002008210C3029F0CEFAF1
:1017300095F8D830D907024653BF4FF000512CA17D
:10174000D1E90001284829F030FD2146002240F669
:10175000014007F0C1FF044600287FF4CCAE0146EB
:1017600001AA4FF6014007F0B7FF044620BB0198DD
:1017700007F04AF9214601AA4FF6024007F0ACFFF4
:101780000446C8B90198C368B3F80130A5F8C13060
:1017900007F03AF995F8C1305B070DD501AA21464B
:1017A0004FF6034007F098FF30B90198C3685B78A3
:1017B00085F8C03007F028F92AF03FF904460028E0
:1017C0007FF499AE0AF03AFD044600287FF493AE08
:1017D000EB79002B3FF48FAE0821044829F053FC2D
:1017E00007F0C4FE87E600BF1088000284010020D5
:1017F00090880002008000202DE9F843D0E90738E6
:10180000856903EB08042F34A5420F46164619D804
:10181000DFF87080A3FB080117A3D3E90023FFF7CB
:101820006FFC0346601BA0FB080123F07F4412A35A
:10183000D3E90023FFF764FC20F07F403C60306078
:10184000BDE8F883DFF83C900BA3D3E90023A5FBA8
:101850000901FFF755FC20F07F4409480A2106A33F
:10186000D3E90023E8FB0901FFF74AFC20F07F40A1
:101870003C603060BDE8F8838D49FD1A0700000028
:1018800000166BF100CA9A3B9FED0D7B124B134A79
:101890001348144910B483ED007B9FED0B7B82ED60
:1018A000007B9FED0B7B104B4FF0FF34002281ED4E
:1018B000007B04601A605DF8044B11F0F9BF00BFB3
:1018C000FFFFFFFFFF1F00000000000000000000FE
:1018D0001F000000000000004002002058250020EA
:1018E000E451002038020020DC51002000000000FC
:1018F000002800F05F812DE9F04FB54C94F86A2084
:1019000012F001058DB040F0A78194F82500FF2367
:1019100000F0030084F826301BF0B0FC94F86A0055
:10192000420727D494F8292094F8353004EB82023A
:1019300004EB8303D66AD3F8388086B1A4483146D5
:1019400013F062FF33785B0605D506210EF016FE14
:10195000002800F083819E48414613F055FF3378FC
:1019600013F00E0F40F0B780236A93B10C200DB036
:10197000BDE8F08F2A4604F16B01C0F3C0001BF0F4
:1019800021FEFF2884F82600CCD028461BF0BCFCA2
:10199000C8E711F087FA8146002800F0718111F044
:1019A0008DFA8246002800F0688114F077FB054626
:1019B000002800F06781D0F894004FF6FF732B8663
:1019C00005F11C0B002800F04F8105F1840105F1A1
:1019D00088020EF0DFFDB5F882307E4A23F4EF6313
:1019E00023F0070343F48C7343F00103A5F882301E
:1019F0001346D2F80120C5F8AB21C5F8B12113F880
:101A0000012B9B88A5F8AF31A5F8B53195F8AA311F
:101A100002F0010262F3000362F3410385F8AA3188
:101A200095F8433003F03F0363F07F0385F84330BC
:101A300095F89A3023F0070385F89A3095F84830E6
:101A400023F00F03002785F848304FF4C023C5F872
:101A500098312846C5E91577C5F89470A5F89870AF
:101A600085F84570EF86C5F83A70EF65A5F89E7168
:101A7000A5F8947117F020F985F86071C5F86491A4
:101A800014F0FAFD95F8A43160F3020385F8A4314F
:101A900014F0F8FD95F8A43160F3C50385F8A4317E
:101AA00095F8903167F3410385F89031012128467C
:101AB00015F042FA05F1E00016F0A6FEC4E9189A06
:101AC000C4F820B0C5E905772F70ED611CF0A4FEC5
:101AD000002840F0C58094F824300121C3F342036C
:101AE0000DF12B008DF82B300EF0F2FE024600288F
:101AF00062D098F80110304613F040FC312336498B
:101B0000A360364BB4F86870A0FB01010025C01833
:101B100041F107012CA3D3E90023C4E90555257041
:101B20006560E560FFF7ECFA206110F0A7FA00F1BC
:101B300009083FB9357805F00F05A5F10105B5FA9B
:101B400085F56D0994F82400236965F3000010F011
:101B5000010584F824004BD0214A0992002010602E
:101B60000225204A204F04930BAE019305920321D6
:101B7000CDE90200069443460090089607972A464E
:101B80000B9510F019F9314611F026FAA0B9174952
:101B900005914AF2D8330093CDE90300CDE9010065
:101BA0000797089606944346012203210B9510F0EF
:101BB000CFF843E013F02EBB236A002B3FF4D6AEE0
:101BC00013F0E4FAD2E600BF8D49FD1A07000000C9
:101BD0009C5200207E5E030000CA9A3B8C49FD1A8D
:101BE00090520020F953010019220100D54E010046
:101BF0002B4A2C48049303F2471306940295912133
:101C00001360A7FB000301FB0731274B0793274B0A
:101C100005934FF6FF730992022703930BAE1EA3A1
:101C2000D3E900230B970896FFF76AFA4346CDE9FC
:101C300000503A462846032110F0BEF8314611F014
:101C4000CBF90028B8D194F86A3043F0010384F846
:101C50006A3014F003F860B1002088E6122086E6AE
:101C600013F094FA032082E605F18C00C5F8940085
:101C7000ABE601201BF0E4FAEEE7484611F018F954
:101C8000072074E6504611F01FF9484611F010F98C
:101C9000F6E700BFAFF300808D49FD1A0700000092
:101CA00090520020002AE78419220100F953010014
:101CB00070B590F824308AB0C3F342030D46044651
:101CC00001210DF1230016468DF823300EF000FEA1
:101CD00071780246284613F051FB1F491F4AA0FBAA
:101CE0000131981841F1070119A3D3E90023FFF747
:101CF00007FA23699842054621D21B1A0022019255
:101D0000174A0293174BA21AA3FB0232022192092F
:101D100000230A4409AE099113490591CDE9033323
:101D20000321D2B206960093184610F0A5F831466A
:101D300011F052F938B9256100200AB070BDFBD905
:101D4000C21A0023DBE70C200AB070BDAFF300809D
:101D50008D49FD1A0700000000CA9A3B8C49FD1A04
:101D60009C52002089888888192201000000000008
:101D700038B5194C9DF810E094F848C01CF00105E6
:101D800023D163F3420C400194F83230A1874FEA2B
:101D9000CE0E0EF0180E00F0200040EA0E0023F0E8
:101DA000380303430D4884F832309121A2FB00032D
:101DB00084F848C001FB023105A3D3E90023FFF7F3
:101DC0009FF9C4E91000284638BD0C25284638BDC7
:101DD0008D49FD1A0700000060250020002AE784D5
:101DE00010B504469DF8080022844FEA411CC0004B
:101DF000A17D00F018000CF0200C4CEA000C0C48FF
:101E000021F038014CEA010CA3FB0002912184F877
:101E100016C001FB032104A3D3E90023FFF770F9E7
:101E2000606210BDAFF300808D49FD1A070000000D
:101E3000002AE784000000002DE9F047044600F185
:101E4000350190F8480094F832305B4DDFF880811E
:101E5000C0F3400060F386138CB084F8323010F089
:101E60005FF994F83220A38F5448E46102F07902BC
:101E7000002784F832209121A3FB0002C4E90577F2
:101E8000277001FB03214AA3D3E90023FFF738F9A8
:101E9000651B626C4A4B6760AD08A3FB053502F118
:101EA0000903984298BF3A46C5F3470522644FF0AC
:101EB00031028CBF19460146A26005EB4502E7607E
:101EC000216148F82210064610F0D8F8236A00F184
:101ED00009074FEA450A002B4AD00DF12C09AA4404
:101EE00008EB8A030993CDF820900694A38F33481A
:101EF0004FF00008A3FB0002CDF80C80912101FBFC
:101F00000321236904932F4B07932F4B05934FF025
:101F1000020A27A3D3E90023CDF82CA0FFF7F0F89D
:101F2000104619464FF47A720023FFF7E9F804359A
:101F3000EDB2CDE9016003213B462A46CDF8008091
:101F400040460FF039FF494611F046F860B994F861
:101F5000483043F0010384F8483013F02BFC08B3F9
:101F600000200CB0BDE8F0870C200CB0BDE8F08775
:101F70000DF12C09CDE90A3321694B460AAA032049
:101F800001F02AFA0028AAD10B99104808A3D3E936
:101F90000023A1FB0001FFF7B3F80A9B20F07F4765
:101FA0001F449CE750461BF04BF9D9E7AFF3008084
:101FB0008D49FD1A0700000060250020002AE784F3
:101FC000BD86F21A19220100315A010000CA9A3B5B
:101FD0002C530020000000002DE9F04F05468BB087
:101FE0008B4601200221994614461EF09DFF0022D7
:101FF0000221824601200EF01DFB3F494FF4DC72A6
:1020000028460EF0A7FA461D3C4B0093F6B2019508
:102010004B463246012100200FF088FF10F0FD0FE3
:102020000ED0374A3749384840F68F0328F0F1F987
:10203000002383F31188BFF36F8F0323184602DF59
:10204000324BA4FB0348204629A3D3E90023414691
:10205000FFF756F82E4B20F07F47A7FB03310722EE
:10206000E01A02FB071168EB01014FF47A720023BA
:10207000FFF746F8CDE90170CDF800B00895069558
:10208000296995F9434023480491234931EA240101
:1020900028BF01460591214C07944FF6FE7103912C
:1020A0004B463246012100200FF052FE10F0FD0F8A
:1020B0000ED0134A1349144840F6A40328F0A9F996
:1020C000002383F31188BFF36F8F0323184602DFC9
:1020D000BAF1000F02D10BB0BDE8F08F012202214E
:1020E00010460BB0BDE8F04F0EF0A4BAAFF300807D
:1020F0008D49FD1A07000000B02500203D60010059
:10210000B43F030078400300E039030000CA9A3B63
:102110008D49FD1A69C301001DC50100DD5F010085
:102120002DE9F0418468228E4FF6FF739A428CB0FD
:1021300045D00546204617F0D9F82B7D012B00F03D
:102140002281022B00F01581002B00F0F48094F81E
:102150006061002E40F010812B8A678F94F9432034
:10216000CDE90A6673B3002AC0F25A810023A4F8AD
:102170009A31AA7C238FFD1802F003030135012B4D
:10218000ADB23BD0B4F89E31002B00F005819D42EA
:1021900080F059815B1B9BB20022062BA4F89E3174
:1021A000628740F2F68094F943309342C0F2508146
:1021B000002326E09DF82710204614F081FB0CB088
:1021C000BDE8F081002AB8BF84F88561238FAA7C1E
:1021D000FD1802F003030135012BADB20ED0B4F8A7
:1021E0009A31002BCED0AB4240F23C815B1BA4F86D
:1021F0009A31B4F89E31002BC9D102E00023A4F833
:102200009E3194F8482063F3820284F848202946DE
:102210000DF12702204616F08BFD7430CAD0B4F8B9
:1022200098312BB1AB4240F2EC805B1BA4F89831A3
:10223000B4F894312BB1AB4240F2DA805B1BA4F8C6
:102240009431658F16B9AF4200F0C9800135ADB247
:1022500094F8DD3013F0010731D1DDE90A130A46A5
:10226000002B40F0CC80002900F0BB801F461846B0
:10227000228EE4690694CDE9035605329A4D029008
:10228000CDE90017D2B20121002005950FF0F4FD31
:1022900010F0FD0F93D010F0C9FE84428FD0934A06
:1022A000934994484FF4AE6328F0B3F8002383F3C6
:1022B0001188BFF36F8F0323184602DF7FE794F97D
:1022C00043206FF30003002A84F8DD307FDB94F8AD
:1022D0008200C0F3C00100F007001CF0B5F8B4F8AC
:1022E0007A20B4F878301344628D03F23F1313441C
:1022F0000344814A81480721E3FB0021104678A36B
:10230000D3E90023FEF7FCFEDDE90A1320F07F424B
:1023100020692261904235BF171A801A00200027D9
:102320000A46002BA4D157EA010CA1D1002858D0AD
:1023300019461F469CE794F89A3003F01803182BAF
:102340007FF405AFA18EB4F896218B1D9A42C4BFCD
:10235000931F5B1AB4F89211CCBF9BB213469942FB
:1023600000F09C80A4F89231A4F89431A4F898214C
:10237000EDE63D2684F86061314620460CB0BDE8AC
:10238000F04114F09DBA0023A4F89831A4F89431D8
:10239000DDE60126334634E7628E052A97BF013217
:1023A00040F2E2434FF4FA7392B203FB02F2B4F844
:1023B0009C3142F2107101FB0323013BB3FBF2F3AA
:1023C0009BB2A4F89E31002B7FF4E1AE19E794F89C
:1023D0008300012100F007001CF038F87FE7354644
:1023E00036E7002D43D00027114638463B463FE7ED
:1023F0000023A4F89431204616F03CFD21E738462E
:1024000036E710F0A3FD0146A0B30023A4F89831ED
:10241000238EC3801B230371006810F067FD07E75C
:1024200094F885316BB3013B84F8853104F1E00801
:10243000404616F02BFAB8B3404616F027FAB8B368
:102440000023638792E60821204614F039FAB6E6A5
:10245000A7B9D4F888315A0813F0010336D1C4F86B
:102460008821A5E63E21204614F02AFAA7E6002E90
:10247000B9D1A4E60123A4F89831D9E61346012680
:10248000BFE60AAA0BA92846FFF7B6F9DDE90A2339
:102490001343CBD0237884F88531C7E7B4F898117B
:1024A00000297FF454AE5FE7FF2014F0C5F9C3E7BD
:1024B0000246D4E921010EF085F80028C0D194F835
:1024C00048301B0744BFA38E63874FE642F00042AB
:1024D0001E46C4F888213B4693E600BFAFF3008058
:1024E0008D49FD1A07000000995F0100B43F030009
:1024F000C4400300E03903008C49FD1A00CA9A3B2E
:102500002DE9F04F87B0CDE90432BDF844200378BF
:102510000292BDF84820BDF840A0BDF84C90878FCE
:10252000019104460392002B00F0FC80013FBFB2F2
:10253000A368D4F81CB1A7EB090292B2002B009259
:102540000ADAE168626823F0004391422CBF8B44B1
:102550009344A360ABEB030B94F88200C0F3C0017B
:1025600000F007001BF070FF658E052D40F2E18042
:10257000009BBAF1050F15FB03F5ADB240F2E2483E
:1025800040F2E280B4F87A20B4F87830134403F2D1
:10259000D51303447C4A7D480721E3FB00214FF01B
:1025A0009613A36296231046A38575A3D3E900234F
:1025B000FEF7A6FD564620F07F4040F2E24308FBBE
:1025C00005F103FB06F6B1FBF6F81FFA88F520616A
:1025D00006FB05F08142A84680F09680401A6B49C0
:1025E00067A3D3E90023A0FB0101FEF789FD20F0DA
:1025F0007F408344E38EB4F824211344994494F833
:102600004330A9EB0709C844DB09A4F8368000F081
:10261000A780E26C0099636D02FB113363651CF0C7
:102620004DF9074694F88401C0F342001CF048F9C4
:10263000074406FB07F7564B07F5742707F23F27B9
:10264000A3FB0737BF0C636DE76405FB07F0720857
:102650000344963A934228BF1346C4E91423059BCA
:102660004A4D40F2E24808FB03F3E3650023A0FB78
:102670000501C4F88C3142A3D3E90023FEF740FDE5
:10268000049BABEB000B4348A0FB0330800A08FB24
:1026900000F0A0FB05013AA3D3E90023FEF730FDCB
:1026A000F71B20F07F45029BA386039BA4F89C3177
:1026B00031462046A4F832A016F076FB364BA18EA8
:1026C0003344881DB3FBF6F39AB29042A4F89621E6
:1026D00004D2C1F57F41FA310A4492B2019BA4F8B9
:1026E000922113B10023A4F89E315B463A46294655
:1026F0002046FFF771FC94F8903143F0010384F811
:10270000903107B0BDE8F08F091A20481CA3D3E927
:102710000023A1FB0001FEF7F3FC20F07F40ABEBB0
:10272000000B67E7C38E1F44B0F824311F44BFB2CB
:10273000FEE6009B013515FB03F5BAF1050FADB2BE
:102740004FF4FA783FF61EAF4FF096130AF10106E8
:10275000A3629623A385B6B20A204FF4FA732EE73C
:10276000049B0A48A3FB000105A3D3E90023FEF75D
:10277000C7FC20F07F453746013594E7AFF3008072
:102780008D49FD1A070000008C49FD1A00CA9A3BCA
:1027900083DE1B435917B7D17FC3C9010000000076
:1027A0002DE9F04F04460B68077F1668D3F800A0A8
:1027B000638CD0F81E0095B015464A7CADF84C30BD
:1027C000FF2AC7F3801388460D9212908DF83F3090
:1027D00076D199461A4612AB93E803000DF1400BEF
:1027E0001090ADF84410F8090AF1710127680A91B8
:1027F0005B460C900B9713F04BFF0A99002847D1CA
:1028000096F8AA310C9A0A9069F3410362F3000327
:1028100086F8AA311098BBF80430C6F8B101A6F8C2
:10282000B531DAF87130C6F8AB318B88A6F8AF3124
:10283000E38D94F83010A9722B81D4F82A306B60A4
:10284000D4F83A30C5F8223005F1220094F83E3031
:10285000037105210EF03CF895F8273000F03F0099
:1028600060F3050385F8273094F83F30C3F3040183
:1028700085F82810A18EE982012803F01F0389B290
:1028800006D91B3303F01F030B2B01D80A9A59BB3F
:102890000022CAF8142095F82C300B9862F300033C
:1028A00085F82C30E56801262146267110F012FBD0
:1028B00028682E71294610F019FB15B0BDE8F08F7D
:1028C0000DF1400B10460DF13F015A461AF028FA5F
:1028D0009DF83F90277F09F102095FFA89F98DF889
:1028E0003F9009F001027EE7D8F800305A60E38E8D
:1028F0002B83EB8A40F2E24909FB03F71146638E12
:102900000A93304616F064FA94F83F3096F8842122
:102910005B0963F3430286F884211BF0CFFF0C9020
:1029200096F88401C0F342001BF0CAFF0C9BC04A1A
:10293000034407FB03F303F5742303F23F23A2FBD5
:1029400003239B0C2B637B08963B6B6394F831301D
:1029500009FB03F36B64238FA6F89C31394630469C
:1029600016F022FAB34BB44AC6F8A0213B44B3FB9D
:10297000F7F39AB2A6F89621298B881D824204DDCE
:10298000C1F57F41FA310A4492B2A6F892216B68F0
:10299000C6F88831234613F81C2FC2F34019DA0712
:1029A00000F103814FF48073A3839AF826001AF094
:1029B00021FF04F12B03002800F0F380626AC4F8C1
:1029C0002B20228D9A800D9BFF2B00F02681BDF8D5
:1029D0004C301298A4F82930C4F82500BBF8043014
:1029E000A4F8233010989DF83F30C4F81F00A37757
:1029F000EB8A63862B8BA386B6F89C31E38696F828
:102A00008431C3F3420384F83830304613F052FB6C
:102A1000A882E08021460B98D8F8044010F05AFABA
:102A2000AB8AE3801C23D4F800B02371B9F1000F06
:102A300040F0D28084F81C902146584610F056FA97
:102A400095F86700B5F85C90B5F85E40012100F09C
:102A500007001BF0FBFC4C4404F2D514DFF8E491B2
:102A60000444834675484FF096130721C5E90333A4
:102A7000E4FB090131230024B36074606AA3D3E945
:102A80000023F460FEF73CFB20F07F4030612D6BAB
:102A90000A9A7D1BD8F80C7040F2E24303FB0277E0
:102AA0000221224601200DF0C5FD504612F068FEBD
:102AB00007F2B3470246A7EB0B07A7FB090117462E
:102AC00059A3D3E90023FEF71BFBCDF804A0D8F8E7
:102AD00008305B49009120F07F49BA1C3A3BD2B2E2
:102AE0004B44012120460FF021FA012800F081809B
:102AF0009AF82430DB0767D4304613F0DBFA514BE9
:102B0000A5FB035A044648A3D3E9002328465146AF
:102B1000FEF7F6FAD8F808304B4A0792A3F13A08C4
:102B20004A4B069620F07F47A7FB0331E81A484B33
:102B300005934FF4F573089333694FF0000BCDE91B
:102B400003B34FF0070303FB07116AEB01014FF4D6
:102B50007A720023FEF7D4FA0534E4B2CDE90170AD
:102B6000CDF8009043462246012158460FF0F0F878
:102B700010F0FD0F0DD0374A3749384840F2EB13BB
:102B800027F047FC8BF31188BFF36F8F03231846A0
:102B900002DF0122022110460DF04CFD15B0BDE808
:102BA000F08FC4F82B0098800DE72A4A2C492B4857
:102BB000FD2327F02EFC002383F31188BFF36F8FD2
:102BC0000323184602DFEDE6002301220093184696
:102BD00011460FF069F98FE795F8273043F040036D
:102BE00085F82730281D19F093FE4FF0010928853C
:102BF00020E710F01BFA82453FF47AAF154A1949D5
:102C0000164840F2922327F004FC84F31188BFF3A6
:102C10006F8F0323184602DF6AE70022C4F82520DD
:102C2000A4F82920DAE600BF8D49FD1A070000004C
:102C300083DE1B437FC3C901404B4C008C49FD1A06
:102C400029C3010000CA9A3BF5C201008D49FD1A53
:102C500069C30100BC45030078400300E03903006C
:102C6000FC3C0300184603002DE9F04F8DB09B4655
:102C7000BDF860300693CDE90401BDF868309DF8D9
:102C80005C90BDF864A003930020164612F0F4FF98
:102C9000002800F06C8109F00107044638460FF067
:102CA0002FFA0290002F71D1169B02995A4638468E
:102CB00013F0EEFC002840F06B81236A089304F1C6
:102CC0001C020792002B68D0D4F82080D8F800505E
:102CD0000BF0010A98F86600C0F3C00100F007008D
:102CE0001BF0B2FBB8F85E30B8F85C201A44B8F8B4
:102CF0000E3000F23F1003441344CF48CF4A07215F
:102D0000E3FB00211046CAA3D3E90023FEF7F8F93C
:102D100020F07F40286130461AF0D2FA94F8333020
:102D20006FF3410384F83330FF2384F83430002EEE
:102D300000F02181A9F10203012B40F22D8194F8CA
:102D40004810079869F3420184F8481094F833104A
:102D50006AF30001DDE9042384F833101699096849
:102D60006162169989882185039921860096002140
:102D7000FFF736F860641BF04FFD002840F0178124
:102D80002046FFF759F80DB0BDE8F08F06210DF091
:102D9000F5FB002888D11220F5E710F083F80990A0
:102DA000002800F07A8113F079F90546002800F038
:102DB000718120300DF0A0FD05F11C08002840F0C5
:102DC0002381032105F124001BF0F0F9069BD5F8BF
:102DD00094006B864FF6FF73A5F834A02B8600286D
:102DE00000F0218105F1880205F184010DF0D2FB8C
:102DF000B5F8823023F4EF6323F0070343F48C73B8
:102E000043F00103A5F8823095F89A304FF0000A9C
:102E100023F0070385F89A300121C5F894A0A5F89E
:102E200098A0284614F088F8A5F836A0C5F83AA06E
:102E300005F13E0019F016FD95F8433060F30503E7
:102E4000012185F843300DF12F001BF0AFF9039BF2
:102E50009DF82F20A5F89C31794B85F845A0A3FB60
:102E60000213DB0803EB4303A2EB830295F8433024
:102E7000A98EA5F89EA103F03F0385F8433095F88D
:102E80004830A5F894A1053223F0070385F84420C3
:102E9000069A85F8483040F2E24A6A4B0AFB02FA89
:102EA0004FF4C0225344C5F89821881DB3FBFAF3B0
:102EB0009AB28242A5F8962102DD063A521A92B2DF
:102EC000A5F89221284615F0F7FE5146284615F040
:102ED0006BFF0021099B85F86011C5F8643113F080
:102EE000CBFB95F8A43160F3020385F8A43113F00D
:102EF000C9FB95F8A43160F3C50385F8A43195F8B2
:102F00009031002161F3410385F8903105F1E00033
:102F100015F07AFC95F8AA31169A0BF0010A6AF3BB
:102F2000410385F8AA314FF09613C5E90A333123DE
:102F3000AB600021169B6960E9601B68C5F8B13180
:102F400095F8AA319288A5F8B52169F30003029A91
:102F500085F8AA311368C5F8AB319388A5F8AF316D
:102F6000C4F82080C5E905112970ED61B2E60C2096
:102F70000DB0BDE8F08F1AF0FDFD00283FF4DAAE89
:102F80001699584632461AF01DFB84F83400D1E6F3
:102F90000B200DB0BDE8F08F00201AF0B5F994F8C1
:102FA000333043F00203B94684F83330C7E6256A6C
:102FB000AB6F73B1244A2549254840F2294327F0D5
:102FC00028FA002383F31188BFF36F8F0323184679
:102FD00002DF05F16C0105F168000DF0DFFA06462D
:102FE000002839D02F68AE67D7F86451002D42D041
:102FF00028460FF05DFF384613F056F800230320F3
:1030000023620DB0BDE8F08F0F4A12491048C1236A
:1030100027F0FFF9089B83F31188BFF36F8F032319
:10302000184602DFCDE605F18C00C5F89400D9E61C
:103030008D49FD1A0700000000CA9A3B8C49FD1A11
:10304000ABAAAAAA7FC3C90148460300903E030069
:10305000E0390300943A0300114A1249124840F241
:103060002B4327F0D6F986F31188BFF36F8F032324
:10307000184602DFB6E70A4A0A490B4840F23243D3
:1030800027F0C7F985F31188BFF36F8F0323184624
:1030900002DFADE709980FF00BFF072073E600BFD2
:1030A0004846030004400300E0390300000000002C
:1030B0002DE9F04F04468DB090F81C80238D406AB6
:1030C000ADF82C30E307C8F3C0170E461546C8F319
:1030D00040180A9000F110810023A383B37C707C18
:1030E00013F001031CBFD4F81E30C4F82B3004F1D8
:1030F0002B0214BF638CC4F82B30FF28938004F19B
:10310000250904F11F0200F0EA8004F11E0119F004
:1031100007FEA37FBDF82C200A98C4F825000233CF
:10312000A377A9F804203368D3F80090EB8A63866C
:103130002B8BA386B9F83030E3861BF0BDFB84F8F7
:1031400038002F68384612F0B5FF0021A882E080D1
:10315000384615F03DFED6F804A0206821460FF051
:10316000B9FEAB8AAAF806301C23DAF800408AF8C8
:103170000430B8F1000F40F0CF808AF81C8051462F
:1031800020460FF0B3FEBB687A6895F86600B5F884
:103190001680F5686A4C934238BF1346C0F3C001ED
:1031A00003F1090A00F0070040F2E24303FB08F8CC
:1031B0001BF04AF9002202212D1A01200DF03AFAE3
:1031C000484612F02FFDA5FB04455BA3D3E900237D
:1031D000834629462046FDF793FFCDF80490B36857
:1031E0005849009120F07F490BF10402A3EB0A0338
:1031F000D2B24B44012100200EF098FE10F0FD0FDA
:103200000ED0514A5149524840F2493327F001F952
:10321000002383F31188BFF36F8F0323184602DF67
:103220004FF0000B5B4603220121CDF800B0584659
:103230000EF03AFE384612F03DFFB36806464048AD
:10324000A3EB0A0AA8FB00013BA3D3E90023FDF787
:1032500057FF19463F4B08933F4B069340F2793393
:10326000079709933B698046CDE904B310460023D4
:103270004FF47A72FDF744FF384B0722A9FB033164
:10328000CDE9028002FB0911E01A65EB01014FF460
:103290007A720023FDF734FF0536F6B2CDE90090CF
:1032A00053463246012158460EF06EFD10F0FD0FD8
:1032B0000DD0254A2549264840F27A3327F0A9F84F
:1032C0008BF31188BFF36F8F0323184602DF0122AF
:1032D000022110460DB0BDE8F04F0DF0ABB9002350
:1032E000BDF82C100A98C4F82530A9F80430A77747
:1032F000C4F81F00918016E7134A194914484FF487
:10330000317327F086F8002383F31188BFF36F8FA2
:103310000323184602DFDFE695F8273043F0400329
:1033200085F82730281D19F0F3FA4FF00108288599
:1033300023E700BFAFF300808D49FD1A07000000AE
:1033400000CA9A3BE5C401004846030078400300E8
:10335000E0390300E9C401001DC501008D49FD1AD3
:10336000FC3C0300000000000538C3B2052B0CD85C
:1033700070B580B20D4612F0A5FE044618B190F962
:103380004330002B03DA002070BD0020704790F816
:1033900082000F4EC0F3C00100F007001BF054F88C
:1033A0000C4A00F2B5500721E0FB0621104606A3A7
:1033B000D3E90023FDF7A4FE20F07F4028602046DB
:1033C00070BD00BFAFF300808D49FD1A07000000FB
:1033D00000CA9A3B8C49FD1A2DE9F04F93B0FF27A4
:1033E0000B930B1D0A930023CDE90E3305461646B9
:1033F0008DF837709B463C4698469A46994610ABE6
:103400000693594B0593594B03930FAB01930EABA6
:1034100000200093022310930490029033460DF194
:10342000370229460EF0C6FD022812D0109BB3B910
:10343000FF2C25D03368434522D0002F42D0013FD6
:10344000FF24FFB28DF83740D9E7294600200EF05F
:10345000FDFD109B022BF8D0109B002BE8D0444AB6
:10346000444945484FF4EE7326F0D3FF002383F31D
:103470001188BFF36F8F0323184602DFFF2CD9D1C9
:103480009DF83700FF282CD011A9FFF76DFF002809
:10349000B5D0FF2CDDF83880119B0AD04946404654
:1034A00009930EF0EDFD0A9B03EB0A029042099B83
:1034B00019D8C1469DF83740D6F80080DDF83CB0F9
:1034C0009A469CE72D492A4A2B484FF4F27326F07E
:1034D000A0FF87F31188BFF36F8F0323184602DF25
:1034E000ADE7FF2C34D026480721AAFB000301FBDF
:1034F0000A311BA3D3E90023FDF702FE044600B105
:103500003E34204AABF57423A3F51073934216D8CA
:103510001B480721A9FB000301FB093110A3D3E9D4
:103520000023FDF7EDFD184BA3FB0B2304EB9344A5
:103530000B9B044400201C6013B0BDE8F08F0BF11E
:10354000E87B0BF5D43B09F1FF390BF5A57BDFE7F1
:103550006FF0090013B0BDE8F08F00BFAFF300803B
:1035600000CA9A3B0000000005C8010009C801001C
:1035700094460300D8460300E0390300E046030008
:103580008D49FD1ABFBDF07F83DE1B4300000000A4
:103590002DE9F043C668476873683D491A68D0F85A
:1035A0000090A7F57423A3F510738B4283B0804677
:1035B00007D907F1E87707F5D43709F1FF3907F59F
:1035C000A57773681169DD8ACDF8049006F11003C0
:1035D00001AA0220FFF700FF00284ED10199A1EBBC
:1035E00009031B0237D4084649460EF049FD03463D
:1035F00028480721A3FB000201FB032122A3D3E9F2
:103600000023FDF77DFD34690444002C346109DB9F
:1036100040F2E24305FB03F3A3422FD2E41AA34294
:10362000FCD33461D8F800301A48A3EB0903A3FB9C
:103630000002072101FB032113A3D3E90023FDF7B7
:103640005FFD154BA3FB0737A0EB9740204430618B
:1036500003B0BDE8F08348460EF012FD03460D4866
:103660000721A3FB000201FB032107A3D3E90023E9
:10367000FDF746FD3469241AC7E73469002CD1D11F
:1036800003B0BDE8F08300BF00CA9A3B0000000011
:10369000BFBDF07F8D49FD1A83DE1B430000000093
:1036A00010B5334C3349002304F1FF3C14F83320A8
:1036B000072A02EB820E05D811F83E206FF345125F
:1036C00001F83E201CF833206FF300020CF8332081
:1036D0000133082BEAD1284A284C002313700A78BA
:1036E00063F300020A7091F8282063F3000281F866
:1036F000282091F8502063F3000281F8502091F8BF
:10370000782063F3000281F8782091F8A02063F319
:10371000000281F8A02091F8C82063F3000281F82C
:10372000C82091F8F02063F3000281F8F02091F8AE
:10373000182163F3000281F81821114A9FED0A7BDA
:103740001370104B83ED007B0F4B236028B1BDE855
:1037500010400E490E482DF030BFBDE810400C4817
:103760002DF039BFAFF30080FFFFFFFFFFFFFFFF2A
:10377000FD5F0020BC5E0020CD790020CC5D0020E4
:10378000CC79002030300020A0BB0D00FDD401001A
:103790000030002000000000F0B5C468636883B00A
:1037A0000546002B64D11CF0F7FE00201CF01AFF28
:1037B000002108461CF008FF0022252108201CF0EB
:1037C00045FF474B019301A81CF02CFF454940F2EF
:1037D0005B601CF0E3FF237AC3F3420262F306133B
:1037E000204623721BF088FA1AF0C4F958BB637A9A
:1037F0009B071FD127682E6838461AF0C1FD064482
:103800006A6806F1090101201DF022F91DF010FA85
:10381000204611F0C1FF811C3246C9B238461AF069
:10382000BDFD054678BB20461AF044FD88B900204E
:1038300003B0F0BD012019F0F7FC4178821C00783C
:103840001DF0A6F8D6E7607A10F0030018BF01203B
:10385000F1E7254A2549264840F2294326F0D9FDBB
:1038600085F31188BFF36F8F0323184602DFDEE76D
:1038700093F82C309A0796D01E4821461CF04AFE39
:103880001CF036FFD3E7184A1B49194840F2114390
:1038900026F0BFFD194B0721A5FB030301FB0531F2
:1038A0000DA3D3E90023FDF72BFC1549024615486B
:1038B00026F0AFFD002585F31188BFF36F8F03233A
:1038C000184602DF104821461CF024FE1CF010FFB1
:1038D0006FF08B00ACE700BF00CA9A3B000000000D
:1038E000D6BE898E55555500B44A0300B43B03003B
:1038F000E03903002DE50100B83A03008D49FD1AB7
:10390000644B0300384B0300CDE8010000000000C9
:103910002DE9F041C46894F91630002B8CB0C0F248
:103920000581636805460E46002B40F0F480A37DB8
:103930006FF30003A3751CF02FFE00201CF052FE55
:10394000002108461CF040FE0022252108201CF022
:103950007DFE01200FF01EFC0746002800F0CC8001
:1039600007F11C001CF09CFE8B4B0B930BA81CF06A
:1039700059FE8A4940F25B601CF010FFA07DC0F345
:10398000410025301AF01CFD854821461CF0C2FD7F
:10399000A37D9B0603D46368002B00F0AA809620C9
:1039A0001DF04AF800231A46194618461CF05CFF21
:1039B0001AF0E0F8002838D1A37D13F0180F5BD17E
:1039C000D4F800802F6840461AF0DAFC07446A6891
:1039D00007F1090100201DF03BF81DF029F91CF04A
:1039E000B3FF204612F02CF9011DC9B240463A46F9
:1039F0001AF0D4FC8046002840F09F8016B9636A14
:103A0000002B52D1636843B1664B01220221002092
:103A10009D600CF045FE002837D120461AF04AFC84
:103A2000D0B900200CB0BDE8F081A07DC0F3C0008B
:103A300019F0FAFB07460DF12B0019F003FF797816
:103A40008046BA1C38781CF0A3FF9DF82B0000229A
:103A500041461DF0BBF9B3E7534A5449544840F27C
:103A60000B2326F0D6FC002383F31188BFF36F8F5E
:103A70000323184602DFD4E7012019F0D5FB417873
:103A8000821C00781CF084FF9AE7474A494948485D
:103A900040F2062326F0BDFC002383F31188BFF318
:103AA0006F8F0323184602DFB7E7434A0792434A62
:103AB000059240F2F31200930892CDE90366CDE936
:103AC000016606943B46032231460EF041F910F0A0
:103AD000FD0F97D0344A3A4935484FF4FA7326F02F
:103AE00098FC86F31188BFF36F8F0323184602DF1B
:103AF00088E71CF019FF5BE72B4A32492C484FF44A
:103B0000C57326F086FC87F31188BFF36F8F0323FC
:103B1000184602DF24E7636893F82C30D90705D4F0
:103B2000636893F82C309A077FF501AF2648214649
:103B30001CF0F0FC1CF0DCFD73E71B4A23491C4819
:103B400040F2E51326F065FC214B0721A8FB030397
:103B500001FB08310EA3D3E90023FDF7D1FA1D497B
:103B600002461D4826F055FC002585F31188BFF359
:103B70006F8F0323184602DF184821461CF0CAFC49
:103B80001CF0B6FD6FF08B004CE700BFAFF3008078
:103B900000CA9A3B00000000D6BE898E55555500DC
:103BA000813C000064080020704B0300B43B03001C
:103BB000E0390300CC3A030069F4010011F501007B
:103BC000DC3D0300004B03002DE50100B83A030083
:103BD0008D49FD1ABC4B0300384B030041F3010033
:103BE00038B504461BF05AFBA37DA27DC3F3410305
:103BF000013303F00303032B08BF002363F34202E6
:103C000014BF03F125002520A2751AF0D9FB6368C3
:103C10000BB123694BB90EF031FAC11C00201CF026
:103C20008BFFBDE838401DF003B81CF0B3FF05461C
:103C30000EF024FAC11C00201CF07EFF1CF0F8FFDF
:103C40001CF0A8FF29460EF01BFA0B4A0346072179
:103C5000A0FB020201FB032105A3D3E90023FDF72A
:103C60004FFA23691B1A236138BD00BFAFF30080F0
:103C700000CA9A3B000000008D49FD1A00000000B8
:103C80002DE9F0478AB004461CF072FDC0B250B96D
:103C90001AF0F0FBC64821461CF03CFC0AB0BDE817
:103CA000F0471CF025BD1CF085FD05461CF0A4FE68
:103CB00007461CF0ABFE81461DF0E2F806461DF0FB
:103CC000C1F882461CF05AFEEDB280461CF03AFE66
:103CD0001AF0D0FB002DDDD001200FF05BFA054675
:103CE000002800F0528117F0FF07F6B240F0E8809C
:103CF000002E40F0DF804FF0FF093A464B46314638
:103D000020461BF001FD0028C4D02A7F61680023F3
:103D10008DF823305FFA88F702F00F03002900F0D6
:103D2000F180616891F82C10880700F1EB80072B77
:103D3000B0D0A17D090740F14781002B40F0C98038
:103D40006B7F063B1F2BA5D804200FF023FA002819
:103D5000A0D01CF075FF636A074643B9238C40F27C
:103D6000712202FB03F3B0FBF3F203FB120723689B
:103D70001A69904B0721A2FB030301FB02318AA3BE
:103D8000D3E90023FDF7BCF96FF4427C00EB0C0390
:103D90001F3B62EB0202BB4272F10002FFF47AAFFA
:103DA0001CF0C2FD4846636819F032FDE37D9907B7
:103DB000804640F1E481002800F0E181824601273D
:103DC0001CF006FDCDE9027A09AB049305F11E0350
:103DD00001932B7FC3F38013014607460093002213
:103DE000012320461BF0AAFC38461CF05FFC1CF0A7
:103DF000ABFC002840F0C9816F4821461CF08AFBCB
:103E0000626892F82C3043F0010382F82C30A37DD5
:103E100043F08003A3750FF0D7F9172202714FF614
:103E2000FF72C28095F81CC082463B46CCF3401C12
:103E300000F11C0207F1200E1D6858689968DF68C0
:103E4000D7601033734515605060916002F1100225
:103E5000F2D11B6813609AF81C30CAF808406CF362
:103E600045138AF81C301CF095FE002ECAF810008D
:103E7000099BCAF8143008BF4FF0FF098AF819905F
:103E8000E37D13F0020303D0B8F1000318BF012350
:103E90009AF81A2063F300028AF81A200FF094F9B6
:103EA000CAF80C00DAF8000051460AB0BDE8F04745
:103EB0000FF0B4B95FFA8AF019F040FD81461CE7B3
:103EC000A07D5FFA89F1C0F3C00019F0C5FC8146FE
:103ED00013E7012B40F088806A7F0C2A7FF4DAAE6A
:103EE0002A7FCDF80090194600230193D20905F1ED
:103EF000240320461BF056FB00287FF425AF2B7FC0
:103F000003F00F03002B6FD16B7F052B7FF6C2AE42
:103F1000252B3FF6BFAEA27D02F02102202A09D157
:103F20006268002A00F0C080052B7FF6B3AE252B17
:103F30003FF6B0AE63682BB12B7F03F00F03072B66
:103F40007FF4A8AE03209DF823800FF023F90546E7
:103F500000283FF49FAE0FF037F94FF6FF73EB8068
:103F600005232B71002F3BD17F20AB7E2876002EBE
:103F700008BF4FF0FF0968F34103286885F81990DE
:103F8000AB7629460FF04AF984E60C4A0C490D48F5
:103F900040F2C72326F03DFA85F31188BFF36F8FF7
:103FA0000323184602DF9EE600CA9A3B0000000089
:103FB00059F301008D49FD1A59F50100704B0300BA
:103FC000004B0300E0390300B9F1FF0F8DF8249096
:103FD000C2F380184BD0227E91453FF4AEAE91E7FC
:103FE0001CF0BCFCC0B2C0E7062B8DD04521D940E7
:103FF00011F0010139D1012B10D16B7F0C2B7FF413
:1040000049AE2A7FCDF800900DF123030193D20928
:1040100005F1240320461BF0C5FA08BB2B7F03F0F3
:104020000F03042B7FF436AE6B7F063B1F2B3FF64E
:1040300031AEA37DDB077FF52DAE1CF0C9FB2B7FD6
:104040000278C3F38013B3EBD21F7FF423AE0830A2
:10405000062205F11E012DF0BBFE00287FF41AAEEA
:104060006B7F002B7FF466AF14E66B7F5CE705F196
:104070001E0A09AA5146404619F01EFD00283FF4C9
:104080003EAFE37D03F0010343457FF438AF514673
:10409000062204F108002DF09BFE00287FF42FAFCC
:1040A0002B7F03F00F0348E6962007921CF0C4FC18
:1040B000079A10461CF090FB03200FF06BF8804627
:1040C00000283FF4E7AD0FF07FF84FF6FF73A8F834
:1040D0000630052388F80430002F66D17F23002E98
:1040E00088F8183014BF4B46FF2388F8193098F829
:1040F0001A30D8F800006FF3410388F81A304146AF
:104100000FF08CF81CF064FB06460322337862F350
:10411000030333702B7F3278C3F3801363F3C7122A
:104120000C2332704846737019F072FBE27D9207DF
:104130003FD500283DD03178324641F0400102F8A9
:10414000021B0168C6F8021083889380D5F81E30E0
:10415000B3606B8CB38130461CF0A8FA1CF0F4FA03
:10416000002837D11CF064FDA37D224843F00103F1
:104170002146A3750AB0BDE8F0471CF0CBB9A77D76
:1041800004F1190AC7F380171AE61B4A1B491C4899
:1041900040F2AF4326F03DF9002383F31188BFF3CB
:1041A0006F8F0323184602DF26E61CF0D7FBC3B24D
:1041B00095E7A37D3278C3F3801363F38612334609
:1041C00003F8022BD4F81920C6F80220B4F81D20F9
:1041D0009A80BBE7084A0949094840F2335326F060
:1041E00018F9002383F31188BFF36F8F0323184658
:1041F00002DFB7E76DF30100704B0300084B0300CB
:10420000E0390300000000002DE9F041C468A28AF3
:104210004FF6FF739A4282B000F0DF8005461BF034
:10422000A1FB2B89628B208CA3831A4492B2104489
:1042300094F82730E28380B2411C21845E064FF05F
:104240000001618304F1220100F1A18003F03F002D
:104250000B4694F82810009004F1290018F010FB88
:104260000646D4E90C31A28B02FB0333A26B134444
:10427000E26B8B4294BFD21852188A4228BF0A467A
:10428000E263616C226C94F867301144616494F8C5
:104290007E2094F82C10C3F3020363F3061112F08E
:1042A00004024FF0000384F82C10A363236478D039
:1042B0001CF072F900201CF095F9201D1CF0B2F9D9
:1042C0002389A17A40F25B6043EA01411CF066FA5F
:1042D00030461AF075F8214659481CF01BF9A089A0
:1042E0001CF0AAFB94F8662094F86700C2F3C003A0
:1042F000002102F0070200F007001CF0B5FA20468A
:104300001BF0F0FB27682E6838461AF039F806448F
:104310006A6806F1090100201CF09AFB80461CF037
:104320005BFC00201CF072FCE36B94F8670003F167
:104330002F02636C00F00700012103EB42051CF023
:10434000C3F94544054494F8670000F007000228CB
:1043500025D004280CBF4FF4BC73282301211D4431
:104360001CF0B4F928441CF029FCA18A053132461E
:10437000C9B238461AF012F80546002834D1204652
:1043800019F098FFD0B9002002B0BDE8F0810A46CC
:1043900003F03F03218D18F0BFFA064661E71823AA
:1043A000DCE7D4E91A010CF00DF9002880D194F86B
:1043B0007E3043F0040384F87E3079E7214A2249B5
:1043C00022484FF4B07326F024F885F31188BFF328
:1043D0006F8F0323184602DFD5E71D4821461CF0E6
:1043E00099F81CF085F9CEE7164A1A4917484FF498
:1043F000AB7326F00EF8184B0721A5FB030301FB56
:1044000005310DA3D3E90023FCF77AFE13490246D8
:10441000134825F0FEFF002585F31188BFF36F8F49
:104420000323184602DF0F4821461CF073F81CF0E6
:104430005FF96FF08B00A7E700CA9A3B000000000D
:104440005DFD0100504C0300B43B0300E039030064
:104450002DE50100B83A03008D49FD1AA44C030074
:10446000384B030009E50100F0B5C468A28A4FF695
:10447000FF739A4285B000F08F8005461BF072FAF8
:104480002B89628B208CA3831A4492B2104494F837
:104490002730E28380B2411C21845E064FF0000188
:1044A000618304F1220160D403F03F000B4694F8CD
:1044B0002810009004F1290018F0E2F90646204681
:1044C00003A91BF0EDFB039B94F87E101A7861F3AF
:1044D000C3021A70039A94F87E301178C3F3400334
:1044E00063F3820111701CF057F800201CF07AF879
:1044F000201D1CF097F82389A17A40F25B6043EA03
:1045000001411CF04BF9304619F05AFF039920463F
:104510001BF09AFB21463A481BF0FCFFE0891CF097
:104520008BFA94F8670000F007001CF055F9276833
:104530002E68384619F024FF06446A6806F109011E
:1045400001201CF085FA1CF073FBA18A053132466C
:10455000C9B2384619F022FF054620BB204619F0A3
:10456000A9FE50B9002005B0F0BD0A4603F03F0394
:10457000218D18F0D1F90646A1E7224A22492348A5
:104580004FF4827325F045FF85F31188BFF36F8FD9
:104590000323184602DFE5E71D4821461BF0BAFF5A
:1045A0001CF0A6F8DEE7174A1A491848FA2325F046
:1045B00030FF194B0721A5FB030301FB05310EA3B7
:1045C000D3E90023FCF79CFD14490246144825F06A
:1045D00020FF002585F31188BFF36F8F0323184652
:1045E00002DF104821461BF095FF1CF081F86FF0A8
:1045F0008B00B8E7AFF3008000CA9A3B00000000D0
:104600007DFB0100B04C0300B43B0300E039030024
:104610002DE50100B83A03008D49FD1A004D030055
:10462000384B030009E50100014822F061BF00BFDB
:10463000A002002007B52DF04DF94FF47A72A0FBCF
:10464000020302FB0131C00B074A40EA41401060FF
:1046500000234FF400420548CDE9002323F010FE6B
:10466000002003B05DF804FBA0340020580A0020AD
:10467000014B187800F09CB984780020044B1A781C
:10468000824202D01870FFF7F3BF0020704700BFCE
:104690008478002008B52DF01DF94FF47A72A0FB44
:1046A000020302FB0131084AC30B126843EA41438B
:1046B0009B1A47F23052934204DDBDE808400120C6
:1046C000FFF7DCBF08BD00BFA034002008B52DF007
:1046D00001F94FF47A72A0FB020302FB0131C00B17
:1046E000044A40EA41401060BDE808400020FFF75E
:1046F000C5BF00BFA0340020014B1878704700BF31
:1047000084780020F8B5044610B900252846F8BD85
:104710000378002BF9D00F4E0F4FBE420FD30D4E32
:10472000BE42F2D230682CF076FC30B135682146BA
:104730002868FCF7FFFC0028E8D00436F0E7306872
:104740002CF069FC18B135682B68A342DED0043622
:10475000E3E700BFD0730300EC73030070B5194C9E
:10476000194D8CB00022002303A9204622F050FBF3
:1047700008B10CB070BD2B68059E5868DDE90312C6
:1047800025F041F90028EDDBFF238DF81830B6FA4B
:1047900086F35B0907908DF820302DF09BF84FF4DD
:1047A0007A72A0FB020302FB0131C00B40EA4140D8
:1047B000C90B8DE8030006ABCDE90A010FCB00F071
:1047C00011F9CFE7900B0020543500201FB50A4C9B
:1047D0002468A46884420DD183F00103CDE901125D
:1047E000039306480022002301A922F0B3FA0448EB
:1047F00022F07EFE04B010BD54350020900B002046
:10480000443500201FB50023CDE90233044B8DF859
:104810000C0001A8019325F01DF905B05DF804FB1B
:104820008C2C03000268034B9A420CBF0830002016
:10483000704700BF8C2C0300014B03602820704799
:10484000A4340020044B1A68044B9A4214BF6FF042
:1048500012000020704700BF54350020782C030060
:1048600038B5044628B3144D2B6883421FD02BB1B2
:10487000986818B183685B6803B198470F49104B7B
:104880008C4214BFED2100212822002025F0D5F80C
:1048900000280DDBA0682C6048B1836809491B68BB
:1048A00098472B68986883689B6803B198470020F5
:1048B00038BD6FF01200FBE754350020782C030060
:1048C000A4340020CD47000038B5054648B9064855
:1048D000FFF7C6FF041E02DB2846FFF793FF2046C2
:1048E00038BD6FF01504FAE7782C0300F7B50C46D5
:1048F00015460D4901AA1E4626F0EBF868B1019B4A
:104900006BB9012C0DD1094F224639463046A847D4
:10491000002802DD3878FFF7D7FF03B0F0BD002094
:10492000FBE76FF01500F8E7A25A0300040A002025
:104930000148FFF795BF00BF782C030008B5074971
:1049400007482CF0DEFD074A002342F8043B013300
:10495000282BFAD1BDE80840FFF7EABF5D47000009
:1049600044350020A4340020F8B50F4D0F4E761BBF
:1049700007460C4605EBC105C6F3C706A64201DC97
:1049800000200CE02A683B689A4209D13C716B68B0
:1049900038461B68984718B1431E012BF0D9F8BD63
:1049A00001340835EAE700BFE46403001C65030036
:1049B0001FB50023CDE90233044B8DF80C0001A88C
:1049C000019325F047F805B05DF804FB902C030037
:1049D0000268034B9A420CBF08300020704700BFAA
:1049E000902C030084B030B589B00CAC84E80F0083
:1049F000002301930CAD084B00930FCD02AC0FC404
:104A000095E8030084E80300684625F023F809B020
:104A1000BDE8304004B07047942C03000268034B9B
:104A20009A420CBF08300020704700BF942C03004E
:104A300084B030B58BB00EAC84E80F000023019336
:104A40000EAD084B00930FCD02AC0FC495E80F00DC
:104A500084E80F00684624F0FDFF0BB0BDE830404D
:104A600004B07047982C03001FB50023CDE9023332
:104A7000044B8DF80C0001A8019324F0EBFF05B066
:104A80005DF804FB9C2C030082B038B504A981E8D2
:104A90000C000546114821F0ADFF0446A0B16B683B
:104AA000012B0CD0022B05D0A3B9BDE8384002B0D1
:104AB00024F0E6BF24F0EBFF00282046F5DCBDE83B
:104AC000384002B024F0D5BF6FF00400BDE8384094
:104AD00002B070476FF08500F8E700BF5E5B03002F
:104AE00082B010B502A981E80C0004460B4821F001
:104AF00081FF78B16368022B04D00020BDE810402C
:104B000002B0704724F0C3FF0028CCBF0020012072
:104B10006060F2E76FF00400F0E700BF5E5B030047
:104B20000D4A52F82030013342F820300B4A01235D
:104B3000117883400B430A490978DBB2137023EAEA
:104B400001030849084A097850780B43181A537032
:104B500018BF0120704700BF58350020877800201B
:104B60008578002086780020120A002010B5114AAE
:104B700052F82030002B19DD013B42F820300E4A5C
:104B80002BB913780121814023EA010313700B48EC
:104B90000B4B047810780B4A5978127820EA0400FD
:104BA00010435870401A18BF012010BD6FF0150057
:104BB000FBE700BF5835002087780020857800206B
:104BC000120A002086780020044A012312788340CC
:104BD000D8B213401B1A58425841704787780020BA
:104BE00010B5084B084A1870084B51781C78084BD0
:104BF0001B7823EA040318435070401A18BF0120A1
:104C000010BD00BF86780020120A002085780020A1
:104C100087780020074B00221A70074B074A197843
:104C2000074B50781B7823EA0103181A537018BFFA
:104C3000012070478678002085780020120A002025
:104C400087780020A0F1E003072B03D82030C0B202
:104C5000FFF766BF064B062213F8011F19B1013A90
:104C6000FAD10020704718700028F8D0F9E700BF8B
:104C7000140A0020A0F1E003072B10B405D820305F
:104C80005DF8044BC0B2FFF771BF0023064A194616
:104C900012F8014F0133A04208BF1170062BF7D163
:104CA00000205DF8044B7047140A0020A0F1E003D7
:104CB000072B03D82030C0B2FFF786BF064A002377
:104CC00012F8011F884204D00133062BF8D10020CE
:104CD00070470120704700BF140A0020024B0022D9
:104CE0001A605A60704700BF130A0020B0F5805F59
:104CF00010B510D20949002301EB4302B2F801407C
:104D000024B10133062BF7D1002010BDA2F8010019
:104D10000028F6D0F8E76FF08500F6E7050A0020D6
:104D200030B50023074C194604EB43020133B2F8B7
:104D30000150854204BF51709170062BF4D10020C0
:104D400030BD00BF050A0020024B00221A605A60E5
:104D50009A607047060A0020074A002302EB4301CD
:104D6000B1F80110814204D00133062BF6D10020A6
:104D700070470120704700BF050A002000487047B7
:104D8000120A002000487047050A002008B5074BAA
:104D90001B78012B06D1FFF7F1FFBDE80840013079
:104DA00000F05CBD6FF0850008BD00BF78350020C5
:104DB00008B5074B1B78012B06D1FFF7E3FFBDE8D1
:104DC0000840013000F070BD6FF0850008BD00BFE5
:104DD0007835002037B508490848094D6C462CF055
:104DE000ECFB204624F01FFF94E8030085E8030055
:104DF000002003B030BD00BF054E0000B80E0020FB
:104E00007835002002490348012202F0B7BE00BFF6
:104E100088780020985B030082B00DF1080C0CE943
:104E2000030019469DF8003010461BB1012B05D038
:104E3000054A00E0054A02B023F0AABA019B044AE1
:104E400002B023F0A5BA00BFB75B0300AC5B030060
:104E5000B05B030030B589B001AD0F4C284624F09B
:104E6000E2FE94E80C0095E8030024F0E7FE80B928
:104E700024F00BFF95E803000A2305AA84E8030049
:104E8000FFF7CAFF94E8030003AB83E8030000F0D8
:104E900023F809B030BD00BF7835002070B50C464E
:104EA00015460B4900221E4625F013FE08B90020C6
:104EB00070BD012C08D1074922463046A84700287A
:104EC000F6DDFFF7C7FFF2E76FF01500F0E700BF70
:104ED000A25B0300887800207FB56B4683E803005F
:104EE00093E80300002206AB03E90300039202A843
:104EF000034A029224F0AEFD07B05DF804FB00BF48
:104F0000242D0300F0B5022885B05BD898B911B9FB
:104F1000002005B0F0BD2D4C2D4B26681D6846F0D5
:104F200001032360002A4BD19E4214D1284B1B68F9
:104F3000AB4210D1ECE7264B1D687ABB39BBC540AC
:104F4000EB07E5D4214D01232C68834024EA0306B6
:104F50001C422E60DCD08DF800008DF801108DF819
:104F600002202CF0B7FC4FF47A72A0FB020302FB84
:104F70000131C00B40EA4140C90BCDE9020104AB4D
:104F800013E90F0005B0BDE8F04000F073B80F4C16
:104F900001232668834033432360C5E70B4F012478
:104FA0003E68844021B146EA04033B602C4304E0A0
:104FB00026EA04033B6025EA0404054F3C60B3E79E
:104FC0000124F3E76FF01500A3E700BF20360020AF
:104FD00024360020272937B504460D4602D9002083
:104FE00003B030BD0228FAD801A8FFF725FC00283D
:104FF000F5DB8542F3DA019B53F82530272BEED8F9
:105000004FF4F07202FB04F00C2202FB0300014B90
:105010001844E5E7302D03002DE9F74FDDE90CAB2F
:10502000DFF84C9007460C4615461AB10F4B1B682B
:1050300049F8213002265FFA86F859F824104046D4
:1050400024F07EFE30B9013EF5D26FF0850003B04A
:10505000BDE8F08FCDE900AB2B46224641463846ED
:1050600024F080FE0028F2DDEDE700BF20360020AE
:105070008035002010B58AB06C4684E80F0000230C
:105080000593064B049394E80F000AAC04E90F0063
:1050900004A824F0DFFC0AB010BD00BFD03203002A
:1050A00084B030B589B00CAC84E80F0000230193C4
:1050B0000CAD084B00930FCD02AC0FC495E8030074
:1050C00084E80300684624F0C5FC09B0BDE8304020
:1050D00004B07047D83203000268034B9A420CBFF9
:1050E00008300020704700BFD83203007FB56B4600
:1050F00083E8030093E80300002206AB03E9030002
:10510000039202A8034A029224F0A4FC07B05DF8BF
:1051100004FB00BFDC320300074B1A78074B82B058
:10512000162102FB013301938DF8002002AB13E935
:10513000030002B0FFF7DABF9078002091780020DA
:1051400002490348012202F019BD00BF90780020F7
:10515000555C030008B5002004F0AEFB002802DA1D
:1051600010F1780F07D1044825F0B0FC034804493A
:105170002CF023FA002008BD00030020E80E0020D8
:105180004151000070B503788AB004460E4607AD61
:10519000032B20D8DFE803F002191B1D1149284614
:1051A000FBF7D2FF059563780493A3780393E37824
:1051B00002932379019363790093A3790A4A1E210C
:1051C000304623F0E5F80AB070BD0849E7E7084922
:1051D000E5E70849E3E7084A0A21284623F0D8F81A
:1051E000E0E700BF685C0300915C03006F5C0300B4
:1051F000765C0300805C03008A5C030010B592B00B
:10520000044626F0C3FF01A9FFF7BCFF09A9204609
:1052100006F064FE9DF82530012B13D10A4822F0D8
:1052200067F9204626F0B2FF084B19780F221623A3
:1052300013FB01230649194424F0FFFD10B905486A
:1052400022F056F912B010BD1C0300209078002007
:10525000917800202C0300202DE9F0418AB00D4602
:10526000164628496A4604461F4625F032FCF8B126
:105270000098E8B10A2201A923F054F9019B1B7898
:1052800003BB162D1ED1C4B2042C1BD8DFF88880B6
:105290006C432A4608EB04013846B047002813DD6A
:1052A00004F10F0002A94044FFF76CFF00200BE05F
:1052B00015496A46204625F00CFC78B1009B6BB975
:1052C000012D04D06FF015000AB0BDE8F0810F4940
:1052D0002A463846B04700EAE070F5E70C496A46CE
:1052E000204625F0F6FB0028E0D000980028DDD00D
:1052F000072DE7D12CF068FD0028D7D105492A46B3
:10530000E7E700BFB45C0300595C0300907800201D
:10531000BD5C03008978002091780020042808B53E
:105320000CD80F22162313FB002305480549184407
:1053300024F083FDB0FA80F0400908BD0020FCE7AE
:1053400091780020855E0300014B1878FFF7E6BFD7
:10535000907800202DE9F0410C468EB005464FF0C4
:10536000160806A9204615FB08F7FFF70BFF0D4EA0
:10537000216807F10F029319B150A2889A80A2798F
:105380009A7109492A4601A823F02EF84246F119DC
:1053900001A802F0F3FB054822F0AAF80EB0BDE820
:1053A000F08100BF91780020D25C03002C03002024
:1053B00038B50F23162414FB0034094B09491C444B
:1053C0000546204624F039FD48B12146002004F06E
:1053D00023F828460349BDE83840FFF7BBBF38BD76
:1053E00091780020855E030010B504288AB002D9A8
:1053F00000200AB010BD0F23162414FB00340D4BFF
:105400000D491C44204624F018FD0028F0D0214608
:10541000002006F0E5FC04460028E9D001A906F0CA
:105420005DFD204606F062F99DF82400831E584277
:105430005841DEE791780020855E0300014B187823
:10544000FFF7D2BF90780020F0B58DB0FFF77CFF5A
:1054500098B9FFF7F3FF80F001035B00DBB2214D49
:105460002A7803EB0213112B09DC022B2DD0102B11
:1054700023D0002420460DB0F0BD0223EFE7202BFF
:105480001BD0122BF5D105F0D1F900232B70044667
:105490000028EFD1144F0FCF02AE0FC63B6813495F
:1054A000336003220094234602A805F08DF90446D8
:1054B0000028DFD102232B70DBE705F0B7F90023CA
:1054C0002B7004460028D4D0D4E7074E0FCE07AC8B
:1054D0000FC433682360002304490093032207A804
:1054E000E3E700BFFF780020402803003C030020D2
:1054F00030B593B0054626F049FE01A90446FFF7F2
:1055000041FE09A9284606F0E9FC9DF82530012B4B
:1055100005D1FFF719FF214618B903F07DFF13B03D
:1055200030BD034B1878FFF715FFFFF78DFFF6E747
:105530009078002030B593B00D4609A9044606F0D6
:10554000CDFC9DF82530012B0BD1204626F01EFE08
:1055500001A9FFF717FE0E4B00221A701DB1FFF7CD
:1055600073FF13B030BDFFF76FFF204626F00EFE2D
:10557000084B19780F22162313FB012306491944FF
:1055800024F05BFC0028ECD1044821F0B1FFE8E7EF
:10559000FF78002090780020917800202C030020D4
:1055A00008B5064806F0DCFB054806F015FE054880
:1055B00006F02CFEFFF748FF002008BDDC020020AB
:1055C000C0020020B002002008B5044B1878FFF795
:1055D000EFFEBDE80840FFF737BF00BF907800201E
:1055E000014B1878704700BF90780020042808B558
:1055F00010D80A4B1A7882420AD018704FF4F01271
:105600000023074822F016F8FFF71EFFFFF784FD7E
:10561000002008BD6FF02100FBE700BF907800205C
:10562000E80E0020054B187805230130B0FBF3F39A
:1056300003EB8303C01AC0B2FFF7D8BF90780020F5
:10564000054B187805230430B0FBF3F303EB830319
:10565000C01AC0B2FFF7CABF90780020042838B53E
:105660001DD80F23162414FB00340E4B0E491C4486
:10567000204624F0E2FB18B96FF01204204638BD32
:105680002146002006F0ACFB05460028F4D013218B
:1056900026F053FC0446284606F028F8EEE76FF0A3
:1056A0002104EBE791780020855E030010B50A4BDA
:1056B0000A491A7816240F2314FB0234084B1C44A1
:1056C000204624F0BAFB28B121460020BDE8104056
:1056D00006F086BB10BD00BF90780020855E0300F9
:1056E0009178002070B5164D90B0044601462846CA
:1056F00024F0A3FBE8B108A92846FFF743FD1149B0
:10570000284624F09AFB0646B0B969462046FFF7C2
:1057100039FD23682B60A388AB80A3790A49AB715C
:10572000324608A822F060FE0722214608A802F0AF
:1057300025FA002010B070BD6FF00B00FAE700BF33
:1057400089780020855E0300E25C03001FB54D24CC
:105750000294044C0194BDF81840009428F043F9D9
:1057600004B010BD1A5D030007B5064B009306494F
:10577000064805234FF4407221F0C0FE002003B01C
:105780005DF804FBF8320300807A0020180F002037
:10579000F0B5164E164F89B00022002369463046F8
:1057A00021F036FB054608B109B0F0BDFFF77EFFDA
:1057B00004460028F8D01822294602A82CF07EF9C9
:1057C00008230DEB030120460397CDF810D0ADF868
:1057D000143008F01FFD013003D10221204626F0CD
:1057E00096FC204605F082FFD6E700BFF00B0020B4
:1057F000643303002DE9F041164FDFF85C808AB076
:1058000001AE002200233146384621F001FB054657
:1058100010B10AB0BDE8F081FFF748FF0446002848
:10582000F7D01822294604A82CF048F90C2304A923
:105830002046CDE90586ADF81C3008F0EBFC0130C0
:1058400003D10221204626F062FC204605F04EFFDF
:10585000D7E700BFC00B0020B433030037B50546BF
:1058600040F6CD42014600230C4821F073FA04466D
:1058700078B110F10B0F09D10022002369460748C7
:1058800021F0C6FA2846FFF7E9FF0446204603B098
:1058900030BD034903482BF05FFEF7E7F00B002013
:1058A00064030020180F002030B5054685B040F68F
:1058B000CD42014600230D4821F04CFA044678B150
:1058C00010F10B0F09D10022002301A9074821F094
:1058D0009FFA2846FFF7E8FF0446204605B030BD92
:1058E000034904482BF038FEF7E700BFC00B002047
:1058F00054030020180F00201FB50023CDE9023308
:10590000044B8DF80C0001A8019324F0A3F805B016
:105910005DF804FB3034030008B500F09DFEBDE8DF
:10592000084001492BF018BE3404002013B5114B78
:105930001C68A3683021DB6820469847C0B9A3687B
:105940006A461B6930212046984788B90A4C00985E
:105950002378834204D0C0B22070FFF7CDFF38B95E
:1059600002F0DEF82378984202D0184602F0DEF802
:1059700002B010BD283600200179002007B5094B80
:1059800018682BF048FB48B14FF4F0120023CDE922
:10599000002305480022002322F072FC03B05DF8CA
:1059A00004FB00BF28360020900A002008B5FFF74E
:1059B0000FF810B96FF0850008BDFEF79DFE38B1F5
:1059C0000138C0B20128F5D803482BF0CAFF01E026
:1059D000FFF7D4FF0020EFE7900A002008B5084841
:1059E00021F008F8074A106010B96FF0120008BDE6
:1059F0002BF011FB0028F8D0FFF7C0FF0020F6E7DE
:105A0000A65D030028360020064A1278022A00F11B
:105A1000FF3315BFC0F101000023C018037008BF99
:105A2000012070472C360020014B18600020704781
:105A3000C836002007B56846FFF7E6FF88B10128A1
:105A400014BF01230223084A1278002062F30700E2
:105A5000064A127862F30F2063F3174003B05DF833
:105A600004FB0346EFE700BF027900200479002021
:105A700013B50C4B1C6894B1FFF7DCFF8DF80400E4
:105A8000C0F30723C0F307408DF805308DF80600FA
:105A900001990548234602B0BDE81040184702B0FE
:105AA00010BD00BFC8360020EC73030013B50E4BC9
:105AB00001221A700D4B1C6894B1FFF7BBFF8DF8E3
:105AC0000400C0F30723C0F307408DF805308DF8BC
:105AD000060001990648234602B0BDE81040184769
:105AE000204602B010BD00BF02790020C836002059
:105AF000EC73030013B500240849094800940523FA
:105B00004FF4007221F0FAFC064806F029F9064825
:105B100024F0DCFF204602B010BD00BF007E002054
:105B20000010002070040020440400201FB50E4B1C
:105B30001878A0B10D4B1878A0B90D4A526872B907
:105B400001221A700B4A1068516801AB03C39068B8
:105B50001860094901A805F07DF900EAE07005B078
:105B60005DF804FB0020FAE70479002003790020A7
:105B70002C36002054280300C561000008B5FEF74C
:105B800051FE10B1024821F0B3FC002008BD00BF57
:105B90009404002030B50E4C0E4D87B00022002337
:105BA00002A9204621F034F908B107B030BDDDF874
:105BB00011009DF8153000908DF80430DDF80920B3
:105BC000DDF80D309DF80810284600F031FCE5E7BF
:105BD000600B0020EC73030070B503788AB00446B4
:105BE0000E4607AD032B20D8DFE803F002191B1D7A
:105BF00011492846FBF7A8FA059563780493A37822
:105C00000393E37802932379019363790093A37953
:105C10000A4A1E21304622F0BBFB0AB070BD08497B
:105C2000E7E70849E5E70849E3E7084A0A21284683
:105C300022F0AEFBE0E700BF685C0300915C03006C
:105C40006F5C0300765C0300805C03008A5C0300E9
:105C500008B5FEF7F7FD014604480378022B04D18E
:105C6000BDE80840C9B224F092B908BD2C36002026
:105C700008B50A4B187018B1BDE80840FFF756BFC9
:105C8000074B187005F036F9064B1A78022A03D133
:105C90005868132126F051F9002008BD047900202E
:105CA000037900202C3600202DE9F041DFF8B88080
:105CB0002C4D92B00022002309A9404621F0A8F8FB
:105CC000044670B99DF824009C2606FB00F3EA18F0
:105CD000EB5C022BEED19DF82570012F04D0022F32
:105CE00039D012B0BDE8F081B2F87830002BE1D0A5
:105CF000DDF83E308DF810309DF842308DF81130CF
:105D00009DF84330CDF81B40003B18BF01238DF8B0
:105D10001230DDF83630CDF813300DF12601DDF804
:105D20003A30CDF8173009220DF11B00CDF81F4095
:105D30008DF8234023F079FD9DF824000097CDE9EC
:105D4000014406FB00501423B0F87810406804AA00
:105D500028F040FAAEE79DF8261000FB065024F02C
:105D600016F9A7E72C360020200C002084B030B5AF
:105D700091B014AC84E80F001348214640F6CD42A0
:105D8000002320F0E7FF0446C8B110F10B0F10D13B
:105D90000022002307A90C4818AD21F039F80FCDD7
:105DA0006C460FC42B68238014AB0FCBFFF7DEFFCC
:105DB0000446204611B0BDE8304004B070470349A6
:105DC00003482BF0C9FBF4E7200C002060040020FE
:105DD00000100020034B5B68834214BF6FF0150076
:105DE000002070472C36002008B5FFF7F3FF031E94
:105DF000A3BF03489C2202FB0300002008BD00BF94
:105E00002C36002010B51446FFF7EEFF50B1B0F865
:105E10007A303BB134B9012904D9BDE810400248B9
:105E200021F066BB10BD00BF94040020F0B51346FE
:105E300087B0064631B9182218462BF03FFE0020E5
:105E400007B0F0BDFFF7D0FF04460028F7D0114B94
:105E5000876801AA03F1100E944618685968154620
:105E600003C5083373452A46F7D11B782B7061466A
:105E7000384624F0F0FF08B10120E1E7064BE3606B
:105E80000323A060237604F10801304608F0CCFA21
:105E9000D5E700BF602803009D5E00002DE9F041BA
:105EA000074690B016460D46002900F08D80C9685F
:105EB000002900F08B80FFF797FF0446002842D0AE
:105EC000337C032B33D1424BD1F8008001AA03F17C
:105ED000100E944618685968164603C60833734571
:105EE0003246F7D11B7833706146404624F0B3FF49
:105EF00060BB04F160032363E38AA385284627F08F
:105F00008FFD344B236201222085A28604F13803E1
:105F1000BFF35B8F53E8001F43E800200028F9D14E
:105F2000BFF35B8F04F12001384608F055FDB4F84B
:105F3000783033B1238D23B1B4F87A30003B18BFE9
:105F4000012383F0010010B0BDE8F081224B06AAC6
:105F500003F1100C174618685968164603C6083333
:105F600063453246F7D11B7833703946404624F0FA
:105F700072FF48B9A0602B8A02332382284627F09B
:105F80004FFDA4F87800D2E7EB681F68134B0BAA0B
:105F900003F1100E944618685968164603C6083374
:105FA00073453246F7D11B7833706146384624F08A
:105FB00052FF0028BBD1284627F032FDA4F87A0012
:105FC000074821F095FAB2E70846BCE70846BAE769
:105FD00071280300E55F0000822803009328030076
:105FE000940400202DE9F04F85B006461446FFF7D3
:105FF000FBFE00284DD024B90C81204605B0BDE839
:10600000F08F631E00F17B020F3413F8011F12F8AA
:10601000015F6940117419781170A342F5D1DFF85E
:106020007890DFF878A000F18C0400274FF0010889
:1060300000252378EB40DB0723D514F8102C08FA51
:1060400005F31A424FF000014FF00E02684614BFEC
:106050004FF0010B4FF0000B2BF030FD3046FFF7F7
:10606000B9FE7B198DF800008DF802308DF803B071
:10607000002200236946484620F06CFE504621F07D
:1060800037FA0135082DD4D10837802F04F10104E7
:10609000CED10120B2E700BF600B0020B404002085
:1060A0002DE9F043044685B0002837D11D4E3378E2
:1060B000A3B3706810B105F019FB746000241A4F87
:1060C000DFF86880DFF86890347000253B78EB409B
:1060D000DB0710D50E22002168462BF0EFFC631978
:1060E0008DF80230002200236946404620F032FE3F
:1060F000484621F0FDF90135082DE7D10834802C00
:1061000007F10107E1D10848202200212BF0D6FC3D
:1061100000203085B06705B0BDE8F0836FF0150052
:10612000F9E700BF2C360020A8360020600B0020C5
:10613000B404002070B5FFF7D5FA041E0ADB9C25D5
:10614000064E6543735D2BB9FFF7AAFF0123735514
:10615000204670BD6FF00B04FAE700BF2C3600201C
:1061600070B586B00646FFF7E5FF041E20DB124B34
:1061700000221A7004F0BEFE002819DB0F4B186DC8
:10618000596D6A4603C2583315460FCB85E80F0098
:106190000B4B9C2202FB043329466A46304605F02D
:1061A00001FF002804DA2046FFF77AFFFFF7BEFC64
:1061B000002006B070BD00BF037900205428030002
:1061C0003036002070B588B01546694604461E4634
:1061D000FFF702FD35B906492246304624F002FF9A
:1061E00008B070BD012DFBD12046FFF7B9FFF7E7DE
:1061F000F5610000F0B50378063B012BA5B005461C
:106200000E4602D9012025B0F0BD447814F00F04E9
:10621000F8D16B789C42F5DA69681022214401A814
:1062200024F047FE70B31A4B06AA03F110079646F6
:10623000186859689446ACE803000833BB426246CC
:10624000F6D11B788CF80030714601A824F003FECB
:10625000D0B1252210A901A802F06EFE0BAA0C4BAA
:106260009646186859689446ACE803000833BB4268
:106270006246F6D11B788CF8003025221AA97046A8
:1062800002F05AFE1034C4E73046FFF769FFBAE760
:106290006028030010B588B0044625F077FF6946F2
:1062A000FFF79AFC204623F0C2FE034821F020F9B4
:1062B000FFF73CFC08B010BDA404002008B5FFF7B0
:1062C00089FD002805DB9C235843024B02221A5407
:1062D000002008BD2C36002030B59BB004460D468A
:1062E00025F054FF6946FFF777FC08A9204605F022
:1062F000F5FD9DF821302BB920462DB123F097FEF6
:10630000FFF714FC1BB030BDFFF7D8FF2046FFF7A6
:106310006BFD38B1038D4BB111A9204605F0DEFDB0
:10632000FFF704FC0A4821F0E3F8EBE7094A826032
:10633000094AC260012202824FF6FF72C2820376CE
:1063400000F10801406808F06FF80028E4D0E9E7A0
:10635000A4040020DE5D03002D5E000073B5194C1F
:10636000194EB442254602D36FF0120008E02B68A4
:10637000DB68043433B9154C2368AB4211D10020DB
:1063800002B070BD9847C0F307238DF804008DF864
:106390000530C0F30743C0B28DF806300028E0D0C6
:1063A000E9E723B11B689B680BB1002098472B6875
:1063B00025609B68002BE2D0012002B0BDE8704050
:1063C000184700BFEC730300F0730300CC360020C5
:1063D00007B5094B01911B68834207D19DF8063030
:1063E00033B903B05DF804EBFFF7B8BFFFF7B6FFB2
:1063F000002003B05DF804FBCC36002070B5094CDA
:10640000094D0A4EAC42234603D3BDE87040FFF766
:10641000A5BF1B681B690434002BF3D03046984796
:10642000F0E700BFEC730300F0730300D1630000DA
:1064300082B070B58CB010AC84E80C00334B9DF882
:1064400041501B689DF8424083425CD19DF84060FA
:1064500046B1012E27D06FF085000CB0BDE870402A
:1064600002B07047003C18BF01248DF8101005954C
:106470008DF818402BF02EFA4FF47A72A0FB02032D
:1064800002FB0131C00B40EA414012ABC90BCDE920
:10649000080183E8030004AB0FCB0CB0BDE87040EB
:1064A00002B0FEF79FBA122200210DF11E002BF060
:1064B00005FB04962BF00EFA4FF47A72A0FB020350
:1064C00002FB0131C00B40EA41408DF84150C90B3D
:1064D0008DF84240CDE908019DF84B30DDF84100D0
:1064E000DDF845108DF8283005AB03C3BDF8492011
:1064F0001A800CAB13E90F008DE80F0004AB0FCB33
:10650000FEF796FAA9E76FF01500A6E7CC36002053
:1065100082B0F0B5254D91B00C4616A981E80C006B
:106520002B680646002B3DD01B68002B3AD01B6819
:10653000002B37D0202200210DF11D002BF0BEFAD8
:1065400001238DF81C306368CDF82D30A368CDF899
:106550003130179BCDF835309DF8683021688DF8C3
:10656000393010229DF870308DF83A300DF11D0051
:1065700023F05BF92B680AADD3F800C00FCD6C4651
:106580000FC495E8030044F8040B07AF217097E8A7
:106590000E00DCF800403046A04711B0BDE8F040E6
:1065A00002B070476FF01200F7E700BFCC36002052
:1065B00008B5044800F03CFD002818BF6FF0150036
:1065C00008BD00BFF1650000084B1B780B2B4FF096
:1065D00001000AD8984010F4CD6F05D110F4016F76
:1065E0000CBF012000207047022070472A0A0020BB
:1065F0000A2808B5024613D00A4B0B491870FFF75A
:10660000E3FF02280AD10B78032A08BF43F00103F5
:106610000B70BDE80840054820F06ABF0023F7E78B
:1066200008BD00BF2A0A002005790020C40400200C
:1066300007B5064B0093064906480A234FF44072FB
:1066400020F05CFF002003B05DF804FB543403002D
:1066500080800020E810002000487047E8100020EB
:10666000014B1B68184700BFD4040020014B186081
:10667000704700BFD404002030B585B004460D46F5
:106680001022002168462BF019FA02238DF80230FF
:106690002A46044B01932146684622F045F805B08E
:1066A00030BD00BF6166000080B505460E46174646
:1066B000984621F007FB03462BF0A0FDDFF8189069
:1066C000044649F80030424630463946A84754F857
:1066D000090001F041FD00BF0800000008B50446B4
:1066E000EFF31183202383F31288BFF36F8F1DF024
:1066F00091FB204601F01EFD024823F07DFE24F0B0
:106700003CFAFCE7075E03002DE9F047058B0446E1
:106710002807904611D4022905F0070540F0CC80E7
:10672000204623F017FF78B10138218B042811D8B7
:10673000DFE800F0C2106D85950001290CBF45F01F
:10674000100545F02005258388F31188BFF36F8F6E
:10675000BDE8F08701F0070AAA4500F0A5800027F0
:10676000B9463E46A368002B00F0BC8041F008010A
:10677000218388F31188BFF36F8FA168002900F08F
:10678000BA800D68002900F0B680D1F80480334645
:1067900052462046C047002D76D02B6829461D461C
:1067A000F0E701F007035A1F012A1BD8002221F04D
:1067B0000701062B276889B2C4E9002209D13B46AC
:1067C00003E0628B013262831B68002BF9D141F038
:1067D00002012183204623F0BDFE00287AD041F03B
:1067E000200176E0042B0AD121F0070189B2218330
:1067F000204623F0AFFE10B141F020012183218B10
:1068000001F0070AAA454FD00027B946AAE7236935
:1068100021F0070141F00601062DD3F800902183F5
:106820002DD1B9F1000F3FD041F00801218388F349
:106830001188BFF36F8F3A492046C84729E021F0FD
:106840000701236941F0040189B2042DD3F80490B3
:106850002183E6D000273E464FF0040A82E721F06C
:106860000701236941F0050189B2052DD3F808908D
:106870002183D6D000273E464FF0050A72E7002755
:106880003E464FF0060A6DE72B4687E7B9F1000F49
:10689000D1D1EFF31188202383F31288BFF36F8FD8
:1068A000238B23F008032383258BEA062ED525F0BE
:1068B0001003238305F007056669218B002EBFF6C0
:1068C00070AF00232768C4E9003321F0070141F0CD
:1068D00001012183218B01F0070AAA454FF000092D
:1068E0007FF440AF002F9CD041F00801218388F352
:1068F0001188BFF36F8F002FC8D03D6839463346EB
:106900005246204623F052FE2F46F4E7AB067FF5B1
:106910001BAF25F02003238305F0070500E700BF28
:10692000D9A50200014B0360002070475C340300CE
:10693000F0B40C4B0C4E5F6A0C4BB34203D36FF0B8
:106940008500F0BC70475D68BD4209D31C693CB14D
:1069500095F802C00579AC4502D12346F0BC184732
:106960002433EAE7D0360020B40E0020900E002039
:106970002DE9F047134CDFF85080DFF850900546C2
:106980000E461746444503D36FF08500BDE8F087F7
:106990006268D9F824309A4212D3A36983B19078FF
:1069A0002979884205D13A4631462846BDE8F04764
:1069B00018475279012A03D13A463146284698476A
:1069C0002434DFE7900E0020B40E0020D0360020E3
:1069D0002DE9F0410B4CDFF8308005460E46174696
:1069E000444502D36FF0850009E063690BB9243494
:1069F000F6E73A463146284698470028F7D1BDE8E1
:106A0000F08100BF900E0020B40E002010B50446A7
:106A100028F0BBFC10F1780F00D050B9054A204691
:106A200023F04BFFD2F8C43023EA0003C2F8C4308D
:106A3000002010BDD0360020024B00221A605A60A0
:106A4000704700BF8B37002070B50B4B0B4CA34237
:106A500001D3002070BD196A1E7F00220439D5B20F
:106A6000AE4201D82433F2E7013211F832508542A8
:106A7000F5D10120EEE700BF900E0020B40E0020FB
:106A800008B509480378C3F341130A3350F823309B
:106A90003BB100F1080200F110019847C043C00F5C
:106AA00008BD1846FCE700BFD036002004282DE9B9
:106AB000F14FDFF8A09004460F4616D001282DD1E3
:106AC000DFF88C8098F8B93043B300F0D9FD1F4D42
:106AD0004D4520D2D5F820B04FF0000A2B7F5FFA49
