:101000008080002041540000DF3602002D54000093
:101010002D5400002D5400002D540000000000004D
:101020000000000000000000000000005D5500000E
:101030002D54000000000000C15400002D54000099
:10104000F157000009750100F1570000F157000049
:10105000F1570000F1570000F1570000F157000070
:10106000F1570000F1570000F1570000F157000060
:10107000F1570000F1570000F1570000F157000050
:10108000F1570000F1570000F1570000F157000040
:10109000F1570000F1570000F1570000F157000030
:1010A000F1570000F1570000F1570000F157000020
:1010B000F1570000F1570000F1570000F157000010
:1010C000F1570000F1570000F1570000F157000000
:1010D000F1570000F1570000F1570000F1570000F0
:1010E000F1570000F1570000F1570000F1570000E0
:1010F000F1570000F1570000F1570000F1570000D0
:1011000053B94AB9002908BF00281CBF4FF0FF316E
:101110004FF0FF3000F00CB8ADF1080C6DE904CED3
:1011200000F022F8DDF804E0DDE9022304B07047A6
:10113000704700BF10F8012B11F8013B012A28BFAE
:101140009A42F7D0D01A7047034611F8012B03F8E2
:10115000012B002AF9D17047034613F8012B002A0E
:10116000FBD1181A013870472DE9F04786468C46A6
:101170000846089E154674461946002B40F0C2806A
:101180008542B2FA82F245D94AB1C2F1200300FA8F
:1011900002FC2EFA03F3954043EA0C0C94404FEA0C
:1011A000154EA8B2BCFBFEF8230C0EFB18CC08FBB6
:1011B00000F943EA0C43994528D9EB1808F1FF37A9
:1011C00004D2994502D9A8F102072B44A3EB0903E5
:1011D000A4B2B3FBFEFC0EFB1C330CFB00F044EA94
:1011E0000344A04214D92C190CF1FF3304D2A042BD
:1011F00002D9ACF102032C44241A43EA07401EB181
:10120000D440002334607360BDE8F0874746DDE7D3
:101210006346F1E792BB431B01214FEA154EAFB283
:10122000B3FBFEFC200C0EFB1C330CFB07F840EA62
:101230000343984562D9EB180CF1FF3004D298456E
:1012400002D9ACF102002B44A3EB0803A4B2B3FB18
:10125000FEFC0EFB1C330CFB07F744EA0344A742D9
:101260004ED92C190CF1FF3304D2A74202D9ACF1AC
:1012700002032C44E41B43EA0040C0E7C2F1200310
:1012800020FA03F1954090402EFA03F303434FEA0E
:10129000154EAFB2B1FBFEFC0EFB1C10190C0CFB83
:1012A00007F841EA0041884504FA02F422D9691896
:1012B0000CF1FF3004D2884502D9ACF10200294478
:1012C000A1EB08019BB2B1FBFEFC0EFB1C110CFB59
:1012D00007F743EA01439F420ED9EB180CF1FF31A7
:1012E00004D29F4202D9ACF102012B44DB1B41EA3C
:1012F000004192E76046E3E76146F7E76046A3E70F
:101300006346B7E7834206D916B9002108467BE752
:10131000C6E900E0F9E7B3FA83F78FB9834201D356
:10132000724508D8BEEB020460EB030301209C4623
:101330001EB9002168E73846FAE7C6E9004CF8E72D
:10134000C7F1200CBB4022FA0CF41C432EFA0CF11E
:1013500020FA0CF3B84001434FEA14490EFA07F59E
:10136000B3FBF9F81FFA84FE09FB18300B0C08FBDD
:101370000EFA43EA00439A4502FA07F240D9E3180D
:1013800008F1FF3004D29A4502D9A8F102002344A3
:10139000A3EB0A0389B2B3FBF9F809FB183308FB86
:1013A0000EFE41EA03418E452CD9611808F1FF3346
:1013B00004D28E4502D9A8F10203214443EA004039
:1013C000A0FB0298A1EB0E014145CE46434602D355
:1013D00006D14D4504D2B9EB020E68EB0403013887
:1013E000002EA6D0B5EB0E0261EB030101FA0CFC56
:1013F00022FA07F34CEA0303F940C6E9003198E703
:101400004046C5E74346D9E7F7B5002101AA40F6B3
:10141000034005F0F9F90446002869D10198C36832
:101420001B788BB9BFF35B8FB94B1A68BFF35B8F27
:1014300002F00902BFF35B8F53E8001F43E800246A
:10144000002CF9D1BFF35B8F04F07CFC01AA0021D2
:1014500041F2030005F0D8F90446002848D1019A6A
:10146000AC4DD168D1F80100D1F8051005F1780331
:1014700003C3104604F066FC214601AA41F20100B4
:1014800005F0C2F9044698BB0198C3685A7885F8FC
:1014900070205A88A5F872201A7985F87120B3F85F
:1014A0000720A5F87420B3F80530A5F8763004F0CD
:1014B00049FC214601AA41F2020005F0A5F90446C3
:1014C000B0B9019FFA6805F18006531C41321868D3
:1014D0005968344603C4083393422646F7D1384648
:1014E00004F030FC95F87C305B0604D46FF01204F5
:1014F000204603B0F0BD01AA002142F2030005F02E
:1015000083F904460028F3D1019B834EDA68D2F8B0
:101510000100D2F8051003C6184604F013FC21465A
:1015200001AA42F2020005F06FF904460028DFD15B
:10153000019CE368B3F8012091B249B1D97839B17F
:10154000A5F80421DA78114606F1280027F0CFFB30
:10155000204604F0F7FB95F87C601F2316F0200668
:10156000A5F8203118D1022140F66D4004F0CEFFDD
:101570000446002800F0C48002210C3022F064F9F7
:101580000123037046702146324640F66D4005F057
:101590003BF904460028ABD195F89C301F0712D5C3
:1015A00001AA002142F21C0005F02EF90446002891
:1015B0009ED10198C368D3F80120D3F80530C5E95E
:1015C000382304F0BFFB95F8D8309E0624D50DF1E2
:1015D0000201684622F072FD0446002888D10421E9
:1015E00042F2240004F092FF0646002800F08880B2
:1015F00004210C3022F028F9BDF800300380BDF83A
:10160000023043802246314642F2240005F0FCF8C5
:10161000044600287FF46CAF95F8D8305C0610D5EE
:1016200001AA002142F22A0005F0EEF80446002843
:101630007FF45EAF0198C3685B7885F8223104F0CF
:1016400081FB082142F2010004F060FF04460028FB
:1016500056D008210C3022F0F7F895F8D81011F088
:10166000400F024640F2022308BF032388074CBF05
:1016700043F02C0043F00C0095F8D9308F0648BF9A
:1016800040F0400013F0090F18BF40F40060CE078F
:1016900048BF40F01000002122F041FB214600220B
:1016A00042F2010005F0B0F8044600287FF420AFB4
:1016B00095F87C30B5F80411980624D4C9B901AA6C
:1016C00041F2050005F0A0F8044600287FF410AFB1
:1016D000B5F80431019C4BB9E368B3F80120A5F8D3
:1016E00004219A880D48114627F001FB204604F09A
:1016F00029FB082140F6014004F008FF044678B9B0
:101700006FF06804F4E60029F3D16FF00404EFE60B
:1017100084010020B000002088010020B8010020D2
:1017200008210C3022F090F895F8D830D9070246FD
:1017300053BF4FF000512CA1D1E90001284822F0FD
:10174000EEFA2146002240F6014005F05DF804461D
:1017500000287FF4CDAE014601AA4FF6014005F006
:1017600053F8044620BB019804F0ECFA214601AA84
:101770004FF6024005F048F80446C8B90198C3681E
:10178000B3F80130A5F8C13004F0DCFA95F8C130A7
:101790005B070DD501AA21464FF6034005F034F84A
:1017A00030B90198C3685B7885F8C03004F0CAFA94
:1017B00022F05BFE044600287FF49AAE07F090F812
:1017C000044600287FF494AEEB79002B3FF490AEF2
:1017D0000821044822F0DDF904F066FF88E600BF26
:1017E0001088000284010020908800020080002000
:1017F0002DE9F843D0E90738856903EB08042F3455
:10180000A5420F46164619D8DFF87080A3FB0801E1
:1018100017A3D3E90023FFF773FC0346601BA0FB6B
:10182000080123F07F4412A3D3E90023FFF768FCEB
:1018300020F07F403C603060BDE8F883DFF83C90EA
:101840000BA3D3E90023A5FB0901FFF759FC20F006
:101850007F4409480A2106A3D3E90023E8FB0901D4
:10186000FFF74EFC20F07F403C603060BDE8F8831D
:101870008D49FD1A0700000000166BF100CA9A3B63
:101880009FED097B0E4B0F4A0F4983ED007B9FEDC7
:10189000087B82ED007B9FED087B0C4B002281EDE5
:1018A000007B1A600DF028BAFFFFFFFFFF1F00004A
:1018B00000000000000000001F0000000000000009
:1018C000400200209015002038020020802B0020CC
:1018D000002800F046812DE9F04FC94C94F86A20A9
:1018E00012F001058DB040F0788194F82500FF23B7
:1018F00000F0030084F8263015F08EFA94F86A00A0
:10190000420727D494F8292094F8353004EB82025A
:1019100004EB8303D66AD3F8388086B1B8483146E1
:101920000EF0C4FF33785B0605D506210AF0B2F944
:10193000002800F05481B24841460EF0B7FF3378DA
:1019400013F00E0F40F09E80236A93B10C200DB06F
:10195000BDE8F08F2A4604F16B01C0F3C00015F01A
:10196000D3FBFF2884F82600CCD0284615F06EFA69
:10197000C8E70CF0C1FC8146002800F054810CF04F
:10198000C7FC8246002800F04B810FF08DFA054617
:10199000002800F04A81D0F894004FF6FF732B86A0
:1019A00005F11C0B002800F0208105F1880205F1EB
:1019B00084010AF07BF9B5F8823023F4EF6323F059
:1019C000070343F48C7343F00103A5F8823095F8C4
:1019D000433003F03F0363F07F0385F8433095F80D
:1019E0009A3023F0070385F89A3095F8483023F0B1
:1019F0000F03002785F848304FF4C023C5F898310D
:101A00002846C5E91577C5F89470A5F8987085F84B
:101A10004570EF86C5F83A70EF65A5F89E71A5F898
:101A2000947111F0B1FB85F86071C5F864910FF005
:101A3000EFFC95F8A43160F3020385F8A4310FF0B0
:101A4000EDFC95F8A43160F3C50385F8A43195F851
:101A5000903167F3410385F890310121284610F059
:101A6000F5F805F1E00011F067F9C4E9189AC4F837
:101A700020B0C5E905772F70ED6116F079FB0028DD
:101A800040F0AF8094F824300121C3F342030DF1FC
:101A90002B008DF82B300AF0A7FA0246002862D0FE
:101AA00098F8011030460EF0BBFC31235549A36075
:101AB000554BB4F86870A0FB01010025C01841F136
:101AC00007014DA3D3E90023C4E9055525706560DE
:101AD000E560FFF715FB20610BF03AFD00F1090806
:101AE0003FB9357805F00F05A5F10105B5FA85F583
:101AF0006D0994F82400236965F3000010F00105D6
:101B000084F8240036D0414A099200201060022552
:101B10003F4A404F04930BAE019305920321CDE958
:101B20000200069443460090089607972A460B95B4
:101B30000BF010FC31460CF073FCA0B9364905914E
:101B40004AF2D8330093CDE90300CDE901000797AD
:101B5000089606944346012203210B950BF0DEFB09
:101B60002EE00EF0ADBB236A002B3FF4EFAE0EF07B
:101B700063FBEBE6254A2948049303F247130694D6
:101B8000029591211360A7FB000301FB0731214B54
:101B900007931F4B05934FF6FF7309920227039398
:101BA0000BAE15A3D3E900230B970896FFF7A8FA0D
:101BB0004346CDE900503A46284603210BF0CAFBC4
:101BC00031460CF02DFC0028CDD194F86A3001206C
:101BD000034384F86A3015F001F90020B7E61220BB
:101BE000B5E60EF029FB0320B1E605F18C00C5F83F
:101BF0009400DAE6AFF300808D49FD1A070000007B
:101C0000B82B002000CA9A3B8C49FD1AAC2B00204F
:101C10009D040100B1D6000081FF0000002AE78486
:101C200048460CF06FFB072091E650460CF076FB1F
:101C300048460CF067FBF6E770B590F824308AB0A0
:101C4000C3F342030D46044601210DF1230016465D
:101C50008DF823300AF0C8F97178024628460EF054
:101C6000DFFB1F491F4AA0FB0131981841F1070112
:101C700019A3D3E90023FFF743FA236998420546E5
:101C800021D21B1A00220192174A0293174BA21A63
:101C9000A3FB02320221920900230A4409AE0991F2
:101CA00013490591CDE903330321D2B2069600937F
:101CB00018460BF0AFFB31460CF0B2FB38B925618A
:101CC00000200AB070BDFBD9C21A0023DBE70C204C
:101CD0000AB070BDAFF300808D49FD1A0700000007
:101CE00000CA9A3B8C49FD1AB82B002009CB3D8DC8
:101CF000B1D60000000000002DE9F04F06468DB07F
:101D00008A46012002219946154618F0CFF9002293
:101D10000B90022101200AF019F83B494FF4D872C8
:101D2000304609F0A3FFC71C384B0093FFB2019661
:101D30004B463A46012100200BF0C6FB10F0FD0F88
:101D40000ED0334A3349344840F68F0321F025F949
:101D5000002383F31188BFF36F8F0323184602DF3C
:101D60002E4CA5FB044526A3D3E900232046294693
:101D7000FFF7C6F90896069633690493284B20F0BE
:101D80007F48A8FB0331E01A264B07934FF0070268
:101D9000254B059302FB08114FF6FE7365EB01011D
:101DA00003934FF47A720023FFF7AAF94FF0000B68
:101DB000CDE90180CDF800A04B463A4601215846B6
:101DC0000BF0ACFA10F0FD0F0DD0114A114912487A
:101DD00040F6A40321F0E1F88BF31188BFF36F8F75
:101DE0000323184602DF0B9B13B90DB0BDE8F08F3B
:101DF0000122022110460DB0BDE8F04F09F0A6BF48
:101E00008D49FD1A0700000098150020490E0100B9
:101E100094AF020058B0020074AA020000CA9A3BB4
:101E20008D49FD1AE90D01000D630100000000005D
:101E30002DE9F0418468228E4FF6FF739A428CB0F0
:101E400045D00546204611F03DFC2B7D012B00F0CE
:101E50002281022B00F01581002B00F0F48094F811
:101E60006061002E40F010812B8A678F94F9432027
:101E7000CDE90A6673B3002AC0F25A810023A4F8A0
:101E80009A31AA7C238FFD1802F003030135012B40
:101E9000ADB23BD0B4F89E31002B00F005819D42DD
:101EA00080F059815B1B9BB20022062BA4F89E3167
:101EB000628740F2F68094F943309342C0F2508139
:101EC000002326E09DF8271020460FF085FB0CB07C
:101ED000BDE8F081002AB8BF84F88561238FAA7C11
:101EE000FD1802F003030135012BADB20ED0B4F89A
:101EF0009A31002BCED0AB4240F23C815B1BA4F860
:101F00009A31B4F89E31002BC9D102E00023A4F825
:101F10009E3194F8482063F3820284F848202946D1
:101F20000DF12702204611F06BF97430CAD0B4F8D5
:101F300098312BB1AB4240F2EC805B1BA4F8983196
:101F4000B4F894312BB1AB4240F2DA805B1BA4F8B9
:101F50009431658F16B9AF4200F0C9800135ADB23A
:101F600094F8DD3013F0010731D1DDE90A130A4698
:101F7000002B40F0CC80002900F0BB801F461846A3
:101F8000228EE4690694CDE9035603329A4D0290FD
:101F9000CDE90017D2B20121002005950BF03AFAE5
:101FA00010F0FD0F93D00CF065FA84428FD0934A65
:101FB000934994484FF4AE6320F0EFFF002383F37E
:101FC0001188BFF36F8F0323184602DF7FE794F970
:101FD00043206FF30003002A84F8DD307FDB94F8A0
:101FE0008200C0F3C00100F0070015F0D9FEB4F87C
:101FF0007A20B4F878301344628D03F23F1313440F
:102000000344814A81480721E3FB0021104678A35D
:10201000D3E90023FFF774F8DDE90A1320F07F42CB
:1020200020692261904235BF171A801A00200027CC
:102030000A46002BA4D157EA010CA1D1002858D0A0
:1020400019461F469CE794F89A3003F01803182BA2
:102050007FF405AFA18EB4F896218B1D9A42C4BFC0
:10206000931F5B1AB4F89211CCBF9BB213469942EE
:1020700000F09C80A4F89231A4F89431A4F898213F
:10208000EDE63D2684F86061314620460CB0BDE89F
:10209000F0410FF0A1BA0023A4F89831A4F89431CC
:1020A000DDE60126334634E7628E052A97BF01320A
:1020B00040F2E2434FF4FA7392B203FB02F2B4F837
:1020C0009C3142F2107101FB0323013BB3FBF2F39D
:1020D0009BB2A4F89E31002B7FF4E1AE19E794F88F
:1020E0008300012100F0070015F05CFE7FE7354614
:1020F00036E7002D43D00027114638463B463FE7E0
:102100000023A4F89431204611F01CF921E7384649
:1021100036E70CF043F90146A0B30023A4F8983148
:10212000238EC3801B23037100680CF009F907E7B5
:1021300094F885316BB3013B84F8853104F1E008F4
:10214000404610F03BFEB8B3404610F037FEB8B33F
:102150000023638792E6082120460FF03DFAB6E699
:10216000A7B9D4F888315A0813F0010336D1C4F85E
:102170008821A5E63E2120460FF02EFAA7E6002E84
:10218000B9D1A4E60123A4F89831D9E61346012673
:10219000BFE60AAA0BA92846FFF72AFBDDE90A23B6
:1021A0001343CBD0237884F88531C7E7B4F898116E
:1021B00000297FF454AE5FE7FF200FF0CFF9C3E7AB
:1021C0000246D4E9210109F089FD0028C0D194F824
:1021D00048301B0744BFA38E63874FE642F000429E
:1021E0001E46C4F888213B4693E600BFAFF300804B
:1021F0008D49FD1A07000000A50D010094AF0200F3
:10220000D4B0020074AA02008C49FD1A00CA9A3B9D
:102210002DE9F04F87B0CDE90423BDF844200378C1
:102220000292BDF84820BDF840A0BDF84C90878FC1
:10223000019104460392002B00F0D480013FBFB20D
:10224000A368D4F81CB1A7EB090292B2002B00924C
:102250000ADAE168626823F0004391422CBF8B44A4
:102260009344A360ABEB030B94F88200C0F3C0016E
:1022700000F0070015F094FD658E052D40F2AA8050
:10228000009B15FB03F5ADB240F2E248BAF1050F31
:1022900040F29480B4F87A20B4F87830134403F212
:1022A000D51303447A4A7B480721E3FB00214FF012
:1022B0009613A36296231046A38573A3D3E9002344
:1022C000FEF71EFF564620F07F4040F2E24308FB37
:1022D00005F103FB06F6B1FBF6F81FFA88F520615D
:1022E00006FB05F08142A8465AD2401A694966A306
:1022F000D3E90023A0FB0101FEF702FF20F07F409D
:102300008344E38EB4F824211344994494F8433071
:10231000A9EB0709C844DB09A4F8368069D15E4AF5
:102320005E495F4840F6671320F037FE002585F3CD
:102330001188BFF36F8F0323184602DF3746029BD5
:10234000A386039BA4F89C3131462046A4F832A012
:1023500010F092FF534BA18E3344881DB3FBF6F36C
:102360009AB29042A4F8962104D2C1F57F41FA3185
:102370000A4492B2019BA4F8922113B10023A4F85D
:102380009E315B463A4629462046FFF7B5FC94F855
:10239000903143F0010384F8903107B0BDE8F08F2D
:1023A000091A3C4838A3D3E90023A1FB0001FEF73A
:1023B000A7FE20F07F40ABEB000BA2E74FF0961397
:1023C0000AF10106A3629623A385B6B20A204FF450
:1023D000FA737CE7009B013515FB03F5ADB24FF4B2
:1023E000FA7853E7C38E1F44B0F824311F44BFB2BC
:1023F00026E7E26C0099636D02FB1133636515F00B
:1024000007FF074694F88401C0F3420015F002FF6D
:10241000074406FB07F7244B07F5742707F23F270D
:10242000A3FB0737BF0C636DE76405FB07F0720879
:102430000344963A934228BF1346C4E91423049BED
:10244000144D40F2E24808FB03F3E3650023A0FBD0
:102450000501C4F88C310CA3D3E90023FEF750FE2C
:10246000124B059AABEB000BA3FB0230800A08FB72
:1024700000F0A0FB050104A3D3E90023FEF740FE12
:10248000F71B20F07F455AE78D49FD1A0700000031
:102490008C49FD1A00CA9A3B94AF02004CAB020073
:1024A00074AA02007FC3C90183DE1B435917B7D149
:1024B0002DE9F04F0B6891F81180D3F80090037F5D
:1024C000176895B00446C3F38013D0F81E008DF84A
:1024D0003F30B8F1FF0F638C12900E461546ADF8F1
:1024E0004C300DF1480A4DD19AE803001090ADF838
:1024F00044102346E28D53F82EBB9B78AB722A81A1
:10250000D4F82A306B60D4F83A30C5F8223005F19F
:10251000220094F83E300371052109F065FD95F81D
:10252000273000F03F0060F3050385F8273094F86A
:102530003F30C3F3040285F82820A28EEA820128E6
:1025400003F01F0392B205D91B3303F01F030B2BBB
:1025500000D81ABB0022C9F8142095F82C3062F379
:10256000000385F82C30E56801265846214626717F
:102570000BF0DAFE28682E7129460BF0E1FE15B04B
:10258000BDE8F08F10AA0DF13F01404614F0CCF9E0
:102590009DF83F3002338DF83F30AAE733680021C1
:1025A0005960E38EEA8A2B8340F2E24303FB02F296
:1025B0000B92628E0D92384610F072FE94F83F2016
:1025C00097F88411520962F3430187F8841115F0DA
:1025D0001FFE0C9097F88401C0F3420015F01AFE1C
:1025E0000C9A0B99104401FB00F0BF4A00F57420CF
:1025F00000F23F20A2FB00204A08800C963A286394
:102600006A6394F8312040F2E24302FB03F36B6407
:10261000238FA7F89C31384610F02EFE0B99B34B50
:10262000B34AC7F8A0210B44B3FBF1F39AB2A7F861
:102630009621298B881D824204DDC1F57F41FA3144
:102640000A4492B2A7F892216B68C7F888312346F2
:1026500013F81C2FC2F340120C92DA0700F101812B
:102660004FF48073A38399F8260014F061FE04F1FF
:102670002B03002800F0F180626AC4F82B20228D21
:102680009A80B8F1FF0F00F00F81BAF80430129869
:10269000A4F82930C4F825009DF83F30A37710989E
:1026A000BDF84430C4F81F00A4F82330EB8A6386D9
:1026B0002B8BA386B7F89C31E38697F88431C3F35C
:1026C000420384F8383038460EF0FAFBA882E080E6
:1026D0002146584674680BF027FEAB8AE3801C2322
:1026E00023710C9BD4F80080002B40F0D1800C9B10
:1026F0002377214640460BF023FE95F86700B5F896
:102700005C80B5F85E40012100F0070015F04AFB3F
:10271000444404F2D514DFF8E48104448246754849
:102720004FF096130721C5E90333E4FB0801312379
:102730000024BB607C606AA3D3E90023FC60FEF741
:10274000DFFC20F07F4038610B9B2D6B0D995D1BEA
:10275000F36840F2E24202FB013303F2B341A1EB22
:102760000A0A22460221012009F0F0FA48460EF03A
:1027700059F80246AAFB0801924659A3D3E900235F
:10278000FEF7BEFCCDF80490B3685B49009120F0E1
:102790007F480AF102023A3BD2B24344012120466B
:1027A0000AF092FE012800F0858099F82430DB07BA
:1027B00066D438460EF084FB504BA5FB03A90446B3
:1027C00047A3D3E9002350464946FEF799FC4C4BFA
:1027D000B6684C4A079220F07F45A5FB0331BAEB5F
:1027E0000300494B05934FF4F573069708933B6933
:1027F0004FF0000BCDE903B34FF0070303FB0511C6
:1028000069EB01014FF47A720023FEF779FC03347F
:102810003A3EE4B2CDE90150CDF80080334622467D
:10282000012158460AF07AFD10F0FD0F0DD0374A0D
:102830003749384840F2EB1320F0AFFB8BF3118897
:10284000BFF36F8F0323184602DF012202211046D7
:1028500009F07CFA15B0BDE8F08FC4F82B00988021
:102860000FE72A4A2C492B48FD2320F096FB002332
:1028700083F31188BFF36F8F0323184602DFEFE65F
:10288000002301220093184611460AF0DBFD90E771
:1028900095F8273043F0400385F82730281D13F0C2
:1028A0004DFE0123288523E70022C4F82520A4F843
:1028B0002920F1E60BF0DEFD81453FF476AF134AA7
:1028C0001649144840F2922320F067FB84F31188E4
:1028D000BFF36F8F0323184602DF66E7AFF3008074
:1028E0008D49FD1A0700000083DE1B437FC3C90129
:1028F000404B4C008C49FD1ACD62010000CA9A3B46
:102900008D49FD1A996201000D630100B4B5020002
:1029100058B0020074AA020068AD020010B60200AE
:1029200010B5334C3349002304F1FF3C14F8332035
:10293000072A02EB820E05D811F83E206FF34512EC
:1029400001F83E201CF833206FF300020CF833200E
:102950000133082BEAD1284A284C002313700A7847
:1029600063F300020A7091F8282063F3000281F8F3
:10297000282091F8502063F3000281F8502091F84C
:10298000782063F3000281F8782091F8A02063F3A7
:10299000000281F8A02091F8C82063F3000281F8BA
:1029A000C82091F8F02063F3000281F8F02091F83C
:1029B000182163F3000281F81821114A9FED0A7B68
:1029C0001370104B83ED007B0F4B236028B1BDE8E3
:1029D00010400E490E4826F05ABABDE810400C4887
:1029E00026F061BAAFF30080FFFFFFFFFFFFFFFF9C
:1029F0009932002058310020654B002068300020BB
:102A0000644B002078170020A0BB0D00417001002E
:102A10004817002000000000F0B5C468636883B068
:102A20000546002B64D116F0C1FE002016F0E4FE2E
:102A30000021084616F0D2FE00222521082016F0BB
:102A40000FFF474B019301A816F0F6FE454940F2EF
:102A50005B6016F0A7FF237AC3F3420262F306130A
:102A60002046237215F0F2FD14F03EFD58BB637A48
:102A70009B071FD127682E68384615F02DF90644AC
:102A80006A6806F10901012017F0D4F817F092F9ED
:102A900020460DF0D3FE811C3246C9B2384615F0EF
:102AA00029F9054678BB204615F0BEF888B9002004
:102AB00003B0F0BD012014F085F94178821C007844
:102AC00017F058F8D6E7607A10F0030018BF01201D
:102AD000F1E7254A2549264840F2294320F05DFACE
:102AE00085F31188BFF36F8F0323184602DFDEE7FB
:102AF00093F82C309A0796D01E48214616F014FE03
:102B000016F0FAFED3E7184A1B49194840F2114360
:102B100020F043FA194B0721A5FB030301FB053104
:102B20000DA3D3E90023FEF7EBFA15490246154839
:102B300020F033FA002585F31188BFF36F8F03234C
:102B4000184602DF1048214616F0EEFD16F0D4FEBE
:102B50006FF08B00ACE700BF00CA9A3B000000009A
:102B6000D6BE898E555555000CBA020048AC0200FD
:102B700074AA0200857E01004CAB02008D49FD1A4B
:102B8000BCBA020090BA02002182010000000000DD
:102B90002DE9F041C468A28A4FF6FF739A4282B0D1
:102BA00000F0DF80054616F095F82B89628B208CAB
:102BB000A3831A4492B2104494F82730E28380B27F
:102BC000411C21845E064FF00001618304F1220163
:102BD00000F1A18003F03F000B4694F8281000900C
:102BE00004F1290013F062FC0646D4E90C31A28BF3
:102BF00002FB0333A26B1344E26B8B4294BFD218E7
:102C000052188A4228BF0A46E263616C226C94F82B
:102C100067301144616494F87E2094F82C10C3F35B
:102C2000020363F3061112F004024FF0000384F86C
:102C30002C10A363236478D016F0B8FD002016F0A2
:102C4000DBFD201D16F0F8FD2389A17A40F25B60C0
:102C500043EA014116F0A6FE304615F05DF8214624
:102C6000594816F061FDA08916F0D8FF94F8662047
:102C700094F86700C2F3C003002102F0070200F0DD
:102C8000070016F0F5FE204616F0CEF827682E68ED
:102C9000384615F021F806446A6806F1090100205B
:102CA00016F0C8FF804617F059F8002017F070F8AA
:102CB000E36B94F8670003F12F02636C00F00700E8
:102CC000012103EB420516F009FE4544054494F842
:102CD000670000F00700022825D004280CBF4FF43D
:102CE000BC73282301211D4416F0FAFD284417F077
:102CF00027F8A18A03313246C9B2384614F0FAFFE8
:102D00000546002834D1204614F08EFFD0B90020AB
:102D100002B0BDE8F0810A4603F03F03218D13F0B5
:102D200011FC064661E71823DCE7D4E91A0108F034
:102D3000D5FF002880D194F87E3043F0040384F856
:102D40007E3079E7214A224922484FF4B07320F0BF
:102D500024F985F31188BFF36F8F0323184602DF30
:102D6000D5E71D48214616F0DFFC16F0C5FDCEE77D
:102D7000164A1A4917484FF4AB7320F00EF9184B56
:102D80000721A5FB030301FB05310DA3D3E90023B4
:102D9000FEF7B6F913490246134820F0FEF8002565
:102DA00085F31188BFF36F8F0323184602DF0F48A6
:102DB000214616F0B9FC16F09FFD6FF08B00A7E7D7
:102DC00000CA9A3B00000000A190010048BB02002D
:102DD00048AC020074AA0200857E01004CAB0200E0
:102DE0008D49FD1A9CBB020090BA0200617E010071
:102DF00001481DF03FBC00BFA002002007B526F02F
:102E0000D1F94FF47A72A0FB020302FB0131C00B2F
:102E1000074A40EA4140106000234FF40042054851
:102E2000CDE900231EF0EEFA002003B05DF804FBAC
:102E3000E81B002058080020014B187800F08CB9DE
:102E4000764A0020044B1A78824202D01870FFF7AD
:102E5000F3BF0020704700BF764A002008B526F077
:102E6000A1F94FF47A72A0FB020302FB0131084A78
:102E7000C30B126843EA41439B1A47F23052934214
:102E800004DDBDE808400120FFF7DCBF08BD00BF3E
:102E9000E81B002008B526F085F94FF47A72A0FBF4
:102EA000020302FB0131C00B044A40EA41401060BA
:102EB000BDE808400020FFF7C5BF00BFE81B0020A9
:102EC000014B1878704700BF764A0020F8B50446D9
:102ED00010B900252846F8BD0378002BF9D00F4E15
:102EE0000F4FBE420FD30D4EBE42F2D2306825F0D6
:102EF0000BFD30B1356821462868FEF71BF9002824
:102F0000E8D00436F0E7306825F0FEFC18B13568EB
:102F10002B68A342DED00436E3E700BF1CDE0200CC
:102F200028DE020070B5194C194D8CB00022002328
:102F300003A920461DF02EF808B10CB070BD2B6817
:102F4000059E5868DDE903121FF0ABFC0028EDDB9D
:102F5000FF238DF81830B6FA86F35B0907908DF8D9
:102F6000203026F01FF94FF47A72A0FB020302FB17
:102F70000131C00B40EA4140C90B8DE8030006ABAC
:102F8000CDE90A010FCB00F001F9CFE7600900207D
:102F90009C1C00201FB50A4C2468A46884420DD1F3
:102FA00083F00103CDE901120393064800220023B8
:102FB00001A91CF091FF04481DF05CFB04B010BD9A
:102FC0009C1C0020600900208C1C00201FB50023E1
:102FD000CDE90233044B8DF80C0001A801931FF0DA
:102FE00087FC05B05DF804FB2CA40200044B1A68B2
:102FF000044B9A4214BF6FF012000020704700BFCC
:103000009C1C002018A4020038B5044628B3144DB7
:103010002B6883421FD02BB1986818B183685B6816
:1030200003B198470F49104B8C4214BFED2100218A
:10303000282200201FF04FFC00280DDBA0682C6028
:1030400048B1836809491B6898472B68986883686A
:103050009B6803B19847002038BD6FF01200FBE772
:103060009C1C002018A40200EC1B0020952F0000DF
:1030700038B5054648B90648FFF7C6FF041E02DB0F
:103080002846FFF7A3FF204638BD6FF01504FAE786
:1030900018A40200F7B50C4615460D4901AA1E46B4
:1030A00020F0DBFA68B1019B6BB9012C0DD1094FFF
:1030B000224639463046A847002802DD3878FFF717
:1030C000D7FF03B0F0BD0020FBE76FF01500F8E775
:1030D00002C90200180800200148FFF795BF00BF91
:1030E00018A4020008B50749074825F083FE074ADF
:1030F000002342F8043B0133282BFAD1BDE80840F5
:10310000FFF7EABF252F00008C1C0020EC1B0020DD
:10311000F8B50F4D0F4E761B07460C4605EBC10563
:10312000C6F3C706A64201DC00200CE02A683B6813
:103130009A4209D13C716B6838461B68984718B1B0
:10314000431E012BF0D9F8BD01340835EAE700BF72
:10315000DCD1020004D202001FB50023CDE9023306
:10316000044B8DF80C0001A801931FF0C1FB05B0C2
:103170005DF804FB30A402000268034B9A420CBFC6
:1031800008300020704700BF30A4020084B030B582
:1031900089B00CAC84E80F00002301930CAD084B00
:1031A00000930FCD02AC0FC495E8030084E8030040
:1031B00068461FF09DFB09B0BDE8304004B0704781
:1031C00034A402000268034B9A420CBF083000206E
:1031D000704700BF34A402001FB50023CDE90233BD
:1031E000044B8DF80C0001A801931FF081FB05B082
:1031F0005DF804FB3CA4020082B038B504A981E864
:103200000C00054611481CF0B7FC0446A0B16B68E1
:10321000012B0CD0022B05D0A3B9BDE8384002B079
:103220001FF07CBB1FF081FB00282046F5DCBDE8C9
:10323000384002B01FF06BBB6FF00400BDE83840AF
:1032400002B070476FF08500F8E700BFBEC902000A
:1032500082B010B502A981E80C0004460B481CF0AE
:103260008BFC78B16368022B04D00020BDE81040CD
:1032700002B070471FF059FB0028CCBF002001208E
:103280006060F2E76FF00400F0E700BFBEC9020023
:103290001FB50023CDE90233044B8DF80C0001A8C3
:1032A00001931FF025FB05B05DF804FB7CA4020030
:1032B0000268034B9A420CBF08300020704700BFE1
:1032C0007CA4020008B500F065FBBDE80840014998
:1032D00025F0ACBDB002002013B5114B1C68A368EB
:1032E0003021DB6820469847C0B9A3686A461B694D
:1032F00030212046984788B90A4C009823788342A9
:1033000004D0C0B22070FFF7C3FF38B901F0A6FDAA
:103310002378984202D0184601F0A6FD02B010BDF5
:10332000A01C0020774A002007B5094B186825F03B
:10333000EBFA48B14FF4F0120023CDE90023054821
:10334000002200231EF05EF803B05DF804FB00BF0E
:10335000A01C00209008002008B5FFF70DFF10B951
:103360006FF0850008BDFFF7ABFD38B10138C0B282
:103370000128F5D8034825F05CFF01E0FFF7D4FFF2
:103380000020EFE79008002008B508481CF0F4FB87
:10339000074A106010B96FF0120008BD25F0B4FAAA
:1033A0000028F8D0FFF7C0FF0020F6E710CA02009F
:1033B000A01C00201FB50023CDE90233044B8DF87B
:1033C0000C0001A801931FF093FA05B05DF804FB0F
:1033D00084A4020008B5BDF808101944012908DCCE
:1033E0003BB1054B127805481A701DF043F90120D6
:1033F00008BD6FF00600FBE7784A002000030020BC
:10340000014B1878FFF734BE784A00201FB510240E
:103410000294044C0194BDF81840009422F0BEFCC4
:1034200004B010BD8D4A002007B5064B0093064935
:10343000064805234FF440721DF022F9002003B026
:103440005DF804FB88A40200004C0020180C00204A
:1034500070B50F4D0F4E8AB00022002369462846F2
:103460001CF098FD044608B10AB070BD2146182230
:1034700004A825F08BFF10230DEB030120460596D1
:10348000CDF818D0ADF81C3007F042F9E4E700BFE2
:1034900090090020A4A402001FB50E490E4840F672
:1034A000CD4200231CF018FD044670B110F10B0F43
:1034B00008D100220023694607481CF06BFDFFF786
:1034C000EBFF0446204604B010BD0449044825F033
:1034D000ADFCF7E78D4A002090090020C0020020D3
:1034E000180C002038B5037823B1032B11D06FF0EE
:1034F000850038BD4278094D02F00701D408012249
:103500008A4081782B5DD2B229B113432B55FFF746
:10351000C3FF0020EDE723EA0203F7E78D4A00200E
:10352000014B1970704700BFA04A0020014B186082
:1035300000207047A41C0020084A094B12781B7811
:10354000002062F30700074A12785B0062F30F2045
:10355000DBB282B063F3174002B070479D4A00208F
:10356000A14A00209E4A002013B50C4B1C6894B160
:10357000FFF7E2FF8DF80400C0F30723C0F3074014
:103580008DF805308DF8060001990548234602B0F4
:10359000BDE81040184702B010BD00BFA41C0020B9
:1035A00028DE020010B5002003F01EFA044610B910
:1035B000024820F04FF8204610BD00BF1003002045
:1035C00010B5084805F05EF8074805F071F9074B9B
:1035D000074800241C70074B01221A701DF04AF89E
:1035E000204610BD4C0300203C0300209F4A0020D1
:1035F0002C0300209D4A0020044B1B782BB1044B68
:10360000044800221A701DF035B870479E4A002009
:103610009F4A0020700300200C4B07B5187030B192
:103620000B481DF027F8002003B05DF804FB019063
:103630000849012001AA04F0E3FD019810B113210B
:1036400021F075F904F084F8EDE700BF9E4A0020F0
:10365000700300203B2A02000B4BB1FA81F010B539
:1036600040090C461870FFF7A5FE3C2C0AD1074B09
:103670001B783BB1064B074801221A70BDE8104089
:103680001CF0F8BF10BD00BFA14A00209E4A0020D8
:103690009F4A00207003002070B503788AB004466A
:1036A0000E4607AD032B20D8DFE803F002191B1DDF
:1036B00011492846FDF748FD059563780493A378E2
:1036C0000393E37802932379019363790093A379B9
:1036D0000A4A1E2130461DF01DFF0AB070BD084980
:1036E000E7E70849E5E70849E3E7084A0A212846E9
:1036F0001DF010FFE0E700BFD7CA020000CB0200B8
:10370000DECA0200E5CA0200EFCA0200F9CA0200DE
:1037100000B589B021F0B6F96946FFF7BDFF044B4B
:1037200000201870FFF746FE09B05DF804FB00BFEB
:10373000A14A002070B5204E204B3068B2881C781A
:103740001F49B3798AB003AD0390ADF81020002073
:103750002A46AB7108F0BAF831460722284625F010
:103760009BFF184B0646D0B1ACB903202246214638
:1037700001241C700023CDE90602CDE90815ADF83F
:1037800014308DF8163000931A46194605A803F038
:10379000ADFF0AB070BD1320A022F021E8E70A4D6A
:1037A00018700FCD05AC0FC42B6823600749009635
:1037B00033460322EAE700BFBBCB02009F4A00204A
:1037C000D1370000A04A002060A0020054A50200EA
:1037D00038B507220C460649054625F05DFF28B19D
:1037E0002B682360AB88A380AB79A37138BD00BF81
:1037F000BBCB02000048704728DE020073B5194CAD
:10380000194EB442254602D36FF0120008E02B682F
:103810009B68043433B9154C2368AB4211D10020A6
:1038200002B070BD9847C0F307238DF804008DF8EF
:103830000530C0F30743C0B28DF806300028E0D051
:10384000E9E723B11B685B680BB1002098472B6840
:1038500025605B68002BE2D0012002B0BDE870401B
:10386000184700BF28DE02002CDE0200A81C002042
:1038700007B5094B01911B68834207D19DF80630BB
:1038800033B903B05DF804EBFFF7B8BFFFF7B6FF3D
:10389000002003B05DF804FBA81C002070B5094CA3
:1038A000094D0A4EAC42234603D3BDE87040FFF7F2
:1038B000A5BF1B68DB680434002BF3D03046984763
:1038C000F0E700BF28DE02002CDE020071380000A5
:1038D000054B1B6823B11B6813B11B6803B1184764
:1038E0006FF01200704700BFA81C002008B5044804
:1038F00000F03CFD002818BF6FF0150008BD00BFA8
:103900002D390000084B1B780B2B4FF001000AD813
:10391000984010F4CD6F05D110F4016F0CBF012059
:1039200000207047022070472D0800200A2808B5A3
:10393000024613D00A4B0B491870FFF7E3FF022829
:103940000AD10B78032A08BF43F001030B70BDE8CE
:10395000084005481CF08EBE0023F7E708BD00BFF5
:103960002D080020A24A00208003002007B5064B46
:103970000093064906480A234FF440721CF080FE6B
:10398000002003B05DF804FB70A50200804F00200A
:10399000000D002000487047000D0020014B1B68FF
:1039A000184700BF90030020014B1860704700BF0C
:1039B0009003002030B585B004460D46102200214A
:1039C000684625F0E3FC02238DF802302A46044BBA
:1039D0000193214668461DF0CBFE05B030BD00BF07
:1039E0009D39000080B505460E46174698461DF0E5
:1039F0002BFA034626F066F8DFF81890044649F8DB
:103A00000030424630463946A84754F8090001F0D4
:103A100041FD00BF0800000008B50446EFF3118324
:103A2000202383F31288BFF36F8F19F0B5FA204675
:103A300001F01EFD02481FF0A3FA1FF062FEFCE732
:103A40004ACB02002DE9F047058B04462807904633
:103A500011D4022905F0070540F0CC8020461FF064
:103A60003DFB78B10138218B042811D8DFE800F044
:103A7000C2106D85950001290CBF45F0100545F079
:103A80002005258388F31188BFF36F8FBDE8F08789
:103A900001F0070AAA4500F0A5800027B9463E4676
:103AA000A368002B00F0BC8041F00801218388F35B
:103AB0001188BFF36F8FA168002900F0BA800D68EC
:103AC000002900F0B680D1F80480334652462046E3
:103AD000C047002D76D02B6829461D46F0E701F03F
:103AE00007035A1F012A1BD8002221F00701062BC9
:103AF000276889B2C4E9002209D13B4603E0628B02
:103B0000013262831B68002BF9D141F0020121834D
:103B100020461FF0E3FA00287AD041F0200176E039
:103B2000042B0AD121F0070189B2218320461FF01E
:103B3000D5FA10B141F020012183218B01F0070A51
:103B4000AA454FD00027B946AAE7236921F007010B
:103B500041F00601062DD3F8009021832DD1B9F153
:103B6000000F3FD041F00801218388F31188BFF393
:103B70006F8F3A492046C84729E021F007012369A1
:103B800041F0040189B2042DD3F804902183E6D0DA
:103B900000273E464FF0040A82E721F0070123691F
:103BA00041F0050189B2052DD3F808902183D6D0C4
:103BB00000273E464FF0050A72E700273E464FF0C9
:103BC000060A6DE72B4687E7B9F1000FD1D1EFF375
:103BD0001188202383F31288BFF36F8F238B23F088
:103BE00008032383258BEA062ED525F010032383B3
:103BF00005F007056669218B002EBFF670AF002324
:103C00002768C4E9003321F0070141F00101218355
:103C1000218B01F0070AAA454FF000097FF440AF5D
:103C2000002F9CD041F00801218388F31188BFF355
:103C30006F8F002FC8D03D68394633465246204624
:103C40001FF078FA2F46F4E7AB067FF51BAF25F09F
:103C50002003238305F0070500E700BF6131020060
:103C6000014B03600020704778A50200F0B40C4BB4
:103C70000C4E5F6A0C4BB34203D36FF08500F0BC6F
:103C800070475D68BD4209D31C693CB195F802C01C
:103C90000579AC4502D12346F0BC18472433EAE746
:103CA000AC1C0020180C0020F40B00202DE9F0477C
:103CB000134CDFF85080DFF8509005460E4617464B
:103CC000444503D36FF08500BDE8F0876268D9F8FA
:103CD00024309A4212D3A36983B19078297988421B
:103CE00005D13A4631462846BDE8F0471847527993
:103CF000012A03D13A463146284698472434DFE763
:103D0000F40B0020180C0020AC1C00202DE9F04121
:103D10000B4CDFF8308005460E461746444502D36B
:103D20006FF0850009E063690BB92434F6E73A4681
:103D30003146284698470028F7D1BDE8F08100BFFA
:103D4000F40B0020180C002010B5044622F096FF5A
:103D500010F1780F00D050B9054A20461FF071FBD2
:103D6000D2F8C43023EA0003C2F8C430002010BDEA
:103D7000AC1C0020024B00221A605A60704700BF42
:103D8000671D002070B50B4B0B4CA34201D30020E4
:103D900070BD196A1E7F00220439D5B2AE4201D827
:103DA0002433F2E7013211F832508542F5D1012077
:103DB000EEE700BFF40B0020180C002008B50948FE
:103DC0000378C3F341130A3350F823303BB100F1B9
:103DD000080200F110019847C043C00F08BD184603
:103DE000FCE700BFAC1C002004282DE9F14FDFF8F0
:103DF000A09004460F4616D001282DD1DFF88C8004
:103E000098F8B93043B300F0D9FD1F4D4D4520D28D
:103E1000D5F820B04FF0000A2B7F5FFA8AF6B34244
:103E200004D82435F2E7FFF7A5FFE7E70BEBC6065A
:103E30000AF1010A307922F021FF024630791FF0A1
:103E400000FBD8F8C430002A23EA0003C8F8C430C5
:103E5000E2DA002388F8B9300B4D4D4508D30B4BFF
:103E60001B6A6BB13946204601B0BDE8F04F1847D8
:103E7000EB681BB13A462146284698472435ECE7C3
:103E800001B0BDE8F08F00BFF40B0020AC1C002097
:103E9000180C002073B5C4B263060D468DF80740B8
:103EA00007D02046FFF76EFF78B10D4B93F8BA00AC
:103EB00058B10B4E204655B116F06EFEF3691BB19A
:103EC0000DF1070108209847012002B070BD16F0DF
:103ED0008BFEF369002BF7D00DF107010920F2E703
:103EE000AC1C002073B586788DF8006003794279A8
:103EF0001C4C43EA0223ADF80230C378304603F08D
:103F000003038DF804301FF09CFAD4F8C430184233
:103F100005460BD0304600F033FD3046FFF714FF66
:103F200025F011F810B996201CF04CFF684616F0E9
:103F30000FFE10F1780F03D010B1002002B070BD59
:103F40009DF8000016F08CFE10F1780F01D00028CB
:103F5000F3D1D4F8C43001202B4384F8B900C4F85D
:103F6000C430EBE7AC1C00202DE9F047924DAB6963
:103F700004460E461746C3B9207800F01F000128FA
:103F800076D0022800F0DC8000BB94F900103A687B
:103F9000637800292EDA062B0CD0082B25D0ABB97C
:103FA000537001231370022303E198470028E3D1E3
:103FB00000200DE06388190A0A1F012A8C4605D9E2
:103FC000072903D8DAB26B6A1C781CB96FF01500A8
:103FD000BDE8F0875D78654503D1824200F0E4805A
:103FE00001302344F0E71B78E3E095F8BA30137012
:103FF0000123DEE0052B11D0092BE7D163886E6A1F
:10400000002B32D1FFF7B6FE638885F8BA30EB6932
:10401000002BCDD0694903209847C9E7A07816F056
:1040200085FD0028C4D0D1E77378042B10D0052B70
:1040300011D0022B04D177796388BB4208BF0120DD
:1040400033781E443378002BEED10028BED0D9E758
:1040500096F80380F4E76388BB42F1D1B8F1000F12
:10406000EED13046FFF73EFFEAE7FF27B846E9E723
:1040700095F8BA30D7F800C0002BA7D06F6AA28895
:1040800094F804E03B46187800289FD0597802291C
:1040900004D193F80480F04500F292800344F2E7E3
:1040A0008CF800308CF80130316081E71F4493E0D8
:1040B0000B2B8BD100264FF0FF08C146B24606E01D
:1040C0007B78042B0FD0052B21D03B781F443B7805
:1040D000002BF5D1EB6913B1514607209847002E0C
:1040E0007FF466AF72E797F80280A38897F8039091
:1040F0009845EAD163889945E7D1B8F1070F1CD8F4
:1041000005EB0803BA4683F8BB900126DDE7A388D8
:104110004345DAD1A3784B450AD0BE78304600F04B
:104120002FFC3046FFF710FEB0FA80F67609CCE798
:104130003846FFF7D7FE0646C7E7BA460026C4E76B
:1041400094F900206378002A18DA002B7FF43EAF40
:1041500024793F6863060AD02046FFF713FE002843
:104160003FF434AF95F8BA30002B3FF42FAF394607
:10417000204616F059FD00237B7014E7012B08D070
:10418000032B7FF423AF6388002B7FF41FAF012143
:1041900003E0618800297FF419AFA088FFF77AFE59
:1041A00000287FF405AF11E702293B607FF41BAFC5
:1041B0005B883360FCE600BFAC1C0020661D00205D
:1041C00094F9000063780028BFF672AF002B3FF42B
:1041D00067AF0A2B7FF4FAAE3B78002B3FF4F6AEC4
:1041E000797804297FF462AFB9788A427FF45EAFB0
:1041F000072A96BF5219002392F8BB308CF8003082
:10420000F6E600BF13B5164C237DF3B9E268A1684A
:10421000019201AB80201FF022F9019AA368134498
:10422000A360E3689B1AE3606BB962B12369E2881B
:104230009A4208DD94F8C82093FBF2F102FB113397
:104240000BB90123237502B010BD00231A4619468D
:104250008020237502B0BDE8104016F02BBD00BFD2
:10426000AC1C002030B585B0002302460D460193FA
:10427000002858D1002935D108220B460DEB020148
:1042800022F015FD002804DA802016F085FC05B028
:1042900030BD2A4C029A2260039A626004F138020F
:1042A000A2609DF90820BDF80E302575002AC4E9EA
:1042B00003550ADB802B04D9802016F06DFC00200A
:1042C000E3E713B1C4E90333E1E7FFF777FD002823
:1042D000DAD0E28823699A42D4BFE260E360FFF754
:1042E00091FFD4E7154CD4E90215002D01AB04DC95
:1042F00022F0DDFC0028CADAC6E72A4622F0D7FC05
:104300000028D9DB019AA3681344A360E3689B1AD1
:10431000E360002BBBD104F13803A360FFF74EFD2F
:104320000028DCD1B0E78028B1D1044BDA68002A3C
:10433000D5D11B7D002BD2D1A9E700BFAC1C00203A
:10434000054B064A9A62064ADA62064A1A63064A28
:1043500058629A6100207047AC1C0020693F000041
:104360006D3C00000D3D0000AD3C00002DE9F34127
:104370000446474D47484FF0FF334FF0FF321BF0E4
:104380006BFE95F8B830002B7BD16B6A83B1424845
:104390002C62E8616E6A16F0A7FD16F095FB041E0C
:1043A00010DA3C481BF0D0FE204602B0BDE8F08198
:1043B00000F0BEF8FFF7C4FF6B6A002BE7D14FF0A7
:1043C000FF34EEE700F01CFB041EEADB7378012BE0
:1043D0005AD1F379002B57D00026684685F8C830AB
:1043E000ADF802308DF804608DF8006016F0B0FB77
:1043F000041ED6DB802768468DF8007016F0A8FBF7
:10440000041ECEDB2549304616F05AFD041EC8DBDB
:104410002249384616F054FD041EC2DB204CDFF85A
:10442000848044451AD3002016F01AFC041EB8DB21
:10443000D5F8C430802043F00103C5F8C43016F02D
:104440000FFC041EADDBD5F8C43043F48033C5F84F
:10445000C430012385F8B8300024A2E7276A00267B
:10446000227FF3B29A4201D82434DAE707EBC30281
:1044700057F83310107916F023FD01360028EFD0DD
:104480009DE76FF077048CE76FF0150489E700BFB4
:10449000AC1C00204C090020E93D000065420000F2
:1044A000F40B0020180C002030B51F4B8BB005AA70
:1044B00003F1100518685968144603C40833AB4269
:1044C0002246F7D11B7823701022002101A824F086
:1044D0005DFF12220021154824F058FF102101A889
:1044E00022F0EFFC00281BDD0828B8BF082009389F
:1044F00001AB0E491A18002012F8013F0AAC04EB78
:10450000131403F00F0328336B44013014F8144CD8
:1045100013F8143C0C7008284B7001F10201EBD128
:1045200002480BB030BD00BF73CB0200A44A00208C
:104530002DE9F04F724B93F800B087B0BBF1000F3C
:1045400003D0704807B0BDE8F08F6E4C00264FF0E6
:10455000011AB0463546B14623783BB96A4B02345E
:104560009C42F3D1664A01231370EAE76378052B76
:104570001BD8DFE803F08E03C38E1D39402304A847
:104580008DF810B0ADF812308DF814B022F061FB48
:1045900040B1082304A8ADF8123022F05AFB08B14C
:1045A000ADF812B0BDF81230E37123781C44D3E7A4
:1045B000E378002BF9D1A3786BB108F101085FFA19
:1045C00088F8F2E76B689C4207D024354F4B9D4238
:1045D000F8D30020B6E74E4DF8E7AB68002BECD0DF
:1045E000414620469847E8E7002DF2D000222B7F75
:1045F0009A42EED2296AA07801EBC2010B79984267
:1046000001D00132F3E70127E07800F003008DF8D4
:104610001400207994F805C040EA0C20ADF812008F
:1046200094F902000028FBB228DA07F110004FF0DD
:10463000010C0CFA00F010EA0A0F26D143F08000BA
:104640008DF8100004A8CDE90213019222F001FBBD
:10465000DDE90121039BC0B99DF81020A27012F082
:10466000800F18BF10330A7118BFDBB24FF0010280
:1046700014BF9A40BA404AEA020A96E70120B840BD
:1046800010EA0A0F01D11846DAE70137102FBBD123
:10469000B7E7032E1AD1FFF707FF074650B1FCF723
:1046A0005BFD024630B11028A8BF10223946A01C7D
:1046B00024F044FE23786FF00201E218091B04EB9A
:1046C0005303D14213D50136F6B26EE7002EF1D175
:1046D000B9F1000F3FF47DAFA4EB090389F8023074
:1046E000C3F3072389F8033089F80480EBE702F865
:1046F00001BC13F8010902F8020DE2E7A14654E7F4
:10470000A34A0020540B0020F30B0020180C0020BB
:10471000F40B002010B5094B00211A461C78844286
:1047200005D15C681CB1482303FB012010BD013199
:10473000042903F14803F1D10020F7E7781D002098
:104740002DE9F34150F8303C10F8346C1033044636
:104750000AD1036950F8282C980736D5D2B95907E1
:1047600015D5002344F8303C54F8303C10330BD0BE
:1047700054E9097554F81C8C24F0E5FB00284FD04F
:104780002E48214624F052FB02B0BDE8F08143F0F0
:104790000403236154F82C1C01AB30461EF05FFE6D
:1047A00010B16FF01503DDE7019A54F82C3C134467
:1047B00044F82C3C54F8283C9B1A44F8283C54F804
:1047C000243C134444F8243CCEE754F82C1C01ABA1
:1047D000304616F0EBFA0028E3D1019D54F82C3C4A
:1047E0002B4444F82C3C54F8283C5B1B44F8283CF0
:1047F00054F8243C2B4444F8243C002DB1D03046DE
:1048000016F078FBB5FBF0F303FB1055002DA8D193
:1048100054F8283C002BA4D0304616F00FFBA3E739
:1048200044F8200CA4F118001BF010FD002DABD0B3
:10483000424639463046A847A6E700BFE80D0020AB
:104840004B1E012B73B506460D460FD8FFF762FFCE
:10485000044668B9012D09D101AB01220DF1030114
:10486000304616F0A3FA019B002BF5D102B070BDC3
:1048700024F069FB04F1340108B1012D05D108468B
:1048800002B0BDE87040FFF75BBF034802B0BDE86F
:10489000704024F0CBBA00BFE80D00202DE9F74F9F
:1048A00080460091174699461EF021FE04460028D6
:1048B0005CD1EFF3118B202383F31288BFF36F8F4A
:1048C0002C4900220846002301911BF0F9FC0199B4
:1048D00068B9DFF8A8A0482262430AEB02056E68B7
:1048E00016F1100F12D108461BF0B0FC06E001349F
:1048F000042C01F14801E4D16FF00B068BF3118811
:10490000BFF36F8F304603B0BDE8F08F0AF8028026
:104910000C9A009B6A610D9A2861AA6140466FF06B
:104920000F02C5E90237C5F844906A6016F0E2FA52
:1049300058B1404616F0DEFAB7FBF0F202FB1077F2
:104940001FB16A6C42F004026A6419F0020F08D0C9
:10495000482202FB04A10848343124F067FA0026FB
:10496000CCE7404616F06AFA0646C7E76FF00F0636
:10497000C8E700BF941D0020E80D0020781D00202E
:1049800010B5EFF31184202383F31288BFF36F8FE8
:10499000FFF7C0FE50B14368103307D16FF08B03AF
:1049A000436000F13401044824F040FA84F3118894
:1049B000BFF36F8F10BD00BFE80D0020F8B50E4C9F
:1049C00004252027EFF3118687F31288BFF36F8F3A
:1049D0006368103307D16FF08B030848636004F1FC
:1049E000340124F023FA86F31188BFF36F8F013D61
:1049F00004F14804E6D1F8BD781D0020E80D002040
:104A000070B50A4C0A4E00253146204624F0F2F9D2
:104A10000122A4F118001146013524F068F9042D93
:104A200004F14804F0D1002070BD00BFAC1D00208F
:104A3000414700000169012381F84B300B6833B115
:104A400091F849301BB10248083124F0EFB97047A2
:104A5000E80D00200169012381F84A300B6833B169
:104A600091F848301BB10248083124F0DFB9704793
:104A7000E80D002070B50569EFF31186202383F35C
:104A80001288BFF36F8FD5F890001EF097FC044694
:104A900086F31188BFF36F8F30B1044800220023E2
:104AA00005F118011BF02AFE204670BDE80D00201C
:104AB00070B5012382F8483013680D4614463BB1A7
:104AC00092F84A3023B10E4802F1080124F0AEF901
:104AD000D4F890301A699B689A4205D17DB904F1E7
:104AE000180140F6CD4204E004F11801002DF8D081
:104AF0000022BDE87040024800231BF0FFBD70BDDE
:104B0000E80D002070B504460E460179154815469B
:104B10001EF0C9FC10B394F900206378002A16DB5C
:104B2000202B04D0222B0ED06FF085000AE02B68DA
:104B30001A6840F8102C9A8820F80C2C9B7900F801
:104B40000A3C002070BD638800F8093CF9E7212B7E
:104B5000EAD11038072328603360F2E76FF01200C3
:104B6000F0E700BF981E002008B5014603481EF07C
:104B7000A8FC10B1012300F8073C08BD981E0020D6
:104B80000D4A03460021A0F848101068C3F89400AD
:104B900090889279A3F8980083F89A2083F89C1063
:104BA00083F89B10A3F89E1083F8A010402203F115
:104BB0004C0024F0EBBB00BF8CA0020010B50469D0
:104BC0000023C4F8A8300C4BC4F8A400596804F1C1
:104BD000A80269B9C3E9002204F10800074924F0DA
:104BE00009F904F11800064924F051F9002010BD1C
:104BF0000A605A60F0E700BF981E002019350200D5
:104C0000754C000073B504698DF80710002384F813
:104C100048302025EFF3118685F31288BFF36F8F9C
:104C20000122D4F890000DF107011EF0C7FB86F3B6
:104C30001188BFF36F8F01280AD024F084F910B9CE
:104C400094F8A1306BB9094B1A780AB901221A708D
:104C50002122002304F1180105481BF04FFD02B08A
:104C600070BD0021212024F024FAD3E7B64A0020A9
:104C7000E80D0020F0B5D0F88C305B681B6A1F7D12
:104C800085B0054638461EF032FC064648BB95F80E
:104C9000863033B3A86F0146836851F8102F9B1AF2
:104CA000B3F5806F28BF4FF4806303AA1EF03CFB6E
:104CB0000446B0B18306A5F1180308BF00F1FF3424
:104CC00085F830600193084B039900932246022334
:104CD0003846FFF7E3FDA86F224600F110011EF0F1
:104CE00057FB05B0F0BD00BFB14A000037B5144610
:104CF0000A1E054620DDD4F88C0004F14C011EF09C
:104D00005DFB012384F8493023683BB194F84B30B4
:104D100023B1114804F1080124F088F8D4F88C106C
:104D20004B684A699A1ACB699B1A3F2B04D8012316
:104D300084F8A03003B030BD94F89E30002BF9D039
:104D4000064B009301940123402204F14C012846B4
:104D5000FFF7A4FDEEE700BFE80D0020ED4C0000DA
:104D6000F7B50D4601461D481EF091FB044610B3F1
:104D70000646691E56F8A4395F6805291BD8DFE886
:104D800001F01C1A031C222610F8061C99B90123F5
:104D900000F8063C3B6A3246187BFFF7A7FF14F881
:104DA0005C2C42B93B6A187D0D4B0093019602239F
:104DB0001146FFF773FD03B0F0BD304603B0BDE808
:104DC000F040FFF7DDBE012304F8053CF3E710F8DF
:104DD000053C002BEFD00023F6E700BF981E002013
:104DE000B14A000037B5094D0949002400944FF03D
:104DF000FF334FF4806228461BF042FC05492846E9
:104E000024F0A7F8204603B030BD00BFE80D002015
:104E10000053002097CB02001FB507240294044CD6
:104E20000194BDF81840009420F0B8FF04B010BD04
:104E30002E08002010B5084C86B024788DF8174055
:104E4000012402940DF117040194BDF82040009450
:104E500020F0A4FF06B010BD35080020014B1878E3
:104E6000704700BF3508002000B589B064288DF870
:104E7000070019D80E4B18221870002102A824F040
:104E800085FA0C4B03930DF10703049302A9012348
:104E90000020ADF8143005F03BFC10F1800F08BF86
:104EA000002009B05DF804FB6FF01500F9E700BFC2
:104EB0003508002018A602002DE9F0410F4B1C68B0
:104EC00005460E461746ACB14FF0FF324FF0FF33A8
:104ED0000B481BF0C1F863683246D3F808802946B6
:104EE0003B462046C047044605481BF02DF92046A6
:104EF000BDE8F0816FF00104F9E700BFA01E0020BB
:104F00003809002030B585B000230546CDE90233CD
:104F100001904FF0FF330C484FF0FF321BF09CF82C
:104F20000A4B1C684CB9284600F084F80446064831
:104F30001BF00AF9204605B030BD636820461B68A7
:104F400001A998472468EDE738090020A41E002035
:104F50001FB5CDE9010103924FF0FF330A484FF02E
:104F6000FF321BF079F8094B1C682CB906481BF07E
:104F7000EBF8204604B010BD636820461B6801A909
:104F800098472468F1E700BF38090020A41E0020DC
:104F9000024B0022C3E90022704700BFA41E00207C
:104FA000024B0022C3E90022FFF7F2BFAC1E002033
:104FB000F8B51C4C1C4E05460F46B44212D31B4E8E
:104FC0001B484FF0FF324FF0FF331BF045F83468B9
:104FD0007CB1286854F8181C183CFCF7ABF8D0B129
:104FE000A469F5E721682868FCF7A4F8B0B1183483
:104FF000E3E700226F60AA61726805F118033AB90D
:10500000C6E9003300240A481BF09EF82046F8BD8C
:1050100013607360F6E76FF01004F4E76FF01004AC
:10502000F4E700BFB89F020060A00200AC1E0020A1
:10503000380900202DE9F047DFF8B090DFF8B0A084
:1050400080464FF000470026274C3D464C450DD387
:10505000DAF80040002C42D0183CB8F1000F25D1FE
:1050600022695ABBA469F5E72F46EDE7B8F1000FB6
:1050700003D122694AB91834E8E720680022414682
:105080001EF0EBFA0028F4D1F5E76368BB4205DDBA
:10509000AF4209D09D42A8BF1D46ECE7EBD1904737
:1050A000002E08BF0646E6E71D46E4E7206800221A
:1050B00041461EF0D2FA0028D2D1D3E76368BB4242
:1050C00005DDBD4209D09D42A8BF1D46CAE7C9D132
:1050D0009047002E08BF0646C4E71D46C2E7AF4210
:1050E000C2D13046BDE8F087B89F020060A0020040
:1050F000AC1E002038B50C4D0C484FF0FF334FF07C
:10510000FF321AF0A9FF2B783BB9FFF749FF1EF0D9
:10511000DAFA044610B901232B70002403481BF06F
:1051200013F8204638BD00BFB74A002038090020D8
:1051300030BFFFF7FDBF00BF2DE9F0410B4EDFF898
:10514000348006EB0807CC1B05463246084920464A
:1051500024F0F4F8A01942460021083C24F016F986
:105160006C6707F10800BDE8F08100BF0000000097
:1051700060A0020008000000054B9A699B689A42F3
:105180001FBF044A536843F080535360704700BF09
:10519000E449002000ED00E070B5264B15469A6A00
:1051A00012F0100F9A6A14BF1124102412F0080F85
:1051B0009A6A18BF1224920706460AD5586B9A6A53
:1051C000140634D519B19A6A22F080029A62132427
:1051D00001E06FF01500174B9A6A12F0010F9A6AFE
:1051E00018BF142412F0200F9A6A18BF1524D20693
:1051F00002D49B6A9B070AD50E4B5B68190506D53E
:10520000314600F07DFA10B180F309880224094B81
:105210009A6A920642BF5A6A22F400525A629A6A05
:1052200042F0FF029A6200232B70204670BD6FF09F
:105230001500CCE700ED00E0134B9A6A12F0007FF6
:105240009A6A14BF1E201D2012F0807F9A6A18BF30
:105250001F2012F4002F9A6A18BF212012F4802F09
:105260009A6A18BF222012F4003F9A6A18BF2320BE
:1052700012F4803F9A6A6FEA02426FEA12429A621F
:1052800018BF2420704700BF00ED00E010B5194B97
:105290000246986A9C6A10F4805F14BF172016209B
:1052A00014F4006F9C6A18BF1820A40509D5986BE8
:1052B000986A000404D51AB19A6A22F400429A62EC
:1052C00019200C4B9A6A12F4806F9A6A18BF1A2040
:1052D000D2050CD49B6A13F4005F18BF1C20054A4A
:1052E000936A43F47F43936200230B7010BD1B202D
:1052F000F5E700BF00ED00E070B5454B5B689CB082
:105300000546C3F30803002686F31188BFF36F8FA9
:1053100002F07F40B0F17F4F11D102F00C0008285D
:105320000DD010074CBF0D4601260022033B8DF81F
:105330000720032B05D8DFE803F01E5D615A3546D0
:10534000F3E700249DF807309BB96822294602A89C
:1053500023F0F4FF099B002E54D0C3F3080222B9B6
:105360006FEA53236FEA4323099302A920461EF0F4
:10537000ACF91CB070BD264BDA6A9107E1D4DA6A49
:10538000002ADEDBDA6A5200DBD55A69A96942F4E9
:1053900080725A61BFF34F8FBFF36F8F5A6931F834
:1053A000021C22F480725A61BFF34F8FBFF36F8FDC
:1053B0004DF6027291420AD09A6AD2B24AB10DF108
:1053C000070201212846FFF7E7FE0446BAE72C68EA
:1053D000B8E79A6A12F47F4F05D00DF1070101205A
:1053E000FFF754FFF1E79B6AB3F5803FA9D3FFF7BE
:1053F00023FFEAE70DF107020021E3E70DF10701C2
:105400000020EDE723F4FF7323F00103ACE700BFB6
:1054100000ED00E0044B5A6942F010025A615A69EB
:1054200022F008025A61704700ED00E0EFF30880B7
:10543000EFF3098101B57246FFF75EFF01BD00BFC2
:1054400017F0EEFD202080F3118808484FF4086122
:10545000401880F30988EFF314800221084380F399
:105460001488BFF36F8F00F0D3F8000000720020A3
:10547000BFF34F8F0549064BCA6802F4E06213433D
:10548000CB60BFF34F8F00BFFDE700BF00ED00E032
:105490000400FA05084B9B6883420BD1EFF30583A8
:1054A00043B1064B5A6842F080525A605A6A22F45D
:1054B00000425A621BF0CEBCE449002000ED00E03F
:1054C00023498A6882F8C1E04FF030001044EFF3BE
:1054D000098C80E8F01F1EF0100F03D102F180004C
:1054E00080EC108A202080F31288BFF36F8F194F51
:1054F0004FF000668A698A603E60506F164C2060EB
:1055000092F9C1E0906F0023936780F311881EF039
:10551000100F03D00023E1EE103A03E002F1800007
:1055200090EC108AEFF3148323F0040383F31488C0
:10553000BFF36F8F04B5104600F078F9BDE8044062
:1055400002F1300090E8F01F8CF3098870470000EA
:10555000E449002004ED00E0B41E00201EF0040F1A
:105560000CBFEFF30880EFF30980816911F8021C8A
:105570000229FFD001B572461EF0ADF801BD00BF93
:1055800040B2002807DB044A4109012300F01F0054
:10559000834042F82130704700E100E040B200282B
:1055A0000CDB4309064900F01F0020330122824032
:1055B00041F82320BFF34F8FBFF36F8F704700BFB9
:1055C00000E100E0054B420900F01F0053F82220E3
:1055D000012303FA00F01040704700BF00E100E033
:1055E00040B20028A8BF00F1604001F10101B8BF3E
:1055F000064B4FEA4111ACBF00F5614000F00F00CF
:10560000C9B2B4BF195480F80013704714ED00E01C
:10561000144A08B5144B22F07F029A60BFF34F8FF3
:10562000BFF36F8FD3F8882022F47002C3F888206C
:10563000D3F8882042F4A002C3F888204FF04042FB
:10564000C3F83422BFF34F8FBFF36F8F0023E1EE17
:10565000103A1AF045FB1BF035FD00F0BDF81AF0CA
:1056600081FB00BF0010000000ED00E042F8203C8C
:10567000009B42F81C3C019B42F8183C0A49029BE3
:1056800042F8143C4FF0807342F8043C21F00101D1
:10569000002342F8081C203A83674FF47D430265DB
:1056A000C0F8C030704700BFE5390000037B13F03D
:1056B000020F124B03D190F8C120D20611D45A6BBD
:1056C00042F080425A63D0F8C03019075CBF43F003
:1056D0000803C0F8C030037B43F00203037380204B
:1056E00070475A6B22F080425A63D0F8C0301A07D4
:1056F00044BF23F00803C0F8C030F0E700EF00E03B
:10570000094A0346906870B113F1160F406E05D038
:10571000A0F180029A4205D8834203D2814228BF79
:105720000020704700207047E4490020104B9B6820
:1057300083421AD1EFF30580B8B9EFF3118120222B
:1057400082F31288BFF36F8F1A7B22F002021A7362
:10575000EFF3148323F0040383F31488BFF36F8FF4
:1057600081F31188BFF36F8F70476FF0150070479A
:10577000E449002008B515460E460022E1EE102A45
:10578000EFF3148222F0040282F31488BFF36F8FC8
:10579000BFF36F8F094A0A4B9060426F1A6000F0A6
:1057A00045F82C4686F309880020064B984720468A
:1057B000002100220023044C204700BFE4490020C0
:1057C000B41E0020F5360200E5390000014B10221E
:1057D0001A61704700ED00E0044800232021C21840
:1057E0000133302B82F80013F9D1704700E100E05B
:1057F00008B5EFF30583064A103B02EBC30152F8EC
:10580000330049688847BDE80840FFF7B5BC00BFD2
:10581000EC9C0200024B034A0348012100F07CB8D3
:10582000000004200000002068A6020010B5044615
:10583000FFF73CFF626E03460548D21AC0E9002319
:10584000044B8360BDE81040012100F06FB800BF39
:10585000B81E002000000B15084AC2F898000B681B
:1058600023F01F03034343F01003C2F89C308B68FE
:1058700043F00103C2F8A030704700BF00ED00E024
:105880002DE9F043DFF8608085B00E461F460446E0
:105890004FF00009B14523DA6068D8B13FB1411E2D
:1058A00008421BD17F2819D92368194216D12368D1
:1058B00001931DF042FFA36803430393D8F890506F
:1058C000C5F30725D0B2013DA84207D801A9FFF7CB
:1058D000C3FF421C09F101090C34DBE76FF015022C
:1058E000104605B0BDE8F08300ED00E0044B052252
:1058F000C3F89420BFF34F8FBFF36F8F704700BF83
:1059000000ED00E0BFF35F8F024B0022C3F894204C
:10591000704700BF00ED00E010B5034C0123227872
:10592000FFF7AEFF207010BDB84A002008B50B4A43
:1059300000231278FFF7A4FF10F1160F07D0084AD2
:105940000021D2F89030C3F30723984200DB08BD52
:10595000C2F89800C2F8A0100130F2E7B84A00205F
:1059600000ED00E02DE9F043534B544CD3F8903058
:105970002568C3F307239D4285B000F29A80FFF7A4
:10598000C1FF00200C2685421AD14D4C4D4F257089
:105990006846FEF765F9DFF82081DFF82C910646AE
:1059A0000025AE4213D1237843490020D1F890203E
:1059B000C2F30722934276DBFFF798FF002042E014
:1059C000616806FB0011FFF747FF0130DBE7009835
:1059D00000EB05114FEA051CCB683B40B3F5000F07
:1059E00048D00AD8B3F5001F30D0B3F5800F36D0B9
:1059F000B3F5801F10D00135D3E7B3F1807F42D0DB
:105A0000B3F1007FF7D150F80C3088684A681DF078
:105A100094FE40F4802009E050F80C3088684A6811
:105A20001DF08BFE40F0885040F43020CDE901237A
:105A30000390D8F890302078C3F30723013B9842B5
:105A40002AD96FF0150005B0BDE8F08350F80C308E
:105A500088684A681DF071FE40EA0900E6E750F8E0
:105A60000C3088684A681DF068FE40F0007040F411
:105A70000030DBE750F80C3088684A681DF05DFEA6
:105A800040F08270D2E750F80C3088684A681DF008
:105A900054FE40F08870C9E701A9FFF7DDFE2378C6
:105AA00001332370A7E7C1F89830C1F8A000013393
:105AB0007CE74FF0FF30C6E700ED00E074A602007F
:105AC000B84A00200000F0FF0000081108B5024BA2
:105AD0001B689847002008BDC41E0020034B044AE1
:105AE0001860937843F0020393707047C41E00203F
:105AF0002404002008B50649064821F00701C1F139
:105B0000005202F580221DF0FCF9002008BD00BF04
:105B100007A10020C81E002003484FF0FF324FF0BD
:105B2000FF331AF099BA00BF3404002001481AF07C
:105B30000BBB00BF3404002038B50546FFF7ECFF6F
:105B400008482A4608211DF074F9044628B925B1F1
:105B500023F0B8FF044B0C221A50FFF7E7FF204652
:105B600038BD00BFC81E00200C00000010B5044660
:105B7000FFF7D2FF214603481DF023F9BDE810408E
:105B8000FFF7D4BFC81E002070B5A0FB01543CB97C
:105B90002846FFF7D1FF064640B90026304670BDC3
:105BA00023F090FF044B0C221A50F6E72A462146B8
:105BB00023F0ECFBF2E700BF0C00000070B5416978
:105BC000867A0B4D044659B1437ADB0706D42C2361
:105BD00003FB06535B6A1B689B689847002363615D
:105BE0002C20214606FB0050BDE8704023F071B820
:105BF000200A0020024B2C2202FB0030704700BF1D
:105C0000200A0020827A064B2C2101FB02339A6A7B
:105C10001B7F1B33801A23F00303B0FBF3F07047A4
:105C2000200A002038B5074B827A2C2404FB02336B
:105C30005B6AD3E901240C601568FFF7E3FF04FBFE
:105C4000005038BD200A00202DE9F04385B00546FC
:105C50006846039190461C4623F0A6FADDE90067EA
:105C6000EFF31189202383F31288BFF36F8F6B8BBF
:105C7000002B41D02A8B9A4225D9002200232846A6
:105C80001AF0B2FA0446F0B189F31188BFF36F8FAE
:105C9000039B002B41D032463B46684623F0A8FACE
:105CA000A27A264B2C2101FB023320465B6A1B683B
:105CB00003A91D68DDE90023A847606170BB204689
:105CC000FFF77CFF24E0698B4B1E6B8389F31188FF
:105CD000BFF36F8F2B7F2A8BAC6A1B3323F0030338
:105CE000521A02FB0344154B154AEB1A9B105343FF
:105CF000A3722B7FE372CBE789F31188BFF36F8F19
:105D00002346424628461AF06FFA04460028BFD1BF
:105D10000024204605B0BDE8F0836361012300251F
:105D20002381039B6382E27A6560294604F11800AF
:105D300023F02CFB63692582E360EAE7200A002058
:105D4000A38B2EBA70B50C4C2C2500B970BD037A0C
:105D50004668013BDBB20372002BF7D1C36043609E
:105D6000837A05FB03431B6A13B198473046ECE77F
:105D7000FFF724FFFAE700BF200A0020024B0122B0
:105D8000C3F840250020704700E0014020B1034BDC
:105D9000800143F001031847704700BFD0A0020004
:105DA00008B5044822F0B0FD00280CBF6FF01200C7
:105DB000002008BD389C020010B5034605488268E3
:105DC00014688AB21946A0470028B4BF6FF00400D7
:105DD000002010BD389C02002DE9F341254CBFF393
:105DE0005B8F1F462368BFF35B8F1646DA070546B5
:105DF0002BD520B96FF0010002B0BDE8F08101A9F8
:105E00001DF04FFC1C4980460246284623F054FCF6
:105E1000E8B9BFF35B8F2368BFF35B8FC3F3C008A0
:105E20001B0712D4A4F1D405072229463846B047EF
:105E3000062895BF44F8D48C0723C5F80380B0FB2F
:105E4000F3F094BF85F80780E8710020D4E7284676
:105E50000A49424623F030FC05460028CAD11022E8
:105E600004F19C013846B0470028EEDB044484F876
:105E70009C50EAE784010020ECCA0200D5CB020066
:105E80002DE9F04188B09C79DDF838805D791E7984
:105E9000DF7893F802C093F801E01B78B8F1000FA7
:105EA0000ED0CDE90638CDE904CE1346CDE9026720
:105EB000CDE90045084A1BF02DFB08B0BDE8F08194
:105EC000CDE905E3CDE9037C1346CDE90156034A4C
:105ED00000941BF01FFBF0E7DACB0200FECB0200C0
:105EE00070B504468CB01E461546A2B129B10A46CB
:105EF00002A804211DF05EF802A900912B4622465B
:105F0000242103A8FFF7BCFF109A314603A8FEF72F
:105F1000D3FF0CB070BD0346044A242103A81BF034
:105F2000F9FA0028F0DA6FF01500F2E71FCC020052
:105F300007B5064B0648DA79C2EBC202009200228E
:105F40001146FFF7CDFF03B05DF804FBB000002061
:105F5000ECCA020030B504468DB0154692B129B1A5
:105F60000A4602A804211DF025F802A900912B463B
:105F70002246242103A8FFF783FF03A81DF066FB38
:105F80000DB030BD0346054A242103A81BF0C2FA18
:105F90000028F2DA6FF01500F2E700BF1FCC020014
:105FA00007B5009313460A4601460348FFF798FFDA
:105FB00003B05DF804FB00BF18CE02000A4601469C
:105FC0000148FFF7C7BF00BF18CE020007B5009316
:105FD00013460A4601460348FFF782FF03B05DF807
:105FE00004FB00BF12CE020007B5009313460A4619
:105FF00001460348FFF774FF03B05DF804FB00BFE0
:1060000003CE020007B50022034600910348114663
:10601000FFF766FF03B05DF804FB00BF0ACE020085
:1060200007B500220346009103481146FFF758FFC9
:1060300003B05DF804FB00BFD5CB020008B50248F1
:106040001AF018FB002008BD4804002070B51D4C54
:10605000BFF35B8F2368BFF35B8F13F0010F2546FF
:1060600022D094F89C30A4F1D40613B9164800F05D
:1060700021FBF379D3B1BFF35B8F2368BFF35B8F51
:106080005A0701D400F010FBBFF35B8F55E8003FC7
:1060900023F4006245E800210029F7D1BFF35B8FAC
:1060A0001B0501D5FFF7CAFF002009E001F096F8B3
:1060B00030B9F379002BDED101F0A0F80028DAD056
:1060C00070BD00BF84010020ACD1020007B5009371
:1060D00013460A4601460348FFF702FF03B05DF886
:1060E00004FB00BF57CE02000A4601460148FFF7F5
:1060F00031BF00BF57CE020030B50A4D0A4B85B004
:10610000002428460293039422F0BBFE02AB0093C6
:10611000284606490A234FF4B0621AF0B1FA204625
:1061200005B030BDD00E002028CC020080570020E2
:10613000014601481AF0E2BAD00E0020014601489B
:1061400022F074BED00E00200378012B30B513D09E
:10615000022B27D07BB9194B0A4603F1100453F8E0
:10616000045B42F8045BA342F9D11B7813704388A7
:106170004B731B0A8B7330BD104B0A4603F110049E
:1061800053F8045B42F8045BA342F9D11B78137007
:1061900043684B73C3F307221B0CCB731B0A8A7330
:1061A0000B74E8E700F1100350F8042B41F8042BBE
:1061B0009842F9D103780B70DDE700BF31CC0200C3
:1061C00008B51DF05FFC1AF029FD044B1B680BB1EC
:1061D0000A209847BDE808401AF034BDD41E0020BC
:1061E00038B5054605481DF0C3FA044620B1012123
:1061F0000C301DF01EFB2576204638BDFC0A002021
:106200000F2810B50ED80D280ED90B481DF0B0FA86
:10621000044628B101210C301DF00BFB022323762C
:10622000204610BD1328F0D009B10448EEE7BDE8C0
:1062300010400220FFF7D4BF280B0020780A00206E
:1062400070B5C6683378B6F8014083B90F2120468F
:1062500001F0C2FFF378054650B90A4A118831B9F6
:106260006FEA04506FEA10501080074A137070BD37
:106270000373012101F02CFF2846BDE8704001F0B6
:10628000FDBE00BF244A0020B94A002010B5084CCA
:106290000146062294F86F0002F04EFA38B994F8DD
:1062A0006F000449BDE81040052202F045BA10BD58
:1062B000B0000020BBCB020010B5012104460C3019
:1062C0001DF0E9FA2146034A0078BDE8104000239A
:1062D0001DF0EABC68A7020010B5012104460C308D
:1062E0001DF0D9FA2146034A0078BDE81040082382
:1062F0001DF0DABC28A7020070B52F481DF051FA36
:106300000446002857D0017E022932D0082902D144
:10631000038A032B02D8FFF715FD20E004210C307F
:106320001DF0B9FAFF22438806886276228AC6F3F6
:106330000B009A42A08301D02046ECE70F2101F028
:106340004BFF05460028F7D001F07AFF320B60764C
:10635000214628461EF04FFA284601F08FFE174BC3
:10636000D3F84C313BB3BDE870401549154822F0D5
:106370005DBD038A012BCED90C301DF08CFA054689
:1063800000781DF0F4FB10F002060DD10E4A0F4903
:106390000F4840F6D3331CF000FE86F31188BFF39C
:1063A0006F8F0323184602DF0A4A28780623214606
:1063B0001DF07AFCC0E770BDFC010020B000002099
:1063C00068040020B80F002042CC020076CC020006
:1063D000A4CC0200F8A602002DE9F0478846164634
:1063E0008246002879D0BFF35B8FDFF8F890002356
:1063F00059E8004F49E80032002AF9D1BFF35B8F1A
:10640000002C6AD02046FFF7FDFB354D0C2303FB23
:10641000005027464388534511D0BFF35B8F59E89E
:10642000003F49E80072002AF9D1BFF35B8F002BCF
:1064300053D01F463846BDE8F047FFF783BCA6425D
:106440000FD020461DF08FF904F10C090223012121
:10645000484623761DF0EDF9328AF16848461DF072
:10646000F9F92046FFF7CEFB0C2606FB00504368E7
:10647000ABB1B8F1000F12D12046FFF7C3FB06FB0A
:10648000005001214268D2E90003127A03F01F068E
:10649000B1405B09DAB100EB83001DF07AFB2046C6
:1064A000FFF7B0FB0C2606FB00508368002BC1D021
:1064B0002046FFF7A7FB704305F800802046FFF752
:1064C000A1FB06FB0055A86819F0C0FEB2E7C9435E
:1064D00000EB83001DF0FFFBE1E7BDE8F08700BFA4
:1064E000D81E0020F801002010B5C1E900239DF856
:1064F00008300B720C46FFF785FB034B0C2202FBA6
:1065000000335C6010BD00BFD81E00202DE9F047AD
:106510004FF0FF3206464FF0FF33184888461DF013
:1065200027F9044638B300F10C07012138461DF065
:1065300080F9012323762046FFF764FB104D4FF0CE
:106540000C0909FB00504FF0000A46802046FFF777
:1065500059FB09FB0050C0F808A02046FFF752FB8A
:1065600009FB005503213846C5F804A01DF06CF95D
:10657000068080F802802046BDE8F087D00A00201F
:10658000D81E00200138C0B202289ABF014B185C07
:106590000020704787CD020029289ABF014B185C64
:1065A000092070475DCD0200034B0146D3F86C0112
:1065B00082689268104700BFB00000202DE9F843C0
:1065C000044600F10C0630461DF075F9B4F8108051
:1065D000B8F1010F054604D82046BDE8F843FFF79F
:1065E000B1BB304602211DF056F9074600781DF078
:1065F000BEFA10F0010906460DD10F4A0F491048A6
:1066000040F6F2731CF0C9FC89F31188BFF36F8F59
:106610000323184602DF05230A4A387821461DF075
:1066200043FBB307D8D56369A4F8108013FA85F546
:10663000E560BDE8F88300BF42CC0200C1CC020097
:10664000A4CC0200D0A6020038B50C461AF0E6FA37
:10665000237E022B0AD0082B19D121460F481DF0AA
:106660008BF80F490F4822F0E1FB0BE0E368187844
:106670001DF07DFAC207054602D52046FFF79EFFB2
:10668000AB07EAD400241AF0DDFA204638BD2046D4
:10669000FFF758FB6FF01504F5E700BFFC01002081
:1066A00068040020B80F0020014804211DF071BAD1
:1066B0008401002038B50546FAF74EFD102804463F
:1066C00015D80C482946FAF735FD70B122462946FF
:1066D000084822F033FE084803190022214600F53D
:1066E000B87083F87021FFF79BFC002038BD6FF075
:1066F0000B00FBE720020020B0000020004870479C
:1067000020020020014819F0B5BF00BF5804002046
:1067100038B505460C4619B9FFF7F8FE0446A8B18E
:1067200040F635439D4209D12046FFF73DFF05461F
:1067300050B12046FFF706FB284638BD05482146E4
:1067400022F0BCFAFFF7DEFF0025F5E76FF06805E1
:10675000F2E700BF0402002038B502460B46244D84
:10676000D5F8541109B9002038BD05F5987019F015
:10677000A7FD0028F7D10022002305F5AA7019F023
:1067800033FD044668B91B4A1B491C4840F6E233F6
:106790001CF003FC84F31188BFF36F8F03231846AA
:1067A00002DFD5F8480120B1FFF7CCFA0023C5F885
:1067B000483120461DF00BF8C5F848012046FFF788
:1067C000F3FE98B10E4819F041FD2046FFF71AFA82
:1067D0000C4B0C2202FB00301F2140882246FFF7A1
:1067E000FBFD2046FFF7AEFAFFF78CFF0120BBE769
:1067F000B000002042CC0200DACC0200A4CC02009F
:10680000E0010020D81E00202DE9F04F064687B099
:1068100015460C4631B9FFF779FE044648B96FF0CA
:1068200068007BE0887AFFF7E5F9484B834240F047
:10683000868001220021684622F059FA2046FFF79F
:10684000E1F9DFF82C910C2303FB0090C0F808D08D
:1068500020461CF0BCFF01463D4822F02FFAFFF70E
:1068600051FF23F02FF93B4B1A583B4B9A4222D150
:10687000DFF8F0A0DFF8FCB0354822F034FA002150
:1068800080464FF4A020FFF767FF074688B94FF412
:10689000D7735246594631481CF07FFB3048314689
:1068A0001CF07BFB87F31188BFF36F8F032318461F
:1068B00002DF4445E0D14FF4A0220023684619F0DE
:1068C000FFFC074698B14FF4DA73264A264923485D
:1068D0001CF063FB25483A4631461CF05EFB002362
:1068E00083F31188BFF36F8F0323184602DF20461E
:1068F000FFF788F90C23584319F80060BEB1204611
:10690000093EFFF71FFA092E0ED8DFE806F01B0D2F
:106910000D0A050D0D0D0D186FF00B0007B0BDE849
:10692000F08F6FF00C00F9E76FF00400F6E715B197
:106930002C600020F2E72046FFF704FAF9E76FF039
:106940001500EBE76FF06E00E8E700BFD00A00200B
:106950000402002008000000181A0020A4CC020045
:10696000E6CC020042CC020006CD02000FCD0200B0
:10697000D81E0020DECC0200F7B5144B93F99B30F3
:10698000002B05460C461DDA14B9204603B0F0BDB5
:10699000082C01AA4FF0000142F21800264628BF39
:1069A0000826FFF731FF0028F0D1019FF968324631
:1069B0000131284622F0C2FC3846FFF7C3F93544BE
:1069C000A41BE1E76FF08500E0E700BFB000002006
:1069D00010B5FAF719FD034B1B6813B1BDE8104061
:1069E000184710BDFC1E002073B5274D0646D5F88C
:1069F0006C0121F089FF00283FD06FF0020105F102
:106A0000D4001DF068F901211DF0C3F8C30737D485
:106A10001CF0C9FF044668BB1C4B1E6001221146D6
:106A200005F5987022F063F905F5AA7022F008F9CF
:106A3000174822F026FA1749154800946FF007030B
:106A400040F6980219F01CFE1349114822F081FA11
:106A5000D5F86C01114983681B689847044648B90A
:106A600026B902B0BDE87040FAF7CEBC05F1C4000B
:106A700019F000FE204602B070BD6FF01204F9E775
:106A80006FF07704F6E700BFB0000020FC1E002086
:106A9000B80F0020805D002054CD02004966000040
:106AA0002DE9F0435E4BB0F80180198848F470423C
:106AB00091424FF0000608BF1E80054608BF594BA3
:106AC00085B008BF1E7800F0CBF9EB78012B08BF2A
:106AD000554B05F1040420460CBF93F86F70002756
