:1010000000300020CD30000063A10000B9300000A6
:10101000B9300000B9300000B93000000000000015
:10102000000000000000000000000000E9310000A6
:10103000B9300000000000004D310000B930000060
:101040007D3400007D3400007D3400007D340000DC
:101050007D3400007D3400007D3400007D340000CC
:101060007D3400007D3400007D3400007D340000BC
:101070007D3400007D3400007D3400007D340000AC
:101080007D3400007D3400007D3400007D3400009C
:101090007D3400007D3400007D3400007D3400008C
:1010A0007D3400007D3400007D3400007D3400007C
:1010B0007D3400007D3400007D3400007D3400006C
:1010C0007D3400007D3400007D3400007D3400005C
:1010D0007D3400007D3400007D3400007D3400004C
:1010E0007D3400007D3400007D3400007D3400003C
:1010F0007D3400007D3400007D3400007D3400002C
:1011000053B94AB9002908BF00281CBF4FF0FF316E
:101110004FF0FF3000F00CB8ADF1080C6DE904CED3
:1011200000F01AF8DDF804E0DDE9022304B07047AE
:10113000704700BF10F8012B11F8013B012A28BFAE
:101140009A42F7D0D01A7047034613F8012B002AB1
:10115000FBD1181A013870472DE9F04786468C46B6
:101160000846089E154674461946002B40F0C2807A
:101170008542B2FA82F245D94AB1C2F1200300FA9F
:1011800002FC2EFA03F3954043EA0C0C94404FEA1C
:10119000154EA8B2BCFBFEF8230C0EFB18CC08FBC6
:1011A00000F943EA0C43994528D9EB1808F1FF37B9
:1011B00004D2994502D9A8F102072B44A3EB0903F5
:1011C000A4B2B3FBFEFC0EFB1C330CFB00F044EAA4
:1011D0000344A04214D92C190CF1FF3304D2A042CD
:1011E00002D9ACF102032C44241A43EA07401EB191
:1011F000D440002334607360BDE8F0874746DDE7E4
:101200006346F1E792BB431B01214FEA154EAFB293
:10121000B3FBFEFC200C0EFB1C330CFB07F840EA72
:101220000343984562D9EB180CF1FF3004D298457E
:1012300002D9ACF102002B44A3EB0803A4B2B3FB28
:10124000FEFC0EFB1C330CFB07F744EA0344A742E9
:101250004ED92C190CF1FF3304D2A74202D9ACF1BC
:1012600002032C44E41B43EA0040C0E7C2F1200320
:1012700020FA03F1954090402EFA03F303434FEA1E
:10128000154EAFB2B1FBFEFC0EFB1C10190C0CFB93
:1012900007F841EA0041884504FA02F422D96918A6
:1012A0000CF1FF3004D2884502D9ACF10200294488
:1012B000A1EB08019BB2B1FBFEFC0EFB1C110CFB69
:1012C00007F743EA01439F420ED9EB180CF1FF31B7
:1012D00004D29F4202D9ACF102012B44DB1B41EA4C
:1012E000004192E76046E3E76146F7E76046A3E71F
:1012F0006346B7E7834206D916B9002108467BE763
:10130000C6E900E0F9E7B3FA83F78FB9834201D366
:10131000724508D8BEEB020460EB030301209C4633
:101320001EB9002168E73846FAE7C6E9004CF8E73D
:10133000C7F1200CBB4022FA0CF41C432EFA0CF12E
:1013400020FA0CF3B84001434FEA14490EFA07F5AE
:10135000B3FBF9F81FFA84FE09FB18300B0C08FBED
:101360000EFA43EA00439A4502FA07F240D9E3181D
:1013700008F1FF3004D29A4502D9A8F102002344B3
:10138000A3EB0A0389B2B3FBF9F809FB183308FB96
:101390000EFE41EA03418E452CD9611808F1FF3356
:1013A00004D28E4502D9A8F10203214443EA004049
:1013B000A0FB0298A1EB0E014145CE46434602D365
:1013C00006D14D4504D2B9EB020E68EB0403013897
:1013D000002EA6D0B5EB0E0261EB030101FA0CFC66
:1013E00022FA07F34CEA0303F940C6E9003198E713
:1013F0004046C5E74346D9E7014806F087B900BF34
:101400000801002007B509F022FF4FF47A72A0FB13
:10141000020302FB0131C00B074A40EA4140106061
:1014200000234FF400420548CDE9002306F0F6FF03
:10143000002003B05DF804FB78090020D8020020EA
:10144000014B187800F034B924180020044B1A78A6
:10145000824202D01870FFF7F3BF0020704700BF30
:101460002418002008B509F0F2FE4FF47A72A0FBB0
:10147000020302FB0131084AC30B126843EA4143ED
:101480009B1A47F23052934204DDBDE80840012028
:10149000FFF7DCBF08BD00BF7809002008B509F0E0
:1014A000D6FE4FF47A72A0FB020302FB0131C00B9F
:1014B000044A40EA41401060BDE808400020FFF7C0
:1014C000C5BF00BF78090020F8B5044610B9002553
:1014D0002846F8BD0378002BF9D00F4E0F4FBE42BF
:1014E0000FD30D4EBE42F2D2306809F097FB30B1F7
:1014F000356821462868FFF71DFE0028E8D004362D
:10150000F0E7306809F08AFB18B135682B68A34210
:10151000DED00436E3E700BF9CCA0000A8CA000082
:1015200070B5194C194D8CB00022002303A9204638
:1015300005F036FE08B10CB070BD2B68059E5868EA
:10154000DDE9031208F015F90028EDDBFF238DF823
:101550001830B6FA86F35B0907908DF8203009F051
:1015600076FE4FF47A72A0FB020302FB0131C00B3E
:1015700040EA4140C90B8DE8030006ABCDE90A0102
:101580000FCB00F0A5F8CFE7400300204C0A002065
:101590001FB50A4C2468A46884420DD183F001036E
:1015A000CDE90112039306480022002301A905F0AA
:1015B0009FFD044806F0AAF804B010BD4C0A0020B4
:1015C000400300203C0A002038B5044628B3144DDF
:1015D0002B6883421FD02BB1986818B183685B6871
:1015E00003B198470F49104B8C4214BFED210021E5
:1015F0003022002008F0D7F800280DDBA0682C600E
:1016000048B1836809491B6898472B6898688368C4
:101610009B6803B19847002038BD6FF01200FBE7CC
:101620004C0A0020F8C100007C0900209115000040
:101630000148FFF7C9BF00BFF8C1000008B507495E
:10164000074809F0A0FC074A002342F8043B013395
:10165000302BFAD1BDE80840FFF7EABF21150000A2
:101660003C0A00207C090020F8B50F4D0F4E761B78
:1016700007460C4605EBC105C6F3C706A64201DCCA
:1016800000200CE02A683B689A4209D13C716B68E3
:1016900038461B68984718B1431E012BF0D9F8BD96
:1016A00001340835EAE700BF2CC6000044C600003C
:1016B0001FB50023CDE90233044B8DF80C0001A8BF
:1016C000019308F07DF805B05DF804FB10C200003E
:1016D00084B030B589B00CAC84E80F0000230193CE
:1016E0000CAD084B00930FCD02AC0FC495E803007E
:1016F00084E80300684608F063F809B0BDE83040AC
:1017000004B0704714C200000268034B9A420CBF39
:1017100008300020704700BF14C200001FB500232E
:10172000CDE90233044B8DF80C0001A8019308F0B9
:1017300047F805B05DF804FB1CC2000082B038B564
:1017400004A981E80C000546114805F033FB044666
:10175000A0B16B68012B0CD0022B05D0A3B9BDE85A
:10176000384002B008F042B808F047F80028204698
:10177000F5DCBDE8384002B008F031B86FF0040085
:10178000BDE8384002B070476FF08500F8E700BF51
:10179000AAC4000082B010B502A981E80C0004467A
:1017A0000B4805F007FB78B16368022B04D00020DA
:1017B000BDE8104002B0704708F01FF80028CCBF09
:1017C000002001206060F2E76FF00400F0E700BF46
:1017D000AAC4000073B5194C194EB442254602D371
:1017E0006FF0120008E02B689B68043433B9154C85
:1017F0002368AB4211D1002002B070BD9847C0F3FE
:1018000007238DF804008DF80530C0F30743C0B2FC
:101810008DF806300028E0D0E9E723B11B685B684B
:101820000BB1002098472B6825605B68002BE2D045
:10183000012002B0BDE87040184700BFA8CA0000F0
:10184000A8CA0000500A002007B5094B01911B6887
:10185000834207D19DF8063033B903B05DF804EB3D
:10186000FFF7B8BFFFF7B6FF002003B05DF804FB39
:10187000500A002070B5094C094D0A4EAC4223466F
:1018800003D3BDE87040FFF7A5BF1B68DB680434D5
:10189000002BF3D030469847F0E700BFA8CA0000FD
:1018A000A8CA000049180000054B1B6823B11B683B
:1018B00013B11B6803B118476FF01200704700BFE7
:1018C000500A002008B5044800F024FD002818BF85
:1018D0006FF0150008BD00BF05190000084B1B780C
:1018E0000B2B4FF001000AD8984010F4CD6F05D1B2
:1018F00010F4016F0CBF01200020704702207047D8
:10190000C00200200A2808B5024613D00A4B0B4932
:101910001870FFF7E3FF02280AD10B78032A08BFEB
:1019200043F001030B70BDE80840054805F0EEBE2A
:101930000023F7E708BD00BFC002002025180020E3
:1019400018010020014B1B68184700BF2801002028
:10195000014B1860704700BF2801002030B585B0EA
:1019600004460D4610220021684609F032FD02238C
:101970008DF802302A46044B01932146684606F052
:1019800075FE05B030BD00BF4519000080B50546A5
:101990000E461746984606F063FA03460AF08AF8A0
:1019A000DFF81890044649F8003042463046394680
:1019B000A84754F8090001F0B3FB00BF080000007D
:1019C00008B50446EFF31183202383F31288BFF395
:1019D0006F8F04F0C3FA204601F090FB024808F034
:1019E00005F908F0D0FBFCE7E1C400002DE9F04761
:1019F000058B04462807904611D4022905F00705F7
:101A000040F0CC80204608F019F978B10138218BDC
:101A1000042811D8DFE800F0C2106D859500012977
:101A20000CBF45F0100545F02005258388F311888B
:101A3000BFF36F8FBDE8F08701F0070AAA4500F0F9
:101A4000A5800027B9463E46A368002B00F0BC8065
:101A500041F00801218388F31188BFF36F8FA168DB
:101A6000002900F0BA800D68002900F0B680D1F896
:101A70000480334652462046C047002D76D02B685E
:101A800029461D46F0E701F007035A1F012A1BD81B
:101A9000002221F00701062B276889B2C4E9002241
:101AA00009D13B4603E0628B013262831B68002B45
:101AB000F9D141F002012183204608F0BFF8002847
:101AC0007AD041F0200176E0042B0AD121F0070101
:101AD00089B22183204608F0B1F810B141F020010D
:101AE0002183218B01F0070AAA454FD00027B94670
:101AF000AAE7236921F0070141F00601062DD3F87A
:101B0000009021832DD1B9F1000F3FD041F00801A1
:101B1000218388F31188BFF36F8F3A492046C84765
:101B200029E021F00701236941F0040189B2042D65
:101B3000D3F804902183E6D000273E464FF0040AF4
:101B400082E721F00701236941F0050189B2052DE3
:101B5000D3F808902183D6D000273E464FF0050ADF
:101B600072E700273E464FF0060A6DE72B4687E7EF
:101B7000B9F1000FD1D1EFF31188202383F312883C
:101B8000BFF36F8F238B23F008032383258BEA0693
:101B90002ED525F01003238305F007056669218BF8
:101BA000002EBFF670AF00232768C4E9003321F090
:101BB000070141F001012183218B01F0070AAA45A9
:101BC0004FF000097FF440AF002F9CD041F0080196
:101BD000218388F31188BFF36F8F002FC8D03D6831
:101BE000394633465246204608F054F82F46F4E76B
:101BF000AB067FF51BAF25F02003238305F0070517
:101C000000E700BFC19C0000014B0360002070474B
:101C100060C20000F0B40C4B0C4E5F6A0C4BB34238
:101C200003D36FF08500F0BC70475D68BD4209D3F7
:101C30001C693CB195F802C00579AC4502D1234638
:101C4000F0BC18472433EAE7540A00205804002067
:101C5000340400202DE9F047134CDFF85080DFF802
:101C6000509005460E461746444503D36FF0850055
:101C7000BDE8F0876268D9F824309A4212D3A3698C
:101C800083B190782979884205D13A463146284671
:101C9000BDE8F04718475279012A03D13A46314648
:101CA000284698472434DFE73404002058040020F5
:101CB000540A00202DE9F0410B4CDFF83080054636
:101CC0000E461746444502D36FF0850009E063696C
:101CD0000BB92434F6E73A4631462846984700289F
:101CE000F7D1BDE8F08100BF340400205804002083
:101CF00010B5044608F0A4FA10F1780F00D050B9DE
:101D0000054A204608F03EF9D2F8C43023EA000321
:101D1000C2F8C430002010BD540A0020024B00223B
:101D20001A605A60704700BF0F0B002070B50B4B54
:101D30000B4CA34201D3002070BD196A1E7F002204
:101D40000439D5B2AE4201D82433F2E7013211F89A
:101D500032508542F5D10120EEE700BF3404002067
:101D60005804002008B509480378C3F341130A3327
:101D700050F823303BB100F1080200F11001984700
:101D8000C043C00F08BD1846FCE700BF540A00203E
:101D900004282DE9F14FDFF8A09004460F4616D035
:101DA00001282DD1DFF88C8098F8B93043B300F0CA
:101DB000D7FD1F4D4D4520D2D5F820B04FF0000A79
:101DC0002B7F5FFA8AF6B34204D82435F2E7FFF797
:101DD000A5FFE7E70BEBC6060AF1010A307908F028
:101DE0002FFA0246307908F0CDF8D8F8C430002A2E
:101DF00023EA0003C8F8C430E2DA002388F8B930D7
:101E00000B4D4D4508D30B4B1B6A6BB13946204631
:101E100001B0BDE8F04F1847EB681BB13A462146C8
:101E2000284698472435ECE701B0BDE8F08F00BFA5
:101E300034040020540A00205804002073B5C4B2B2
:101E400063060D468DF8074007D02046FFF76EFF6A
:101E500078B10D4B93F8BA0058B10B4E204655B1EE
:101E600002F088F8F3691BB10DF1070108209847CB
:101E7000012002B070BD02F0A5F8F369002BF7D085
:101E80000DF107010920F2E7540A002073B58678A6
:101E90008DF80060037942791C4C43EA0223ADF8C7
:101EA0000230C378304603F003038DF8043008F0A5
:101EB00069F8D4F8C430184205460BD0304600F01B
:101EC00031FD3046FFF714FF09F0A8F810B996204D
:101ED00005F084FF684602F029F810F1780F03D06E
:101EE00010B1002002B070BD9DF8000002F0A6F80D
:101EF00010F1780F01D00028F3D1D4F8C4300120BC
:101F00002B4384F8B900C4F8C430EBE7540A00202E
:101F10002DE9F047924DAB6904460E461746C3B90A
:101F2000207800F01F00012876D0022800F0DC8025
:101F300000BB94F900103A68637800292EDA062B6A
:101F40000CD0082B25D0ABB953700123137002239A
:101F500003E198470028E3D100200DE06388190AC7
:101F60000A1F012A8C4605D9072903D8DAB26B6A01
:101F70001C781CB96FF01500BDE8F0875D786545E9
:101F800003D1824200F0E48001302344F0E71B7863
:101F9000E3E095F8BA3013700123DEE0052B11D091
:101FA000092BE7D163886E6A002B32D1FFF7B6FEAA
:101FB000638885F8BA30EB69002BCDD069490320DE
:101FC0009847C9E7A07801F09FFF0028C4D0D1E767
:101FD0007378042B10D0052B11D0022B04D1777904
:101FE0006388BB4208BF012033781E443378002B3E
:101FF000EED10028BED0D9E796F80380F4E76388D5
:10200000BB42F1D1B8F1000FEED13046FFF73EFFF1
:10201000EAE7FF27B846E9E795F8BA30D7F800C0F5
:10202000002BA7D06F6AA28894F804E03B4618788A
:1020300000289FD05978022904D193F80480F045F4
:1020400000F292800344F2E78CF800308CF8013003
:10205000316081E71F4493E00B2B8BD100264FF0BA
:10206000FF08C146B24606E07B78042B0FD0052B53
:1020700021D03B781F443B78002BF5D1EB6913B19D
:10208000514607209847002E7FF466AF72E797F815
:102090000280A38897F803909845EAD16388994510
:1020A000E7D1B8F1070F1CD805EB0803BA4683F84F
:1020B000BB900126DDE7A3884345DAD1A3784B45E1
:1020C0000AD0BE78304600F02DFC3046FFF710FEF7
:1020D000B0FA80F67609CCE73846FFF7D7FE064619
:1020E000C7E7BA460026C4E794F900206378002ABF
:1020F00018DA002B7FF43EAF24793F6863060AD0DC
:102100002046FFF713FE00283FF434AF95F8BA30AD
:10211000002B3FF42FAF3946204601F073FF002318
:102120007B7014E7012B08D0032B7FF423AF638867
:10213000002B7FF41FAF012103E0618800297FF4A9
:1021400019AFA088FFF77AFE00287FF405AF11E7EA
:1021500002293B607FF41BAF5B883360FCE600BF65
:10216000540A00200E0B002094F900006378002828
:10217000BFF672AF002B3FF467AF0A2B7FF4FAAEC5
:102180003B78002B3FF4F6AE797804297FF462AFF8
:10219000B9788A427FF45EAF072A96BF52190023AE
:1021A00092F8BB308CF80030F6E600BF13B5164C41
:1021B000237DF3B9E268A168019201AB802007F0AA
:1021C000EFFE019AA3681344A360E3689B1AE360DF
:1021D0006BB962B12369E2889A4208DD94F8C8209D
:1021E00093FBF2F102FB11330BB90123237502B00B
:1021F00010BD00231A4619468020237502B0BDE8A1
:10220000104001F045BF00BF540A002030B585B032
:10221000002302460D460193002858D1002935D1EC
:1022200008220B460DEB020108F023F8002804DA1F
:10223000802001F09FFE05B030BD2A4C029A22603A
:10224000039A626004F13802A2609DF90820BDF88B
:102250000E302575002AC4E903550ADB802B04D90A
:10226000802001F087FE0020E3E713B1C4E90333C7
:10227000E1E7FFF777FD0028DAD0E28823699A4288
:10228000D4BFE260E360FFF791FFD4E7154CD4E9D7
:102290000215002D01AB04DC07F0EBFF0028CADAC1
:1022A000C6E72A4607F0E5FF0028D9DB019AA368B4
:1022B0001344A360E3689B1AE360002BBBD104F1D5
:1022C0003803A360FFF74EFD0028DCD1B0E780287B
:1022D000B1D1044BDA68002AD5D11B7D002BD2D1B5
:1022E000A9E700BF540A0020054B064A9A62064A35
:1022F000DA62064A1A63064A58629A6100207047F9
:10230000540A0020111F0000151C0000B51C00001D
:10231000551C00002DE9F3410446474D47484FF056
:10232000FF334FF0FF3204F09DFF95F8B830002BDB
:102330007BD16B6A83B142482C62E8616E6A01F01E
:10234000C1FF01F0AFFD041E10DA3C4805F002F8B1
:10235000204602B0BDE8F08100F0BEF8FFF7C4FFF0
:102360006B6A002BE7D14FF0FF34EEE700F01AFB69
:10237000041EEADB7378012B5AD1F379002B57D076
:102380000026684685F8C830ADF802308DF8046044
:102390008DF8006001F0CAFD041ED6DB8027684678
:1023A0008DF8007001F0C2FD041ECEDB25493046D9
:1023B00001F074FF041EC8DB2249384601F06EFFAD
:1023C000041EC2DB204CDFF8848044451AD3002071
:1023D00001F034FE041EB8DBD5F8C430802043F091
:1023E0000103C5F8C43001F029FE041EADDBD5F8A9
:1023F000C43043F48033C5F8C430012385F8B830C5
:102400000024A2E7276A0026227FF3B29A4201D86D
:102410002434DAE707EBC30257F83310107901F0E0
:102420003DFF01360028EFD09DE76FF077048CE781
:102430006FF0150489E700BF540A00202C03002028
:10244000911D00000D2200003404002058040020DB
:1024500030B51F4B8BB005AA03F1100518685968F9
:10246000144603C40833AB422246F7D11B782370CD
:102470001022002101A808F0ACFF1222002115480B
:1024800008F0A7FF102101A807F0F7FF00281BDDC7
:102490000828B8BF0820093801AB0E491A180020D7
:1024A00012F8013F0AAC04EB131403F00F032833B6
:1024B0006B44013014F8144C13F8143C0C700828C9
:1024C0004B7001F10201EBD102480BB030BD00BFEF
:1024D0000AC50000271800202DE9F04F724B93F831
:1024E00000B087B0BBF1000F03D0704807B0BDE863
:1024F000F08F6E4C00264FF0011AB0463546B146BB
:1025000023783BB96A4B02349C42F3D1664A0123DB
:102510001370EAE76378052B1BD8DFE803F08E031E
:10252000C38E1D39402304A88DF810B0ADF81230C9
:102530008DF814B007F06FFE40B1082304A8ADF881
:10254000123007F068FE08B1ADF812B0BDF81230D5
:10255000E37123781C44D3E7E378002BF9D1A37807
:102560006BB108F101085FFA88F8F2E76B689C42EA
:1025700007D024354F4B9D42F8D30020B6E74E4D8F
:10258000F8E7AB68002BECD0414620469847E8E7D7
:10259000002DF2D000222B7F9A42EED2296AA07839
:1025A00001EBC2010B79984201D00132F3E7012718
:1025B000E07800F003008DF81400207994F805C04D
:1025C00040EA0C20ADF8120094F902000028FBB29A
:1025D00028DA07F110004FF0010C0CFA00F010EAB5
:1025E0000A0F26D143F080008DF8100004A8CDE931
:1025F0000213019207F00FFEDDE90121039BC0B930
:102600009DF81020A27012F0800F18BF10330A71CD
:1026100018BFDBB24FF0010214BF9A40BA404AEA39
:10262000020A96E70120B84010EA0A0F01D11846C5
:10263000DAE70137102FBBD1B7E7032E1AD1FFF726
:1026400007FF074650B1FEF77FFD024630B1102864
:10265000A8BF10223946A01C08F0ADFE23786FF009
:102660000201E218091B04EB5303D14213D50136D2
:10267000F6B26EE7002EF1D1B9F1000F3FF47DAF55
:10268000A4EB090389F80230C3F3072389F8033068
:1026900089F80480EBE702F801BC13F8010902F89D
:1026A000020DE2E7A14654E7261800208803002027
:1026B00031040020580400203404002010B5094BD8
:1026C00000211A461C78844204D15C6814B102EBE4
:1026D000811010BD0131042903F14003F2D1002023
:1026E000F7E700BF200B00202DE9F34150F8283C0C
:1026F00010F82C6C103304460AD1036950F8202CD2
:10270000980736D5D2B9590715D5002344F8283C87
:1027100054F8283C10330BD054E9077554F8148C46
:1027200008F07CFC00284FD02E48214608F047FCDA
:1027300002B0BDE8F08143F00403236154F8241C87
:1027400001AB304607F02CFC10B16FF01503DDE74C
:10275000019A54F8243C134444F8243C54F8203C97
:102760009B1A44F8203C54F81C3C134444F81C3C8D
:10277000CEE754F8241C01AB304601F005FD0028DB
:10278000E3D1019D54F8243C2B4444F8243C54F8F4
:10279000203C5B1B44F8203C54F81C3C2B4444F880
:1027A0001C3C002DB1D0304601F092FDB5FBF0F39A
:1027B00003FB1055002DA8D154F8203C002BA4D0C9
:1027C000304601F029FDA3E744F8180CA4F11000ED
:1027D00004F042FE002DABD0424639463046A847B1
:1027E000A6E700BF580400204B1E012B73B5064618
:1027F0000D460FD8FFF762FF044668B9012D09D1D5
:1028000001AB01220DF10301304601F0BDFC019B3B
:10281000002BF5D102B070BD08F000FC04F12C01D2
:1028200008B1012D05D1084602B0BDE87040FFF7A0
:102830005BBF034802B0BDE8704008F0C0BB00BFFA
:10284000580400202DE9F74F064601911546984699
:1028500007F0EEFB044600285BD1EFF3118A20233A
:1028600083F31288BFF36F8FDFF8B0B0002200232C
:10287000584604F025FE70B9DFF8A490A70109EBD3
:102880008414636813F1100F14D10193584604F0B7
:10289000E3FD019B06E00134042C0BF1400BE5D174
:1028A0006FF00B038AF31188BFF36F8F184603B0E4
:1028B000BDE8F08F019B2061C4E902350C9B636188
:1028C0000D9BA36130466FF00F0309F80760C4F851
:1028D0003C80636001F0FCFC58B1304601F0F8FC2C
:1028E000B5FBF0F303FB10551DB1E36B43F004039C
:1028F000E36318F0020F07D007F12C0106484944A2
:1029000008F05DFB0023CDE7304601F085FC03466F
:10291000C8E76FF00F03C9E7580400203C0B002004
:10292000200B002010B5EFF31184202383F31288CD
:10293000BFF36F8FFFF7C2FE50B14368103307D16A
:102940006FF08B03436000F12C01044808F037FB63
:1029500084F31188BFF36F8F10BD00BF58040020AF
:10296000F8B50E4C04252027EFF3118687F3128863
:10297000BFF36F8F6368103307D16FF08B03084884
:10298000636004F12C0108F01AFB86F31188BFF391
:102990006F8F013D04F14004E6D1F8BD200B00200B
:1029A0005804002070B50A4C0A4E002531462046D6
:1029B00008F0E9FA0122A4F110001146013508F0EF
:1029C00064FA042D04F14004F0D1002070BD00BF72
:1029D0004C0B0020E92600000169012381F84B30EF
:1029E0000B6833B191F849301BB10248083108F047
:1029F000E6BA7047580400200169012381F84A3083
:102A00000B6833B191F848301BB10248083108F027
:102A1000D6BA70475804002070B50569EFF31186E7
:102A2000202383F31288BFF36F8FD5F8900007F04F
:102A300066FA044686F31188BFF36F8F30B10448FD
:102A40000022002305F1180104F0A4FE204670BD09
:102A50005804002070B5012382F8483013680D46F1
:102A600014463BB192F84A3023B10E4802F10801F6
:102A700008F0A5FAD4F890301A699B689A4205D1FB
:102A80007DB904F1180140F6CD4204E004F11801CB
:102A9000002DF8D00022BDE870400248002304F069
:102AA00079BE70BD5804002070B504460E46017909
:102AB0001548154607F098FA10B394F9002063788A
:102AC000002A16DB202B04D0222B0ED06FF08500BD
:102AD0000AE02B681A6840F8102C9A8820F80C2C11
:102AE0009B7900F80A3C002070BD638800F8093C1F
:102AF000F9E7212BEAD11038072328603360F2E789
:102B00006FF01200F0E700BF200C002008B501466E
:102B1000034807F077FA10B1012300F8073C08BD1D
:102B2000200C00200D4A03460021A0F84810106830
:102B3000C3F8940090889279A3F8980083F89A20BB
:102B400083F89C1083F89B10A3F89E1083F8A010C4
:102B5000402203F14C0008F03CBC00BF88BE0000DE
:102B600010B504690023C4F8A8300C4BC4F8A400C5
:102B7000596804F1A80269B9C3E9002204F1080008
:102B8000074908F000FA04F11800064908F027FA8E
:102B9000002010BD0A605A60F0E700BF200C002042
:102BA0005BA00000192C000073B504698DF80710B4
:102BB000002384F848302025EFF3118685F312882E
:102BC000BFF36F8F0122D4F890000DF1070107F0D9
:102BD00096F986F31188BFF36F8F01280AD008F0A9
:102BE0001DFA10B994F8A1306BB9094B1A780AB9DB
:102BF00001221A702122002304F11801054804F073
:102C0000C9FD02B070BD0021212008F0A7FAD3E76A
:102C10003918002058040020F0B5D0F88C305B68DB
:102C20001B6A1F7D85B00546384607F001FA064647
:102C300048BB95F8863033B3A86F0146836851F8D6
:102C4000102F9B1AB3F5806F28BF4FF4806303AA3F
:102C500007F00BF90446B0B18306A5F1180308BFCD
:102C600000F1FF3485F830600193084B039900931D
:102C7000224602233846FFF7E5FDA86F224600F101
:102C8000100107F026F905B0F0BD00BF552A00007D
:102C900037B514460A1E054620DDD4F88C0004F131
:102CA0004C0107F02CF9012384F8493023683BB12B
:102CB00094F84B3023B1114804F1080108F07FF972
:102CC000D4F88C104B684A699A1ACB699B1A3F2B2F
:102CD00004D8012384F8A03003B030BD94F89E30AE
:102CE000002BF9D0064B009301940123402204F1FC
:102CF0004C012846FFF7A6FDEEE700BF5804002070
:102D0000912C0000F7B50D4601461D4807F060F90B
:102D1000044610B30646691E56F8A4395F680529B3
:102D20001BD8DFE801F01C1A031C222610F8061C31
:102D300099B9012300F8063C3B6A3246187BFFF73D
:102D4000A7FF14F85C2C42B93B6A187D0D4B009329
:102D5000019602231146FFF775FD03B0F0BD304622
:102D600003B0BDE8F040FFF7DDBE012304F8053CE9
:102D7000F3E710F8053C002BEFD00023F6E700BF87
:102D8000200C0020552A000037B5094D09490024C0
:102D900000944FF0FF334FF48062284604F0BCFCEF
:102DA0000549284608F040F9204603B030BD00BF71
:102DB00058040020801800202EC5000030BFFFF707
:102DC000FDBF00BF2DE9F0410B4EDFF8348006EB6C
:102DD0000807CC1B054632460849204608F0EBFAA6
:102DE000A01942460021083C08F0F3FA2C6707F1CD
:102DF0000800BDE8F08100BF0000000074BE0000C4
:102E000004000000054B9A699B689A421FBF044A60
:102E1000536843F080535360704700BFB4170020DD
:102E200000ED00E070B5264B15469A6A12F0100FBF
:102E30009A6A14BF1124102412F0080F9A6A18BF5E
:102E40001224920706460AD5586B9A6A140634D59E
:102E500019B19A6A22F080029A62132401E06FF09D
:102E60001500174B9A6A12F0010F9A6A18BF1424C2
:102E700012F0200F9A6A18BF1524D20602D49B6A5A
:102E80009B070AD50E4B5B68190506D5314600F045
:102E90007DFA10B180F309880224094B9A6A9206E0
:102EA00042BF5A6A22F400525A629A6A42F0FF0202
:102EB0009A6200232B70204670BD6FF01500CCE79E
:102EC00000ED00E0134B9A6A12F0007F9A6A14BF7B
:102ED0001E201D2012F0807F9A6A18BF1F2012F456
:102EE000002F9A6A18BF212012F4802F9A6A18BF07
:102EF000222012F4003F9A6A18BF232012F4803F68
:102F00009A6A6FEA02426FEA12429A6218BF24205C
:102F1000704700BF00ED00E010B5194B0246986AFB
:102F20009C6A10F4805F14BF1720162014F4006F01
:102F30009C6A18BF1820A40509D5986B986A0004EC
:102F400004D51AB19A6A22F400429A6219200C4BF5
:102F50009A6A12F4806F9A6A18BF1A20D2050CD4AC
:102F60009B6A13F4005F18BF1C20054A936A43F460
:102F70007F43936200230B7010BD1B20F5E700BF59
:102F800000ED00E070B5454B5B689CB00546C3F3AF
:102F90000803002686F31188BFF36F8F02F07F408D
:102FA000B0F17F4F11D102F00C0008280DD01007AE
:102FB0004CBF0D4601260022033B8DF80720032B52
:102FC00005D8DFE803F01E5D615A3546F3E70024BB
:102FD0009DF807309BB96822294602A808F0EBF952
:102FE000099B002E54D0C3F3080222B96FEA532381
:102FF0006FEA4323099302A9204607F0A8F81CB002
:1030000070BD264BDA6A9107E1D4DA6A002ADEDB6A
:10301000DA6A5200DBD55A69A96942F480725A61B2
:10302000BFF34F8FBFF36F8F5A6931F8021C22F440
:1030300080725A61BFF34F8FBFF36F8F4DF60272EC
:1030400091420AD09A6AD2B24AB10DF10702012127
:103050002846FFF7E7FE0446BAE72C68B8E79A6A05
:1030600012F47F4F05D00DF107010120FFF754FF47
:10307000F1E79B6AB3F5803FA9D3FFF723FFEAE7A7
:103080000DF107020021E3E70DF107010020EDE754
:1030900023F4FF7323F00103ACE700BF00ED00E071
:1030A000044B5A6942F010025A615A6922F0080230
:1030B0005A61704700ED00E0EFF30880EFF30981FB
:1030C00001B57246FFF75EFF01BD00BF02F08AFF47
:1030D000202080F3118808484FF40861401880F3DD
:1030E0000988EFF314800221084380F31488BFF3AA
:1030F0006F8F00F0D3F8000080210020BFF34F8FC6
:103100000549064BCA6802F4E0621343CB60BFF383
:103110004F8F00BFFDE700BF00ED00E00400FA059F
:10312000084B9B6883420BD1EFF3058343B1064BF9
:103130005A6842F080525A605A6A22F400425A6237
:1031400004F094BEB417002000ED00E023498A6823
:1031500082F8BDE04FF030001044EFF3098C80E8B6
:10316000F01F1EF0100F03D102F17C0080EC108ADA
:10317000202080F31288BFF36F8F194F4FF0006645
:103180008A698A603E60106F164C206092F9BDE03B
:10319000506F0023536780F311881EF0100F03D087
:1031A0000023E1EE103A03E002F17C0090EC108A7B
:1031B000EFF3148323F0040383F31488BFF36F8FBA
:1031C00004B5104600F078F9BDE8044002F1300083
:1031D00090E8F01F8CF3098870470000B4170020B6
:1031E00004ED00E0280C00201EF0040F0CBFEFF3EC
:1031F0000880EFF30980816911F8021C0229FFD0D1
:1032000001B5724606F0A9FF01BD00BF40B200281B
:1032100007DB044A4109012300F01F00834042F804
:103220002130704700E100E040B200280CDB430988
:10323000064900F01F0020330122824041F823207C
:10324000BFF34F8FBFF36F8F704700BF00E100E007
:10325000054B420900F01F0053F82220012303FA16
:1032600000F01040704700BF00E100E040B20028CD
:10327000A8BF00F1604001F10101B8BF064B4FEA61
:103280004111ACBF00F5614000F00F00C9B2B4BFFE
:10329000195480F80013704714ED00E0144A08B583
:1032A000144B22F07F029A60BFF34F8FBFF36F8FF2
:1032B000D3F8882022F47002C3F88820D3F888203D
:1032C00042F4A002C3F888204FF04042C3F83422F1
:1032D000BFF34F8FBFF36F8F0023E1EE103A03F07F
:1032E0001DFE04F0FBFE00F0BDF803F059FE00BF28
:1032F0000010000000ED00E042F8203C009B42F886
:103300001C3C019B42F8183C0A49029B42F8143CC1
:103310004FF0807342F8043C21F00101002342F891
:10332000081C203A43674FF47D430265C0F8BC3067
:10333000704700BF8D190000037B13F0020F124B82
:1033400003D190F8BD20D20611D45A6B42F08042CE
:103350005A63D0F8BC3019075CBF43F00803C0F8CB
:10336000BC30037B43F002030373802070475A6B29
:1033700022F080425A63D0F8BC301A0744BF23F0D1
:103380000803C0F8BC30F0E700EF00E0094A03464C
:10339000906870B113F1160F006E05D0A0F1800295
:1033A0009A4205D8834203D2814228BF0020704749
:1033B00000207047B4170020104B9B6883421AD13D
:1033C000EFF30580B8B9EFF31181202282F3128860
:1033D000BFF36F8F1A7B22F002021A73EFF314838C
:1033E00023F0040383F31488BFF36F8F81F31188F4
:1033F000BFF36F8F70476FF015007047B417002050
:1034000008B515460E460022E1EE102AEFF31482AD
:1034100022F0040282F31488BFF36F8FBFF36F8F23
:10342000094A0A4B9060026F1A6000F045F82C467A
:1034300086F309880020064B984720460021002289
:103440000023044C204700BFB4170020280C0020A4
:1034500079A100008D190000014B10221A617047FC
:1034600000ED00E0044800232021C2180133302B76
:1034700082F80013F9D1704700E100E008B5EFF3DE
:103480000583064A103B02EBC30152F8330049683A
:103490008847BDE80840FFF7B5BC00BF2CBC000062
:1034A000024B034A0348012100F07CB800000420CD
:1034B0000000002060C2000010B50446FFF73CFF8A
:1034C000226E03460548D21AC0E90023044B8360EC
:1034D000BDE81040012100F06FB800BF2C0C0020A7
:1034E00000000B15084AC2F898000B6823F01F0370
:1034F000034343F01003C2F89C308B6843F0010390
:10350000C2F8A030704700BF00ED00E02DE9F043A5
:10351000DFF8608085B00E461F4604464FF0000974
:10352000B14523DA6068D8B13FB1411E08421BD1D2
:103530007F2819D92368194216D12368019306F010
:103540003EFEA36803430393D8F89050C5F30725C4
:10355000D0B2013DA84207D801A9FFF7C3FF421C22
:1035600009F101090C34DBE76FF01502104605B0D4
:10357000BDE8F08300ED00E0044B0522C3F8942081
:10358000BFF34F8FBFF36F8F704700BF00ED00E0B8
:10359000BFF35F8F024B0022C3F89420704700BF37
:1035A00000ED00E010B5034C01232278FFF7AEFFD9
:1035B000207010BD3A18002008B50B4A002312787D
:1035C000FFF7A4FF10F1160F07D0084A0021D2F828
:1035D0009030C3F30723984200DB08BDC2F898007F
:1035E000C2F8A0100130F2E73A18002000ED00E028
:1035F0002DE9F043534B544CD3F890302568C3F376
:1036000007239D4285B000F29A80FFF7C1FF00209A
:103610000C2685421AD14D4C4D4F25706846FEF759
:10362000F3FADFF82081DFF82C9106460025AE4240
:1036300013D1237843490020D1F89020C2F3072208
:10364000934276DBFFF798FF002042E0616806FBBB
:103650000011FFF747FF0130DBE7009800EB051191
:103660004FEA051CCB683B40B3F5000F48D00AD8A1
:10367000B3F5001F30D0B3F5800F36D0B3F5801FFF
:1036800010D00135D3E7B3F1807F42D0B3F1007F92
:10369000F7D150F80C3088684A6806F090FD40F485
:1036A000802009E050F80C3088684A6806F087FDF1
:1036B00040F0885040F43020CDE901230390D8F841
:1036C00090302078C3F30723013B98422AD96FF04A
:1036D000150005B0BDE8F08350F80C3088684A68E2
:1036E00006F06DFD40EA0900E6E750F80C30886806
:1036F0004A6806F064FD40F0E06040F40030DBE72B
:1037000050F80C3088684A6806F059FD40F0827025
:10371000D2E750F80C3088684A6806F050FD40F057
:103720008870C9E701A9FFF7DDFE23780133237014
:10373000A7E7C1F89830C1F8A00001337CE74FF04B
:10374000FF30C6E700ED00E06CC200003A18002030
:103750000000F0FF0000081108B5024B1B689847F5
:10376000002008BD380C0020034B044A18609378F1
:1037700043F0020393707047380C0020840100204E
:1037800008B50649064821F00701C1F1005202F5CB
:10379000802206F0ECF9002008BD00BFB7430020EE
:1037A0003C0C0020024B0122C3F84025002070474A
:1037B00000E0014020B1034B800143F001031847B2
:1037C000704700BF90BE0000020600F07F0312D5D4
:1037D000082B05D1010700F00F0306D50E487047EE
:1037E00010F0780F12D100F00F034C2000EB4310C3
:1037F0000A4B18447047082B05D1020700F00F034D
:1038000006D50748704710F0780FF6D000207047B3
:10381000044800EB43107047940D0020480C002032
:10382000B40E0020B40D00200149024807F0C7BBC8
:10383000700C0020380500200146014807F01ABB33
:103840007803002002480022002303F0D3BD00BF0C
:103850007803002013B5124800F0C4FE114B9842C3
:103860001AD1114803F000FA0024104803F042FA7C
:103870000F49104800944FF0FF334FF4806203F07B
:103880004BFF0D490B4807F0CFFB0C480C4907F0E4
:103890007AFB204602B010BD6FF00400FAE700BFCB
:1038A000A93A00000000AD0B54C500008CC2000016
:1038B000001D00203805002046C50000700C0020C7
:1038C000C53B000010B50E49BFF35B8F002351E8E4
:1038D000002F012A03D141E800300028F7D1BFF3BF
:1038E0005B8F0CD151F8044C1439204606F084FA51
:1038F000783004D12046BDE8104006F059BA10BD1A
:10390000680C002038B5002464F07F00C0B2FFF7D7
:103910005BFF013406F068FC082CF5D10E4D002445
:10392000E0B2FFF751FF036903B90561013406F006
:103930005BFC082C05F14005F2D1084806F054FC68
:10394000074BD3F87C2212B9064AC3F87C220648FA
:1039500006F04AFC002038BDD8120020940D00204B
:10396000480C0020D80E0020B40E002010B5054CE5
:10397000FFF768FF20B14168204607F09CF9F7E7A0
:1039800010BD00BF1003002007B500230E48002221
:1039900001A903F07FFB90B1FFF7E8FF0A4800227E
:1039A000002301A903F076FB38B901980423406095
:1039B0000374FFF741FFFFF737FF002001E0019894
:1039C000406003B05DF804FB10030020022810B52E
:1039D00011D8094B1C5CFFF7D7FF60B100220274BD
:1039E0000472FFF729FF054B93F824301BB1BDE8A3
:1039F0001040FFF719BF10BD51C50000480C002052
:103A0000F8B5877806463846FFF7DEFE3B06F578C0
:103A1000044612D5002D43D1FFF7B6FF0346002818
:103A20003ED00122A5770274032202739C60FFF747
:103A300003FFBDE8F840FFF7F7BE4DB1012D2FD1D0
:103A4000FFF7A2FF034658B3657705740573EDE7EA
:103A5000FFF79AFF20B3B278124B12F0800F02F0FA
:103A6000080111D041B1D3F8A836E36001230374F3
:103A7000022303738460DAE702F00F02142101FBD2
:103A80000233D3F80836F0E711B1D3F8A837ECE7E2
:103A900002F00F02142101FB0233D3F80837E4E7E8
:103AA000F8BD00BF00700240F0B5064689B0142290
:103AB000002103A807F08DFC3378013B052B21D8AA
:103AC000DFE803F07A0314146A1603238DF8143028
:103AD0000024FFF759FF0346A0B1047400F1080267
:103AE000DDE9050182E8030018461DE00423EDE747
:103AF000B7783846FFF768FE837A044623B1013B66
:103B0000022B43D909B0F0BD3B06F57813D5002D43
:103B1000F8D1FFF739FF03460028F3D00122A5773B
:103B20000274032202739C60FFF786FE09B0BDE8B1
:103B3000F040FFF779BE55B1012DE3D1FFF724FF27
:103B400003460028DED0657705740573EBE7FFF7C1
:103B50001BFF07460028D5D00123037402230373FB
:103B6000846004F10C01B07806F09FFB134AE16811
:103B7000B2F88C328B4206D95B1AA2F88C3201F073
:103B80007FF83846D0E7A2F88C52FAE7304609B001
:103B9000BDE8F040FFF734BF01A801F04FF89DF8F1
:103BA0000530052B04D19DF8043013F0600FA9D027
:103BB000034B059301248CE702248AE7480C00207C
:103BC000B40D00202DE9F043A64CDFF89C9285B09F
:103BD0008046FFF737FE074610B905B0BDE8F08311
:103BE00094F825303A7C3BB9002A00F08680796849
:103BF0009D4807F060F8ECE7042A42D8DFE812F0AD
:103C00007D0005000001160140013B7BBD68032BD0
:103C100037D8DFE803F0023D5A5F6E69934B00220C
:103C200032607260D3F880143170D3F884147170EC
:103C3000D3F88814D3F88C0441EA00217180D3F8BA
:103C40009014D3F8940441EA0021B180D3F8981479
:103C5000D3F89C3441EA0323F3800823EB603068F7
:103C60007168834B03C311462B68687A984796F9AD
:103C70000030002B08DBF38833B1A4F88C3200F05D
:103C8000FFFF79684846B4E70023A4F88C32F8E7D0
:103C90006B7F002BF5D02B7F002BF2D000266E77A8
:103CA0004FF0FF3273482E774FF0FF3306F0AFFA34
:103CB0006B6901936B68CDE9023601A9687A00F05F
:103CC000E7FC6C4806F0A5FADBE72B680121687A6F
:103CD0009847D6E7AB7A6BB9EB7F5BB965484FF095
:103CE000FF324FF0FF3306F092FA00F0CFFF614849
:103CF00006F08FFA2B680221E9E73A7A042AC0D845
:103D0000DFE802F059032367730000F02BFC05463F
:103D10000028B6D100F066FBBFF35B8F5649012344
:103D200051E8002F002A03D141E800300028F7D1E4
:103D3000BFF35B8FA5D141F8085C41F8105CE069E6
:103D40006361143905F0DDFF9BE7002565F07F0016
:103D5000C0B2FFF739FD037A13B1407A01F0FAF8E7
:103D60000135082DF2D194F854311BB194F8550166
:103D700001F0F0F80025E8B2FFF726FD037A13B151
:103D8000407A01F0E7F80135082DF4D194F8743247
:103D90001BB194F8750201F0DDF8002000F0C6FBBD
:103DA000012384F825302368002B3FF46AAF0021FB
:103DB0000220984765E7002584F8255001F030F887
:103DC000FFF780FD2368002B3FF45BAF29460420FA
:103DD000EFE7002B3FF455AF00F0CEFB2368002B3C
:103DE0003FF44FAF00210520E3E72268002A3FF4AB
:103DF00048AF002B3FF445AF00210620904740E735
:103E000008F110054FF0FF334FF0FF32284606F05F
:103E1000FEF9FFF777FD284606F0FBF958F8283C35
:103E2000002B3FF42EAF00210120C2E794F874323A
:103E30007BB1012584F8895284F88852FFF7A4FDEC
:103E400038B10E4A057405738260FFF7F5FCFFF781
:103E5000EBFC58F8283C002B3FF413AF00210A205C
:103E6000A7E700BF480C00201003002000700240AC
:103E70004C0C0020800C0020680C0020B40E0020A8
:103E800006F07DFE00F0CCFF00F0A2FAFFF76EFD19
:103E9000FFF738FD06F06CFE014800F0A3FBF0E6EA
:103EA000A93A000038B5164D95F824402CBB05F111
:103EB000380006F057FF204601F0A0F92246012104
:103EC000E8612720FFF7D2F906F052FEFFF71AFD4E
:103ED000044610B9012385F824300A4B1B680BB146
:103EE000FFF7A2FC4FF08043D3F83834DB0702D54C
:103EF0000020FFF76BFD204638BD0024FBE700BF24
:103F0000480C002078030020074B93F824203AB196
:103F100093F82530002B14BF00206FF0120070477B
:103F20006FF01200704700BF480C002038B5104BEE
:103F300093F824300446C3B105782846FFF744FCC3
:103F400010B96FF0150038BD45722379837263880C
:103F500043602078618810F0080F02D14B1E0B429D
:103F6000EFD106F09DF90020EDE76FF01200EAE7CF
:103F7000480C002038B5124B93F824200546CAB1EE
:103F800093F82530B3B1FFF71FFC0446A8B1837A3C
:103F9000012B12D007D9023B012B07D96369A3611A
:103FA0000020E06038BD00F077FEF7E7284600F01B
:103FB00019FEF3E76FF01200F4E76FF01500F1E778
:103FC000480C002038B50E4B93F82420054682B1EA
:103FD00093F825306BB1FFF7F7FB68B115F00804D3
:103FE0000AD1284600F020FE284600F0EBFF2046CC
:103FF00038BD6FF01200FBE76FF01500F8E700BF67
:10400000480C002038B50C4B93F8242005460C468C
:1040100062B193F825304BB1FFF7D6FB48B144B1FC
:10402000284600F0E7FD2070002038BD6FF0120038
:10403000FBE76FF01500F8E7480C002070B5134E51
:1040400096F824300446C3B1FFF7BEFB0546B8B16D
:10405000230705D4204600F0E7FD204600F0B2FF1C
:104060002B7A83B901232B7296F825300BB90020E7
:1040700070BD204600F06EFFF9E76FF01200F7E721
:104080006FF01500F4E76FF07700F1E7480C0020BF
:104090002DE9F043DFF8EC801E4698F8243085B017
:1040A000074689461546002B61D098F82530002B2D
:1040B0005DD003065ED5FFF787FB0446002859D084
:1040C000037A002B56D04FF0FF334FF0FF3208F148
:1040D000380006F09CF8A37F4BB108F1380006F0D9
:1040E00098F86FF00A04204605B0BDE8F083A37A83
:1040F000C5B13BB30123A3774FF0000801A93846AF
:10410000CDE90195CDF80C8000F0C2FA1B4B984226
:1041100029D084F81E801EBB6FF00404184806F0F6
:1041200078F8E0E7E27F02B1E577002BE2D100F01A
:10413000B9FD8742DED000F0A9FD114806F069F80C
:104140000024D0E7B8F80A30AB42F0D96268B5FB7A
:10415000F2F302FB1353002BE9D10123E377E6E7E7
:10416000C6F80080D8E706B135600024D6E76FF0C6
:104170001204B8E76FF01504B5E700BF0000AD0BFF
:10418000800C0020480C00202DE9F0411D46204BFA
:10419000174693F824200E46002A33D093F8253092
:1041A00083B3030631D401B97FBBFFF70DFB04468F
:1041B00058B3037A4BB34FF0FF3316484FF0FF323A
:1041C00006F025F8E368BB42984628BFB84646B9D2
:1041D0003FB905B12B600F4806F01BF80020BDE881
:1041E000F081A1694246304607F0E5F8A3694344EF
:1041F000A361E368A3EB0803E360002DEBD0C5F8EF
:104200000080E8E76FF01200E9E76FF01500E6E7DD
:10421000480C0020800C002070B51E4D95F824201D
:10422000034682B395F825206AB31B062ED4FFF708
:10423000CBFA044650B3037A43B34FF0FF334FF049
:10424000FF3205F1380005F0E2FFE368B3B901265B
:1042500063692677A361637F83B1FFF795FB30B96C
:1042600005F1380005F0D5FF6FF00B0070BD067446
:1042700084600673FFF7E0FAFFF7D6FA064805F008
:10428000C8FF0020F2E76FF01200EFE76FF01500B3
:10429000ECE700BF480C0020800C002010B5084B54
:1042A00093F824300C462BB1FFF78EFA28B1046046
:1042B000002010BD6FF01200FBE76FF01500F8E76B
:1042C000480C0020014B1860704700BF480C0020CC
:1042D00008B5074B93F8243023B1FFF775FA20B1E6
:1042E000406808BD6FF01200FBE76FF01500F8E7BB
:1042F000480C00204FF08053D3F83021082A06D113
:10430000D3F83431052B04D8034AD05C7047002021
:1043100070470120704700BF55C50000064B10F0E4
:10432000800FA3F1D80208BF134600F00F00182237
:1043300002FB0030704700BFF0150020EFF3118042
:10434000202383F31288BFF36F8F0A4BD3F8001C2E
:10435000032261B949F27531C3F8001CC3F8142D6A
:10436000C3F8001C80F31188BFF36F8F7047C3F848
:10437000142DF7E700E00640EFF31180202383F3CC
:104380001288BFF36F8F0A4BD3F8001C61B949F252
:104390007532C3F8002CC3F8141DC3F8002C80F349
:1043A0001188BFF36F8F70470022C3F8142DF6E712
:1043B00000E006404FF08053D3F83031082B02BFA5
:1043C000024B0022C3F81C2C704700BF0070024053
:1043D000024A00231360024A13707047D01600206F
:1043E0003F18002008B54A4B4FF40062C3F8002480
:1043F000FFF780FF08B1FFF7A1FF4FF08053D3F81C
:104400003031082B18D1EFF31180202383F3128869
:10441000BFF36F8F3F4BD3F8001CC02200296ED131
:1044200049F27531C3F8001CC3F8142CC3F8001C02
:1044300080F31188BFF36F8F354B0122C3F800253D
:10444000D3F800241205FBD54FF40062C3F8002412
:104450004FF08053D3F83031082B17D1EFF3118090
:10446000202383F31288BFF36F8F2A4BD3F8001CED
:10447000002947D149F27532C3F8002CC3F8141C47
:10448000C3F8002C80F31188BFF36F8FFFF732FF62
:1044900030B1FFF771FFFFF72DFF08B1FFF74EFFB7
:1044A0004FF08053D3F83031082B194B0AD140F22A
:1044B000E372C3F800284022C3F80428BFF36F8FCB
:1044C000BFF34F8F8022C3F81C250122C3F830258B
:1044D000114B40F2FF121A60104B00211960104B73
:1044E0001970FFF767FF0F4B19700F4B02221A70FC
:1044F000FFF700FF50B1BDE80840FFF73DBFC3F82C
:10450000142C95E70022C3F8142CBBE708BD00BFAC
:104510000070024000E00640CC160020C8160020C3
:104520003B1800203D1800203F180020094B0022B6
:1045300010B51A70084A094B094C002808BF1346E9
:10454000C4F800332720FEF761FE0123C4F80435C8
:1045500010BD00BF3E180020FDFFDF01FDFFFF0181
:1045600000700240034B1878012894BF00200120FE
:10457000704700BF3F18002010B54FF0FF324FF0DA
:10458000FF33154802F09CFFEFF31181202383F3E2
:104590001288BFF36F8F114B1B7803F0FF0483B1B8
:1045A0000F4BD3F8002412F400720AD10120C3F893
:1045B0002C05D3F82C05D3F80004800502D5C3F8E8
:1045C0002C25002481F31188BFF36F8F024802F07D
:1045D00043FF204610BD00BF680300203E180020A6
:1045E00000700240F8B51C4B1C7894BB1B4A10604D
:1045F00001221A7040F2FF17264664F07F0514F07E
:10460000080FEDB214BF39464021284605F048FE98
:104610002846FFF783FE0134092C86750673066170
:10462000EBD1002440F2FF17254614F0080FE6B244
:1046300014BF39464021304605F032FE3046FFF7C0
:104640006DFE0134092C857505730561EDD10448B3
:10465000F8BD0448FCE700BF3F180020D01600203A
:104660000000AD0B0500AD0B084B10F0800F00F003
:104670000F0114BFD3F81025D3F8142501238B4064
:10468000134214BF01200020704700BF0070024099
:104690002DE9F8430246EFF31187202383F31288B4
:1046A000BFF36F8F030703D1184B1B78834229D1C7
:1046B000174B184E1C683568104605F0E9FDE443B9
:1046C000A4B24FF001092C4309FA00F814EA0804D7
:1046D0001AD11046FFF722FE80F80C90034607C956
:1046E0001C6183E807009C750B4B0C4845EA0805E4
:1046F00080223560C3F8042187F31188BFF36F8FE0
:10470000BDE8F8830648F7E70648F5E73D180020BE
:10471000CC160020C816002000E100E00000AD0B20
:104720000A00AD0B0B00AD0B10F0080F074B06D0C5
:10473000D3F8C00410F4803F18BF0020704700F089
:104740000F0000F5947053F820007047007002408D
:104750002DE9F74FAB4BAC4ED3F85421DAB1002220
:10476000C3F85421D3F80413890214D58DF804201A
:10477000D3F82025ADF80620D3F8C034002B3368D9
:1047800014BF4FF001224FF48072134333609F4BEC
:1047900001A81B6898479B4BD3F8604134B10022B5
:1047A000C3F86021D3F86C44C3F86C44D3F82821D3
:1047B0004AB10022C3F82821954B187805F068FD0E
:1047C000012383401C43DFF86482924F98F8005025
:1047D00098F9009015F0080143D1B9F1000F05F0E8
:1047E0000F032EDA8C4A52F8230020B342F823102C
:1047F0001422534303F1804303F51C33D3F80836E6
:10480000864A117803F001034B401370FFF7D2FD85
:10481000834802F021FE2846FFF780FD837D032BAD
:1048200037D1284605F034FD012303FA00F03B6838
:1048300023EA00033B60DFF8D4A101254FF006090D
:104840005DE0784A52F823000028F4D042F82310A3
:104850001422534303F1804303F51C33D3F8083784
:10486000CEE7B9F1000F674B09DBD3F85021002ADE
:10487000E1D00022C3F85021D3F8A837C0E7D3F81D
:104880002C21002AD7D00022C3F82C21D3F8A83637
:10489000B6E7037BDBB9284605F0FAFC012303FAEF
:1048A00000F03B68B9F1000F23EA00033B6001DA36
:1048B000882DC0D106238DF8043000238DF80730F1
:1048C000524B8DF806501B6801A89847B3E7002D9E
:1048D000B1D14C4B0122DA64ADE794FAA4F032680E
:1048E000B0FA80F005FA00F31A430F28326024EA88
:1048F00003043A6840F39C80134200F0A980002C26
:10490000EBD1404BD3F800215AB1C3F80041464BDC
:104910001C703F4B1C70012301933C4B01A81B688A
:104920009847384BD3F85821002A2ED00022C3F8DC
:104930005821D3F80044C3F80044E30508D53A4BA6
:1049400001221A7002230193304B01A81B6898477B
:10495000A50508D5344B00221A70032301932B4B75
:1049600001A81B68984760050FD52F4B1A7862B1D4
:1049700000221A70234B0122C3F808259A650423EC
:104980000193224B01A81B6898471E4BD3F85C315A
:1049900003B3234B9B681BB998F80030590619D014
:1049A000184B0022C3F85C21D3F88034184A23F056
:1049B0007F0313703B6823F001133B60336823F4DB
:1049C000803343F001033360052301930F4B01A8AB
:1049D0001B6898473A6833681A4200F0EB80104829
:1049E0000022002302F06CFD002840F0E380054B1C
:1049F000D3F82C35002B7BD0094803B0BDE8F04F2D
:104A000002F02ABD00700240CC160020D016002013
:104A10003D180020C8160020087102403B180020F5
:104A200068030020307102403E1800203C1800202E
:104A300013407FF464AF60F07F018DF804908DF82F
:104A400006108DF80730DAF8003001A8984756E7CD
:104A5000A0F110018DF804908DF806108DF8075024
:104A6000F1E749F080052846FFF758FC4368B0F8A5
:104A700014A001689A4528BF9A4601F06043B3F13B
:104A8000005F044604D05448524606F094FC524954
:104A90002268636852442260A268A3EB0A03D2072B
:104AA00068B2636053D5BAF1000F52D1002323736B
:104AB0004FE011464FF0000A604545D1003B18BF5A
:104AC0000123002A42D0504540D9012303FA09F3BB
:104AD0002BEA03033B6006238DF804303F4B8DF82F
:104AE000065002221B68A2758DF8072001A898477E
:104AF000D7F800B033681BEA03093FF47DAF19F023
:104B0000012314BF93FAA3F999FAA9F9B9FA89F91B
:104B1000B9F10F0FA5D9A9F11005EDB22846FFF79D
:104B2000FDFB04462846FFF7FFFD6368B4F814C098
:104B300022689842BDD81B1A00EB020E1146636032
:104B4000C4F800E08246B7E70023BAE768B2002B5A
:104B5000ACD04FF08053D3F83031082B02BF204B3C
:104B60008222C3F81C2C336888F80050012202FA14
:104B700009F923EA09033360236915F0080F534448
:104B80002361174B19D1002805F00F054FF01400D1
:104B900000FB0530A9BF0A3503EB8503C0F80017F9
:104BA000C0F804A7AFBF43F82520C0F80016C0F82E
:104BB00004A65A6003B0BDE8F08F0028B5BFC3F863
:104BC000A016C3F8A017C3F8A4A6C3F8A4A7B4BF3F
:104BD0005A629A64EEE700BFD8140020D016002075
:104BE00000700240024B40F48070C3F81805704713
:104BF00000700240030713D400F00F0310F0800F81
:104C0000084A0BBF03F5887303F5847302EB830234
:104C100052F8230008BF5068003818BF01207047C1
:104C20000020704700700240034BC3F80C0540F4AD
:104C30008070C3F80C0570470070024000230360C9
:104C400043600E4BD3F880240270D3F88424427062
:104C5000D3F88824D3F88C1442EA01224280D3F896
:104C60009024D3F8941442EA01228280D3F8982445
:104C7000D3F89C3442EA0323C3807047007002409B
:104C8000014B0122DA64704700700240014B01229F
:104C90001A65704700700240014B01225A65704747
:104CA00000700240014B1878704700BF3D1800208B
:104CB00010B50246EFF31184202383F31288BFF36B
:104CC0006F8F05F0E5FA0B49012303FA00F00B683A
:104CD00023EA00030B6012F0080101BF02F00F028B
:104CE000054B02F5947243F8221084F31188BFF348
:104CF0006F8F10BDCC16002000700240F7B5014642
:104D0000EFF31185202383F31288BFF36F8FFFF732
:104D100005FB0646084605F0BBFA012211F0800F9C
:104D200002FA00F22D4818D1036832EA03040AD0CF
:104D30000846FFF7BDFF0323B37585F31188BFF362
:104D40006F8F03B0F0BD2649347323EA020303607A
:104D50000B6823EA02030B60EDE70B0715D48029EB
:104D6000204B2FD001F00F0404F2DA346400C3F8B2
:104D70000048D3F80448D3F80478E4B244F00204BD
:104D80003C43C3F80448D3F80438154F04683B6823
:104D900064EA030C1CEA020FCFD013433B600023EC
:104DA00033730323B3758DF807300F4B8DF806105E
:104DB00024EA0204062204601B688DF8042001A87E
:104DC0009847BAE740F2B474C3F80048D3F80448EF
:104DD000D3F80478E4B244F00404D1E7C816002004
:104DE000CC16002000700240D016002038B50446D2
:104DF000094D4FF0FF324FF0FF33284602F060FBC1
:104E00002046FFF77BFF284602F026FB034B80225B
:104E1000C3F8042138BD00BF6803002000E100E0B2
:104E2000F8B54FF0FF324FF0FF332B4802F048FB4C
:104E30002A4B8022C3F884212720FEF709FA98B173
:104E4000274E284B34681B68240C24041C4301277C
:104E500064BB254D40F2FF1333602720C5F804459D
:104E6000FEF7E2F9C5F80043204A13788BB11E4BD8
:104E70000021C3F808110121C3F80026C3F8041665
:104E80005960D3F808110029FBD00021C3F808119C
:104E90001170154B0022C3F80025FFF78BFA0E485E
:104EA00002F0DAFA124B01221A70F8BD94FAA4F556
:104EB000B5FA85F50F2D2846C6BFA5F11000C0B282
:104EC00040F08000030701D4FFF718FF07FA05F54B
:104ED00024EA0504BCE700BF6803002000E100E00D
:104EE000CC160020C8160020007002403B1800209D
:104EF0003F18002010B504464FF0FF324FF0FF334B
:104F0000114802F0DDFA2046FFF7F8FE04F00F0228
:104F1000012393400D4A14F0800F14BFD2F81015EE
:104F2000D2F814156FEA030315BF0B400B40C2F80B
:104F30001035C2F81435044802F08EFA044B802272
:104F4000C3F8042110BD00BF6803002000700240B8
:104F500000E100E070B50446FFF786FB68B904F095
:104F60000F02012514F0800F144B05FA02F205D050
:104F7000D3F810150A43C3F8102570BDD3F81415E3
:104F80000A43C3F81425631E062BF6D8EFF31186E7
:104F9000202383F31288BFF36F8F2046FFF788FE2C
:104FA000204605F075F9064A1368854023EA050393
:104FB000136086F31188BFF36F8FDEE70070024045
:104FC000C8160020030610B5044605D4FFF712FEEC
:104FD00010B12046FFF76CFE014BC3F8184510BD19
:104FE00000700240084B70B5C31A0D4607499B106C
:104FF000044659430648402205F076F92B460146FF
:105000002046BDE870401847E8160020B76DDBB6B3
:1050100078BB000073B50C4C0C4A4023041B009372
:105020000D460B460A49A41061430646094805F09F
:1050300087F9011E05DA30462B4602B0BDE8704004
:10504000184702B070BD00BFE8160020ABA30000F7
:10505000B76DDBB678BB000010B5EFF311842023E9
:1050600083F31288BFF36F8F074A136823F002019E
:10507000DB07116002D4012005F0ECFC84F31188F9
:10508000BFF36F8F10BD00BF38170020002270B52E
:10509000012104461046FEF7E9F80F4801F044F9F3
:1050A0000E4B984215D101F04FF926690C49304654
:1050B00004F014FE00280BDB01253564246908493F
:1050C00004F11C0004F00AFE002801DBE564002066
:1050D00070BD6FF00400FBE7E15100000000AD0B74
:1050E00090C200001FB500220123CDE90223094A26
:1050F000CDF800D06B46CDF804D005F04FF900286C
:1051000005DB4FF480420023684602F0D9F905B070
:105110005DF804FBCBA3000030B4104B0C2202FB63
:10512000003301460020D3E90E529863EFF311805B
:10513000202484F31288BFF36F8F1C6C04F0C0042A
:1051400044F002041C6480F31188BFF36F8F1DB11B
:105150002B46034830BC184730BC7047E816002087
:1051600078BB000010B4EFF31182202383F3128880
:10517000BFF36F8F1848016841F002040460C8074C
:1051800008D482F31188BFF36F8F01205DF8044BC0
:1051900001F0F2B84FF08041D1F80C04D1F80C14B2
:1051A000C907EED5EFF3118083F31288BFF36F8F39
:1051B0000A490B6C03F0C00343F002030B6480F355
:1051C0001188BFF36F8F82F31188BFF36F8F0020B8
:1051D0005DF8044BFFF7A0BF38170020E816002049
:1051E00010B1012804D07047034B1B6C5B0701D141
:1051F000FFF792BF704700BFE8160020024AC3B213
:105200001C2003FB00207047E81600202DE9F04128
:105210003849BFF35B8F0746012251E8003F41E860
:1052200000200028F9D1BFF35B8F33B932493348EE
:105230004B60CB608A6004F064FD7B1E012B2BD891
:10524000012F07D14FF08043D3F81C3403F0030340
:10525000012B21D005F0E2FE0546F8B9284B1B785A
:10526000E3B14FF080430222C3F808230646DFF87B
:1052700094804FF08044D4F81824D4F81834D20322
:1052800015D503F00303012B01D0012F0FD155B326
:1052900086F31188BFF36F8FBDE8F081EFF31186BD
:1052A000202383F31288BFF36F8F0125DFE7ADB1B1
:1052B000304604F075FFD4F81835002BDBD1D4F854
:1052C0000421002AD7D0C4F80431D4F804310123D2
:1052D000C4F81835C8F88031A360CCE7002121203C
:1052E00005F03CFFE7E74FF080430222C3F80423B8
:1052F000D2E700BFE4160020D416002004170020D7
:105300006418002000E100E008B5074805F086FCBD
:1053100038B10648FEF728FA0448FCF719FB0020CC
:1053200008BD6FF01200FBE7B4BB00003153000072
:105330000A2838B5074D044604D1AB680D215B68D7
:1053400028469847AB6803485B68E1B29847204617
:1053500038BD00BFB4BB0000F0B54068057B01F06C
:105360001F0444EA4514056987B0002D64D0B2F5E6
:10537000001F00F1100506D12146284605F0EAFB82
:10538000002007B0F0BD01AE0027B2F5800F0197F5
:10539000776039D1B3F1007F14BF052304238DF862
:1053A00004300023CDE904630393836823FA01F1F9
:1053B00011F001011AD1B2F1A07F17D104F01F033F
:1053C000620903F5E0732AD0012A3BD11F4A52F843
:1053D0002330DB070AD40DF1030632462146284666
:1053E00001F0A8FA1A4B98421CD0029603AA214653
:1053F000284601F061F9174B984220D1012221463D
:10540000284601F0FBFABBE7B3F1C06F05D0B3F15A
:10541000007F14BF01230223C1E70323BFE74FF03E
:10542000A042D4E73146284601F0E2FA094B9842FF
:10543000DBD06FF00B00A4E76FF08500A1E76FF001
:1054400015009EE751F82330FFDE00BF0003005037
:105450000400AD0B0000AD0B38B545682B69B3B146
:105460001035284601F0B4FA044680B901462846B2
:1054700001F07AFA084B98420BD108492246284697
:1054800001F052FA224605210620FDF7EFFE00202A
:1054900038BD6FF00400FBE70000AD0BA154000025
:1054A000420970B5034602D0012A17D070BD0D4ED7
:1054B000326951680029F9D003F01F0301250C68F7
:1054C0009D400029F2D08A682A4002D04B683046BD
:1054D00098472CB1236821461C46F2E7024EE7E7C5
:1054E0002346F8E7A0BB00008CBB00002DE9F04389
:1054F000466840F20635D006337B87B002EA0505E0
:1055000054BFC2F34010032001F01F07B5F5837F9D
:10551000144647EA43178DF8030045D00FD8062DEF
:1055200018D007D8B5B1022D40D06FF0150007B0E4
:10553000BDE8F083B5F5807FF7D101250AE040F2A0
:105540000222954234D0B5F5407F33D0B5F5007FC7
:10555000EBD102250123220303FA01F12CD5736854
:10556000C3F80815326982BB07F01F037F0929D0F1
:10557000012F77D13E4A02EB830284F48033D2F8C4
:105580000017C3F30043C4F3404444EA430421F446
:10559000E16144EA800421F0070144EA05230B435A
:1055A000C2F800370020C2E70725D3E70425D1E77A
:1055B0000525CFE70325CDE7630344BF7368C3F830
:1055C0000C15CFE74FF0A042D5E710360DF10202DF
:1055D0003946304601F0AEF914F4403F80460CD114
:1055E0003946304605F0B4FA224B9845DAD19DF899
:1055F0000210304601F0F6F9D4E701AB4FF0000994
:1056000003AA39463046CDE90439CDE90199CDF8F0
:105610000C9001F051F8174B984286D114F40033E6
:1056200015D09DF803308DF80E3084F48034C4F327
:1056300000444B4603AA394630468DF80C508DF88D
:105640000D4001F0F3F80B4B9842CDD06DE7CDE95A
:10565000043303AA0DF1030339463046039301F0E6
:105660002BF8F0E703F5E07352F82330FFDE00BFBC
:10567000000300500000AD0B0B680068C01A024B1D
:1056800080105843704700BFCDCCCCCCD0E900018E
:10569000014B0C2205F0DCBE795600002DE9F047E5
:1056A000DFF8649006460C4600250C2701F400083C
:1056B000B368AB4202D80020BDE8F087726807FBF0
:1056C00005F3D118D058097983680269D3F818A076
:1056D000BAF1000F14D0B8F1000F0FD012680123F7
:1056E0008B4013420AD084F0C06202EA090302F040
:1056F000B072D0470028DFD10135D9E72246F4E760
:105700006FF05700D8E700BF400000062DE9F84FC2
:105710000569DFF8C4A0044628464FF00C0940F89C
:10572000044BFFF7B3FF05F110002A4905F057FCC1
:10573000D4F810800025D8F80830AB4209D9D8F841
:10574000047009FB05F607EB060BB85905F066FA7D
:1057500060B9666800250C277368AB4227D860687B
:10576000002104F0E7FE0020BDE8F88F4FF48031FF
:10577000584604F0AEFE0028EBD1DBF80830226971
:105780001901126C54509BF8040002EB0313012220
:1057900002FA00F0C3E902A0B859191D8368DB6959
:1057A000002BD6D098470028D3D10135C3E7326803
:1057B00007FB05F302EB0308D05805F02FFA002889
:1057C000CDD04FF40031404604F083FE0028C6D10E
:1057D0000135C1E7D1A60000F7A60000036803F079
:1057E0001F025B09026004D0012B034818BF002090
:1057F00070474FF0A0407047000300502DE9F04F74
:10580000DFF86091DFF860A185B01546834600EBB4
:10581000810140F2FF18594503D1002005B0BDE8D1
:10582000F08FDBF800305804C3F3C322C3F308043D
:1058300000F191801B0E19F80270444508BF4FF02B
:10584000FF34192B00F28A80DFE803F00D141A1DD3
:1058500020261D8888888836638888888888888874
:105860008888667C7F82C5F80C45621C5ED10BF18E
:10587000040BD0E7C5F81445631CF8D000265FE0A0
:10588000C5F80845F1E7C5F81045F5E7661CC5F809
:105890000845ECD0002604E0601CC5F80C45E6D0B5
:1058A000012603A80394FFF799FF039B012202FA44
:1058B00003F3C0F80C3508E0C5F80845002FDBD12C
:1058C000631CD4D0002632460627DBF80030019353
:1058D00003F40040002818BF002203A8009218BF5C
:1058E00001260394FFF77AFF039C019B009A00EBCB
:1058F0008400C3F3412CD0F800473B0243EA8C03F9
:10590000134304EA0A04234343EA4603C0F800377A
:10591000ADE7C5F80C45D1E7C5F86045621CDBF87A
:105920000030A4D0C3F30043002BB9D003A80394E4
:10593000FFF754FF039B012606FA03F3C0F808356E
:105940003246C2E7C5F86445E8E7C5F86845E5E7CB
:10595000C5F86C45E2E76FF015005FE76FF0850072
:105960005CE700BF8CC50000F0F8FCFF2DE9F041BA
:10597000044647680D4605F051FB4FF0200888B9F2
:10598000264B1B7873B16426606804F0A9FFF0B958
:10599000012005F051F8013EF6D10021212005F04B
:1059A000DDFBF0E7EFF31186314688F31288BFF391
:1059B0006F8F606804F094FFA8B986F31188BFF375
:1059C0006F8FEFE786F31188BFF36F8FE5E7EFF393
:1059D0001186314688F31288BFF36F8F606804F038
:1059E0007FFF0028EED0BB691D706368BA691B6831
:1059F0000020C3F844250122C3F84825C3F820013C
:105A0000D3F82041C3F85801D3F858019A6081F3C4
:105A10001188BFF36F8FBDE8F08100BF64180020CC
:105A2000F7B50546002201210220FDF71FFC0220E8
:105A3000FDF7ECFB6A6811681369C1F82435137D22
:105A4000507D927D03431343C1F86C356E68D6E9EF
:105A5000004313F0010348D02F6907F10C0004F054
:105A6000F7FF304B98425AD1387B04F10C0204F511
:105A7000907104F0E3FF387B012707FA00F000F093
:105A8000EBFB0823C4F80035B369C4F844350023A0
:105A9000C4F84835A760D4F85831002BFBD000215A
:105AA000C4F800156B68DC6801AA204604F061FEAA
:105AB000002805DB019B226819791868FFF79EFE14
:105AC0006A6813680821C3F80015117A51B9D269C0
:105AD000C3F834250122C3F83825C3F81011D3F8D0
:105AE00010111A60002003B0F0BD0822C4F8002590
:105AF000B269C4F84425C4F848350123A360D4F83A
:105B00002031002BFBD00023C4F82031D4F8203101
:105B10000123E3604FF48073C4F80433BBE76FF0F4
:105B20000400E0E70000AD0B70B5012383400E4A8E
:105B3000BFF35B8FDC4352E8001F01EA040542E833
:105B40000056002EF7D1BFF35B8F4FF480328240B6
:105B50000648C0F80823BFF35F8FBFF36F8F0B4277
:105B600014BF0120002070BD9817002000100140D4
:105B700070B40E49D1E90034D01AC31844F10004BE
:105B800022F07F46C1E90034A6F50013B3F5400FBB
:105B900009D2074B1B681A0A1B069C19054B42F1D8
:105BA0000005C3E9004570BC02F058BB2806002080
:105BB0009C1700203006002011B3BFF35B8F012338
:105BC000104A834052E800CF4CEA030C42E800C17F
:105BD0000029F7D1BFF35B8F0B4A4FF4803383402A
:105BE000C2F80433094BBFF35B8F1B68BFF35B8FB5
:105BF000C340DB0742BF064B4FF40032C3F800211D
:105C0000704700BF98170020001001409417002033
:105C100000E100E00D4B1868010A0006BFF35F8F3A
:105C20000B4BD3F80435181841F10001B3F5801F70
:105C30000AD2084BD3E90023904271EB030303D24D
:105C400010F1807041F10001704700BF9C170020E7
:105C500000100140300600202DE9F04F85B01646B7
:105C60001F469DF840A00446FFF75EFF0190FFF736
:105C7000D1FFB04271EB070354D23E4B301A67EBB1
:105C80000101984271F100014FD23B4B03EB041329
:105C9000D3E902239F4208BF96425ED037494FF4B2
:105CA000803804F1500508FA04F8AD00C1F84883C3
:105CB0002046ADB204F0B3FE26F07F4B05F18045DF
:105CC00004F5A87305F58835DC464FF00309029307
:105CD000029A2CF07F4341F82230C1F84483D1F876
:105CE0000435274A6FF00200C01A604420F07F405C
:105CF000904232D9286868B1D1F804350393A3EBF8
:105D00000B0020F07F40B0F5000F26D9204604F0AC
:105D100086FE039BBAF1000F07D109EB030C09F1D2
:105D20000109D5E7BAF1000F09D06FF0150520463B
:105D30000199FFF741FF284605B0BDE8F08F012328
:105D4000104ABFF35B8FA34052E8000F184342E8AC
:105D500000010029F8D1BFF35B8F07490E9823019A
:105D600001EB0412C8500F9B5360C2E90267002583
:105D7000DDE700BF01008000180600200010014090
:105D8000FDFF7F00941700207FB51C4C1C4BC4F80E
:105D90000833C4F848331B4B00254FF0FF304FF059
:105DA000FF31C4F80855C3E902014FF48033C4F849
:105DB0000433154B02264FF400320121C4F804636A
:105DC0001120C3F880212A46FDF750FA1120FDF773
:105DD0001DFA0E4A0123A360236013600C4B0D4A89
:105DE0000093CDE9015500232846FFF735FF3046E3
:105DF000FFF70CFA284604B070BD00BF0010014048
:105E000003000F001806002000E100E098170020B2
:105E1000715B0000FFFF7F002DE9F7432F4CD4F8A2
:105E2000043399070BD5D4F8043143B12C4A00232D
:105E3000C4F80431D4F80431136801331360D4F882
:105E40000433DA0329D5BFF35B8F264B53E8002FC9
:105E500022F0010143E800100028F7D1BFF35B8F67
:105E6000D30702D4D4F84031BBB10025C4F8405167
:105E7000D4F84031FFF7CEFEEFF31182202383F3F5
:105E80001288BFF36F8F184BD3E90267B042B94154
:105E900006D282F31188BFF36F8F03B0BDE8F083A1
:105EA0004FF0FF384FF0FF39C3E90289D3E9001002
:105EB0001D604FF48033C4F84833C4F84051D4F81F
:105EC000403182F31188BFF36F8F0029E5D0009035
:105ED00032463B4628468847DFE700BF00100140B6
:105EE0009C170020941700201806002030B5431C92
:105EF000124C85B005D08442A8BF0446012CB8BF1F
:105F00000124FFF787FE0E4B0C4DD3E90013401A16
:105F1000B0F5000F10D22218AA4228BF2A46521804
:105F20004FF0000007490091CDE9010043F1000363
:105F3000FFF792FE05B030BD2A46F0E7FFFF7F0075
:105F400028060020715B000008B5FFF763FE024BD6
:105F50001B68C01A08BD00BF2806002010B5084CF9
:105F6000012363601120FDF75FF9064BC4F8083385
:105F7000C4F84833044B4FF40032C3F8802110BDFD
:105F80000010014003000F0000E100E0BFF34F8F5D
:105F90000549064BCA6802F4E0621343CB60BFF3C5
:105FA0004F8F00BFFDE700BF00ED00E00400FA05E1
:105FB0004FF08053D3F83021082A06D1D3F834317A
:105FC000052B02D8024AD05C70470020704700BF02
:105FD000A8C50000024AD2F80034002BFBD070475D
:105FE00000E0014010B54FF08053D3F83021082A6B
:105FF0004ED14FF080420021C2F80C11C2F81011AE
:10600000C2F8381502F54042D3F80414C2F820153E
:10601000D3F80814C2F82415D3F80C14C2F82815C4
:10602000D3F81014C2F82C15D3F81414C2F8301594
:10603000D3F81814C2F83415D3F81C14C2F840155C
:10604000D3F82014C2F84415D3F82414C2F8481524
:10605000D3F82814C2F84C15D3F82C14C2F85015F4
:10606000D3F83014C2F85415D3F83414C2F86015BC
:10607000D3F83814C2F86415D3F83C14C2F8681584
:10608000D3F84014C2F86C15D3F84434C2F8703514
:10609000FFF78EFF18B1474B474AC3F88C26FFF72E
:1060A00087FF18B1454BFB22C3F81825FFF780FF87
:1060B00070B14FF080414FF08053D1F8E42ED3F807
:1060C000583222F00F0203F00F031343C1F8E43EED
:1060D000FFF76EFF20B13A4B4FF40072C3F8402631
:1060E0004FF08053D3F83031082B09D14FF0804363
:1060F000D3F80024D20744BF6FF00102C3F8002494
:10610000304AD2F8883043F47003C2F88830BFF3C5
:106110004F8FBFF36F8F4FF08053D3F83021082A91
:106120000ED1D3F83431052B02D8274AD35C3BB1CA
:106130004FF01023D3F808224FF08043C3F85825BE
:106140004FF01021D1F80C32DB0714D51F48012382
:10615000C0F80435FFF73EFFD1F80C3223F00103FD
:10616000C1F80C32FFF736FF0023C0F80435FFF703
:1061700031FFFFF70BFFD1F80032002B03DBD1F822
:106180000432002B14DA114901234FF01020C1F81A
:1061900004351224FFF71EFFC0F80042FFF71AFF74
:1061A000C0F80442FFF716FF0023C1F80435DEE70C
:1061B00010BD00BF005000404881030000F00040C7
:1061C0000090024000ED00E0A2C5000000E00140A8
:1061D00030B50468CCB1BFF35B8FB4FA84F3C3F17C
:1061E0001F03DBB201229A4024EA020250E8005F5A
:1061F000A54204D140E8002CBCF1000FF6D1BFF35A
:106200005B8FE6D102480B7030BD0248FCE700BF4F
:106210000000AD0B0200AD0B10B50368CB40DB07EF
:1062200014D401238B400268BFF35B8F43EA020161
:1062300050E8004F944204D140E8001CBCF1000F2C
:10624000F6D1BFF35B8FEED1014810BD0148FCE7EA
:106250000000AD0B0400AD0B014BC3F80405704703
:1062600000F00140F7B50546F8B101281BD1042222
:106270004FF4807301464FF0804003440244C0F85D
:1062800008130026012111601E608D421B688DF8E5
:10629000071008BF0DF1070642F210744FF0804757
:1062A00045B1012D28D003B0F0BD0C224FF482730C
:1062B0000221E0E7D7F8183403F480333EB9002B0D
:1062C000F1D0012004F0B8FB013CF3D1EBE7D7F8A3
:1062D000182402F003023260002BE4D09DF807007E
:1062E000012803D104F0A8FB013CD9D1012DDAD15A
:1062F0000C4B00225A71D6E7D7F80C3403F48033E4
:106300003EB9002BF4D0012004F096FB013CF3D100
:10631000EEE7D7F80C2402F001023270002BDDD139
:10632000E6E700BFA0170020044B1A7922B901222A
:1063300018609A800248704702487047A0170020F2
:106340000000AD0B0C00AD0B08B5094B1B682BB161
:106350000020FCF77DFF08B9FCF758FF4FF08043A1
:106360000022C3F81825034B01221A7008BD00BF94
:10637000A01700206218002010B510B1012843D0EA
:1063800010BD4FF08043D3F81814D3F81824C80375
:1063900021D502F00303012B04D013B10020FFF735
:1063A00061FF00234FF080420220C2F81835082216
:1063B0004FF4827303F180430021196002F180429F
:1063C0001C6801241460154A12680AB34FF0804318
:1063D000C3F80403D4E7D3F81424D107E1D5D3F8E4
:1063E0001C249207DAD40D4A12681AB10222C3F8AB
:1063F0000423C5E7D3F80421002AFBD00022C3F808
:106400000421D3F80431BBE700224FF48073D1E7B5
:106410001A68002AFCD019601B68B1E7A017002099
:1064200010B54FF08043D3F800216AB10022C3F8C1
:106430000021D3F800210122C3F80823114B587919
:1064400010B95A711B6898474FF08043D3F8042164
:1064500072B10022C3F80421D3F80421D3F8182420
:10646000D3F81824920704D10122C3F818259A60A2
:1064700010BD0222C3F80823024BBDE810401B6880
:1064800001201847A0170020036803F01F025B09D2
:10649000026004D0012B034818BF002070474FF062
:1064A000A040704700030050034A430900F01F005A
:1064B000D35C1844C0B27047AEC5000070B5054645
:1064C000FFF7F2FF0C4C08300E4634F81030DA05B6
:1064D00008D5C3F3432304EBC302284654F83330F2
:1064E00052689847A3682BB1E26831462846BDE858
:1064F0007040184770BD00BF3002002008B5FFF79C
:10650000D3FF034B083033F81000400B08BD00BF29
:106510003002002008B5FFF7C7FF034B083033F8FF
:106520001000C0F3400008BD3002002008B5FFF79E
:10653000BBFF034B083033F81000C0F3401008BD18
:1065400030020020034611F0010010B5CCB20DD18D
:10655000A207C4F3400012D5094AD2F820055860BA
:10656000C2F82005003818BF012008E04FF0A04114
:10657000D1F820251A60C1F82025002AE8D010BDE6
:106580000003005010B5FFF78FFF124A083032F8B1
:106590001030D9051CD5C3F3432123F4F85322F856
:1065A000103002F10E04002034F8023F13F4807F13
:1065B00003D0C3F3432399420AD001303028F3D1EA
:1065C000002342F831300448BDE81040FFF724BEF4
:1065D00010BD00BF30020020A8020020F0B5054623
:1065E00000200446012607468C420BD1114BD3F8FC
:1065F0007C2132B10022C3F87C21D3F87C3140F0F9
:106600000040F0BDE3B29B0003F580729B0806FAE0
:1066100003F31D420BD002F1804202F5C042D2F8D2
:1066200000C0BCF1000F02D017601268184301349B
:10663000DAE700BF00600040F7B506460846FFF7FE
:1066400033FF194F00F108050C4637F81530DB070A
:1066500027D5304604F058FA2046FFF767FF40B1CF
:106660002046FFF74BFF316800F5A270002341F888
:1066700020302046FFF786FF002301A827F81530B9
:106680000194FFF701FF019B00EB8300074BD0F85B
:106690000027134043F00203C0F80037044803B05A
:1066A000F0BD0448FBE700BF30020020F0F8FCFF1B
:1066B0000000AD0B0400AD0B2DE9FF4116468046EE
:1066C0000846FFF7F1FE0D463168044609B3284637
:1066D000FFF720FF18B12846FFF728FF10BB002363
:1066E000CDE900338DF80E308DF80F300DF10F022B
:1066F0000B4628460DF10E0104F0AEF9474A04F1AD
:10670000080132F8113023F0020343F0010322F8AC
:106710001130736863B328461F785968FFF7FAFE93
:1067200010B1D1B13E4826E03C4A04F1080032F8ED
:10673000103023F02003DB04DB0C22F8103061B1B1
:10674000032FEFD87168496891F800C0D8F800109D
:10675000A7B90CF5A27C41F82C70304A04F108016D
:1067600032F8113023F01C0343EA870322F811307A
:10677000B3684BBB2B4804B0BDE8F08101EB8C0142
:1067800043EA4C33D1F810E52EF0030EC1F810E5C2
:10679000D8F8001001EB8C0E43F02003DEF8101542
:1067A00022F8103021F44F3121F44071CEF8101549
:1067B0002902DEF8108501F47C5141EA074141EAE3
:1067C0000801CEF81015C8E7D3E900672846FFF79F
:1067D000D9FE002ECED0114DD5E90023964203D12B
:1067E0009F4201D1002209E00F480DF10F01FFF790
:1067F000EFFC0C4B9842BED19DF80F2045F832605B
:1068000005EBC20308345F6035F8143043EA4223D5
:1068100043F4807325F81430ACE700BF3002002049
:106820000400AD0B0000AD0BA80200202DE9F043E1
:106830000C4685B08046204611461E46FFF734FEC2
:10684000054629B32046FFF765FE18B92046FFF735
:106850006DFE18BB314F05F1080937F8193013F0F8
:106860001C0F02D04B78012B18D001238DF80F306C
:106870000023CDE900134A1C8B1C20460DF10F01AB
:1068800004F0EAF837F8193043F0030327F8193019
:10689000002E41D02046FFF73DFE18B9204805B034
:1068A000BDE8F08396F800C0D8F800301B4F0CF517
:1068B000A272002143F8221005F1080237F81210E5
:1068C00021F02001C904C90C27F8121075781DB3F6
:1068D000D8F80000B67800EB8C002D04D0F8103505
:1068E00023F4991323F4F853C0F81035230203F46A
:1068F0007C5305F440353605D0F810E52B4306F4FB
:10690000801641EA4C31334341F0200143EA0E0343
:1069100027F81210C0F810350248C0E730020020F6
:106920000400AD0B0000AD0B014BC3E90212704730
:106930003002002010B508461446FFF7F7FD50B1AD
:106940000846FFF7B1FD054B083033F81030044816
:106950005B0B237010BD0348FCE700BF3002002032
:106960000000AD0B0400AD0B70B5164D95F88040DE
:1069700006462CBB2146602205F1100004F029FDDB
:1069800030682E6F21468E420ED10023C0F87C3134
:10699000D0F87C3140F30730FCF738FC01230A487B
:1069A00085F88030AB6770BDCBB29B0003F5807279
:1069B0007C2B08BF845001F1010108BF8358E2E736
:1069C0000248F0E7300200200000AD0B0C00AD0BD8
:1069D000034B93F88000003818BF0120704700BFB8
:1069E000300200200148FFF717BC00BFA4020020BE
:1069F0000148FFF7EDBB00BFA402002073B5036898
:106A00001646D3F80423002AA8BF4FF000420546DB
:106A1000A8BFC3F8042308460C46FFF787FD00B360
:106A20000846FFF777FD0146D8B92046FFF766FD17
:106A300004B2A40004F580720346286881502968D6
:106A400082582144D1F8102542F00102C1F81025E6
:106A50002EB12968012202FA03F3C1F8043302B00F
:106A600070BD2046FFF720FD0F4B083033F8103083
:106A7000C3F38203042B12D0052B12D001A801947A
:106A8000FFF702FD019AD0F81035D34003F001035F
:106A9000991C204602B0BDE8704004F026B80321DE
:106AA000F7E70221F5E700BF300200202DE9F04FA3
:106AB000694BDFF8B081D3F80403D8F87010C0B286
:106AC00089B040F00040FFF789FD051E2FDAC2466D
:106AD00000235AF87C1F06A8CDE90633FFF732FDE4
