:1010000080BD00200D8E000015BA0200F98D000091
:10101000F98D0000F98D0000F98D0000000000003E
:10102000000000000000000000000000298F000008
:10103000F98D0000000000008D8E0000F98D000089
:10104000BD9100009DE80100BD910000BD91000030
:10105000BD910000BD910000BD910000BD91000058
:10106000BD910000BD910000BD910000BD91000048
:10107000BD910000BD910000BD910000BD91000038
:10108000BD910000BD910000BD910000BD91000028
:10109000BD910000BD910000BD910000BD91000018
:1010A000BD910000BD910000BD910000BD91000008
:1010B000BD910000BD910000BD910000BD910000F8
:1010C000BD910000BD910000BD910000BD910000E8
:1010D000BD910000BD910000BD910000BD910000D8
:1010E000BD910000BD910000BD910000BD910000C8
:1010F000BD910000BD910000BD910000BD910000B8
:1011000053B94AB9002908BF00281CBF4FF0FF316E
:101110004FF0FF3000F00CB8ADF1080C6DE904CED3
:1011200000F022F8DDF804E0DDE9022304B07047A6
:10113000704700BF10F8012B11F8013B012A28BFAE
:101140009A42F7D0D01A7047034611F8012B03F8E2
:10115000012B002AF9D17047034613F8012B002A0E
:10116000FBD1181A013870472DE9F04786468C46A6
:101170000846089E154674461946002B40F0C2806A
:101180008542B2FA82F245D94AB1C2F1200300FA8F
:1011900002FC2EFA03F3954043EA0C0C94404FEA0C
:1011A000154EA8B2BCFBFEF8230C0EFB18CC08FBB6
:1011B00000F943EA0C43994528D9EB1808F1FF37A9
:1011C00004D2994502D9A8F102072B44A3EB0903E5
:1011D000A4B2B3FBFEFC0EFB1C330CFB00F044EA94
:1011E0000344A04214D92C190CF1FF3304D2A042BD
:1011F00002D9ACF102032C44241A43EA07401EB181
:10120000D440002334607360BDE8F0874746DDE7D3
:101210006346F1E792BB431B01214FEA154EAFB283
:10122000B3FBFEFC200C0EFB1C330CFB07F840EA62
:101230000343984562D9EB180CF1FF3004D298456E
:1012400002D9ACF102002B44A3EB0803A4B2B3FB18
:10125000FEFC0EFB1C330CFB07F744EA0344A742D9
:101260004ED92C190CF1FF3304D2A74202D9ACF1AC
:1012700002032C44E41B43EA0040C0E7C2F1200310
:1012800020FA03F1954090402EFA03F303434FEA0E
:10129000154EAFB2B1FBFEFC0EFB1C10190C0CFB83
:1012A00007F841EA0041884504FA02F422D9691896
:1012B0000CF1FF3004D2884502D9ACF10200294478
:1012C000A1EB08019BB2B1FBFEFC0EFB1C110CFB59
:1012D00007F743EA01439F420ED9EB180CF1FF31A7
:1012E00004D29F4202D9ACF102012B44DB1B41EA3C
:1012F000004192E76046E3E76146F7E76046A3E70F
:101300006346B7E7834206D916B9002108467BE752
:10131000C6E900E0F9E7B3FA83F78FB9834201D356
:10132000724508D8BEEB020460EB030301209C4623
:101330001EB9002168E73846FAE7C6E9004CF8E72D
:10134000C7F1200CBB4022FA0CF41C432EFA0CF11E
:1013500020FA0CF3B84001434FEA14490EFA07F59E
:10136000B3FBF9F81FFA84FE09FB18300B0C08FBDD
:101370000EFA43EA00439A4502FA07F240D9E3180D
:1013800008F1FF3004D29A4502D9A8F102002344A3
:10139000A3EB0A0389B2B3FBF9F809FB183308FB86
:1013A0000EFE41EA03418E452CD9611808F1FF3346
:1013B00004D28E4502D9A8F10203214443EA004039
:1013C000A0FB0298A1EB0E014145CE46434602D355
:1013D00006D14D4504D2B9EB020E68EB0403013887
:1013E000002EA6D0B5EB0E0261EB030101FA0CFC56
:1013F00022FA07F34CEA0303F940C6E9003198E703
:101400004046C5E74346D9E7F7B5002101AA40F6B3
:10141000034008F0E5FF044600286CD1019CE36816
:101420001B789BB90AF050FABFF35B8FBA4B1A686E
:10143000BFF35B8F02F00902BFF35B8F53E8001F1D
:1014400043E800200028F9D1BFF35B8F204608F065
:101450005FF901AA002141F2030008F0C1FF044630
:10146000002848D1019AAD4DD168D1F80100D1F8DA
:10147000051005F1780303C3104608F049F9214629
:1014800001AA41F2010008F0ABFF044698BB0198A5
:10149000C3685A7885F870205A88A5F872201A799E
:1014A00085F87120B3F80720A5F87420B3F805304B
:1014B000A5F8763008F02CF9214601AA41F2020085
:1014C00008F08EFF0446B0B9019FFA6805F1800666
:1014D000531C413218685968344603C40833934298
:1014E0002646F7D1384608F013F995F87C305B06AC
:1014F00004D46FF01204204603B0F0BD01AA00210D
:1015000042F2030008F06CFF04460028F3D1019B6F
:10151000834EDA68D2F80100D2F8051003C61846E7
:1015200008F0F6F8214601AA42F2020008F058FF3E
:1015300004460028DFD1019CE368B3F8012091B292
:1015400049B1D97839B1A5F80421DA78114606F104
:10155000280030F0B2FE204608F0DAF895F87C60FA
:101560001F2316F02006A5F8203118D1022140F6DD
:101570006D4008F08FFD0446002800F0C480022171
:101580000C302AF002FB01230370467021463246DC
:1015900040F66D4008F024FF04460028ABD195F8D2
:1015A0009C301F0712D501AA002142F21C0008F04E
:1015B00017FF044600289ED10198C368D3F8012084
:1015C000D3F80530C5E9382308F0A2F895F8D830EB
:1015D0009E0624D50DF1020168462AF06FFF0446ED
:1015E000002888D1042142F2240008F053FD064669
:1015F000002800F0888004210C302AF0C6FABDF8DB
:1016000000300380BDF8023043802246314642F26A
:10161000240008F0E5FE044600287FF46CAF95F83E
:10162000D8305C0610D501AA002142F22A0008F049
:10163000D7FE044600287FF45EAF0198C3685B784C
:1016400085F8223108F064F8082142F2010008F020
:1016500021FD0446002856D008210C302AF095FAC6
:1016600095F8D81011F0400F024640F2022308BF4F
:10167000032388074CBF43F02C0043F00C0095F87F
:10168000D9308F0648BF40F0400013F0090F18BF53
:1016900040F40060CE0748BF40F0100000212AF05F
:1016A000E3FC2146002242F2010008F099FE0446C4
:1016B00000287FF420AF95F87C30B5F80411980627
:1016C00024D4C9B901AA41F2050008F089FE0446F4
:1016D00000287FF410AFB5F80431019C4BB9E368E2
:1016E000B3F80120A5F804219A880E48114630F07D
:1016F000E4FD204608F00CF8082140F6014008F00F
:10170000C9FC044680B96FF06804F4E60029F3D1FF
:101710006FF00404EFE600BFA4010020D000002019
:10172000A8010020D801002008210C302AF02DFA51
:1017300095F8D830D907024653BF4FF000512CA17D
:10174000D1E9000128482AF08FFC2146002240F60A
:10175000014008F045FE044600287FF4CCAE014667
:1017600001AA4FF6014008F03BFE044620BB019859
:1017700007F0CEFF214601AA4FF6024008F030FEE6
:101780000446C8B90198C368B3F80130A5F8C13060
:1017900007F0BEFF95F8C1305B070DD501AA2146C1
:1017A0004FF6034008F01CFE30B90198C3685B781F
:1017B00085F8C03007F0ACFF2BF09EF804460028F7
:1017C0007FF499AE0BF0BEFB044600287FF493AE85
:1017D000EB79002B3FF48FAE082104482AF0B2FBCE
:1017E00008F048FD87E600BF10880002A401002031
:1017F00090880002008000202DE9F843D0E90738E6
:10180000856903EB08042F34A5420F46164619D804
:10181000DFF87080A3FB080117A3D3E90023FFF7CB
:101820006FFC0346601BA0FB080123F07F4412A35A
:10183000D3E90023FFF764FC20F07F403C60306078
:10184000BDE8F883DFF83C900BA3D3E90023A5FBA8
:101850000901FFF755FC20F07F4409480A2106A33F
:10186000D3E90023E8FB0901FFF74AFC20F07F40A1
:101870003C603060BDE8F8838D49FD1A0700000028
:1018800000166BF100CA9A3B9FED0D7B124B134A79
:101890001348144910B483ED007B9FED0B7B82ED60
:1018A000007B9FED0B7B104B4FF0FF34002281ED4E
:1018B000007B04601A605DF8044B12F07DBE00BF2F
:1018C000FFFFFFFFFF1F00000000000000000000FE
:1018D0001F0000000000000060020020C83000204F
:1018E000FC5D002058020020F45D00200000000094
:1018F000002800F05F812DE9F04FB54C94F86A2084
:1019000012F001058DB040F0A78194F82500FF2367
:1019100000F0030084F826301CF034FB94F86A00D1
:10192000420727D494F8292094F8353004EB82023A
:1019300004EB8303D66AD3F8388086B1A4483146D5
:1019400014F0E6FD33785B0605D506210FF09AFC0E
:10195000002800F083819E48414614F0D9FD337879
:1019600013F00E0F40F0B780236A93B10C200DB036
:10197000BDE8F08F2A4604F16B01C0F3C0001CF0F3
:10198000A5FCFF2884F82600CCD028461CF040FB9C
:10199000C8E712F00BF98146002800F0718112F0BF
:1019A00011F98246002800F0688115F0FBF9054620
:1019B000002800F06781D0F894004FF6FF732B8663
:1019C00005F11C0B002800F04F8105F1840105F1A1
:1019D00088020FF063FCB5F882307E4A23F4EF638F
:1019E00023F0070343F48C7343F00103A5F882301E
:1019F0001346D2F80120C5F8AB21C5F8B12113F880
:101A0000012B9B88A5F8AF31A5F8B53195F8AA311F
:101A100002F0010262F3000362F3410385F8AA3188
:101A200095F8433003F03F0363F07F0385F84330BC
:101A300095F89A3023F0070385F89A3095F84830E6
:101A400023F00F03002785F848304FF4C023C5F872
:101A500098312846C5E91577C5F89470A5F89870AF
:101A600085F84570EF86C5F83A70EF65A5F89E7168
:101A7000A5F8947117F0A4FF85F86071C5F864911A
:101A800015F07EFC95F8A43160F3020385F8A431CB
:101A900015F07CFC95F8A43160F3C50385F8A431FA
:101AA00095F8903167F3410385F89031012128467C
:101AB00016F0C6F805F1E00017F02AFDC4E9189AFF
:101AC000C4F820B0C5E905772F70ED611DF028FD41
:101AD000002840F0C58094F824300121C3F342036C
:101AE0000DF12B008DF82B300FF076FD024600280B
:101AF00062D098F80110304614F0C4FA3123364908
:101B0000A360364BB4F86870A0FB01010025C01833
:101B100041F107012CA3D3E90023C4E90555257041
:101B20006560E560FFF7ECFA206111F02BF900F138
:101B300009083FB9357805F00F05A5F10105B5FA9B
:101B400085F56D0994F82400236965F3000010F011
:101B5000010584F824004BD0214A0992002010602E
:101B60000225204A204F04930BAE019305920321D6
:101B7000CDE90200069443460090089607972A464E
:101B80000B9510F09DFF314612F0AAF8A0B9174945
:101B900005914AF2D8330093CDE90300CDE9010065
:101BA0000797089606944346012203210B9510F0EF
:101BB00053FF43E014F0B2B9236A002B3FF4D6AED2
:101BC00014F068F9D2E600BF8D49FD1A0700000045
:101BD000B45E0020A372030000CA9A3B8C49FD1A30
:101BE000A85E002001610100212F0100DD5B0100E2
:101BF0002B4A2C48049303F2471306940295912133
:101C00001360A7FB000301FB0731274B0793274B0A
:101C100005934FF6FF730992022703930BAE1EA3A1
:101C2000D3E900230B970896FFF76AFA4346CDE9FC
:101C300000503A462846032110F042FF314612F088
:101C40004FF80028B8D194F86A3043F0010384F8C3
:101C50006A3014F087FE60B1002088E6122086E624
:101C600014F018F9032082E605F18C00C5F8940001
:101C7000ABE601201CF068F9EEE7484611F09CFF46
:101C8000072074E6504611F0A3FF484611F094FF78
:101C9000F6E700BFAFF300808D49FD1A0700000092
:101CA000A85E0020002AE784212F010001610100C5
:101CB00070B590F824308AB0C3F342030D46044651
:101CC00001210DF1230016468DF823300FF084FC1E
:101CD00071780246284614F0D5F91F491F4AA0FB27
:101CE0000131981841F1070119A3D3E90023FFF747
:101CF00007FA23699842054621D21B1A0022019255
:101D0000174A0293174BA21AA3FB0232022192092F
:101D100000230A4409AE099113490591CDE9033323
:101D20000321D2B206960093184610F029FF3146DF
:101D300011F0D6FF38B9256100200AB070BDFBD97B
:101D4000C21A0023DBE70C200AB070BDAFF300809D
:101D50008D49FD1A0700000000CA9A3B8C49FD1A04
:101D6000B45E002089888888212F010000000000CF
:101D700038B5194C9DF810E094F848C01CF00105E6
:101D800023D163F3420C400194F83230A1874FEA2B
:101D9000CE0E0EF0180E00F0200040EA0E0023F0E8
:101DA000380303430D4884F832309121A2FB00032D
:101DB00084F848C001FB023105A3D3E90023FFF7F3
:101DC0009FF9C4E91000284638BD0C25284638BDC7
:101DD0008D49FD1A07000000D0300020002AE7845A
:101DE00010B504469DF8080022844FEA411CC0004B
:101DF000A17D00F018000CF0200C4CEA000C0C48FF
:101E000021F038014CEA010CA3FB0002912184F877
:101E100016C001FB032104A3D3E90023FFF770F9E7
:101E2000606210BDAFF300808D49FD1A070000000D
:101E3000002AE784000000002DE9F047044600F185
:101E4000350190F8480094F832305B4DDFF880811E
:101E5000C0F3400060F386138CB084F8323010F089
:101E6000E3FF94F83220A38F5448E46102F0790232
:101E7000002784F832209121A3FB0002C4E90577F2
:101E8000277001FB03214AA3D3E90023FFF738F9A8
:101E9000651B626C4A4B6760AD08A3FB053502F118
:101EA0000903984298BF3A46C5F3470522644FF0AC
:101EB00031028CBF19460146A26005EB4502E7607E
:101EC000216148F82210064610F05CFF236A00F1F9
:101ED00009074FEA450A002B4AD00DF12C09AA4404
:101EE00008EB8A030993CDF820900694A38F33481A
:101EF0004FF00008A3FB0002CDF80C80912101FBFC
:101F00000321236904932F4B07932F4B05934FF025
:101F1000020A27A3D3E90023CDF82CA0FFF7F0F89D
:101F2000104619464FF47A720023FFF7E9F804359A
:101F3000EDB2CDE9016003213B462A46CDF8008091
:101F4000404610F0BDFD494611F0CAFE60B994F854
:101F5000483043F0010384F8483014F0AFFA08B376
:101F600000200CB0BDE8F0870C200CB0BDE8F08775
:101F70000DF12C09CDE90A3321694B460AAA032049
:101F800001F02AFA0028AAD10B99104808A3D3E936
:101F90000023A1FB0001FFF7B3F80A9B20F07F4765
:101FA0001F449CE750461BF0CFFFD9E7AFF30080FA
:101FB0008D49FD1A07000000D0300020002AE78478
:101FC000BD86F21A212F01003967010000CA9A3B31
:101FD000445F0020000000002DE9F04F05468BB063
:101FE0008B4601200221994614461FF021FE002253
:101FF0000221824601200FF0A1F93F494FF4DC7223
:1020000028460FF02BF9461D3C4B0093F6B2019584
:102010004B4632460121002010F00CFE10F0FD0F5F
:102020000ED0374A3749384840F68F0329F050F927
:10203000002383F31188BFF36F8F0323184602DF59
:10204000324BA4FB0348204629A3D3E90023414691
:10205000FFF756F82E4B20F07F47A7FB03310722EE
:10206000E01A02FB071168EB01014FF47A720023BA
:10207000FFF746F8CDE90170CDF800B00895069558
:10208000296995F9434023480491234931EA240101
:1020900028BF01460591214C07944FF6FE7103912C
:1020A0004B4632460121002010F0D6FC10F0FD0F07
:1020B0000ED0134A1349144840F6A40329F008F936
:1020C000002383F31188BFF36F8F0323184602DFC9
:1020D000BAF1000F02D10BB0BDE8F08F012202214E
:1020E00010460BB0BDE8F04F0FF028B9AFF30080F9
:1020F0008D49FD1A0700000020310020456D0100C8
:10210000B85303007C540300E44D030000CA9A3B1B
:102110008D49FD1A71D0010025D20100E56C010046
:102120002DE9F0418468228E4FF6FF739A428CB0FD
:1021300045D00546204617F05DFF2B7D012B00F0B2
:102140002281022B00F01581002B00F0F48094F81E
:102150006061002E40F010812B8A678F94F9432034
:10216000CDE90A6673B3002AC0F25A810023A4F8AD
:102170009A31AA7C238FFD1802F003030135012B4D
:10218000ADB23BD0B4F89E31002B00F005819D42EA
:1021900080F059815B1B9BB20022062BA4F89E3174
:1021A000628740F2F68094F943309342C0F2508146
:1021B000002326E09DF82710204615F005FA0CB004
:1021C000BDE8F081002AB8BF84F88561238FAA7C1E
:1021D000FD1802F003030135012BADB20ED0B4F8A7
:1021E0009A31002BCED0AB4240F23C815B1BA4F86D
:1021F0009A31B4F89E31002BC9D102E00023A4F833
:102200009E3194F8482063F3820284F848202946DE
:102210000DF12702204617F00FFC7430CAD0B4F835
:1022200098312BB1AB4240F2EC805B1BA4F89831A3
:10223000B4F894312BB1AB4240F2DA805B1BA4F8C6
:102240009431658F16B9AF4200F0C9800135ADB247
:1022500094F8DD3013F0010731D1DDE90A130A46A5
:10226000002B40F0CC80002900F0BB801F461846B0
:10227000228EE4690694CDE9035605329A4D029008
:10228000CDE90017D2B201210020059510F078FCAD
:1022900010F0FD0F93D011F04DFD84428FD0934A82
:1022A000934994484FF4AE6329F012F8002383F366
:1022B0001188BFF36F8F0323184602DF7FE794F97D
:1022C00043206FF30003002A84F8DD307FDB94F8AD
:1022D0008200C0F3C00100F007001CF039FFB4F821
:1022E0007A20B4F878301344628D03F23F1313441C
:1022F0000344814A81480721E3FB0021104678A36B
:10230000D3E90023FEF7FCFEDDE90A1320F07F424B
:1023100020692261904235BF171A801A00200027D9
:102320000A46002BA4D157EA010CA1D1002858D0AD
:1023300019461F469CE794F89A3003F01803182BAF
:102340007FF405AFA18EB4F896218B1D9A42C4BFCD
:10235000931F5B1AB4F89211CCBF9BB213469942FB
:1023600000F09C80A4F89231A4F89431A4F898214C
:10237000EDE63D2684F86061314620460CB0BDE8AC
:10238000F04115F021B90023A4F89831A4F8943154
:10239000DDE60126334634E7628E052A97BF013217
:1023A00040F2E2434FF4FA7392B203FB02F2B4F844
:1023B0009C3142F2107101FB0323013BB3FBF2F3AA
:1023C0009BB2A4F89E31002B7FF4E1AE19E794F89C
:1023D0008300012100F007001CF0BCFE7FE73546BA
:1023E00036E7002D43D00027114638463B463FE7ED
:1023F0000023A4F89431204617F0C0FB21E73846AB
:1024000036E711F027FC0146A0B30023A4F8983169
:10241000238EC3801B230371006811F0EBFB07E7D9
:1024200094F885316BB3013B84F8853104F1E00801
:10243000404617F0AFF8B8B3404617F0ABF8B8B362
:102440000023638792E60821204615F0BDF8B6E622
:10245000A7B9D4F888315A0813F0010336D1C4F86B
:102460008821A5E63E21204615F0AEF8A7E6002E0D
:10247000B9D1A4E60123A4F89831D9E61346012680
:10248000BFE60AAA0BA92846FFF7B6F9DDE90A2339
:102490001343CBD0237884F88531C7E7B4F898117B
:1024A00000297FF454AE5FE7FF2015F049F8C3E739
:1024B0000246D4E921010EF009FF0028C0D194F8AA
:1024C00048301B0744BFA38E63874FE642F00042AB
:1024D0001E46C4F888213B4693E600BFAFF3008058
:1024E0008D49FD1A07000000A16C0100B8530300DC
:1024F000C8540300E44D03008C49FD1A00CA9A3BFE
:102500002DE9F04F87B0CDE90432BDF844200378BF
:102510000292BDF84820BDF840A0BDF84C90878FCE
:10252000019104460392002B00F0FC80013FBFB2F2
:10253000A368D4F81CB1A7EB090292B2002B009259
:102540000ADAE168626823F0004391422CBF8B44B1
:102550009344A360ABEB030B94F88200C0F3C0017B
:1025600000F007001CF0F4FD658E052D40F2E180BF
:10257000009BBAF1050F15FB03F5ADB240F2E2483E
:1025800040F2E280B4F87A20B4F87830134403F2D1
:10259000D51303447C4A7D480721E3FB00214FF01B
:1025A0009613A36296231046A38575A3D3E900234F
:1025B000FEF7A6FD564620F07F4040F2E24308FBBE
:1025C00005F103FB06F6B1FBF6F81FFA88F520616A
:1025D00006FB05F08142A84680F09680401A6B49C0
:1025E00067A3D3E90023A0FB0101FEF789FD20F0DA
:1025F0007F408344E38EB4F824211344994494F833
:102600004330A9EB0709C844DB09A4F8368000F081
:10261000A780E26C0099636D02FB113363651CF0C7
:10262000D1FF074694F88401C0F342001CF0CCFFB0
:10263000074406FB07F7564B07F5742707F23F27B9
:10264000A3FB0737BF0C636DE76405FB07F0720857
:102650000344963A934228BF1346C4E91423059BCA
:102660004A4D40F2E24808FB03F3E3650023A0FB78
:102670000501C4F88C3142A3D3E90023FEF740FDE5
:10268000049BABEB000B4348A0FB0330800A08FB24
:1026900000F0A0FB05013AA3D3E90023FEF730FDCB
:1026A000F71B20F07F45029BA386039BA4F89C3177
:1026B00031462046A4F832A017F0FAF9364BA18E25
:1026C0003344881DB3FBF6F39AB29042A4F89621E6
:1026D00004D2C1F57F41FA310A4492B2019BA4F8B9
:1026E000922113B10023A4F89E315B463A46294655
:1026F0002046FFF771FC94F8903143F0010384F811
:10270000903107B0BDE8F08F091A20481CA3D3E927
:102710000023A1FB0001FEF7F3FC20F07F40ABEBB0
:10272000000B67E7C38E1F44B0F824311F44BFB2CB
:10273000FEE6009B013515FB03F5BAF1050FADB2BE
:102740004FF4FA783FF61EAF4FF096130AF10106E8
:10275000A3629623A385B6B20A204FF4FA732EE73C
:10276000049B0A48A3FB000105A3D3E90023FEF75D
:10277000C7FC20F07F453746013594E7AFF3008072
:102780008D49FD1A070000008C49FD1A00CA9A3BCA
:1027900083DE1B435917B7D17FC3C9010000000076
:1027A0002DE9F04F04460B68077F1668D3F800A0A8
:1027B000638CD0F81E0095B015464A7CADF84C30BD
:1027C000FF2AC7F3801388460D9212908DF83F3090
:1027D00076D199461A4612AB93E803000DF1400BEF
:1027E0001090ADF84410F8090AF1710127680A91B8
:1027F0005B460C900B9714F0CFFD0A99002847D147
:1028000096F8AA310C9A0A9069F3410362F3000327
:1028100086F8AA311098BBF80430C6F8B101A6F8C2
:10282000B531DAF87130C6F8AB318B88A6F8AF3124
:10283000E38D94F83010A9722B81D4F82A306B60A4
:10284000D4F83A30C5F8223005F1220094F83E3031
:10285000037105210EF0C0FE95F8273000F03F000F
:1028600060F3050385F8273094F83F30C3F3040183
:1028700085F82810A18EE982012803F01F0389B290
:1028800006D91B3303F01F030B2B01D80A9A59BB3F
:102890000022CAF8142095F82C300B9862F300033C
:1028A00085F82C30E56801262146267111F096F94D
:1028B00028682E71294611F09DF915B0BDE8F08FFA
:1028C0000DF1400B10460DF13F015A461BF0ACF8DC
:1028D0009DF83F90277F09F102095FFA89F98DF889
:1028E0003F9009F001027EE7D8F800305A60E38E8D
:1028F0002B83EB8A40F2E24909FB03F71146638E12
:102900000A93304617F0E8F894F83F3096F884219F
:102910005B0963F3430286F884211CF053FE0C909C
:1029200096F88401C0F342001CF04EFE0C9BC04A96
:10293000034407FB03F303F5742303F23F23A2FBD5
:1029400003239B0C2B637B08963B6B6394F831301D
:1029500009FB03F36B64238FA6F89C31394630469C
:1029600017F0A6F8B34BB44AC6F8A0213B44B3FB1A
:10297000F7F39AB2A6F89621298B881D824204DDCE
:10298000C1F57F41FA310A4492B2A6F892216B68F0
:10299000C6F88831234613F81C2FC2F34019DA0712
:1029A00000F103814FF48073A3839AF826001BF093
:1029B000A5FD04F12B03002800F0F380626AC4F83F
:1029C0002B20228D9A800D9BFF2B00F02681BDF8D5
:1029D0004C301298A4F82930C4F82500BBF8043014
:1029E000A4F8233010989DF83F30C4F81F00A37757
:1029F000EB8A63862B8BA386B6F89C31E38696F828
:102A00008431C3F3420384F83830304614F0D6F9E9
:102A1000A882E08021460B98D8F8044011F0DEF837
:102A2000AB8AE3801C23D4F800B02371B9F1000F06
:102A300040F0D28084F81C902146584611F0DAF814
:102A400095F86700B5F85C90B5F85E40012100F09C
:102A500007001CF07FFB4C4404F2D514DFF8E4912E
:102A60000444834675484FF096130721C5E90333A4
:102A7000E4FB090131230024B36074606AA3D3E945
:102A80000023F460FEF73CFB20F07F4030612D6BAB
:102A90000A9A7D1BD8F80C7040F2E24303FB0277E0
:102AA0000221224601200EF049FC504613F0ECFCB6
:102AB00007F2B3470246A7EB0B07A7FB090117462E
:102AC00059A3D3E90023FEF71BFBCDF804A0D8F8E7
:102AD00008305B49009120F07F49BA1C3A3BD2B2E2
:102AE0004B440121204610F0A5F8012800F0818018
:102AF0009AF82430DB0767D4304614F05FF9514B65
:102B0000A5FB035A044648A3D3E9002328465146AF
:102B1000FEF7F6FAD8F808304B4A0792A3F13A08C4
:102B20004A4B069620F07F47A7FB0331E81A484B33
:102B300005934FF4F573089333694FF0000BCDE91B
:102B400003B34FF0070303FB07116AEB01014FF4D6
:102B50007A720023FEF7D4FA0534E4B2CDE90170AD
:102B6000CDF8009043462246012158460FF074FFED
:102B700010F0FD0F0DD0374A3749384840F2EB13BB
:102B800028F0A6FB8BF31188BFF36F8F0323184641
:102B900002DF0122022110460EF0D0FB15B0BDE885
:102BA000F08FC4F82B0098800DE72A4A2C492B4857
:102BB000FD2328F08DFB002383F31188BFF36F8F73
:102BC0000323184602DFEDE6002301220093184696
:102BD00011460FF0EDFF8FE795F8273043F04003E3
:102BE00085F82730281D1AF017FD4FF001092885B8
:102BF00020E711F09FF882453FF47AAF154A194952
:102C0000164840F2922328F063FB84F31188BFF347
:102C10006F8F0323184602DF6AE70022C4F82520DD
:102C2000A4F82920DAE600BF8D49FD1A070000004C
:102C300083DE1B437FC3C901404B4C008C49FD1A06
:102C400031D0010000CA9A3BFDCF01008D49FD1A29
:102C500071D00100C05903007C540300E44D03000F
:102C6000005103001C5A03002DE9F04F8DB09B4624
:102C7000BDF860300693CDE90401BDF868309DF8D9
:102C80005C90BDF864A003930020164613F078FE14
:102C9000002800F06C8109F001070446384610F066
:102CA000B3F80290002F71D1169B02995A4638460C
:102CB00014F072FB002840F06B81236A089304F142
:102CC0001C020792002B68D0D4F82080D8F800505E
:102CD0000BF0010A98F86600C0F3C00100F007008D
:102CE0001CF036FAB8F85E30B8F85C201A44B8F830
:102CF0000E3000F23F1003441344CF48CF4A07215F
:102D0000E3FB00211046CAA3D3E90023FEF7F8F93C
:102D100020F07F40286130461BF056F994F833309C
:102D20006FF3410384F83330FF2384F83430002EEE
:102D300000F02181A9F10203012B40F22D8194F8CA
:102D40004810079869F3420184F8481094F833104A
:102D50006AF30001DDE9042384F833101699096849
:102D60006162169989882185039921860096002140
:102D7000FFF736F860641CF0D3FB002840F01781A1
:102D80002046FFF759F80DB0BDE8F08F06210EF090
:102D900079FA002888D11220F5E710F007FF099092
:102DA000002800F07A8113F0FDFF0546002800F0AE
:102DB000718120300EF024FC05F11C08002840F041
:102DC0002381032105F124001CF074F8069BD5F83B
:102DD00094006B864FF6FF73A5F834A02B8600286D
:102DE00000F0218105F1880205F184010EF056FA08
:102DF000B5F8823023F4EF6323F0070343F48C73B8
:102E000043F00103A5F8823095F89A304FF0000A9C
:102E100023F0070385F89A300121C5F894A0A5F89E
:102E200098A0284614F00CFFA5F836A0C5F83AA0E3
:102E300005F13E001AF09AFB95F8433060F3050364
:102E4000012185F843300DF12F001CF033F8039B6E
:102E50009DF82F20A5F89C31794B85F845A0A3FB60
:102E60000213DB0803EB4303A2EB830295F8433024
:102E7000A98EA5F89EA103F03F0385F8433095F88D
:102E80004830A5F894A1053223F0070385F84420C3
:102E9000069A85F8483040F2E24A6A4B0AFB02FA89
:102EA0004FF4C0225344C5F89821881DB3FBFAF3B0
:102EB0009AB28242A5F8962102DD063A521A92B2DF
:102EC000A5F89221284616F07BFD5146284616F0BB
:102ED000EFFD0021099B85F86011C5F8643114F0FD
:102EE0004FFA95F8A43160F3020385F8A43114F089
:102EF0004DFA95F8A43160F3C50385F8A43195F82F
:102F00009031002161F3410385F8903105F1E00033
:102F100016F0FEFA95F8AA31169A0BF0010A6AF338
:102F2000410385F8AA314FF09613C5E90A333123DE
:102F3000AB600021169B6960E9601B68C5F8B13180
:102F400095F8AA319288A5F8B52169F30003029A91
:102F500085F8AA311368C5F8AB319388A5F8AF316D
:102F6000C4F82080C5E905112970ED61B2E60C2096
:102F70000DB0BDE8F08F1BF081FC00283FF4DAAE05
:102F80001699584632461BF0A1F984F83400D1E670
:102F90000B200DB0BDE8F08F00201BF039F894F83D
:102FA000333043F00203B94684F83330C7E6256A6C
:102FB000AB6F73B1244A2549254840F2294328F0D4
:102FC00087F9002383F31188BFF36F8F032318461B
:102FD00002DF05F16C0105F168000EF063F90646A9
:102FE000002839D02F68AE67D7F86451002D42D041
:102FF000284610F0E1FD384613F0DAFE00230320E6
:1030000023620DB0BDE8F08F0F4A12491048C1236A
:1030100028F05EF9089B83F31188BFF36F8F0323B9
:10302000184602DFCDE605F18C00C5F89400D9E61C
:103030008D49FD1A0700000000CA9A3B8C49FD1A11
:10304000ABAAAAAA7FC3C9014C5A03009452030039
:10305000E44D0300984E0300114A1249124840F211
:103060002B4328F035F986F31188BFF36F8F0323C4
:10307000184602DFB6E70A4A0A490B4840F23243D3
:1030800028F026F985F31188BFF36F8F03231846C4
:1030900002DFADE7099810F08FFD072073E600BF4F
:1030A0004C5A030008540300E44D030000000000E4
:1030B0002DE9F04F04468DB090F81C80238D406AB6
:1030C000ADF82C30E307C8F3C0170E461546C8F319
:1030D00040180A9000F110810023A383B37C707C18
:1030E00013F001031CBFD4F81E30C4F82B3004F1D8
:1030F0002B0214BF638CC4F82B30FF28938004F19B
:10310000250904F11F0200F0EA8004F11E011AF003
:103110008BFCA37FBDF82C200A98C4F8250002334D
:10312000A377A9F804203368D3F80090EB8A63866C
:103130002B8BA386B9F83030E3861CF041FA84F873
:1031400038002F68384613F039FE0021A882E0804D
:10315000384616F0C1FCD6F804A02068214610F0CD
:103160003DFDAB8AAAF806301C23DAF800408AF845
:103170000430B8F1000F40F0CF808AF81C8051462F
:10318000204610F037FDBB687A6895F86600B5F800
:103190001680F5686A4C934238BF1346C0F3C001ED
:1031A00003F1090A00F0070040F2E24303FB08F8CC
:1031B0001BF0CEFF002202212D1A01200EF0BEF8D6
:1031C000484613F0B3FBA5FB04455BA3D3E90023FA
:1031D000834629462046FDF793FFCDF80490B36857
:1031E0005849009120F07F490BF10402A3EB0A0338
:1031F000D2B24B44012100200FF01CFD10F0FD0F56
:103200000ED0514A5149524840F2493328F060F8F3
:10321000002383F31188BFF36F8F0323184602DF67
:103220004FF0000B5B4603220121CDF800B0584659
:103230000FF0BEFC384613F0C1FDB36806464048A7
:10324000A3EB0A0AA8FB00013BA3D3E90023FDF787
:1032500057FF19463F4B08933F4B069340F2793393
:10326000079709933B698046CDE904B310460023D4
:103270004FF47A72FDF744FF384B0722A9FB033164
:10328000CDE9028002FB0911E01A65EB01014FF460
:103290007A720023FDF734FF0536F6B2CDE90090CF
:1032A00053463246012158460FF0F2FB10F0FD0F55
:1032B0000DD0254A2549264840F27A3328F008F8EF
:1032C0008BF31188BFF36F8F0323184602DF0122AF
:1032D000022110460DB0BDE8F04F0EF02FB80023CC
:1032E000BDF82C100A98C4F82530A9F80430A77747
:1032F000C4F81F00918016E7134A194914484FF487
:10330000317327F0E5FF002383F31188BFF36F8F3C
:103310000323184602DFDFE695F8273043F0400329
:1033200085F82730281D1AF077F94FF00108288515
:1033300023E700BFAFF300808D49FD1A07000000AE
:1033400000CA9A3BEDD101004C5A03007C540300A3
:10335000E44D0300F1D1010025D201008D49FD1A91
:1033600000510300000000000538C3B2052B0CD843
:1033700070B580B20D4613F029FD044618B190F9DE
:103380004330002B03DA002070BD0020704790F816
:1033900082000F4EC0F3C00100F007001BF0D8FE02
:1033A0000C4A00F2B5500721E0FB0621104606A3A7
:1033B000D3E90023FDF7A4FE20F07F4028602046DB
:1033C00070BD00BFAFF300808D49FD1A07000000FB
:1033D00000CA9A3B8C49FD1A2DE9F04F93B0FF27A4
:1033E0000B930B1D0A930023CDE90E3305461646B9
:1033F0008DF837709B463C4698469A46994610ABE6
:103400000693594B0593594B03930FAB01930EABA6
:1034100000200093022310930490029033460DF194
:10342000370229460FF04AFC022812D0109BB3B98C
:10343000FF2C25D03368434522D0002F42D0013FD6
:10344000FF24FFB28DF83740D9E7294600200FF05E
:1034500081FC109B022BF8D0109B002BE8D0444A33
:10346000444945484FF4EE7327F032FF002383F3BD
:103470001188BFF36F8F0323184602DFFF2CD9D1C9
:103480009DF83700FF282CD011A9FFF76DFF002809
:10349000B5D0FF2CDDF83880119B0AD04946404654
:1034A00009930FF071FC0A9B03EB0A029042099BFF
:1034B00019D8C1469DF83740D6F80080DDF83CB0F9
:1034C0009A469CE72D492A4A2B484FF4F27327F07D
:1034D000FFFE87F31188BFF36F8F0323184602DFC7
:1034E000ADE7FF2C34D026480721AAFB000301FBDF
:1034F0000A311BA3D3E90023FDF702FE044600B105
:103500003E34204AABF57423A3F51073934216D8CA
:103510001B480721A9FB000301FB093110A3D3E9D4
:103520000023FDF7EDFD184BA3FB0B2304EB9344A5
:103530000B9B044400201C6013B0BDE8F08F0BF11E
:10354000E87B0BF5D43B09F1FF390BF5A57BDFE7F1
:103550006FF0090013B0BDE8F08F00BFAFF300803B
:1035600000CA9A3B000000000DD5010011D50100F2
:10357000985A0300DC5A0300E44D0300E45A0300A8
:103580008D49FD1ABFBDF07F83DE1B4300000000A4
:103590002DE9F043C668476873683D491A68D0F85A
:1035A0000090A7F57423A3F510738B4283B0804677
:1035B00007D907F1E87707F5D43709F1FF3907F59F
:1035C000A57773681169DD8ACDF8049006F11003C0
:1035D00001AA0220FFF700FF00284ED10199A1EBBC
:1035E00009031B0237D4084649460FF0CDFB0346BA
:1035F00028480721A3FB000201FB032122A3D3E9F2
:103600000023FDF77DFD34690444002C346109DB9F
:1036100040F2E24305FB03F3A3422FD2E41AA34294
:10362000FCD33461D8F800301A48A3EB0903A3FB9C
:103630000002072101FB032113A3D3E90023FDF7B7
:103640005FFD154BA3FB0737A0EB9740204430618B
:1036500003B0BDE8F08348460FF096FB03460D48E3
:103660000721A3FB000201FB032107A3D3E90023E9
:10367000FDF746FD3469241AC7E73469002CD1D11F
:1036800003B0BDE8F08300BF00CA9A3B0000000011
:10369000BFBDF07F8D49FD1A83DE1B430000000093
:1036A00010B5334C3349002304F1FF3C14F83320A8
:1036B000072A02EB820E05D811F83E206FF345125F
:1036C00001F83E201CF833206FF300020CF8332081
:1036D0000133082BEAD1284A284C002313700A78BA
:1036E00063F300020A7091F8282063F3000281F866
:1036F000282091F8502063F3000281F8502091F8BF
:10370000782063F3000281F8782091F8A02063F319
:10371000000281F8A02091F8C82063F3000281F82C
:10372000C82091F8F02063F3000281F8F02091F8AE
:10373000182163F3000281F81821114A9FED0A7BDA
:103740001370104B83ED007B0F4B236028B1BDE855
:1037500010400E490E482EF08FBEBDE810400C48B8
:103760002EF098BEAFF30080FFFFFFFFFFFFFFFFCB
:10377000156C0020D46A0020E8850020E469002050
:10378000E7850020A03B0020A0BB0D0005E2010062
:10379000703B002000000000F0B5C468636883B08F
:1037A0000546002B64D11DF07BFD00201DF09EFD21
:1037B000002108461DF08CFD0022252108201DF067
:1037C000C9FD474B019301A81DF0B0FD454940F2EA
:1037D0005B601DF067FE237AC3F3420262F30613B7
:1037E000204623721CF00CF91BF048F858BB637A92
:1037F0009B071FD127682E6838461BF045FC0644FE
:103800006A6806F1090101201DF0A6FF1EF094F878
:10381000204612F045FE811C3246C9B238461BF0E4
:1038200041FC054678BB20461BF0C8FB88B9002048
:1038300003B0F0BD01201AF07BFB4178821C0078B8
:103840001DF02AFFD6E7607A10F0030018BF0120B0
:10385000F1E7254A2549264840F2294327F038FD5B
:1038600085F31188BFF36F8F0323184602DFDEE76D
:1038700093F82C309A0796D01E4821461DF0CEFCB6
:103880001DF0BAFDD3E7184A1B49194840F211430D
:1038900027F01EFD194B0721A5FB030301FB053192
:1038A0000DA3D3E90023FDF72BFC1549024615486B
:1038B00027F00EFD002585F31188BFF36F8F0323DA
:1038C000184602DF104821461DF0A8FC1DF094FDAB
:1038D0006FF08B00ACE700BF00CA9A3B000000000D
:1038E000D6BE898E55555500B85E0300B84F03000B
:1038F000E44D030035F20100BC4E03008D49FD1A72
:10390000685F03003C5F0300D5F501000000000084
:103910002DE9F041C46894F91630002B8CB0C0F248
:103920000581636805460E46002B40F0F480A37DB8
:103930006FF30003A3751DF0B3FC00201DF0D6FC4F
:10394000002108461DF0C4FC0022252108201DF09E
:1039500001FD012010F0A2FA0746002800F0CC80FB
:1039600007F11C001DF020FD8B4B0B930BA81DF0E5
:10397000DDFC8A4940F25B601DF094FDA07DC0F340
:10398000410025301BF0A0FB854821461DF046FC78
:10399000A37D9B0603D46368002B00F0AA809620C9
:1039A0001DF0CEFE00231A46194618461DF0E0FD14
:1039B0001AF064FF002838D1A37D13F0180F5BD1F3
:1039C000D4F800802F6840461BF05EFB07446A680D
:1039D00007F1090100201DF0BFFE1DF0ADFF1DF035
:1039E00037FE204612F0B0FF011DC9B240463A46EC
:1039F0001BF058FB8046002840F09F8016B9636A90
:103A0000002B52D1636843B1664B01220221002092
:103A10009D600DF0C9FC002837D120461BF0CEFA7E
:103A2000D0B900200CB0BDE8F081A07DC0F3C0008B
:103A30001AF07EFA07460DF12B001AF087FD79780F
:103A40008046BA1C38781DF027FE9DF82B00002216
:103A500041461EF03FF8B3E7534A5449544840F2F8
:103A60000B2327F035FC002383F31188BFF36F8FFE
:103A70000323184602DFD4E701201AF059FA4178EF
:103A8000821C00781DF008FE9AE7474A49494848D9
:103A900040F2062327F01CFC002383F31188BFF3B8
:103AA0006F8F0323184602DFB7E7434A0792434A62
:103AB000059240F2F31200930892CDE90366CDE936
:103AC000016606943B46032231460EF0C5FF10F016
:103AD000FD0F97D0344A3A4935484FF4FA7327F02E
:103AE000F7FB86F31188BFF36F8F0323184602DFBD
:103AF00088E71DF09DFD5BE72B4A32492C484FF4C7
:103B0000C57327F0E5FB87F31188BFF36F8F03239D
:103B1000184602DF24E7636893F82C30D90705D4F0
:103B2000636893F82C309A077FF501AF2648214649
:103B30001DF074FB1DF060FC73E71B4A23491C4811
:103B400040F2E51327F0C4FB214B0721A8FB030338
:103B500001FB08310EA3D3E90023FDF7D1FA1D497B
:103B600002461D4827F0B4FB002585F31188BFF3FA
:103B70006F8F0323184602DF184821461DF04EFBC5
:103B80001DF03AFC6FF08B004CE700BFAFF30080F4
:103B900000CA9A3B00000000D6BE898E55555500DC
:103BA000813C000084080020745F0300B84F0300CC
:103BB000E44D0300D04E030071010200190202001F
:103BC000E0510300045F030035F20100BC4E030026
:103BD0008D49FD1AC05F03003C5F030049000200ED
:103BE00038B504461CF0DEF9A37DA27DC3F3410382
:103BF000013303F00303032B08BF002363F34202E6
:103C000014BF03F125002520A2751BF05DFA63683F
:103C10000BB123694BB90FF0B5F8C11C00201DF0A2
:103C20000FFEBDE838401DF087BE1DF037FE05468B
:103C30000FF0A8F8C11C00201DF002FE1DF07CFE54
:103C40001DF02CFE29460FF09FF80B4A0346072172
:103C5000A0FB020201FB032105A3D3E90023FDF72A
:103C60004FFA23691B1A236138BD00BFAFF30080F0
:103C700000CA9A3B000000008D49FD1A00000000B8
:103C80002DE9F0478AB004461DF0F6FBC0B250B9EA
:103C90001BF074FAC64821461DF0C0FA0AB0BDE810
:103CA000F0471DF0A9BB1DF009FC05461DF028FDDD
:103CB00007461DF02FFD81461DF066FF06461DF0EC
:103CC00045FF82461DF0DEFCEDB280461DF0BEFCD5
:103CD0001BF054FA002DDDD0012010F0DFF805466E
:103CE000002800F0528117F0FF07F6B240F0E8809C
:103CF000002E40F0DF804FF0FF093A464B46314638
:103D000020461CF085FB0028C4D02A7F6168002370
:103D10008DF823305FFA88F702F00F03002900F0D6
:103D2000F180616891F82C10880700F1EB80072B77
:103D3000B0D0A17D090740F14781002B40F0C98038
:103D40006B7F063B1F2BA5D8042010F0A7F8002896
:103D5000A0D01DF0F9FD636A074643B9238C40F2F9
:103D6000712202FB03F3B0FBF3F203FB120723689B
:103D70001A69904B0721A2FB030301FB02318AA3BE
:103D8000D3E90023FDF7BCF96FF4427C00EB0C0390
:103D90001F3B62EB0202BB4272F10002FFF47AAFFA
:103DA0001DF046FC484663681AF0B6FBE37D9907B0
:103DB000804640F1E481002800F0E181824601273D
:103DC0001DF08AFBCDE9027A09AB049305F11E03CD
:103DD00001932B7FC3F38013014607460093002213
:103DE000012320461CF02EFB38461DF0E3FA1DF09F
:103DF0002FFB002840F0C9816F4821461DF00EFAC4
:103E0000626892F82C3043F0010382F82C30A37DD5
:103E100043F08003A37510F05BF8172202714FF690
:103E2000FF72C28095F81CC082463B46CCF3401C12
:103E300000F11C0207F1200E1D6858689968DF68C0
:103E4000D7601033734515605060916002F1100225
:103E5000F2D11B6813609AF81C30CAF808406CF362
:103E600045138AF81C301DF019FD002ECAF8100009
:103E7000099BCAF8143008BF4FF0FF098AF819905F
:103E8000E37D13F0020303D0B8F1000318BF012350
:103E90009AF81A2063F300028AF81A2010F018F832
:103EA000CAF80C00DAF8000051460AB0BDE8F04745
:103EB00010F038B85FFA8AF01AF0C4FB81461CE7AC
:103EC000A07D5FFA89F1C0F3C0001AF049FB81467A
:103ED00013E7012B40F088806A7F0C2A7FF4DAAE6A
:103EE0002A7FCDF80090194600230193D20905F1ED
:103EF000240320461CF0DAF900287FF425AF2B7F3D
:103F000003F00F03002B6FD16B7F052B7FF6C2AE42
:103F1000252B3FF6BFAEA27D02F02102202A09D157
:103F20006268002A00F0C080052B7FF6B3AE252B17
:103F30003FF6B0AE63682BB12B7F03F00F03072B66
:103F40007FF4A8AE03209DF823800FF0A7FF05465D
:103F500000283FF49FAE0FF0BBFF4FF6FF73EB80DE
:103F600005232B71002F3BD17F20AB7E2876002EBE
:103F700008BF4FF0FF0968F34103286885F81990DE
:103F8000AB7629460FF0CEFF84E60C4A0C490D486B
:103F900040F2C72327F09CF985F31188BFF36F8F98
:103FA0000323184602DF9EE600CA9A3B0000000089
:103FB000610002008D49FD1A61020200745F030076
:103FC000045F0300E44D0300B9F1FF0F8DF8249066
:103FD000C2F380184BD0227E91453FF4AEAE91E7FC
:103FE0001DF040FBC0B2C0E7062B8DD04521D94063
:103FF00011F0010139D1012B10D16B7F0C2B7FF413
:1040000049AE2A7FCDF800900DF123030193D20928
:1040100005F1240320461CF049F908BB2B7F03F06F
:104020000F03042B7FF436AE6B7F063B1F2B3FF64E
:1040300031AEA37DDB077FF52DAE1DF04DFA2B7F52
:104040000278C3F38013B3EBD21F7FF423AE0830A2
:10405000062205F11E012EF01AFE00287FF41AAE8A
:104060006B7F002B7FF466AF14E66B7F5CE705F196
:104070001E0A09AA514640461AF0A2FB00283FF446
:104080003EAFE37D03F0010343457FF438AF514673
:10409000062204F108002EF0FAFD00287FF42FAF6D
:1040A0002B7F03F00F0348E6962007921DF048FB94
:1040B000079A10461DF014FA03200FF0EFFE804619
:1040C00000283FF4E7AD0FF003FF4FF6FF73A8F8A9
:1040D0000630052388F80430002F66D17F23002E98
:1040E00088F8183014BF4B46FF2388F8193098F829
:1040F0001A30D8F800006FF3410388F81A304146AF
:104100000FF010FF1DF0E8F906460322337862F342
:10411000030333702B7F3278C3F3801363F3C7122A
:104120000C233270484673701AF0F6F9E27D92075C
:104130003FD500283DD03178324641F0400102F8A9
:10414000021B0168C6F8021083889380D5F81E30E0
:10415000B3606B8CB38130461DF02CF91DF078F9FB
:10416000002837D11DF0E8FBA37D224843F001036E
:104170002146A3750AB0BDE8F0471DF04FB8A77DF2
:1041800004F1190AC7F380171AE61B4A1B491C4899
:1041900040F2AF4327F09CF8002383F31188BFF36C
:1041A0006F8F0323184602DF26E61DF05BFAC3B2C9
:1041B00095E7A37D3278C3F3801363F38612334609
:1041C00003F8022BD4F81920C6F80220B4F81D20F9
:1041D0009A80BBE7084A0949094840F2335327F05F
:1041E00077F8002383F31188BFF36F8F03231846FA
:1041F00002DFB7E775000200745F03000C5F030085
:10420000E44D0300000000002DE9F041C468A28ADB
:104210004FF6FF739A4282B000F0DF8005461CF033
:1042200025FA2B89628B208CA3831A4492B2104406
:1042300094F82730E28380B2411C21845E064FF05F
:104240000001618304F1220100F1A18003F03F002D
:104250000B4694F82810009004F1290019F094F905
:104260000646D4E90C31A28B02FB0333A26B134444
:10427000E26B8B4294BFD21852188A4228BF0A467A
:10428000E263616C226C94F867301144616494F8C5
:104290007E2094F82C10C3F3020363F3061112F08E
:1042A00004024FF0000384F82C10A363236478D039
:1042B0001CF0F6FF00201DF019F8201D1DF036F847
:1042C0002389A17A40F25B6043EA01411DF0EAF8DC
:1042D00030461AF0F9FE214659481CF09FFFA0898C
:1042E0001DF02EFA94F8662094F86700C2F3C0031C
:1042F000002102F0070200F007001DF039F9204606
:104300001CF074FA27682E6838461AF0BDFE064481
:104310006A6806F1090100201DF01EFA80461DF0B2
:10432000DFFA00201DF0F6FAE36B94F8670003F162
:104330002F02636C00F00700012103EB42051DF022
:1043400047F84544054494F8670000F00700022848
:1043500025D004280CBF4FF4BC73282301211D4431
:104360001DF038F828441DF0ADFAA18A0531324617
:10437000C9B238461AF096FE0546002834D12046C8
:104380001AF01CFED0B9002002B0BDE8F0810A4648
:1043900003F03F03218D19F043F9064661E7182326
:1043A000DCE7D4E91A010CF091FF002880D194F8E1
:1043B0007E3043F0040384F87E3079E7214A2249B5
:1043C00022484FF4B07326F083FF85F31188BFF3C2
:1043D0006F8F0323184602DFD5E71D4821461CF0E6
:1043E0001DFF1DF009F8CEE7164A1A4917484FF489
:1043F000AB7326F06DFF184B0721A5FB030301FBF0
:1044000005310DA3D3E90023FCF77AFE13490246D8
:10441000134826F05DFF002585F31188BFF36F8FE9
:104420000323184602DF0F4821461CF0F7FE1CF05C
:10443000E3FF6FF08B00A7E700CA9A3B0000000083
:10444000650A020054600300B84F0300E44D030006
:1044500035F20100BC4E03008D49FD1AA86003002F
:104460003C5F030011F20100F0B5C468A28A4FF668
:10447000FF739A4285B000F08F8005461CF0F6F875
:104480002B89628B208CA3831A4492B2104494F837
:104490002730E28380B2411C21845E064FF0000188
:1044A000618304F1220160D403F03F000B4694F8CD
:1044B0002810009004F1290019F066F806462046FD
:1044C00003A91CF071FA039B94F87E101A7861F32B
:1044D000C3021A70039A94F87E301178C3F3400334
:1044E00063F3820111701CF0DBFE00201CF0FEFE65
:1044F000201D1CF01BFF2389A17A40F25B6043EA78
:1045000001411CF0CFFF30461AF0DEFD0399204632
:104510001CF01EFA21463A481CF080FEE0891DF08E
:104520000FF994F8670000F007001CF0D9FF276826
:104530002E6838461AF0A8FD06446A6806F109019B
:1045400001201DF009F91DF0F7F9A18A0531324665
:10455000C9B238461AF0A6FD054620BB20461AF01F
:104560002DFD50B9002005B0F0BD0A4603F03F0311
:10457000218D19F055F80646A1E7224A2249234821
:104580004FF4827326F0A4FE85F31188BFF36F8F7A
:104590000323184602DFE5E71D4821461CF03EFED6
:1045A0001CF02AFFDEE7174A1A491848FA2326F0BA
:1045B0008FFE194B0721A5FB030301FB05310EA359
:1045C000D3E90023FCF79CFD14490246144826F069
:1045D0007FFE002585F31188BFF36F8F03231846F4
:1045E00002DF104821461CF019FE1CF005FF6FF099
:1045F0008B00B8E7AFF3008000CA9A3B00000000D0
:1046000085080200B4600300B84F0300E44D0300C6
:1046100035F20100BC4E03008D49FD1A0461030010
:104620003C5F030011F20100014823F0E5BD00BF2B
:10463000C002002007B52EF0ACF84FF47A72A0FB50
:10464000020302FB0131C00B074A40EA41401060FF
:1046500000234FF400420548CDE9002324F094FCE8
:10466000002003B05DF804FB10400020800A002009
:10467000014B187800F0BCB99C840020044B1A78D8
:10468000824202D01870FFF7F3BF0020704700BFCE
:104690009C84002008B52EF07CF84FF47A72A0FBC1
:1046A000020302FB0131084AC30B126843EA41438B
:1046B0009B1A47F23052934204DDBDE808400120C6
:1046C000FFF7DCBF08BD00BF1040002008B52EF08A
:1046D00060F84FF47A72A0FB020302FB0131C00BB9
:1046E000044A40EA41401060BDE808400020FFF75E
:1046F000C5BF00BF10400020014B1878704700BFB5
:104700009C840020F8B5044610B900252846F8BD61
:104710000378002BF9D00F4E0F4FBE420FD30D4E32
:10472000BE42F2D230682DF0D5FB30B1356821465B
:104730002868FCF7FFFC0028E8D00436F0E7306872
:104740002DF0C8FB18B135682B68A342DED00436C3
:10475000E3E700BF448803006C88030070B5194C80
:10476000194D8CB00022002303A9204623F0D4F970
:1047700008B10CB070BD2B68059E5868DDE90312C6
:1047800025F0C5FF0028EDDBFF238DF81830B6FAC1
:1047900086F35B0907908DF820302DF0FAFF4FF477
:1047A0007A72A0FB020302FB0131C00B40EA4140D8
:1047B000C90B8DE8030006ABCDE90A010FCB00F071
:1047C00031F9CFE7B80B0020C44000201FB50A4CD8
:1047D0002468A46884420DD183F00103CDE901125D
:1047E000039306480022002301A923F037F9044867
:1047F00023F002FD04B010BDC4400020B80B00201F
:10480000B44000201FB50023CDE90233044B8DF8DE
:104810000C0001A8019325F0A1FF05B05DF804FB91
:104820009C3B03000268034B9A420CBF08300020F7
:10483000704700BF9C3B0300014B0360282070477A
:1048400014400020044B1A68044B9A4214BF6FF0C6
:1048500012000020704700BFC4400020883B0300C6
:1048600038B5044628B3144D2B6883421FD02BB1B2
:10487000986818B183685B6803B198470F49104B7B
:104880008C4214BFED2100212822002025F059FF81
:1048900000280DDBA0682C6048B1836809491B68BB
:1048A00098472B68986883689B6803B198470020F5
:1048B00038BD6FF01200FBE7C4400020883B0300C6
:1048C00014400020CD47000038B5054648B90648D9
:1048D000FFF7C6FF041E02DB2846FFF793FF2046C2
:1048E00038BD6FF01504FAE7883B0300F7B50C46B6
:1048F00015460D4901AA1E4627F04AF868B1019BEA
:104900006BB9012C0DD1094F224639463046A847D4
:10491000002802DD3878FFF7D7FF03B0F0BD002094
:10492000FBE76FF01500F8E7A66E0300260A0020EB
:104930000148FFF795BF00BF883B030008B5074952
:1049400007482DF03DFD074A002342F8043B0133A0
:10495000282BFAD1BDE80840FFF7EABF5D47000009
:10496000B440002014400020F8B50F4D0F4E761BC8
:1049700007460C4605EBC105C6F3C706A64201DC97
:1049800000200CE02A683B689A4209D13C716B68B0
:1049900038461B68984718B1431E012BF0D9F8BD63
:1049A00001340835EAE700BF08790300687903009D
:1049B0000D4B0E4AD21A70B4C2F3C70200249442BF
:1049C00003DB6FF0150070BC70471E680568AE42CF
:1049D00006D15D688D4203D1E1B270BCFFF7C4BF60
:1049E00001340833EBE700BF08790300687903005E
:1049F0001FB50023CDE90233044B8DF80C0001A84C
:104A0000019325F0ABFE05B05DF804FBA03B03006D
:104A10000268034B9A420CBF08300020704700BF69
:104A2000A03B030084B030B589B00CAC84E80F0023
:104A3000002301930CAD084B00930FCD02AC0FC4C3
:104A400095E8030084E80300684625F087FE09B076
:104A5000BDE8304004B07047A43B03000268034B3C
:104A60009A420CBF08300020704700BFA43B0300EF
:104A700084B030B58BB00EAC84E80F0000230193F6
:104A80000EAD084B00930FCD02AC0FC495E80F009C
:104A900084E80F00684625F061FE0BB0BDE83040A9
:104AA00004B07047A83B03001FB50023CDE90233D3
:104AB000044B8DF80C0001A8019325F04FFE05B0C2
:104AC0005DF804FBAC3B030082B038B504A981E873
:104AD0000C000546114822F011FE0446A0B16B6897
:104AE000012B0CD0022B05D0A3B9BDE8384002B091
:104AF00025F05CBE25F061FE00282046F5DCBDE80F
:104B0000384002B025F04BBE6FF00400BDE83840DD
:104B100002B070476FF08500F8E700BF626F0300D6
:104B200082B010B502A981E80C0004460B4822F0BF
:104B3000E5FD78B16368022B04D00020BDE8104089
:104B400002B0704725F039FE0028CCBF00200120BC
:104B50006060F2E76FF00400F0E700BF626F0300EF
:104B6000014B1878704700BF9F8400200D4A52F80F
:104B70002030013342F820300B4A01231178834062
:104B80000B430A490978DBB2137023EA0103084991
:104B9000084A097850780B43181A537018BF01203F
:104BA000704700BFC84000209F8400209D840020E3
:104BB0009E840020340A002010B5114A52F820309B
:104BC000002B19DD013B42F820300E4A2BB9137837
:104BD0000121814023EA010313700B480B4B047839
:104BE00010780B4A5978127820EA04001043587064
:104BF000401A18BF012010BD6FF01500FBE700BF81
:104C0000C84000209F8400209D840020340A00209A
:104C10009E840020044A012312788340D8B21340B6
:104C20001B1A5842584170479F84002010B5084B0A
:104C3000084A1870084B51781C78084B1B7823EAF7
:104C4000040318435070401A18BF012010BD00BF64
:104C50009E840020340A00209D8400209F84002030
:104C6000074B00221A70074B074A1978074B5078F8
:104C70001B7823EA0103181A537018BF01207047EC
:104C80009E8400209D840020340A00209F84002000
:104C9000A0F1E003072B03D82030C0B2FFF766BFB6
:104CA000064B062213F8011F19B1013AFAD1002070
:104CB000704718700028F8D0F9E700BF360A0020C6
:104CC000A0F1E003072B10B405D820305DF8044BA9
:104CD000C0B2FFF771BF0023064A194612F8014F10
:104CE0000133A04208BF1170062BF7D100205DF8F8
:104CF000044B7047360A0020A0F1E003072B03D8CD
:104D00002030C0B2FFF786BF064A002312F8011F09
:104D1000884204D00133062BF8D1002070470120CF
:104D2000704700BF360A0020024B00221A605A600A
:104D3000704700BF350A0020B0F5805F10B510D273
:104D40000949002301EB4302B2F8014024B10133C9
:104D5000062BF7D1002010BDA2F801000028F6D0E4
:104D6000F8E76FF08500F6E7270A002030B500234A
:104D7000074C194604EB43020133B2F80150854257
:104D800004BF51709170062BF4D1002030BD00BFDC
:104D9000270A0020024B00221A605A609A6070476E
:104DA000280A0020074A002302EB4301B1F8011052
:104DB000814204D00133062BF6D100207047012038
:104DC000704700BF270A002000487047340A0020BF
:104DD00000487047270A00202DE9F0410B4E337838
:104DE00083B10B4CDFF82C80002542F20F77204670
:104DF000414601352DF040FB0A2D44F8207C04F19A
:104E00005804F4D100203070BDE8F0813D0A002044
:104E10004015002005AA020030B5C269037ED17D8D
:104E200091B0044609B1032B39D0023B012B517DCF
:104E300007D8002933D1204611B0BDE8304025F015
:104E4000B8BD21B1937D13B9204625F054FD0AADBC
:104E50001822002128462DF090FD23798DF8383056
:104E60000023CDE907330993E36922689B68079320
:104E7000D4E90401E36808930A4B0B92CDE90C01D5
:104E8000C3E902011A600123049310AB13E90F0078
:104E90008DE80F0007A895E80C0025F0B6FB11B0CF
:104EA00030BD00BF000000200B4A30B5002304468F
:104EB000282000FB03F18D18515C41B90FCC0FC5C0
:104EC0000FCC0FC594E8030085E8030030BD013323
:104ED000282BEED1FAE700BFE00E00202DE9F843C1
:104EE000027E0346002A6ED13B4D2A6882426AD177
:104EF000D269547D24B119B9BDE8F84325F059BDF4
:104F0000107D032828D8DFE800F0020E1F60013969
:104F1000042921D8DFE801F01E0320051E0002212C
:104F200019E0032117E00139042915D801A050F830
:104F300021F000BF554F0000594F00001F4F0000E7
:104F4000234F0000554F00000429EAD001F0FB0177
:104F5000012901D101211976197EA1B3D069002858
:104F60000DDD5C6D611C0AD01C32002152F8046F0B
:104F7000A64204D001318842F8D101221A760022DB
:104F800018462A60FFF748FF2C68E4B9134EDFF893
:104F90005080A14616F8087CAFB12B6806F8089C33
:104FA00023B14FF4A47000212DF07AFB012F01D022
:104FB000022F03D141463046FFF7FAFC0134282C7A
:104FC00006F12806E6D1BDE8F8830229A7D0BFD9AB
:104FD00004390129BED9BFE7E8400020E80E0020CF
:104FE000583C030082B02DE9F0412F4E06A981E81C
:104FF0000C000024582202FB04F0851931588B4222
:105000004AD1203030442DF045FAEB691968D5E9D2
:1050100004238A1843EBE17308998A42099A934161
:10502000804603DA04212846FFF758FF582707FB7C
:10503000046701212846FFF751FFFB69DB7D53B16F
:105040003B7E032B07D1284625F07DFC0123284613
:105050003B76FFF7E1FE284625F075FC582303FB5D
:105060000463DB695A7D22B19B7D13B1284625F08C
:1050700042FC18F1770F4FF058031DBF5C4342F21A
:105080000F72331903FB046317BF32510122002250
:105090001A7683F8502002E001340A2CABD1BDE827
:1050A000F041002002B070472015002082B02DE9A9
:1050B000F047044608A9006881E80C0025F04FFA83
:1050C0003B4B1D687DB9D4E901C23A4F4FF0580EF1
:1050D00042F20F780EFB05F6F419B959414507D095
:1050E00001350A2DF6D1BDE8F047002002B0704727
:1050F000D0F804809DF83010DDF82490DFF8B8E097
:105100002171C4E902C2DDE90AC0C4E904C000217A
:105110004FF0FF3247F8069021766265C4F81C8094
:10512000DEE902211C60D8F8103013EB020A41EBD3
:10513000E373D44570EB03030CDBDEF800309945D4
:105140000CD1D8F80C309A1841EBE371944570EB10
:10515000010103DA05212046FFF7C0FE20460021A9
:10516000FFF7BCFE582303FB0575D8F800402969FA
:105170000C442DF00EFB4FF47A72A0FB020302FBED
:105180000131C30B43EA4143E11A21EAE17140F2E4
:10519000E7304FF47A72002300EBC1304914FBF77B
:1051A000AFFF203602460B46B81923F093F89AE772
:1051B000E840002020150020000000202DE9F041EB
:1051C0008AB00446FFF74AFC00286CD02046FFF75F
:1051D00045FC524D47680446002642F20F782B6882
:1051E0009F420CD043450AD0EB69DB7D3BB12B7E5F
:1051F000032B04D102232B762846FFF70DFE013640
:105200000A2E05F15805EAD1454D286808B9002055
:105210002CE0C369227A197E914204D0426D01329A
:1052200004BF62684265016862689142EFD0196804
:10523000D0E904238A1843EBE173D4E90461B24254
:105240008B4116DB237ADBB10123214602A88DF8BE
:10525000003025F08BFA6846FFF726FE217A286891
:10526000C1F10301C9B2FFF739FE02200AB0BDE85F
:10527000F0810421FFF732FE2B68002BC7D0E1E755
:105280006068284A11780029C1D0012905D15169E7
:10529000884202D1117E0029D6D10133282B02F198
:1052A0002802EFD1B3E7204600F09AFD0028DDD0B8
:1052B000204600F095FD837A01469BB14368E03BB0
:1052C000072B02D80378072B0CD0174BD1E9040227
:1052D000D3E9025485429441BEBFC3E902024FF0B4
:1052E00000441C600E4B18680028BFD04B68E03BA0
:1052F000072B8CD80B78072B89D1C3695B7D13B141
:10530000007E0028B2D002A802248DF8004025F0CB
:10531000AEFC6846FFF7C8FDA7E700BF20150020D8
:10532000E8400020E00E0020000000202DE9F047BA
:1053300000F056FD08B1837AF3B90020BDE8F0878C
:10534000037A43F002030372F7E7232BF5D9A5F1A3
:10535000E003072B23D8F3B2072B20D1EDE7A36896
:105360009D4225D194F80C80FFF7FAFB49EA000032
:1053700038EA00081CD1E0E7104F3B78002BDCD066
:1053800006884568072EA5F10403DBB2DDD1192B91
:10539000D6D9232BD1D9A5F1E003072BCDD9084CC1
:1053A00090F8089004F1240AEDB2A388B342D6D055
:1053B0000C345445F9D100233B70BEE7A084002093
:1053C0005C3C03002DE9F043124B134C134DD3E921
:1053D000067E0646002002464FF0010C2B680CFAB0
:1053E00002F813EA080F0DD0E36813EB07094EEB40
:1053F000E3734E4571EB0303A5BF2B6823EA080353
:1054000001302B600132042A04F12404E6D1BDE806
:10541000F08300BFE8190020D43C03008C41002039
:1054200070B5094B094D1E7800241C702EB128461A
:1054300025F097F90134B44201DB304670BD2035C8
:10544000284625F08BF9F5E7A2840020E819002012
:105450002DE9F04F43488FB02DF01CF8424B002649
:105460001E60424BB3F900A047F6FF739A4564D023
:105470003F4F48234FF6FF7203FB06F0C419395A19
:10548000914251D13B49DFF8FCB00A789BF800907B
:1054900001320A7038491FFA8AF324223B5202FB78
:1054A00003130830B3F908803449C845A8BFC8467B
:1054B00028EAE872520138442DF037FA4FEA4813CF
:1054C000DFF8B8C0A4F80280C6460793F14539DC7E
:1054D000482303FB067708ADA9EB08091822002131
:1054E00028463C6A8BF800902DF047FA0AF1280311
:1054F0000993FF238DF83030214BE217C3E90042B6
:10550000CDE90A421C4A24230AFB032A01230493FF
:105510000EAB13E90F008DE80F000AF1140095E8B7
:105520000C0025F072F804E00136042EA4D1FFF738
:1055300077FF0E4A47F6FF7313800FB0BDE8F04FB8
:10554000FFF76EBF079B0CEB03050FCD64460FC43E
:1055500095E80F000EF1010E84E80F000CF1200C0D
:10556000B4E700BF981800208C410020240A0020D6
:10557000C8180020A1840020D43C0300E8190020B2
:1055800010000020A2840020F8B5154B15491648DC
:10559000164D4FF6FF721A80A3F84820A3F890200A
:1055A000A3F8D8202CF068FF114B00224FF0010C1B
:1055B000B3F908E00CFA02F71C46002107E054F8A2
:1055C000046B55F82600384345F826000131714533
:1055D000F5D30132042A03F12403E9D10020F8BDF8
:1055E000C81800200D57000098180020EC4000203B
:1055F000D43C03002DE9F8433E4B3F4E1C78D6E9DE
:105600000027E4BB02F1004301333B4335D06FF088
:1056100000452DF0BEF84FF47A77A0FB070307FB97
:105620000131C30B43EA4143AB424FEAD131A141BF
:105630005DDA2DF0AEF8A0FB070307FB0131C00BCC
:1056400040EA4140281A64EBD131C90341EA504194
:1056500040F2E733C003C0184FF47A724FF00003F2
:1056600041F10001FBF74CFD02460B46234822F0B6
:1056700031FE0028A8BFC6E90054BDE8F883002425
:105680001F49DFF884E06FF0004523464FF0010822
:10569000DEF8000008FA03FC1CEA000F08D0C86816
:1056A0004FEAE07CA8427CEB0409BCBF0546644697
:1056B0000133042B01F12401EAD11249D1E9063169
:1056C000ED1844EB0104A74208BFAA42D5D06FF001
:1056D00000439C4208BFB5F1FF3F9AD1002300224E
:1056E000C6E900230548BDE8F8432CF0D3BE0022EC
:1056F0001346BBE7A28400209018002098180020D1
:10570000D43C0300E81900208C41002038B5114C2E
:10571000D4E9003213431CD02DF03BF803460D466C
:10572000D4E900014FF47A74A3FB043204FB052290
:10573000DB0B43EA424383424FEAD2328A4108DB21
:10574000FFF740FE08B9FFF783FEBDE83840FFF7DA
:1057500051BF38BD901800202DE9F04F9DB0044690
:10576000FFF77CF9002800F06D812046FFF776F9FD
:105770008146002800F08181057A002D00F0A98083
:10578000A74DA84E2C78D0E904A8002C3FD147683B
:1057900025F026FA06EB87030693A34BA34FD3E924
:1057A00000E3012101FA00F01A462646069B1B6819
:1057B00001FA06FC13EA0C0F15D03B690BB103424A
:1057C00011D0B7F90A3013EB0E0B42EBE373DA4555
:1057D00078EB030307DB964BD3F800B04CEA0B0CD5
:1057E000C3F800C001340136042E07F12407DDD1CF
:1057F000002C00F042812B78022B30D1FFF7FAFE0B
:1058000000268B4B1A68D00757D5002340E050463E
:105810004146FFF7D7FD864BD9F804202F7856F87C
:1058200022401A6814401C603B463CB9022F16D136
:10583000FFF7E0FE2646FFF70BFE36E0661E264029
:1058400005D1022F0AD1FFF7D5FE0124D9E7022F97
:105850001BD1FFF7CFFE00263C46D2E70124754E50
:105860005A1C49460CA80CAF06EB43162A7024F0CC
:105870007DFF0FCF0FC697E80F0086E80F00FFF7F8
:10588000B9FE0226002CBCD1D5E70224E7E70123AC
:10589000664A242101FB0322B2F908102A789142BA
:1058A00003D1654A012C1380C5D030461DB0BDE838
:1058B000F08F0223ECE70323EAE71A689107E6D4A6
:1058C0001A685207F5D41B681B07F4D46FF015064D
:1058D000EBE7FFF7BDFDD9F804300993D9F8103094
:1058E0000793564B564E1B7808900B93B0460B9B74
:1058F0009D420CDB089B012B40F3BF80494614A856
:1059000024F034FF14A824F029FF0226CDE73788BD
:10591000464BB6F802B0242202FB07334FF0000CCE
:10592000B3F908300A93B646CDF818C00124069B97
:105930009B4513DC4836BCF1000F6FD0482303FBB6
:1059400005830BF1FF325A80384B242202FB0733C8
:1059500093F8203003B314BB0126A6E7BCF1000F77
:1059600011D00EF1080ABAE80F00AEF118040FC406
:105970009AE80F0084E80F000024069B0133069389
:105980000EF1200ED3E7DEF81430099A9A4214BFC4
:1059900000244FF0010CF0E70A9B9B4520D114AE88
:1059A0001822002130462CF0E8FF07F12803159358
:1059B000079B079ADB17CDE916231C4AFF238DF8B6
:1059C0006030242303FB07270023049316AB0FCB7F
:1059D0008DE80F0007F1140096E80C0024F015FE86
:1059E000002CB9D0154B1C78013CE4B2A5421C70C8
:1059F00008D004EBC401482208EBC10102FB05807A
:105A00002CF093FF48225443002108EB04002CF0B3
:105A1000B4FF4FF6FF7328F804309DE7013566E7C1
:105A2000A2840020EC40002018000020D43C030099
:105A30008C410020E8190020240A0020A1840020C5
:105A4000C8180020204600F0CBF9B0B1204600F085
:105A5000C7F9837A8BB14368E03B072B02D8037800
:105A6000072B0AD0064BD0E90412D3E90003884281
:105A70009341BCBF034BC3E90012002615E700BFEA
:105A8000100000201800002008B5074B1B78012BE0
:105A900006D1FFF799F9BDE80840013000F062BD7A
:105AA0006FF0850008BD00BF9041002008B5074B8E
:105AB0001B78012B06D1FFF78BF9BDE808400130B8
:105AC00000F076BD6FF0850008BD00BF904100205A
:105AD00037B508490848094D6C462CF0CDFC2046E6
:105AE00024F0E7FF94E8030085E80300002003B0FA
:105AF00030BD00BF015B0000281A0020904100204B
:105B000002490348012202F0BDBE00BFA384002069
:105B1000BD6F030082B00DF1080C0CE903001946BB
:105B20009DF8003010461BB1012B05D0054A00E05E
:105B3000054A02B023F0B0BA019B044A02B023F038
:105B4000ABBA00BFDC6F0300D16F0300D56F030059
:105B500030B589B001AD0F4C284624F0AAFF94E877
:105B60000C0095E8030024F0AFFF80B924F0D3FFC8
:105B700095E803000A2305AA84E80300FFF7CAFF9B
:105B800094E8030003AB83E8030000F023F809B0B6
:105B900030BD00BF9041002070B50C4615460B4942
:105BA00000221E4625F0F4FE08B9002070BD012C2D
:105BB00008D1074922463046A8470028F6DDFFF7FE
:105BC000C7FFF2E76FF01500F0E700BFC76F0300F3
:105BD000A38400207FB56B4683E8030093E80300AD
:105BE000002206AB03E90300039202A8034A0292D3
:105BF00024F0B4FD07B05DF804FB00BF683D03006E
:105C0000F0B5042885B05BD898B911B9002005B06B
:105C1000F0BD2D4C2D4B26681D6846F00103236016
:105C2000002A4BD19E4214D1284B1B68AB4210D1A5
:105C3000ECE7264B1D687ABB39BBC540EB07E5D4C2
:105C4000214D01232C68834024EA03061C422E6068
:105C5000DCD08DF800008DF801108DF802202CF0BA
:105C600098FD4FF47A72A0FB020302FB0131C00BD6
:105C700040EA4140C90BCDE9020104AB13E90F0032
:105C800005B0BDE8F04000F079B80F4C012326685C
:105C9000834033432360C5E70B4F01243E688440B3
:105CA00021B146EA04033B602C4304E026EA0403E6
:105CB0003B6025EA0404054F3C60B3E70124F3E7A9
:105CC0006FF01500A3E700BF384200203C420020DF
:105CD000014B196824F07ABF38420020272937B5D4
:105CE00004460D4602D9002003B030BD0428FAD87E
:105CF00001A8FEF7A1FD0028F5DB8542F3DA019B40
:105D000053F82530272BEED84FF4F07202FB04F045
:105D10000C2202FB0300014B1844E5E7743D03002D
:105D20002DE9F74FDDE90CABDFF84C9007460C4648
:105D300015461AB10F4B1B6849F8213004265FFA4B
:105D400086F859F82410404624F040FF30B9013E4F
:105D5000F5D26FF0850003B0BDE8F08FCDE900AB60
:105D60002B4622464146384624F04EFF0028F2DDFD
:105D7000EDE700BF384200209841002010B58AB0FE
:105D80006C4684E80F0000230593064B049394E8C7
:105D90000F000AAC04E90F0004A824F0DFFC0AB0ED
:105DA00010BD00BFD446030084B030B589B00CAC40
:105DB00084E80F00002301930CAD084B00930FCD36
:105DC00002AC0FC495E8030084E80300684624F0A1
:105DD000C5FC09B0BDE8304004B07047DC460300A4
:105DE0000268034B9A420CBF08300020704700BF86
:105DF000DC4603007FB56B4683E8030093E80300AD
:105E0000002206AB03E90300039202A8034A0292B0
:105E100024F0A4FC07B05DF804FB00BFE0460300DB
:105E2000074B1A78074B82B0162102FB013301930E
:105E30008DF8002002AB13E9030002B0FFF7DABFD0
:105E4000AB840020AC84002002490348012202F008
:105E500019BD00BFAB8400207A70030008B5002094
:105E600004F0AEFB002802DA10F1780F07D10448E5
:105E700025F08BFD034804492CF0FEFA002008BDF4
:105E800020030020581A0020495E000070B50378F6
:105E90008AB004460E4607AD032B20D8DFE803F096
:105EA00002191B1D11492846FBF74EF90595637829
:105EB0000493A3780393E37802932379019363799E
:105EC0000093A3790A4A1E21304623F0E5F80AB070
:105ED00070BD0849E7E70849E5E70849E3E7084AEC
:105EE0000A21284623F0D8F8E0E700BF8D700300B0
:105EF000B6700300947003009B700300A57003004C
:105F0000AF70030010B592B0044627F09EF801A9C7
:105F1000FFF7BCFF09A9204606F064FE9DF8253076
:105F2000012B13D10A4822F067F9204627F08DF89B
:105F3000084B19780F22162313FB01230649194435
:105F400024F0DAFE10B9054822F056F912B010BD5F
:105F50003C030020AB840020AC8400204C030020D4
:105F60002DE9F0418AB00D46164628496A46044696
:105F70001F4625F00DFDF8B10098E8B10A2201A9ED
:105F800023F054F9019B1B7803BB162D1ED1C4B21C
:105F9000042C1BD8DFF888806C432A4608EB0401E8
:105FA0003846B047002813DD04F10F0002A9404431
:105FB000FFF76CFF00200BE015496A46204625F0EC
:105FC000E7FC78B1009B6BB9012D04D06FF0150090
:105FD0000AB0BDE8F0810F492A463846B04700EACA
:105FE000E070F5E70C496A46204625F0D1FC002810
:105FF000E0D000980028DDD0072DE7D12CF043FE3B
:106000000028D7D105492A46E7E700BFD970030029
:106010007E700300AB840020E2700300A4840020A3
:10602000AC840020042808B50CD80F22162313FBDB
:10603000002305480549184424F05EFEB0FA80F0BC
:10604000400908BD0020FCE7AC840020AA720300D0
:10605000014B1878FFF7E6BFAB8400202DE9F04133
:106060000C468EB005464FF0160806A9204615FBD3
:1060700008F7FFF70BFF0D4E216807F10F02931988
:10608000B150A2889A80A2799A7109492A4601A83A
:1060900023F02EF84246F11901A802F0F3FB05485F
:1060A00022F0AAF80EB0BDE8F08100BFAC84002059
:1060B000F77003004C03002038B50F23162414FB9F
:1060C0000034094B09491C440546204624F014FEBF
:1060D00048B12146002004F023F828460349BDE8D2
:1060E0003840FFF7BBBF38BDAC840020AA72030064
:1060F00010B504288AB002D900200AB010BD0F23C1
:10610000162414FB00340D4B0D491C44204624F08A
:10611000F3FD0028F0D02146002006F0E5FC0446FF
:106120000028E9D001A906F05DFD204606F062F9DD
:106130009DF82400831E58425841DEE7AC840020BD
:10614000AA720300014B1878FFF7D2BFAB8400207E
:10615000F0B58DB0FFF77CFF98B9FFF7F3FF80F043
:1061600001035B00DBB2214D2A7803EB0213112BF4
:1061700009DC022B2DD0102B23D0002420460DB09B
:10618000F0BD0223EFE7202B1BD0122BF5D105F039
:10619000D1F900232B7004460028EFD1144F0FCF04
:1061A00002AE0FC63B6813493360032200942346B6
:1061B00002A805F08DF904460028DFD102232B70D8
:1061C000DBE705F0B7F900232B7004460028D4D094
:1061D000D4E7074E0FCE07AC0FC43368236000230B
:1061E00004490093032207A8E3E700BF1A850020B3
:1061F000503703005C03002030B593B0054626F00D
:1062000024FF01A90446FFF741FE09A9284606F02C
:10621000E9FC9DF82530012B05D1FFF719FF214638
:1062200018B903F07DFF13B030BD034B1878FFF7AA
:1062300015FFFFF78DFFF6E7AB84002030B593B074
:106240000D4609A9044606F0CDFC9DF82530012B2A
:106250000BD1204626F0F9FE01A9FFF717FE0E4BE1
:1062600000221A701DB1FFF773FF13B030BDFFF7A6
:106270006FFF204626F0E9FE084B19780F221623FF
:1062800013FB01230649194424F036FD0028ECD104
:10629000044821F0B1FFE8E71A850020AB84002014
:1062A000AC8400204C03002008B5064806F0DCFB57
:1062B000054806F015FE054806F02CFEFFF748FFDE
:1062C000002008BDFC020020E0020020D0020020D7
:1062D00008B5044B1878FFF7EFFEBDE80840FFF75C
:1062E00037BF00BFAB840020014B1878704700BF58
:1062F000AB840020042808B510D80A4B1A788242D3
:106300000AD018704FF4F0120023074822F016F854
:10631000FFF71EFFFFF784FD002008BD6FF021008E
:10632000FBE700BFAB840020581A0020054B18780B
:1063300005230130B0FBF3F303EB8303C01AC0B2B3
:10634000FFF7D8BFAB840020054B18780523043035
:10635000B0FBF3F303EB8303C01AC0B2FFF7CABF6D
:10636000AB840020042838B51DD80F23162414FB55
:1063700000340E4B0E491C44204624F0BDFC18B9D5
:106380006FF01204204638BD2146002006F0ACFB19
:1063900005460028F4D0132126F02EFD0446284699
:1063A00006F028F8EEE76FF02104EBE7AC8400205C
:1063B000AA72030010B50A4B0A491A7816240F2353
:1063C00014FB0234084B1C44204624F095FC28B1F1
:1063D00021460020BDE8104006F086BB10BD00BF7E
:1063E000AB840020AA720300AC84002070B5164D67
:1063F00090B004460146284624F07EFCE8B108A986
:106400002846FFF743FD1149284624F075FC06464F
:10641000B0B969462046FFF739FD23682B60A38891
:10642000AB80A3790A49AB71324608A822F060FE1E
:106430000722214608A802F025FA002010B070BDFE
:106440006FF00B00FAE700BFA4840020AA720300DB
:10645000077103001FB54D240294044C0194BDF84C
:106460001840009428F01EFA04B010BD3F710300DC
:1064700007B5064B00930649064805234FF44072C2
:1064800021F0C0FE002003B05DF804FBFC460300D1
:1064900080860020881A0020F0B5164E164F89B06D
:1064A000002200236946304621F036FB054608B13C
:1064B00009B0F0BDFFF77EFF04460028F8D018228F
:1064C000294602A82CF059FA08230DEB03012046B7
:1064D0000397CDF810D0ADF8143008F01FFD01304F
:1064E00003D10221204626F071FD204605F082FFEF
:1064F000D6E700BF180C0020684703002DE9F041E3
:10650000164FDFF85C808AB001AE002200233146CE
:10651000384621F001FB054610B10AB0BDE8F08114
:10652000FFF748FF04460028F7D01822294604A8A0
:106530002CF023FA0C2304A92046CDE90586ADF8FA
:106540001C3008F0EBFC013003D10221204626F07C
:106550003DFD204605F04EFFD7E700BFE80B0020C9
:10656000B847030037B5054640F6CD420146002343
:106570000C4821F073FA044678B110F10B0F09D1E1
:10658000002200236946074821F0C6FA2846FFF793
:10659000E9FF0446204603B030BD034903482BF011
:1065A0003AFFF7E7180C002084030020881A002027
:1065B00030B5054685B040F6CD42014600230D4872
:1065C00021F04CFA044678B110F10B0F09D10022EA
:1065D000002301A9074821F09FFA2846FFF7E8FFAA
:1065E0000446204605B030BD034904482BF013FF94
:1065F000F7E700BFE80B002074030020881A002092
:106600001FB50023CDE90233044B8DF80C0001A81F
:10661000019324F0A3F805B05DF804FB34480300AF
:1066200008B500F09DFEBDE8084001492BF0F3BE1F
:106630005404002013B5114B1C68A3683021DB689B
:1066400020469847C0B9A3686A461B693021204696
:10665000984788B90A4C00982378834204D0C0B286
:106660002070FFF7CDFF38B902F0DEF823789842AA
:1066700002D0184602F0DEF802B010BD4042002001
:106680001C85002007B5094B18682BF023FC48B186
:106690004FF4F0120023CDE9002305480022002327
:1066A00022F072FC03B05DF804FB00BF4042002002
:1066B000B80A002008B5FEF7ABF910B96FF08500F5
:1066C00008BDFEF719F838B10138C0B20128F5D875
:1066D00003482CF0A5F801E0FFF7D4FF0020EFE716
:1066E000B80A002008B5084821F008F8074A1060E9
:1066F00010B96FF0120008BD2BF0ECFB0028F8D0A9
:10670000FFF7C0FF0020F6E7CB71030040420020F6
:10671000064A1278022A00F1FF3315BFC0F10100CA
:106720000023C018037008BF0120704744420020B6
:10673000014B186000207047E042002007B5684612
:10674000FFF7E6FF88B1012814BF01230223084A9E
:106750001278002062F30700064A127862F30F20D5
:1067600063F3174003B05DF804FB0346EFE700BF97
:106770001D8500201F85002013B50C4B1C6894B1AB
:10678000FFF7DCFF8DF80400C0F30723C0F30740D8
:106790008DF805308DF8060001990548234602B0B2
:1067A000BDE81040184702B010BD00BFE042002015
:1067B0006C88030013B50E4B01221A700D4B1C6838
:1067C00094B1FFF7BBFF8DF80400C0F30723C0F3BB
:1067D00007408DF805308DF80600019906482346DC
:1067E00002B0BDE810401847204602B010BD00BFFF
:1067F0001D850020E04200206C88030013B50024B2
:1068000008490948009405234FF4007221F0FAFC6E
:10681000064806F029F9064825F0B7F8204602B0E8
:1068200010BD00BF008A0020701B002090040020D3
:10683000640400201FB50E4B1878A0B10D4B1878DA
:10684000A0B90D4A526872B901221A700B4A106839
:10685000516801AB03C390681860094901A805F0AD
:106860007DF900EAE07005B05DF804FB0020FAE76E
:106870001F8500201E85002044420020643703004D
:10688000CD6E000008B5FDF7CDFF10B1024821F034
:10689000B3FC002008BD00BFB404002030B50E4C8E
:1068A0000E4D87B00022002302A9204621F034F9C2
:1068B00008B107B030BDDDF811009DF8153000902B
:1068C0008DF80430DDF80920DDF80D309DF8081052
:1068D000284600F031FCE5E7880B00206C880300B7
:1068E00070B503788AB004460E4607AD032B20D856
:1068F000DFE803F002191B1D11492846FAF724FCB2
:10690000059563780493A3780393E378029323793E
:10691000019363790093A3790A4A1E21304622F03D
:10692000BBFB0AB070BD0849E7E70849E5E708493D
:10693000E3E7084A0A21284622F0AEFBE0E700BF61
:106940008D700300B6700300947003009B70030009
:10695000A5700300AF70030008B5FDF773FF014693
:1069600004480378022B04D1BDE80840C9B224F0E2
:106970006DBA08BD4442002008B50A4B187018B122
:10698000BDE80840FFF756BF074B187005F036F911
:10699000064B1A78022A03D15868132126F02CFAE4
:1069A000002008BD1F8500201E85002044420020D5
:1069B0002DE9F041DFF8B8802C4D92B00022002381
:1069C00009A9404621F0A8F8044670B99DF82400B2
:1069D0009C2606FB00F3EA18EB5C022BEED19DF837
:1069E0002570012F04D0022F39D012B0BDE8F081FC
:1069F000B2F87830002BE1D0DDF83E308DF8103061
:106A00009DF842308DF811309DF84330CDF81B4091
:106A1000003B18BF01238DF81230DDF83630CDF879
:106A200013300DF12601DDF83A30CDF81730092288
:106A30000DF11B00CDF81F408DF8234023F079FDA8
:106A40009DF824000097CDE9014406FB0050142373
:106A5000B0F87810406804AA28F01BFBAEE79DF858
:106A6000261000FB065024F0F1F9A7E7444200206D
:106A7000480C002084B030B591B014AC84E80F000D
:106A80001348214640F6CD42002320F0E7FF04469C
:106A9000C8B110F10B0F10D10022002307A90C4838
:106AA00018AD21F039F80FCD6C460FC42B68238048
:106AB00014AB0FCBFFF7DEFF0446204611B0BDE854
:106AC000304004B07047034903482BF0A4FCF4E7BE
:106AD000480C002080040020701B0020034B5B68E2
